:1000000000000320D1010000255D0100DD5C01003E
:10001000DD5C0100DD5C0100DD5C0100DD5C0100F8
:10002000DD5C0100DD5C0100DD5C0100255D01009F
:10003000255D0100DD5C0100B94C0100BD4D0100F2
:10004000255D0100255D0100255D0100255D0100A4
:10005000255D0100255D0100255D0100255D010094
:10006000255D0100255D0100255D0100255D010084
:10007000255D0100255D0100255D0100255D010074
:10008000255D0100255D0100255D0100255D010064
:10009000255D0100255D0100255D0100255D010054
:1000A000759D0000819D0000255D0100255D01001A
:1000B000255D0100255D0100255D01008D680100C1
:1000C000255D01004D870100255D01007988010053
:1000D000255D0100F16E0100255D0100255D010037
:1000E000255D0100255D0100255D0100255D010004
:1000F000255D0100255D0100255D0100255D0100F4
:10010000DD860100F18601000587010019870100E5
:10011000255D010015770100255D0100255D0100C9
:10012000255D0100255D0100255D0100255D0100C3
:10013000255D0100255D0100255D0100255D0100B3
:10014000255D0100255D010061740100255D010050
:10015000255D0100255D0100255D0100255D010093
:10016000255D0100255D01008D9D0000255D0100DC
:10017000255D0100255D0100255D0100255D010073
:10018000255D0100F9000100255D0100255D0100EC
:10019000255D0100255D010071890100255D0100DB
:1001A000255D0100255D0100255D0100255D010043
:1001B000255D0100255D0100255D0100255D010033
:1001C000255D0100255D0100255D0100255D010023
:1001D0005C4B4CF2205210B51A804DF628121A8052
:1001E00000BF00BF15F0A2FD574B4FF030621A6000
:1001F000564A9A60564ADA60564B4FF470021A60BB
:10020000554B564A1A60564B1A78110703D51A787F
:1002100042F008021A70534B5349AA221A70534AEB
:10022000534B8B4204D252F8040F43F8040BF8E707
:10023000504B514900228B4202D243F8042BFAE77B
:100240004E494F4A002352F8230041F8230001335E
:10025000742BF8D14B4B4C4A802103F8011B93427D
:10026000FBD14A4B454A1A60494B8A221A70A3F5C2
:10027000805324225A70A0221A709A799207FCD5D2
:100280009A79D406FCD4434A937903F00C03082BE3
:10029000FAD1414B60221A7002331A78802AFCD1BD
:1002A0003C4B01221A715D225A719A799006FCD555
:1002B0009979384A4906FBD5384B394919600021EC
:1002C000596020231370937903F00C030C2BFAD19F
:1002D000344B354A1A60354A354C136813F4807331
:1002E00003D123604FF4A8531360324B324A1A6093
:1002F00000225A60072243F8042C304AC3F80C2D20
:1003000062B616F0FDF92368DA0705D52C4815F01A
:10031000B5FF2C4B2C4A1A602C4B1B785B0609D579
:10032000284C294B22689A4204D1254815F0A6FF93
:10033000002323601BF0CCFB15F0FEFC15F02CFC19
:10034000FEE700BF0E20054030800440823F0400DD
:100350000100002B88ED00E0002008E0030000858C
:1003600002D0074000E00740C818FF1F34650200B4
:10037000400CFF1FC818FF1F3C36FF1F0002FF1F65
:100380000000000000E400E064E400E008ED00E0AC
:10039000005006400040064001E007404480044011
:1003A0000000060204800440C010070010D0034083
:1003B00014D0034014E000E01FBF02000000202022
:1003C00095DA81601CE00340A5C3945A00F0074011
:1003D000FFFFFFFFFFFFFFFFFFFFFFFFFFFFFFFF2D
:1003E000FFFFFFFFFFFFFFFFFFFFFFFFFFFFFFFF1D
:1003F000FFFFFFFFFFFFFFFFFFFFFFFFFFFFFFFF0D
:10040000FFFFFFFFFFFFFFFFFFFFFFFFDEF9FFFF23
:1004100010B5054C237833B9044B13B10448AFF33E
:1004200000800123237010BDC818FF1F00000000CA
:1004300030650200084B10B51BB108490848AFF3FE
:1004400000800848036803B910BD074B002BFBD0A0
:10045000BDE81040184700BF00000000CC18FF1F87
:1004600030650200C818FF1F000000000020704720
:10047000027C02F0080202F0FF0332B1C36A406A54
:10048000181A48BF6FF0004070471846704700BF09
:100490000020704701207047034BD8691A79431E2A
:1004A0005002A3FB000170478C1BFF1F15F0E0BE3C
:1004B00000B583B001220DF10701103010F0B2FB3E
:1004C00001280CBF9DF807004FF0FF3003B05DF826
:1004D00004FB00BF103010F0A9BC00BF103010F0BA
:1004E00015BE00BF103010F017BE00BF00B583B0BE
:1004F00002AB012203F8011D1030194610F00CFE6A
:1005000003B05DF804FB00BF503010F005BE00BF23
:1005100038B5074C204611F0F1FC02462079410223
:10052000A1FB0245D31701FB03552046294638BDE0
:100530008C1BFF1F002A2CDD2DE9F84300251646F1
:100540000F460446A846606820B917F03FFE606079
:100550000028FAD030F8083B721BC3F140099145DE
:10056000A8BF9146791918444A4615F01DFB6168E9
:100570000B884B449BB2402B4D440B8003D0AE42C2
:10058000E1DCBDE8F883042017F082F8C4F80480A9
:10059000F5E770472DE9F043C56F95B0FDB1DFF881
:1005A000BC900446636FAB424DD3267D26B304F165
:1005B000140805EB85010901404610F0ABFC6946C3
:1005C0004046502210F02EFB9DF80E1094F880202B
:1005D00052B1029BE36719B9E56F002DE2D1002506
:1005E000284615B0BDE8F083E36F606F01338342A6
:1005F000E36728BFE267EEE74FF47A7744F202231D
:10060000144A15498DF810608DF811608DF804605A
:100610008DF80C6004A804AE0297CDF8009010F09D
:100620009FFA0FCE04F1140847460FC70FCE0FC72D
:1006300030689DF80410029A9DF80C3038602172E1
:10064000E2602374B5E70021502268461BF04EFE9D
:100650000021BBE778270200C81FFF1F002102000E
:10066000436F99423FD82DE9F041057D94B00F4684
:10067000044685B100F1140807EB870109014046E3
:1006800010F048FC40465022694610F0CBFA019821
:1006900014B0BDE8F0814FF47A7E144E144A154927
:1006A0008DF8105044F202238DF811508DF804504B
:1006B0008DF80C5004A804AD0096CDF808E010F0B9
:1006C0004FFA0FCD04F1140846460FC60FCD0FC6E2
:1006D00028689DF80410029A9DF80C303060217251
:1006E000E2602374C8E70020704700BF00210200C9
:1006F00078270200C81FFF1F2DE9F0470C46416F05
:100700008C4294B0924699464FD8067D054626B352
:1007100000F1140804EB84010901404610F0FAFBD3
:1007200050226946404610F07DFA50460DF10E0108
:10073000009D9DF80C401CF051FA1C9B1D602CB9CB
:10074000019BC9F8003014B0BDE8F0874FF0FF33CB
:10075000C9F8003014B0BDE8F0874FF47A7E1A4F24
:100760001A4A1B498DF8106044F202238DF811607B
:100770008DF804608DF80C6004A804AE0097CDF8E5
:1007800008E010F0EDF90FCE05F1140847460FC749
:100790000FCE0FC730689DF80410029A9DF80C30F8
:1007A00038602972EA602B74B4E750220021684651
:1007B0001BF09CFD50460DF10E011CF00FFA1C9A27
:1007C00000231360BCE700BF00210200782702006D
:1007D000C81FFF1F2DE9F0470446A2B05030D4F8DF
:1007E0006CA010F085F8E56B636F9D4273D8267D91
:1007F000002E48D004F1140805EB8501090140469C
:100800000DF1380910F086FB49465022404610F0A1
:1008100009FAE56B237DCDF83CA01BBB334E344A6F
:1008200034498DF814304FF47A778DF815308DF8FF
:1008300008308DF81030019644F2022305A805AE69
:10084000039710F08DF90FCE47460FC70FCE0FC795
:1008500030689DF80810039A9DF8103038602172B6
:10086000E260237405EB85010901404610F052FB5C
:1008700049464046502210F04FFC6FF00103E363FD
:1008800022B0BDE8F0874FF47A7E184F184A194914
:100890008DF8486044F202238DF849608DF83C6081
:1008A0008DF8446012A812AE0E97CDF840E010F01B
:1008B00057F90FCE04F1140847460FC70FCE0FC7E4
:1008C00030689DF83C10109A9DF8443038602172D1
:1008D000E260237490E70DF1380948465022002168
:1008E0001BF004FD04F1140894E700BF002102008E
:1008F00078270200C81FFF1F2DE9F043047D8FB049
:1009000007460E4691467CB100F1140806EB8601BD
:100910000901404610F0FEFA49464046502210F0C8
:10092000FBFB0FB0BDE8F0834FF47A7E124D134A03
:1009300013498DF8144044F202238DF815408DF8C8
:1009400008408DF8104005A805AC0195CDF80CE0E5
:1009500010F006F90FCC07F1140845460FC50FCC6F
:100960000FC520689DF80810039A9DF81030286084
:100970003972FA603B74C9E700210200782702004F
:10098000C81FFF1F2DE9F0434B6F93428FB0804685
:100990003CD30E7D0D46144686B101F1140904EBDB
:1009A00084010901484610F0B5FA484650224146F4
:1009B00010F038F940460FB0BDE8F0834FF47A7E6E
:1009C000164F174A17498DF8146044F202238DF828
:1009D00015608DF808608DF8106005A805AE0197C8
:1009E000CDF80CE010F0BCF80FCE05F114094F461D
:1009F0000FC70FCE0FC730689DF80810039A9DF8F7
:100A0000103038602972EA602B74C8E75022002148
:100A10001BF06CFC40460FB0BDE8F08300210200E3
:100A200078270200C81FFF1F2DE9F041436F99424C
:100A3000E4B0144600F29080077D05460E46002F74
:100A400000F0938000F1140806EB8601090140468E
:100A500010F060FA50224046694610F0E3F8009A20
:100A6000002A7ED014A82946FFF78CFF149A002A8A
:100A70004CD0294628A8FFF785FF289A002A00F0C5
:100A8000A58029463CA8FFF77DFF3C9A002A00F08C
:100A90009980294650A8FFF775FF5099002900F06A
:100AA000998028462246FFF7BFFF20461CF008F930
:100AB000231813F8013C2F2B02D0484B1B882352DC
:100AC0000DF5A77120461BF093FE20461CF0F8F8A8
:100AD000231813F8013C2F2B02D0404B1B882352C4
:100AE0000DF1FE0120461BF083FE20461CF0E8F8C5
:100AF000231813F8013C2F2B02D0384B1B882352AC
:100B00000DF1AE0120461BF073FE02E0334B1B8853
:100B1000238020461CF0D4F8231813F8013C2F2B17
:100B200002D02E4B1B8823520DF15E0120461BF094
:100B30005FFE20461CF0C4F8231813F8013C2F2B4D
:100B400002D0264B1B88235220460DF10E011BF0CC
:100B50004FFE64B0BDE8F0815022002168461BF0D2
:100B6000C5FB1E4B1B882380E3E7DFF87CE01C4AB3
:100B70001C498DF850714FF47A7C44F202238DF8B1
:100B800051718DF844718DF84C7154A854AFCDF863
:100B900040E1CDF848C10FF0E3FF0FCF05F1140895
:100BA000C646AEE80F000FCFAEE80F0038689DF8DC
:100BB0004411529A9DF84C31CEF800002972EA6037
:100BC0002B7441E7054B1B8823807EE7034B1B8872
:100BD00023808AE7014B1B88238066E78827020071
:100BE00078270200C81FFF1F002102002DE9F047EF
:100BF000B1F1FF3F01EB81094FEA0919ADF5986D9D
:100C00008846DFF81CA3044608BF4FF0000920E027
:100C100004F114074946384610F07CF95022384652
:100C20000DEB02010FF0FEFF50220DEB02016846B2
:100C300014F0BAFF9DF80C202046002A40D0019BFA
:100C40001946002B3CD023681B6B9847002800F006
:100C50000B81B8F1FF3F02D0636F984529D8257DFD
:100C6000002DD5D14FF47A7644F20223A94AAA493D
:100C70008DF8D0538DF8D1538DF8C4538DF8CC53E3
:100C8000F4A8F4ADF296CDF8C0A30FF069FF0FCD34
:100C900004F114073E460FC60FCD0FC628689DF815
:100CA000C413F29A9DF8CC3330602172E260237451
:100CB000B0E7502200210DEB02001BF017FBB3E759
:100CC000B8F1FF3F00F0DC80B8F1000F00F07D814B
:100CD000424628A82146FFF755FE289A002A00F030
:100CE000D4803CA82146FFF74DFE3C9A002A00F034
:100CF000798150A82146FFF745FE509A002A00F05E
:100D00008B8164A82146FFF73DFE649A002A00F01B
:100D10007D8178A82146FFF735FE789A002A00F0F9
:100D200081818CA82146FFF72DFE8C9A002A00F0C5
:100D30007F81A0A82146FFF725FEA09A002A00F097
:100D40007D81B4A82146FFF71DFEB49A002A00F069
:100D50007B81C8A82146FFF715FEC89A002A00F03B
:100D600079810DF55C7921464846FFF70BFED9F8ED
:100D70000010F0AD002900F073812A462046FFF7ED
:100D800053FE28461BF09CFF0DF2BF36335C2F2B21
:100D900002D0624B1B882B520DF27E3128461BF08D
:100DA00027FD28461BF08CFF335C2F2B02D05B4BBA
:100DB0001B882B520DF22E3128461BF019FD2846B8
:100DC0001BF07EFF335C2F2B02D0544B1B882B5221
:100DD0000DF2DE2128461BF00BFD28461BF070FFAC
:100DE000335C2F2B02D04D4B1B882B520DF28E21E2
:100DF00028461BF0FDFC28461BF062FF335C2F2BBE
:100E000002D0464B1B882B520DF23E2128461BF088
:100E1000EFFC28461BF054FF335C2F2B02D03F4BD6
:100E20001B882B520DF5F77128461BF0E1FC284674
:100E30001BF046FF335C2F2B02D0384B1B882B5204
:100E40000DF5CF7128461BF0D3FC28461BF038FF68
:100E5000335C2F2B02D0314B1B882B520DF5A77121
:100E600028461BF0C5FCC2E000200DF5986DBDE8DA
:100E7000F087029BC993C8AA31462046FFF73CFD84
:100E800001200DF5986DBDE8F087F0AD2F232B8084
:100E90000DF2BF3628461BF013FF335C2F2B02D018
:100EA0001E4B1B882B520DF1AE0128461BF0A0FCF7
:100EB0009DF80C20002A00F0838000260DF55C7957
:100EC0002A464846334614498DF870638DF871639D
:100ED0000FF046FE0028C7D048460FF0EFFF00286D
:100EE000C2D0009E00236A46414620468DF80E304F
:100EF000FFF702FD3246C8A82146FFF743FDC99D12
:100F0000A845B6D0002DBBD0DFF814A00DF55C7954
:100F100020E000BF78270200C81FFF1F88270200BB
:100F20000021020004F1140705EB85010901384690
:100F30000FF0F0FF3846502249460FF073FE502262
:100F40004946C8A814F030FECA9B984541D01D46BA
:100F5000002B95D0636FAB422CD3267D002EE1D1C0
:100F60004FF47A7744F202233F4A40498DF8E06219
:100F70008DF8E1628DF8D4628DF8DC62B8A8B8AE65
:100F8000B697CDF8D0A20FF0EBFD0FCE04F1140709
:100F9000BE46AEE80F000FCEAEE80F0030689DF8F9
:100FA000D412B69A9DF8DC32CEF800002172E260CD
:100FB0002374B9E75022002148461BF097F9BEE799
:100FC00029462A480FF066FF89E7F0AD2F232B80D2
:100FD00070E7029BCA932046C8AA2946FFF78CFCFB
:100FE000012042E7F0AD2F232B800DF2BF362846BB
:100FF0001BF066FE335C2F2B02D01D4B1B882B523F
:101000000DF1FE0128461BF0F3FB43E7F0AD2F2363
:101010002B800DF2BF360AE7F0AD2F232B800DF2A7
:10102000BF3612E7F0AD2F232B800DF2BF36F0E66E
:10103000F0AD2F232B800DF2BF36DCE6F0AD2F2371
:101040002B800DF2BF36C8E6F0AD2F232B800DF2BA
:10105000BF36B4E6F0AD2F232B800DF2BF36A0E6ED
:101060002F232B808DE600BF78270200C81FFF1FAB
:10107000882702002DE9F043C36B8B42ADF5397D23
:1010800004D190F83830934200F09580914688461C
:101090000646002963D00A4668463146FFF772FCCF
:1010A000009A002A00F0AE8014A83146FFF76AFCCF
:1010B000149A002A00F0838028A83146FFF762FCCA
:1010C000289A002A00F0A5803CA83146FFF75AFC78
:1010D0003C9A002A00F0B98050A83146FFF752FC34
:1010E000509A002A00F0AA8064AF31463846FFF7D4
:1010F00049FC396878AD002900F0AE802A463046B8
:10110000FFF792FC28461BF0DBFD0DF2DF14235C99
:101110002F2B02D0524B1B882B520DF5CF71284636
:101120001BF066FB28461BF0CBFD235C2F2B02D067
:101130004B4B1B882B520DF5A77128461BF058FB13
:1011400028461BF0BDFD235C2F2B02D0444B1B888F
:101150002B520DF1FE0128461BF04AFB5FE078ADF3
:101160002F232B8064AF06F1500420460FF0C0FB04
:1011700000232A464FF47A713A4D3B747B743B71DD
:101180003B73B9604B4638493D6068A868AD0FF0C5
:10119000E7FC0FCD0FC40FCD0FC428683979BA68AA
:1011A0003B7B2060C6F83C8086F8389086F8441077
:1011B000B26486F84C300DF5397DBDE8F08378AD2A
:1011C0002F232B8064AF0DF2DF1428461BF078FD2F
:1011D000235C2F2B02D0224B1B882B520DF15E017A
:1011E00028461BF005FB28461BF06AFD235C2F2BCD
:1011F00002D01B4B1B882B520DF10E0128461BF011
:10120000F7FAB0E778AD2F232B8064AF0DF2DF142F
:10121000E9E778AD2F232B8064AF0DF2DF14284669
:101220001BF04EFD235C2F2B02D00D4B1B882B5245
:101230000DF1AE0128461BF0DBFAC6E778AD2F238F
:101240002B8064AF0DF2DF146CE778AD2F232B8079
:1012500064AF0DF2DF1473E72F232B8052E700BF3A
:101260008827020000210200C81FFF1FF8B50446AE
:10127000174650340022069E1D46FFF7FBFE3946F6
:1012800020460FF047FE324629462046BDE8F8408A
:101290000FF0C8BCF0B5B1F1FF3F14BF0E460026F9
:1012A000ADF2C44D1D460146044617466846324617
:1012B000FFF768FB28461BF003FD3E2804D90025F4
:1012C00028460DF2C44DF0BD421C29460DF15E00CA
:1012D00014F06AFC656F019A16926B1C6367002319
:1012E0002946159314AA0123204614968DF85C70A4
:1012F0008DF85D30FFF700FB6A46314620460195C8
:10130000FFF7FAFA4FB9204644F202222946FFF7C6
:10131000B1FE28460DF2C44DF0BD002D00F0E68070
:101320002A4628A82146FFF72DFB289A002A00F01C
:10133000F5803CA82146FFF725FB3C9A002A00F0E7
:10134000E68050A82146FFF71DFB509A002A00F0C6
:10135000EC8064A82146FFF715FB649A002A00F090
:10136000EB8078A82146FFF70DFB789A002A00F061
:10137000EA808CA82146FFF705FB8C9A002A00F032
:10138000E980A0A82146FFF7FDFAA09A002A00F004
:10139000E880B4A82146FFF7F5FAB49A002A00F0D5
:1013A000E780C8A82146FFF7EDFAC89A002A00F0A6
:1013B000E680DCAF21463846FFF7E4FA3968F0AE44
:1013C000002900F0E38020463246FFF72DFB30462F
:1013D0001BF076FC0DF2BF34235C2F2B02D06D4B3B
:1013E0001B8833520DF27E3130461BF001FA304635
:1013F0001BF066FC235C2F2B02D0664B1B883352FC
:101400000DF22E3130461BF0F3F930461BF058FC3C
:10141000235C2F2B02D05F4B1B8833520DF2DE2151
:1014200030461BF0E5F930461BF04AFC235C2F2BBD
:1014300002D0584B1B8833520DF28E2130461BF0E0
:10144000D7F930461BF03CFC235C2F2B02D0514BCC
:101450001B8833520DF23E2130461BF0C9F930464D
:101460001BF02EFC235C2F2B02D04A4B1B883352DF
:101470000DF5F77130461BF0BBF930461BF020FC30
:10148000235C2F2B02D0434B1B8833520DF5CF71B9
:1014900030461BF0ADF930461BF012FC235C2F2BBD
:1014A00002D03C4B1B8833520DF5A77130461BF020
:1014B0009FF930461BF004FC235C2F2B02D0354BE8
:1014C0001B8833520DF1FE0130461BF091F9304676
:1014D0001BF0F6FB235C2F2B02D02E4B1B883352C4
:1014E0000DF1AE0130461BF083F903E0F0AE2F237F
:1014F0003380DCAF002432463846012326493C7055
:101500007C700FF0CFFA28460DF2C44DF0BDF0AE5E
:101510002F233380DCAF0DF2BF34CAE7F0AE2F23A8
:101520003380DCAF0DF2BF34D1E7F0AE2F23338030
:10153000DCAF0DF2BF34AEE7F0AE2F233380DCAF6B
:101540000DF2BF3499E7F0AE2F233380DCAF0DF2FC
:10155000BF3484E7F0AE2F233380DCAF0DF2BF340D
:101560006FE7F0AE2F233380DCAF0DF2BF345AE7C4
:10157000F0AE2F233380DCAF0DF2BF3445E7F0AE81
:101580002F233380DCAF0DF2BF3430E72F233380BD
:101590001DE700BF88270200C81FFF1F2DE9F04F7D
:1015A00090F878400126C5B0054680F87960002C97
:1015B00000F00E816B6F002B00F007814FF00008E8
:1015C000474606E06B6F0137BB4208F1500840F216
:1015D000FC80BB42F7D32C7D002C00F0CC8005F1C1
:1015E0001406414630460FF095FC1CA950223046A7
:1015F0000FF018FB9DF87C30002BE3D09DF87D4068
:10160000002CDFD1224639462846FFF733FD95F8F6
:101610005030002BD6D0A24605F15009019758E072
:10162000A2420CBF23460123019A08BF0D9C3092B1
:101630008DF8CC30402200230DF1CE0106A8319464
:101640008DF8CD30CDF8C8A00FF086FE6C6F95F800
:1016500014E0631C6B67BEF1000F2BD14FF47A7C52
:1016600044F202237D4A7E497E4F8DF84CE013A858
:101670008DF84DE08DF840E08DF848E0CDF844C09D
:101680000F970FF06DFA0DF14C0EBEE80F00B44647
:10169000ACE80F00BEE80F00ACE80F00DEF8000079
:1016A0009DF84010119A9DF84830CCF8000029723E
:1016B000EA602B7404EB8401090130460FF02AFC28
:1016C000502230A930460FF027FD06A8A2460FF0A1
:1016D0000FF90024634B029322464FF47A7B49466C
:1016E00006A88DF818408DF819408DF80C408DF83B
:1016F0001440CDF810B00FF0C9FC9DF8183003F07D
:101700007002002B8CD12C7D019FCDF874A0012399
:101710008DF87D302CBB8DF8D0408DF8D1408DF800
:10172000C4408DF8CC404F4C4C4A4D49309444F263
:10173000022334A834ACCDF8C8B00FF011FA0FCCA6
:10174000B646AEE80F000FCCAEE80F0020689DF85B
:10175000C410329A9DF8CC30CEF800002972EA60AD
:101760002B74414630460FF0D5FB1CA93046502261
:101770000FF0D2FC26E78DF8D0408DF8D1408DF8DF
:10178000C4408DF8CC40374C344A354930944FF43E
:101790007A7644F2022334A834AC32960FF0E0F9A2
:1017A0000FCC05F11406B646AEE80F000FCCAEE83C
:1017B0000F0020689DF8C410329A9DF8CC30CEF806
:1017C00000002972EA602B740BE745B0BDE8F08F8A
:1017D00080F87860214922480FF05CFB2F7D30941F
:1017E0002F23329431948DF8CC608DF8CD406E6704
:1017F000ADF8CE305FB105F11407002138460FF087
:1018000089FB3846502230A90FF086FCD2E6154CF1
:10181000124A13491C944FF47A7644F2022320A80A
:1018200020AC8DF880708DF881708DF874708DF813
:101830007C701E960FF094F90FCC05F114073E460C
:101840000FC60FCC0FC620689DF874101E9A9DF825
:101850007C3030602972EA602B74CEE77827020072
:10186000C81FFF1F002102002DE9F04FC3B00A4638
:101870000546894601461AA8FFF784F89DF874309A
:1018800013B19DF8754014B143B0BDE8F08F224606
:1018900049462846FFF7EEFB95F85030002BF3D071
:1018A000DFF808A1274605F1500B0FE005F11408F9
:1018B00004EB8401090140460FF02CFB4046502206
:1018C0002EA90FF029FC04A80FF012F84FF47A7338
:1018D0000022594604A802938DF810708DF81170FB
:1018E0008DF804708DF80C70CDF800A00FF0CEFBD1
:1018F0009DF8103003F07002002B47D0002A14BF6F
:10190000012300238DF8C4304FF0400208BF0B9B29
:10191000309418BF00230DF1C60104A82F93CDF811
:10192000B8908DF8C5700FF017FD6C6F2E7D631C9D
:101930006B67002EBAD14FF47A7E44F20223194A23
:1019400019498DF844608DF845608DF838608DF840
:10195000406011A811AECDF83CE0CDF834A00FF0F6
:10196000FFF80FCE05F11408C646AEE80F000FCE03
:10197000AEE80F0030689DF838100F9A9DF840309F
:10198000CEF800002972EA602B7491E701231AAAAD
:10199000494628461B948DF87530FEF7ADFF43B0DD
:1019A000BDE8F08F78270200C81FFF1F002102004A
:1019B0002DE9F04190F87860A2B004460D46FEB1E2
:1019C0009DB16B1C08BF002529462046FFF74CFF40
:1019D000012384F880302A4621460EA8FEF7D2FF64
:1019E0000F9BE36722B0BDE8F08194F8793053B3E0
:1019F0000022012384F88020E36722B0BDE8F08153
:101A0000012780F87870284928480FF043FA94F8A5
:101A100014E08DF844702F2367670E9610960F968A
:101A20008DF84560ADF84630BEF1000F14D004F1DA
:101A30001408002140460FF06DFA404650220EA9CE
:101A40000FF06AFBBCE72046FFF7A8FD0022012348
:101A500084F88020E367D0E7154E134A13490196B6
:101A60004FF47A7744F2022305A805AE03978DF868
:101A700014E08DF815E08DF808E08DF810E00FF017
:101A80006FF80FCE04F1140847460FC70FCE0FC7EB
:101A900030689DF80810039A9DF810303860217264
:101AA000E2602374C5E700BF78270200C81FFF1F4C
:101AB000002102002DE9F0410B7882B00446002B92
:101AC0004BD008460E461BF0FBF8257A01308DF806
:101AD0000200002D50D0E3680133E3603278002A21
:101AE00036D0002705E0E3680233E36016F8012FE3
:101AF0004AB3ADF80620002DF5D1606820B916F084
:101B000065FB60600028FAD030F8083BC5F102029E
:101B1000C3F140089045A8BF904618440DF1060354
:101B20005919424614F040F861680B8843449BB24F
:101B3000402B45440B801AD0012DDEDD16F8012F15
:101B4000257A002AD5D10023ADF804303DB3E368EF
:101B50000233E36002B0BDE8F081027A8DF8033011
:101B6000AAB1C3680133C36002B0BDE8F0810420AC
:101B700015F08EFD6760DFE701220DF102012046BE
:101B8000FEF7D8FC3278257A002AAAD1DBE70122B9
:101B90000DF10301FEF7CEFC02B0BDE8F081204656
:101BA000022201A9FEF7C6FC02B0BDE8F08100BF29
:101BB00030B5037A91B064250446ADF82650002B69
:101BC00000F0A680C36806220233C3600F9204337C
:101BD0006422E360ADF824200233E3605A492046D2
:101BE000FFF768FF237A0022ADF82220002B00F0D7
:101BF000B580E3680E220233E3600E92043341F2B3
:101C00000102E360ADF82020023341F20202E360FA
:101C1000ADF81E20023341F20302E360ADF81C2050
:101C2000023341F20402E360ADF81A20023341F2BC
:101C30000502E360ADF81820023341F20602E360CA
:101C4000ADF81620023341F20702E360ADF814202C
:101C5000023341F20802E360ADF81220023341F290
:101C60000902E360ADF81020023341F20B02E36099
:101C7000ADF80E20023341F20C02E360ADF80C2007
:101C8000023341F20D02E360ADF80A20023341F263
:101C90001402E360ADF80820023341F21502E3605C
:101CA000ADF8062002330022E3600D9204330122D6
:101CB000E3600C9204334DF20242E360ADF804207D
:101CC00002330022E3600B9204330222E3600A92A3
:101CD00004334FF44052E360ADF80220023343F284
:101CE0000102E360ADF800200233E36020461749AB
:101CF000FFF7E0FE20461649FFF7DCFE20461549B7
:101D0000FFF7D8FE20461449FFF7D4FE11B030BDCE
:101D100002220DF12601FEF70DFC237A06220F9216
:101D2000002B40F0358104220FA92046FEF702FC6B
:101D3000237AADF82450002B40F02C81022209A90F
:101D40002046FEF7F7FB49E78C270200A027020098
:101D5000A8270200B0270200B427020002220DF1DA
:101D600022012046FEF7E6FB237A0E220E92002B7C
:101D700040F0128104220EA92046FEF7DBFB237AF5
:101D800041F20102ADF82020002B40F00781022231
:101D900008A92046FEF7CEFB237A41F20202ADF8F5
:101DA0001E20002B40F0FC8002220DF11E01204677
:101DB000FEF7C0FB237A41F20302ADF81C20002B92
:101DC00040F0F080022207A92046FEF7B3FB237AF9
:101DD00041F20402ADF81A20002B40F0E580022207
:101DE0000DF11A012046FEF7A5FB237A41F2050208
:101DF000ADF81820002B40F0D980022206A9204619
:101E0000FEF798FB237A41F20602ADF81620002B6C
:101E100040F0CE8002220DF116012046FEF78AFB2B
:101E2000237A41F20702ADF81420002B40F0C28063
:101E3000022205A92046FEF77DFB237A41F2080223
:101E4000ADF81220002B40F0B78002220DF11201F4
:101E50002046FEF76FFB237A41F20902ADF810200D
:101E6000002B40F0AB80022204A92046FEF762FB63
:101E7000237A41F20B02ADF80E20002B40F0A08037
:101E800002220DF10E012046FEF754FB237A41F2A7
:101E90000C02ADF80C20002B40F09480022203A924
:101EA0002046FEF747FB237A41F20D02ADF80A20E7
:101EB000002B40F0898002220DF10A012046FEF736
:101EC00039FB237A41F21402ADF80820002B7DD1B2
:101ED000022202A92046FEF72DFB257A41F21503C6
:101EE000ADF80630002D73D102220DF10601204617
:101EF000FEF720FB237A0D95002B6BD104220DA950
:101F00002046FEF717FB237A01220C92002B63D1A7
:101F100004220CA92046FEF70DFB257A4DF2024360
:101F2000ADF80430002D59D1022201A92046FEF758
:101F300001FB237A0B95002B52D104220BA92046DA
:101F4000FEF7F8FA237A02250A95002B4AD10422DB
:101F50000AA92046FEF7EEFA237A4FF44052ADF874
:101F600002209BB92A460DF102012046FEF7E2FA53
:101F7000237A43F20102ADF800202BB92A466946C4
:101F80002046FEF7D7FAB1E6E368ADE6E368A5E6DA
:101F9000E3681CE6E3681FE6E3682FE6E36833E6E0
:101FA000E36837E6E3683BE6E3683FE6E36843E679
:101FB000E36847E6E3684BE6E3684FE6E36853E629
:101FC000E36857E6E3685BE6E3685FE6E36863E6D9
:101FD000E36867E6E36869E6E3686BE6E3686FE693
:101FE000E36871E6E36873E630B504460068514A79
:101FF00003681B68934289B040F08F800422237AE3
:10200000ADF80620002B54D0E3680233E36020686B
:10201000494A03685B6893427AD10223257AADF876
:102020000A30002D62D0E36800220233E360ADF88D
:1020300008200233E3602068404A03689B689342AB
:1020400064D13F4BD8691A79431E5002A3FB0001AB
:10205000237ACDE90601002B42D0E3680833E36020
:102060002068384A0368DB6893425CD1344D2846C7
:102070000FF044FF2A795502C117A5FB002305FB89
:10208000013310461946237A04900591C3B1E368E1
:102090004FF0FF320833E36003920433E3602046DD
:1020A0002949FFF707FD20462849FFF703FD09B03E
:1020B00030BD02220DF106012046FEF73BFAA6E7ED
:1020C000082204A92046FEF735FA237A4FF0FF32A2
:1020D000039253BB042203A92046FEF72BFADEE746
:1020E000082206A92046FEF725FAB9E702220DF1DB
:1020F0000A012046FEF71EFA237AADF80850B3B95C
:10210000022202A92046FEF715FA94E798479FE7B6
:102110009847002881D1012380E7984701220028B1
:102120007FF46DAF6AE79847ADE7E368B5E7E3682A
:102130007FE700BF910400009504000099040000AF
:102140008C1BFF1F11050000B8270200643A020033
:102150002DE9F04F037A99B004460092002B00F06D
:10216000D68000230293DFF8C492AD4B0193E3685D
:102170000433E3602568019A2B681B69934240F0A1
:10218000378195F87860002E00F01A81009A134686
:10219000002A35D195F87930002B00F0B08100226B
:1021A000012385F88020EB67DFF8848225682B689F
:1021B0005B694B454ED1EE6FFEB10DF1100B6B6FAD
:1021C0009E4276D82F7D002F48D005F1140A06EBE9
:1021D0008601090150460EF09DFE50465022594698
:1021E0000EF020FD9DF81E0095F88020DAB1069BC8
:1021F000EB6708BBEE6F002EE1D119B0BDE8F08FA0
:10220000013208BF0023194628461E46FFF72CFB63
:10221000012385F880303246294604A8FEF7B2FB38
:10222000059BEB67C0E7EB6F696F01338B42EB6790
:1022300028BFEA670028DDD0002EDED0257A03967D
:10224000002D3DD0E36825680433E3602B685B69AB
:102250004B45B0D0284698470646EDE74FF47A7EC6
:1022600044F202236F4A70498DF820708DF8217076
:102270008DF814708DF81C7008A808AFCDF818E020
:10228000CDF810800EF06CFC0FCF05F1140AD64685
:10229000AEE80F000FCFAEE80F003B68CEF800307D
:1022A0009DF814302B72069BEB609DF81C302B744C
:1022B0008DE75022002158461AF018F8002093E7C5
:1022C0002E46606820B915F081FF60600028FAD0C2
:1022D00030F8083BC5F10402C3F140079742A8BF9C
:1022E0001746184403AB59193A4613F05DFC616870
:1022F0000B883B449BB2402B3D440B8002D0032D06
:10230000DFDD53E7042015F0C3F96660F7E7444BBF
:10231000056801931A462B681B69934240F0F380CD
:1023200095F87860002E00F08580009A002A63D12D
:1023300095F87930002B00F0EA800022012385F81F
:102340008020EB672568DFF8E4902B68DFF8E0A0D9
:102350005B694B454FF0000B40F09780EE6F1EB36A
:102360000DF110086B6F9E4200F2C2802F7D002F8E
:1023700000F08F8005F1140706EB8601090138464D
:102380000EF0C8FD3846502241460EF04BFC9DF839
:102390001E0095F88020002A64D0069BEB67002879
:1023A00069D1EE6F002EDDD1237ACDF808B0002B75
:1023B0007FF4DDAE042202A92046FEF7BBF8D9E681
:1023C000012785F87870174917480EF063FD2F2311
:1023D0008DF81C700496069605968DF81D60ADF874
:1023E0001E30314604AA6F672846FEF785FACDE60F
:1023F000009928469847D7E6511C14BF1646002678
:1024000031462846FFF730FA012385F880303246FE
:10241000294604A8FEF7B6FA059BEB6792E700BFD2
:10242000B119000078270200C81FFF1F95050000A2
:1024300000210200012785F87870374937480EF0EF
:1024400029FD2F238DF81C700496069605968DF8AD
:102450001D60ADF81E30314604AA6F672846FEF7AE
:102460004BFA62E7EB6F696F01338B42EB6728BF72
:10247000EA67002895D0002E96D025682B685B6906
:102480004B450BF1010B3FF469AF284698470646D0
:10249000F1E74FF47A7E44F202231F4A1F498DF878
:1024A000207008A88DF821708DF814708DF81C70BC
:1024B000CDF818E0CDF810A00EF052FB0DF1200E73
:1024C000BEE80F0005F11407BC46ACE80F00BEE8FB
:1024D0000F00ACE80F00DEF80030CCF800309DF8BB
:1024E00014302B72069BEB609DF81C302B7443E775
:1024F00050220021404619F0F9FE002049E7284605
:10250000FFF74CF84BE62846009998471AE728460B
:10251000FFF744F811E700BF78270200C81FFF1F2C
:102520002DE9F04304460068AA4B026895699D4274
:10253000E5B040F0228110AD0A4624AF014628469E
:10254000FEF720FA38460DF14E011AF047FB0DF167
:1025500014082B7B2A68C8F80020002B63D16B6815
:10256000049304AE237A01220692002B5ED0E36826
:10257000326804330132E36000F00A810022ADF8D2
:102580000C2002330022E360ADF80A2002333268E7
:10259000E3600E9204330022E360ADF808200233BA
:1025A0000022E3600D9204330022E3600C920433B6
:1025B0000022E3600B9204330022E3600A920433AA
:1025C0000022E360099204330022E360089204339E
:1025D000D8F80020E36007923268A2F1FF32B2FA25
:1025E00082F252090433E360ADF80E200233002278
:1025F000E3602A6004330022E3600F920433E36057
:1026000039462046FFF756FA20467349FFF752FA3B
:1026100020467149FFF74EFA20466F49FFF74AFA04
:1026200065B0BDE8F0834FF0FF3399E706A90422B7
:102630002046FDF77FFF336894F80890013343F29A
:10264000010318BF0023ADF80C30B9F1000F40F0C2
:10265000A88003A902222046FDF76CFF237AADF87B
:102660000A90002B40F09F8002220DF10A012046C3
:10267000FDF760FF237A32680E92002B40F09580C0
:102680000EA904222046FDF755FF237AADF80890E5
:10269000002B40F08C8002A902222046FDF74AFF61
:1026A000237ACDF83490002B40F083800DA90422CA
:1026B0002046FDF73FFF237ACDF83090002B7AD1EA
:1026C0000CA904222046FDF735FF237ACDF82C9083
:1026D000002B72D10BA904222046FDF72BFF237A91
:1026E000CDF82890002B6AD10AA904222046FDF7D4
:1026F00021FF237ACDF82490002B62D109A904226E
:102700002046FDF717FF237ACDF82090002B5AD1F1
:10271000042208A92046FDF70DFF237AD8F80020EF
:102720000792002B51D107A904222046FDF702FF92
:10273000336894F80880A3F1FF33B3FA83F35B099D
:10274000ADF80E30B8F1000F41D10DF10E010222AB
:102750002046FDF7EFFE267AC5F80080FEB929462F
:1027600004222046FDF7E6FE237A0F96ABB90FA9A7
:1027700004222046FDF7DEFE42E704AE24AF0DF151
:10278000140833463A46CDF80080A84710ADE9E674
:1027900043F20102ADF80C20F3E6E3682EE7E368AC
:1027A00028E7E368EDE6E368F0E6E368F2E6E3686D
:1027B000F5E6E368F7E6E368F9E6E368FBE6E36875
:1027C000FDE6E368FFE6E36801E7E36804E7E36842
:1027D0000CE700BFF9060000643A0200002A31D07D
:1027E0002DE9F04104460F4616464FF00008606898
:1027F00028B9042014F0A4FE60600028F9D04188B4
:1028000005886D1AB54228BF354637B108300144F6
:102810002A46384613F0C8F92F4460684388028876
:102820002B449BB29A42A6EB0506438003D0002EB0
:10283000DDD1BDE8F08115F0E9FCC4F80480002E7C
:10284000D5D1F6E7704700BF2DE9F04385B090463B
:1028500006460F46684611460A2299460C9C0D9D75
:1028600012F022FE6946504812F070FE684612F0DF
:10287000A9FDB8F1090F40F386800A22394668465F
:1028800012F012FE6946494812F060FE684612F0E6
:1028900099FD092F67DD0A223146684612F004FED1
:1028A0006946434812F052FE684612F08BFD092E2D
:1028B00049DD0A222946684612F0F6FD69463D4880
:1028C00012F044FE684612F07DFD092D2BDD0A2230
:1028D0002146684612F0E8FD6946374812F036FE98
:1028E000684612F06FFD092C0EDC3449684612F080
:1028F000A9FD3149684612F083FE01462E4812F0C8
:102900001DFE684612F05EFD0A224946684612F036
:10291000CBFD69462A4812F019FE684612F052FDB6
:1029200005B0BDE8F0832549684612F08BFD2149CA
:10293000684612F065FE01461E4812F0FFFD68462B
:1029400012F040FDC3E71D49684612F07BFD1849AF
:10295000684612F055FE0146154812F0EFFD684634
:1029600012F030FDA5E71549684612F06BFD0F49DE
:10297000684612F045FE01460C4812F0DFFD68463D
:1029800012F020FD87E70D49684612F05BFD06490D
:10299000684612F035FE0146034812F0CFFD684646
:1029A00012F010FD69E700BF4028FF1F5819FF1FF4
:1029B0002819FF1F481AFF1FE819FF1FC027020030
:1029C0001428FF1F2DE9F04383B00CF0B7FEDFF8A9
:1029D0006490DFF86480C9F800000CF09FFEC8F82E
:1029E00000000CF08BFE0F4F0F4E38600CF0B6FE5F
:1029F00030600CF0C3FE0D4D28600CF0CFFE2B684C
:102A000036680B4DD9F80020D8F800100446386815
:102A10008DE8480023462C60FFF716FF03B0BDE8A1
:102A2000F08300BF7819FF1F7019FF1F7419FF1F73
:102A3000B427FF1F9C28FF1F6C19FF1F70B5FA20D9
:102A40008AB013F00BFE934B9349944800241C600A
:102A50000CF02AFA4FF6E07190480BF067FB214624
:102A60008E480BF079FB0A2342F20E728C498B4898
:102A70000094AA250CF09EF845F2713187480BF0BE
:102A800055FB0095962328220A2184480BF0E2FB8F
:102A90004FF4A076294600954FF49B7328227F4877
:102AA0000BF0D8FBEE23BE2252217C4800960BF09F
:102AB000D1FB4FF6FF7179480BF038FB0095962358
:102AC00028220A2175480BF0DBFC294600954FF4BB
:102AD0009B73282271480BF0D3FCEE23BE225221B7
:102AE0006E4800960BF0CCFCA9254BF6F7516B48CD
:102AF0000BF01CFB0095952329220B2167480BF056
:102B0000BFFC009540F235132922AB2163480BF03E
:102B1000B7FC40F23F13BF2200935321ED235F48DF
:102B20000BF0AEFC4FF6FF715C480BF0FFFA45F27C
:102B300071315A480BF010FB3C2310225949574879
:102B400000940CF037F85A23282257495348009430
:102B50000CF030F83C23D0225449504800940CF03B
:102B600029F85A23B82252494C4800940CF022F814
:102B70007823B0224F49494800940CF01BF8D22327
:102B800074224D49454800940CF014F8F023582263
:102B90004A49424800940CF00DF84FF487736022C4
:102BA00040493E4800940CF005F821463B480BF0A4
:102BB000D3FA434B1D78002D40F092804FF47841BA
:102BC00036480BF0B3FA40F259130A223D49334814
:102BD00000950BF0EFFF0CF015FE022800F092803C
:102BE0004FF478412D480BF0A1FA002300930A22FC
:102BF0004FF4B973344929480BF0DCFF02AC06AD41
:102C000040F2BD1200924FF49B730A2123480BF04F
:102C100031FD2E4921480CF047F92D49204612F08C
:102C200011FC2C49204612F0EBFC002601462846F8
:102C300012F01CFC4FF4E17342F20E72294600962A
:102C400016480CF021F8284612F0BCFB204612F082
:102C5000B9FB2149204612F0F5FB2049204612F02D
:102C6000CFFC0146284612F001FC40F2D11342F29B
:102C70000E722946009609480CF006F8284612F014
:102C8000A1FB204612F09EFB034904480CF00CF90E
:102C90000AB070BD3C28FF1F84460200F819FF1FD0
:102CA000C4270200D4270200E0270200E827020020
:102CB000F0270200F8270200042802000C28020076
:102CC000881BFF1F18280200382802000C4202004F
:102CD00060280200D419FF1F7C2802008828FF1FEB
:102CE0004FF4FC6136480BF021FA40F259130A22E6
:102CF0003449334800940BF05DFF0CF083FD02284B
:102D00007FF46EAFFFF75EFE002640F2FF712C48A5
:102D10000BF00CFA4FF4B9730A2200962A4928489E
:102D20000BF048FF02AC4FF6FF7125480BF0FEF99F
:102D30002046264912F09AFB2046254912F068FCED
:102D4000244912F05DFC224912F062FC224912F083
:102D500057FC06AD0146284612F088FB4FF4C373BA
:102D60000A222946009616480BF08EFF284612F0DC
:102D700029FB204612F026FB2046184912F076FB6C
:102D80002046174912F044FC164912F039FC144948
:102D900012F03EFC144912F033FC0146284612F0B2
:102DA00065FB29464FF4CD730A22009604480BF0C8
:102DB0006BFF284612F006FB204612F003FB1FE7CC
:102DC000F819FF1F2C2802004C2802001428FF1FAE
:102DD0005C280200E819FF1F481AFF1F2819FF1F6F
:102DE000CC3902005819FF1F4028FF1F2DE9F0437E
:102DF0008FB006A8002112F025FB03AFDFF8648036
:102E0000C7F18005C7F1E0090DF115063C46281908
:102E100012F07AFE04F8010BB442F8D139460AA840
:102E200012F010FB0AA906A812F090FB0AA812F0F3
:102E3000C9FA00230922694606A812F00DFC1022E7
:102E4000002168461BF030F9203548F8040B0520B6
:102E500013F004FC4D45D9D106A812F0B3FA0FB017
:102E6000BDE8F0838C24FF1F30B52B4C83B04FF4AA
:102E7000EB75204600210BF059F9204600954FF4E0
:102E80009B734FF4CD72A0210BF058FB204645F206
:102E900071310BF04BF9009520464FF49B734FF4C2
:102EA000CD72DC210BF0D6F920464FF6FF710BF006
:102EB0003DF9009520464FF49B734FF4CD72DC2111
:102EC0000BF0DEFA20464BF6F7510BF02FF940F2EB
:102ED000D51340F29B1220460093DD2140F23513BA
:102EE0000BF0CEFA204645F271310BF035F9002592
:102EF00020464FF6FF710BF019F9204600954FF46C
:102F0000D873E92205490BF055FE2946204603B047
:102F1000BDE830400BF020B9F819FF1F90280200DF
:102F20002DE9F04F4FF0000985B080464F466048CC
:102F30000CF0D2F958B9002FF9D0B9F1000F00F018
:102F40009B805B4801270CF0C7F90028F3D0584854
:102F50000CF0E4F856480CF0D5F9A0F10A0B8246C3
:102F600053480CF011FABBF1280F064634D8B8F1DB
:102F7000000F31DD342401250FE00BF0D7F804F108
:102F800024030093224630230C214A4801350BF0DC
:102F900061F9A84504F132041EDBA31E9E424FF0E6
:102FA0000001444804F12602E7DB9642E5DC4FF4D9
:102FB000FC610BF0BBF804F124030093224630239C
:102FC0000C213C480BF046F903950135A8454FF01C
:102FD000010704F13204E0DAA6F5CD763C2E44D8A0
:102FE000AAF1F00ABAF1460F3CD8002F9FD0002179
:102FF00030480BF09BF840F29913009319224FF4DC
:103000009B730A212B480BF099FA4FF4EB734FF4A2
:10301000CD720093DC214FF49B7326480BF08EFA9F
:1030200000244FF6797123480BF080F84FF4CD73EC
:10303000A02221491F4800940BF0BCFD4FF4D77328
:10304000A0221E491B4800940BF0B4FD00944FF4DD
:10305000E173A0221A4917480BF0ACFDB9F1000F3B
:103060000ED11EE0BBF16C0F15D9002F3FF45FAFFE
:10307000B9F1000F7FF465AF4C46FFF7F5FE34B1B0
:10308000C82013F0EBFA039805B0BDE8F08F4FF0BD
:1030900001094F464BE737B1B9F1000F05D1CDF823
:1030A0000C900124E9E70397EAE700230393E7E79D
:1030B000CC27FF1FF819FF1F98280200A028020044
:1030C0009431020008B505480AF0C6FFC82013F085
:1030D000C5FABDE80840FFF7B1BC00BFF819FF1FF3
:1030E000002A12DDF8B50546002017460E460446B4
:1030F000315D2844013412F021FDE4B20A2013F0BE
:10310000ADFABC422046F3DBF8BD7047F0B5002AAB
:103110008BB018DD0E46920002A906EB020E0F4698
:1031200056F8044B019401AB3C4613F8015B04F8DC
:10313000015B8B42F9D1764507F10407F0D1FFF727
:10314000CFFF0BB0F0BD920002A9F8E7F0B5B94C83
:103150000FCCB7B01EAD0FC50FCC0FC594E80F0054
:1031600004F1100685E80F000FCE00272AAD8DF878
:1031700008700FC50FCE0FC596E80F00403485E8E4
:103180000F000FCC16AD0FC594E80F004FF0000EE6
:10319000CDF814E0CDF818E085E80F00A6488DF8CA
:1031A00010708DF811700AF057FFA449A248A44E80
:1031B0000BF07AFE4FF6E0719F480AF0B7FF462306
:1031C00042F20E729F499C4800970BF0F3FC39467F
:1031D0000AA812F037F9334606F10C000EAA13F8CC
:1031E000011B02F8011B9842F9D10C220EA92020E4
:1031F000FFF776FF07AD2024204612F085FC01344E
:103200002C2C05F8010BF7D107A90EA812F01AF91A
:103210000EA90AA812F09AF90EA812F0D3F800230A
:103220000C2207A90AA812F017FA854907A819F075
:103230006BFB0546642013F011FA834B0EAA581D50
:1032400013F8011B02F8011B9842F9D105220EA9BF
:103250000020FFF745FF642013F000FA012202A9C5
:103260004FF4A070FFF73CFF1EAF4FF400743A68B4
:10327000D7F804E0BB680E922046203403220EA942
:10328000A4B2CDF83CE01093FFF740FFB4F5207FE7
:1032900007F10C07EBD16420002413F0DFF90422BE
:1032A0000EA94FF440700E940F9410941194FFF7F0
:1032B0002DFF04220EA94FF448700E940F94109421
:1032C0001194FFF723FF642013F0C8F92AAF4FF4DD
:1032D00080643A68D7F804E0BB680E922046203438
:1032E00003220EA9A4B2CDF83CE01093FFF70EFF25
:1032F000B4F5906F07F10C07EBD1642013F0AEF931
:103300007379302B0CD000234FF4C06003220EA938
:103310000E930F931093FFF7F9FE642013F09EF9BC
:10332000F37A302B08D04FF40060012205A9FFF793
:10333000EDFE642013F092F9012206A94FF4066015
:10334000FFF7E4FE642013F089F916AE4FF4E06451
:10335000326873680E922046203402220EA9A4B26D
:103360000F93FFF7D3FEB4F5F06F06F10806EFD127
:1033700036AC022204A94FF420600027FFF7B0FE0C
:1033800004F8CC7D0122164621464FF41A60FFF75F
:10339000A7FE2146324640F605108DF80C60FFF777
:1033A0009FFE3246214640F61510FFF799FE324641
:1033B000214640F61610FFF793FE03231A462146D6
:1033C0004FF410608DF80C30FFF78AFE324621462C
:1033D00040F60110FFF784FE0423214632464FF4E5
:1033E00011608DF80C30FFF77BFEADB94FF47841DA
:1033F00011480AF09BFE0095462342F20E721349D3
:103400000D480BF0D7FB40F6B83013F027F90AA8A7
:1034100011F0D8FF37B0F0BD4FF4FC6106480AF058
:1034200085FE0097462342F20E72094902480BF0CE
:10343000C1FBE8E758210200F819FF1F844602008B
:10344000480CFF1FAC2802005C0CFF1FCC280200B8
:10345000B82802002DE9F047624882B00AF0FCFD6E
:103460004FF4FA7013F0FAF85F495E4800240BF04D
:103470001BFD4FF6E0715B480AF058FE234642F20E
:103480000E720094594957480BF094FB4FF4EB75BA
:103490004FF4484153480AF049FE76234FF4CD7269
:1034A0000A21504800950AF0D5FE4FF6FF714D48AD
:1034B0000AF03CFE76234FF4CD720A21494800956C
:1034C0000AF0DEFF4BF6F75146480AF02FFE40F2B5
:1034D000D51340F29B1200930B21752341480AF04B
:1034E000CFFF4FF448413F480AF036FE4FF6FF71D8
:1034F0003C480AF01BFE4FF4D873102200943C495C
:1035000038480BF057FB214636480AF025FE4FF6A7
:10351000797134480AF00AFE00944FF4CD73A0226A
:10352000344930480BF046FB00944FF4D773A02287
:1035300031492C480BF03EFB4FF4E173A02200947C
:103540002E4928480BF036FB40F2FF7125480AF05F
:10355000EDFD19230A220094294922480BF02AFB89
:103560004FF6FF711F480AF0E1FD00943E233C2214
:1035700024491C480BF01EFB009470233C22224976
:1035800018480BF017FB0094A2233C221F49154852
:103590000BF010FB4FF6FF7112480AF0C7FD322402
:1035A00004F12803224600930A2132230D480AF031
:1035B00067FF04F127030093621C31230B2132348F
:1035C00008480AF05DFFC82CEAD10320FFF7A8FCE9
:1035D000032800F2DD83DFE810F026019601910157
:1035E0002B0100BFF819FF1F84460200D8280200F3
:1035F000E828020098280200A02802009431020066
:10360000F028020000290200082C02000C29020008
:10361000C04C3123E371C04BC04A1968C048002335
:103620000DF09EFABF4B05461870002840F0348319
:10363000BB480DF05DF92946BB480AF077FD40F222
:10364000DF1300931E224FF49B730A21B6480AF041
:1036500075FF422731232D22302640F2FF71B248F8
:103660002770A37023726672A2720AF05FFD462370
:1036700042F20E720095AD49AB480BF09BFA4FF643
:10368000FF71A9480AF052FD0095642342F20E72C0
:10369000A049A5480BF08EFA4FF0DC0A4FF0CD0997
:1036A0004FF0BE08AA279B268C250024A0499E48DF
:1036B0000BF0FAFB2B460A229E499B4800940BF024
:1036C00079FA33460A229C49974800940BF072FA23
:1036D0003B460A229949944800940BF06BFA434602
:1036E0000A229749904800940BF064FA4B460A224C
:1036F00094498D4800940BF05DFA53460A22924992
:10370000894800940BF056FA904987480BF0CCFB9F
:103710004FF4EB7545F2713183480AF007FD4FF421
:103720009B734FF4C3720095AA217F480AF092FD63
:103730004FF448417C480AF0F9FC96234FF4C372D9
:1037400000950A2178480AF085FD4FF6FF7176480A
:103750000AF0ECFC00954FF49B734FF4C372AA215E
:1037600071480AF08DFE96234FF4C37200950A212A
:103770006D480AF085FE40F2D5154BF6F7516A48C0
:103780000AF0D4FC40F2351340F28712AB216648B0
:1037900000950AF075FE952340F287120B216248CE
:1037A00000950AF06DFE4FF6FF715F480AF0BEFC0F
:1037B00045F271315C480AF0CFFC4FF4D373D0224C
:1037C0006349594800940BF0F5F94FF448415648C5
:1037D0000AF0C2FC5F49544800944FF4D37320228E
:1037E0000BF0E8F9214650480AF0B6FC5A480BF0B5
:1037F00073FD0028FAD058480BF090FC56480BF0A7
:1038000081FD044654480BF0BFFDA0F59B70A02835
:10381000A4F10A03EAD88C2BA4F1AA0403D98C2CB6
:10382000E4D8FFF793FC02B0BDE8F047FFF74ABCCD
:10383000384C3323E3720025002440F2FF713A48EC
:103840000AF074FC19230A220094444936480BF00C
:10385000B1F94FF6FF7134480AF068FC3E233C2270
:1038600000943F4930480BF0A5F931492E480BF040
:103870001BFB3E23CC2200943A492B480BF09AF9CB
:10388000324929480BF010FB009470233C22364942
:1038900025480BF08FF90094A2233C22334922489B
:1038A0000BF088F94FF6FF711F480AF03FFC3224F5
:1038B00004F12803224600930A2132231A480AF011
:1038C000DFFD04F127030093621C31230B21323406
:1038D00015480AF0D5FDC82CEAD10320FFF720FBDC
:1038E000032848D801A353F820F000BF2738000070
:1038F000793B0000713B000071390000054C322318
:10390000E372002598E7034C3023E37263710125CD
:1039100092E700BF480CFF1F1029FF1FD8290200A3
:103920006428FF1F441AFF1FF819FF1FF029020027
:103930000C420200102A0200382A0200602A02000B
:10394000802A0200A82A0200D02A0200844602002F
:10395000EC2A0200F42A0200CC27FF1F14290200DF
:10396000202902002C2902003829020044290200E3
:10397000B94C3323E370002440F2FF71B7480AF0DA
:10398000D5FB19230A220094B549B4480BF012F96B
:103990004FF6FF71B1480AF0C9FB00943E233C2268
:1039A000B049AE480BF006F9009470233C22AE49B2
:1039B000AA480BF0FFF80094A2233C22AB49A74889
:1039C0000BF0F8F84FF6FF71A4480AF0AFFB322471
:1039D00004F12803224600930A2132239F480AF06B
:1039E0004FFD04F127030093621C31230B21323475
:1039F0009A480AF045FDC82CEAD10320FFF790FA57
:103A0000032810D801A353F820F000BF2738000086
:103A10001D3A00008B3B0000813B00008E4B3122A1
:103A20001A7105B95A71002440F2FF718B480AF0EF
:103A30007DFB19230A228E49884800940BF0BAF8BE
:103A40004FF6FF7185480AF071FB3E233C228949FD
:103A5000824800940BF0AEF870233C2286497F48E0
:103A600000940BF0A7F84FF6FF717C480AF05EFB5C
:103A700032235A2200920A211A4678480AF000FDA1
:103A800059230093332231230B2174480AF0F8FCA8
:103A90008C230093642232230A2170480AF0F0FC40
:103AA0008B230093652231230B216C480AF0E8FC3C
:103AB0000220FFF735FA012800F0C680022800F046
:103AC000C78000283FF4AFAE002440F2FF71634886
:103AD0000AF02CFB19230A22009468495F480BF076
:103AE00069F84FF6FF715D480AF020FB00943E2311
:103AF0003C22634959480BF05DF8009470233C2246
:103B0000604956480BF056F80094A2233C225E49C7
:103B100052480BF04FF84FF6FF7150480AF006FB81
:103B2000322404F12803224600930A2132234B4811
:103B30000AF0A6FC04F127030093621C31230B2139
:103B4000323446480AF09CFCC82CEAD10320FFF727
:103B5000E7F9032800F21E8101A353F820F000BF0B
:103B600027380000393C000011360000413C0000BD
:103B7000394C3223E370FEE6374C3123E370FAE62A
:103B8000354C3223237163714DE7334E3124347148
:103B9000002D7FF448AF40F2FF7130480AF0C6FABA
:103BA00019230A2239492D4800950BF003F84FF6E6
:103BB000FF712A480AF0BAFA3E233C2234492748CA
:103BC00000950AF0F7FF70233C2232492348009504
:103BD0000AF0F0FF4FF6FF7120480AF0A7FA3223EF
:103BE0005A2200920A211A461C480AF049FC59231D
:103BF0000093332223460B2118480AF041FC8C2302
:103C00000093642232230A2114480AF039FC8B23E2
:103C10000093652223460B2110480AF031FC022054
:103C2000FFF77EF9012800F0B080022800F0AB8099
:103C300000287FF4F8AEF6E5074C3023E371EAE4A0
:103C4000054C3323E371E6E4034C3123A3713BE7D6
:103C5000014C3223A37137E7480CFF1FF819FF1FEF
:103C6000482902005C2902006C2902007429020024
:103C7000802902009029020098290200A029020050
:103C8000B0290200B8290200CC290200FC2A020057
:103C9000082B0200102B0200002306223E493F4859
:103CA00000250DF087F840F2FF713D480AF03EFA1A
:103CB0003C230A2200953B4939480AF07BFF4FF626
:103CC000FF7137480AF032FA5A230A223249009526
:103CD00033480AF06FFF31480CF00AFE294630489D
:103CE0000AF024FA40F2DF1300931E224FF49B7374
:103CF0000A212B480AF022FC422731232D223026AC
:103D000040F2FF7126482770A37023726672A27278
:103D10000AF00CFA462342F20E720095224920481E
:103D20000AF048FF4FF6FF711D480AF0FFF96423BF
:103D300042F20E7200951D4919480AF03BFF40F20D
:103D4000FF7117480AF0F2F98C2342F20E720095C7
:103D5000174913480AF02EFF4FF6FF7110480AF07A
:103D6000E5F90095AA2342F20E720B490C480AF0BD
:103D700021FF4FF4917A40F213194FF48278F02723
:103D8000E126D22591E474714DE6302373714AE641
:103D9000002551E5054C3EE45C0CFF1F6428FF1F25
:103DA000F819FF1FE0290200F0290200480CFF1F4C
:103DB000002A0200F8B52723294C2A4E2322054663
:103DC000012118463370227012F01EFC3078002159
:103DD00012F006FC2078012112F016FC2078002158
:103DE00012F05EFA322D28D0332D14D0312D00D0B0
:103DF000F8BD1D4A1D481E4E1E4C1F491F4B10602A
:103E0000822741F2941500204FF4B4723760256088
:103E100008601A60F8BD164A164E174C1249174B27
:103E20006420106046F2A817022510204FF4C872D3
:103E30003760256008601A60F8BD0D4A0D4E0E4CC3
:103E400009490E4B6420106046F2A81700254FF474
:103E500080704FF483723760256008601A60F8BD87
:103E6000D019FF1FB424FF1FAC19FF1FD0010100A0
:103E7000C827FF1F4019FF1F0820FF1FCC19FF1F75
:103E800008B513F079F9064B0021187812F008FAFA
:103E9000044B00211878BDE8084012F0A1BB00BF18
:103EA000D019FF1FB424FF1F10B5384BDB7A322B1B
:103EB00082B004463AD0332B02D135480FF01CF9BA
:103EC000FA2012F0CBFBFFF7DBFF002131480AF0AC
:103ED0002DF94FF4AC7315220093022140F23D13EB
:103EE0002C480AF02BFB4FF478412A480AF01EF9BF
:103EF0000023009327482849962342F20E720AF0C5
:103F000059FEA01F08280FD8DFE800F0141F2A0E62
:103F10000E0E0E3505000023009342F20E72C823E8
:103F20001E491C480AF046FE02B010BD1C480BF0AA
:103F300019FEC5E70023009342F20E72C823194907
:103F400014480AF037FE02B010BD0023009342F27D
:103F50000E72C82314490F480AF02CFE02B010BD9F
:103F60000023009342F20E72C823104909480AF058
:103F700021FE02B010BD0023009342F20E72C8234E
:103F80000B4904480AF016FE02B010BD480CFF1F92
:103F90002825FF1FF819FF1FC03502006C2B0200F7
:103FA000BC24FF1F182B02002C2B0200442B020004
:103FB000582B0200FFFFFFFF30B57D4A7D4B107884
:103FC00089B0002401211C7012F00AFB7A4BDB7AC5
:103FD000322B49D0332B44D1784BC821187812F0BA
:103FE0005FF9AA2342F20E727549764800940AF0EE
:103FF000E1FDD02342F20E727349724800940AF038
:10400000D9FD724972480EF0BDFF40F2DC5012F04B
:1040100025FB642203A96E480FF0B4F8A0425FDBD1
:104020006C4B6D4C18789DF80C30237017F066F9C6
:104030009FED5D0B41EC110B14F00EFE51EC100BDB
:1040400017F0AAFC2378654A183BDBB2192B1070D5
:1040500000F2A380624A22FA03F3DB0740F19D805D
:104060000124204609B030BD0094AA2342F20E720A
:10407000534954480AF09EFDD02342F20E72524931
:10408000009450480AF096FD4FF47A6012F0E6FA78
:1040900040F2124012F0ECFF4FF4FA7012F0DEFA28
:1040A000504951480BF03CFC072405464FF4FA7088
:1040B000EDB912F0D3FA4B494B480BF031FC013CFF
:1040C0000546F3D121463F480AF030F8EC2300932F
:1040D000AA224FF49B730A213A480AF02FFA9DB99D
:1040E0000620FFF7E1FE0024204609B030BD002184
:1040F00034480AF01BF8EC230093AA224FF49B7378
:104100000A2130480AF01AFA00240094AA23A022B7
:1041100036492C480AF04EFDD023A0222A490094AB
:1041200028480AF047FD40F6B83012F097FA4FF4ED
:10413000FA7012F093FA2C480BF09CFC0F25044601
:104140004FF4FA70DCB912F089FA27480BF092FCB0
:10415000013D0446F4D129461A4809F0E7FFEC2353
:104160000093AA224FF49B730A2116480AF0E6F93D
:10417000002C7FF475AF0720FFF796FE71E7002152
:10418000104809F0D3FFEC230093AA224FF49B734D
:104190000A210C480AF0D2F963E70E20FFF784FEEB
:1041A00000245EE7AFF30080000000000000004044
:1041B000B424FF1F0C20FF1F480CFF1FD019FF1F46
:1041C000842B0200F819FF1F982B0200040EFF1F1A
:1041D0002825FF1FC819FF1F9824FF1F3828FF1F1D
:1041E0000140010284410200BC24FF1FA82B0200F1
:1041F0002DE9F0472DED048B90B0B2EE040A0121B9
:1042000007A811F065F907A90BA811F02FF9D049FB
:104210000BA811F0FDF9014603A811F027F90BA82E
:1042200011F0D0F807A811F0CDF84FF6FF71C9488A
:1042300009F07CFF03A90BA811F018F900230BA9C2
:104240000093EA224FF4B473C2480AF01DFD0BA894
:1042500011F0B8F80220FFF7AFFE002840F01981F6
:104260000124BD4E9FEDBD9ADFF82483DFEDBC8AAB
:104270009FEDBC8A37464FF02009002514B3BA4899
:104280000BF02AF80028F9D0002DF7D1B6480AF033
:1042900045FFB5480BF036F88246B3480BF074F88A
:1042A0006FF4D27318443A28E8D8AAF10A03562BBF
:1042B00000F28580AD4B09224FEA49091A600125B9
:1042C000002CDCD14FF4FA61A3480EF06DFE0028FB
:1042D000C0F2938097F8D1314BB1DFF890A2DAF8B1
:1042E00000300133032BCAF8003000F3AA80D6ED6A
:1042F000726AF4EEC96AF1EE10FA5CDD9C4B96ED41
:10430000737A93ED006ADFF88CE29FED9A5AF6EE2D
:10431000007A37EE277AB8EEC66A07EE909AF8EE82
:10432000E75A77EE067AFDEEE77A17EE903A83FBCE
:1043300008011944DA17C2EB21224FF4B47101FBD2
:104340001233CB1A5EF8232007EE102AB8EEC77A94
:1043500027EE267A87EE286A26EE257AC7EE087AB7
:1043600077EE857AFDEEE77A17EE901A4A1EB2F5DF
:104370009F7F84D2804ADFED817A52F8233007EEA6
:10438000103AB8EEC77A67EE266A86EEA87A67EE2C
:10439000255A85EE887A77EEC77AFDEEE77A17EE32
:1043A000902AA2F11503B3F59F7FBFF468AF694867
:1043B00009F0E0FE63E7012012F050F95FE7AAF18F
:1043C0007503562B08D8694B09EBD97909224FEAB6
:1043D00069091A60012551E7AAF1E00ABAF1560FFE
:1043E0003FF64CAF002C00F0188103A810F0EAFF54
:1043F00010B0BDEC048BBDE8F08764220BA95648D1
:104400000EF0C0FE0028FFF63AAF4FF47A62214664
:1044100051480EF06FFF0028C0F2C78021464D487A
:1044200009F084FE4FF4A973009315224FF49F7393
:10443000012148480AF082F84FF47A7012F00EF920
:104440001DE72146434809F071FE4FF4A973152278
:10445000009301214FF49F733E480AF06FF84FF428
:1044600094613C4809F062FE0323B422A02139483C
:1044700009F04CFFDAF80030082B00F39B8025464A
:104480004FF6E071334809F051FE0023CAF80030BE
:104490002DE74FF6E0712F4809F048FE384B1B78A6
:1044A000183B0024192B3FF6DCAE01A252F823F092
:1044B000994500006342000063420000634200002F
:1044C0006342000063420000634200006342000058
:1044D0006342000063420000634200006342000048
:1044E00063420000634200003D450000634200005B
:1044F0002B4500006342000063420000634200005D
:104500006342000063420000634200006342000017
:10451000634200001945000000944FF4C3730A225F
:1045200018490C480AF046FB9BE600944FF4C3730D
:104530000A22154907480AF03DFB92E600944FF421
:10454000C3730A22114903480AF034FB89E600BF0D
:10455000BC2B0200F819FF1F2825FF1F0000C842CE
:1045600000401C4600007A44CC27FF1F2025FF1F77
:10457000580CFF1F00002043E43B020000003443BE
:104580009824FF1FF42B0200D42B0200E42B02001E
:10459000B7600BB6D821020000944FF4C3730A220F
:1045A000224923480AF006FB5BE60820FFF77CFC63
:1045B000012464E607EE909A9FED1E0AF8EEE77A72
:1045C000012180EE270A07A810F082FF07A90BA897
:1045D00010F04CFF18490BA811F01AF8014603A877
:1045E00010F0ACFF0BA810F0EDFE07A810F0EAFEEB
:1045F0004FF6FF710E4809F099FD03A90BA810F0C2
:1046000035FF00944FF4B473EA220BA908480AF06E
:104610003BFB0BA810F0D6FE32E708480EF06CFD0D
:10462000FA2012F01BF8FFF72BFCDEE6C42B020089
:10463000F819FF1F0000A043BC2B02002825FF1F14
:104640002DE9F04F2DED028B93B0B2EE040A01215B
:104650000AA810F03DFF0AA90EA810F007FFAB4909
:104660000EA810F0D5FF014606A810F0FFFE0EA818
:1046700010F0A8FE0AA810F0A5FE4FF6FF71A4489E
:1046800009F054FD002406A90EA810F0EFFE4FF427
:10469000B473EA220EA99E4800940AF0F5FA0EA817
:1046A00010F090FE4FF6E071994809F03FFD9848F0
:1046B00000944FF4C3730A2296490AF07BFA20460D
:1046C000FFF77AFC002840F0E1800124DFF86082E7
:1046D000DFF860A2DFF86092DFED8F8AC346202703
:1046E000002504B38D480AF0F7FD0028F9D0002D0D
:1046F000F7D18A480AF012FD88480AF003FE064600
:1047000086480AF041FE6FF4D27318443A28E8D87C
:10471000A6F10A03562B66D809237F00C8F800309B
:104720000125002CDED104A80DF10F027C490BF00D
:104730002DF99DF80F30002BD4D004A80BF082F88F
:1047400000285CD104A80BF07FF804A8B0EE408AE2
:104750000BF080F800EB8000400080B264283ED966
:10476000704B1B6898423ADAF6EE007A38EE278AE8
:104770006D4BFDEEC87A17EE906A53F8262002FBC7
:1047800000F28AFB0213D217C2EB233307FB03F3B9
:1047900089FB0321DB17C3EBA11101F19F03B3F5E3
:1047A0009F7F01F1A0019DD2604B53F8263003FB9F
:1047B00000F08AFB0023C017C0EB233307FB03F391
:1047C00089FB0302DB17A3EBA21202F19F03B3F5EF
:1047D0009F7F87D2B4324E4809F0CCFC82E701209B
:1047E00011F03CFF7EE7A6F17503562B3AD807EB94
:1047F000D77709237F10C8F80030012571E7D8F872
:1048000000300133032BC8F800309BDD21464048BF
:1048100009F08CFC4FF4A9731522009301214FF489
:104820009F733B4809F08AFE4FF49461384809F0C1
:104830007DFC0323B422A021354809F067FD4FF623
:10484000FF71334809F072FCDBF80030082B2CDCD8
:1048500025464FF6E0712E4809F068FC0023C8F8A1
:1048600000306FE7E03E562E3FF63BAF2C480BF092
:1048700079F9FA2011F0F2FEFFF702FB06A810F01A
:10488000A1FD13B0BDEC028BBDE8F08F4FF47A7040
:1048900011F0E4FE22480BF02FF900287FF416AF48
:1048A0000820FFF701FB012410E707EE907AB8EE2D
:1048B000E70A012188EE800A0AA810F009FE0AA979
:1048C0000EA810F0D3FD11490EA810F0A1FE01466C
:1048D00006A810F033FE0EA810F074FD0AA810F020
:1048E00071FD4FF6FF710A4809F020FC06A90EA8D9
:1048F00010F0BCFD00944FF4B473EA220EA90448F2
:104900000AF0C2F90EA810F05DFDA2E7BC2B020070
:10491000F819FF1F042C02000000A043CC27FF1F42
:10492000BC24FF1F4019FF1FD8210200E43B0200F6
:104930002025FF1FAD8BDB68D34D621070B5714829
:1049400082B009F089FB70496E4840F2DF140AF02A
:10495000ABFA45F271316B4809F0E8FB0094602333
:1049600040F2A5120A21674809F074FC0094CB2399
:1049700040F2A5127521634809F06CFC4FF49B735B
:1049800040F2A5120094E0215E4809F063FC4FF666
:10499000FF715C4809F0CAFB0094602340F2A51245
:1049A0000A21584809F06CFD0094CB2340F2A5126F
:1049B0007521544809F064FD4FF49B7340F2A51231
:1049C0000094E0214F4809F05BFD4FF4EF744BF683
:1049D000F7514C4809F0AAFB00945F234FF4D372BF
:1049E0000B21484809F04CFD0094CA234FF4D372C0
:1049F0007621444809F044FD40F235134FF4D37258
:104A00000094E1213F4809F03BFD45F271313D48FA
:104A1000002409F0A1FB4FF6FF713A4809F086FB2C
:104A20004FF4DD732D223949364800940AF0C2F85C
:104A30004FF4DD7398223649324800940AF0BAF8F0
:104A40004FF4DD73EB2233492E4800940AF0B2F89C
:104A500021462C4809F080FB13254FF6FF712948A9
:104A600009F064FB4FF4AD762A462146009540F2EA
:104A70003F13244809F0FEFD32462146009640F2DD
:104A80003F13204809F0F6FD2A46009623462146AA
:104A90001C4809F0EFFD40F23F132A4619460096E4
:104AA00018481D4E1D4D09F0E5FD23462146E12223
:104AB000144809F02BFB0323B422A021114809F06C
:104AC00025FC4FF6E0710F4809F030FB00944FF4DD
:104AD000B4730A2212490B4834702C600AF06AF849
:104AE000104BDB7A332B08D0322B01D002B070BDD3
:104AF00002B0BDE87040FFF7A3BD02B0BDE8704052
:104B0000FFF776BBF819FF1F84460200142C020041
:104B10005C280200182C02003028FF1F2025FF1FF0
:104B2000202C0200480CFF1F70B5614C82B002259A
:104B300000212046A56408F019FD204609F08CFAF2
:104B40002046002109F008FB0A215A4805F028F9FF
:104B50004FF4FA7011F082FD204657490AF0A4F98B
:104B60004FF4A27364221421524805F079F92046CB
:104B70004FF6FF7109F0DAFA29464E480A2506F089
:104B8000F1F92A46DC234D494A48009507F0C8F858
:104B90000C232A4600934A494648EB2307F0C0F805
:104BA0000E232A46009347494248FC2307F0B8F8F1
:104BB00012232A46009344493E4840F2111307F05D
:104BC000AFF816232A46009340493A4840F2291389
:104BD00007F0A6F81C232A4600933D49354840F2C9
:104BE000471307F09DF84FF49A734FF4BE725021AB
:104BF000304805F035F94FF49F734FF4BE72B4217D
:104C00002C48002605F02CF920464FF6E07109F0FB
:104C10008DFA2B4642F20E7220462E49009609F07C
:104C2000C9FF20464FF6FF7109F080FA20462A4955
:104C30000AF03AF920461E2342F20E7227490096E6
:104C400009F0B8FF2046282342F20E72244900964C
:104C500009F0B0FF2046322342F20E72214900963D
:104C600009F0A8FF2046412342F20E721E49009629
:104C700009F0A0FF4B2342F20E7220461B4900961A
:104C800009F098FF204640F2FF7109F04FFA0096B4
:104C900020464FF4E67342F20E72154909F08AFF7E
:104CA00014480AF019FB0028FAD002B070BD00BF0A
:104CB000F819FF1F641BFF1F84460200302C0200FE
:104CC000442C0200582C02006C2C0200802C0200A4
:104CD000942C0200A82C02000C420200BC2C020002
:104CE000E42C02000C2D0200342D02005C2D020089
:104CF000802D0200CC27FF1FF0B52DED028B85B073
:104D00004FF6FF715A48002609F010FA59495848E1
:104D10000096642342F20E7209F04CFF56480DF0E3
:104D2000A5FA4FF4FC610446514809F0FFF9002C44
:104D300000F08580642342F20E7250494C48009680
:104D400009F038FF4FF47A7011F088FC4FF6FF71CC
:104D5000474809F0EBF9642342F20E72484944488F
:104D6000009609F027FFA0230096B022454940484D
:104D700009F020FF444BDF6A3F0B36D007EE907AF4
:104D80009FED428AF8EEE78A4FF480553403012202
:104D90000DF10F013E480BF045FF0123012808BF2C
:104DA0009DF80F20344818BFFF2221461C440DF007
:104DB00013FAAC42EBD107EE906AF8EEE77A2022C4
:104DC00067EE887A002387EEA87A01920093013675
:104DD000A0238022264805F58055FDEEC77A17EE00
:104DE000901A09F071FFBE42D0D1002428480BF080
:104DF0007FFDA0238022009426491D4809F0DAFE99
:104E00004FF4FC611A4809F091F90094642342F2CE
:104E10000E722149164809F0CDFE782342F20E7237
:104E20001E490094124809F0C5FE40F6B83011F052
:104E300015FCFFF779FE05B0BDEC028BF0BD4FF419
:104E400078410B4809F072F9642342F20E7214495A
:104E50000094074809F0AEFE0D480BF049FD4FF4F1
:104E60007A6011F0FBFB05B0BDEC028BF0BD00BF1A
:104E7000F819FF1F942D0200581AFF1FA42D0200DD
:104E8000B82D0200CC2D02005428FF1F0000C8429C
:104E90006428FF1FD02D0200D42D0200E82D02004F
:104EA000F42D0200FFFFFFFF2DE9F043C64FC74876
:104EB00083B000243C6009F0CFF84FF4FA7011F091
:104EC000CDFBC349C14809F0EFFF4FF6E071BF4881
:104ED00009F02CF90A2342F20E72BE49BB48009435
:104EE00009F068FEBC480DF06BF94FF6E07105461D
:104EF000B64809F01BF928230A22B849B3480094A0
:104F000009F058FE4FF6FF71B04809F00FF9C5F3EC
:104F10000743EF2BEDB200944FF03C034FF0320209
:104F200000F07481AE49A94809F044FE4FF478417D
:104F3000A64809F0FBF8D22342F20E720094A94968
:104F4000A24809F037FEA849A04809F0ADFF4FF686
:104F5000FF719E4809F0EAF80094E62342F20E72CF
:104F6000A2499A4809F026FE0094F52342F20E72F7
:104F70009F49964809F01EFE00944FF4827342F256
:104F80000E729C49914809F015FE91498F4809F02D
:104F90008BFF01244FF6E0718C48002609F0C6F81B
:104FA00050230A2294498948009609F003FE874855
:104FB0004FF6FF7109F0BAF8A5F11100C3B2092B41
:104FC00076D816F0ABF99FED7E0B41EC110B13F088
:104FD00043FE51EC100B16F0B7FC2023014600965F
:104FE000019332226423794809F06EFE642300960F
:104FF0001A468249754809F0DDFD1A2D98BF012631
:1050000010D8012303FA05F515F0F86840F0248163
:1050100015F4401940F04B8115F4602F40F03181B8
:10502000002E4ED04FF4EB7545F27131674809F010
:105030007DF800954FF49B734FF4CD72AA2163481D
:1050400009F008F94FF6FF71604809F06FF8009514
:105050004FF49B734FF4CD72AA215C4809F010FA0B
:105060004BF6F751594809F061F840F2D51340F278
:105070009B120093AB2140F23513544809F000FA1B
:1050800045F27131514809F067F800254FF6FF717C
:105090004E4809F04BF800954FF4D873D022584988
:1050A0004A4809F087FD2946484809F055F808E0C4
:1050B0000096642332224A49444809F07BFD1A2DA8
:1050C0009FD94FF4EB754FF4484140483E4E09F0EC
:1050D0002DF896234FF4CD7200950A213B4809F034
:1050E000B9F84FF6FF71394809F020F896234FF4CC
:1050F000CD7200950A21354809F0C2F94BF6F751F7
:10510000324809F013F840F2D51340F29B12009395
:105110000B2195232D4809F0B3F94FF448412B4852
:1051200009F01AF800254FF6FF71284808F0FEFF35
:105130004FF4D873202233492448009509F03AFDF2
:105140002946224809F008F801233B602E480AF05E
:10515000C3F80028FAD02C4809F0E0FF2A480AF0EA
:10516000D1F8054628480AF00FF9A0F59B70A02851
:10517000ECD8A5F10A038C2B4DD83B68012B11D03C
:10518000022BE3D10021114808F0D0FF40F2DF13D9
:10519000009328224FF49B730A210C4809F0CEF9A2
:1051A000FFF7AAFD094808F057FFC82011F056FA8A
:1051B00003B0BDE8F043FDF741BC00BFAFF3008092
:1051C00000000000000000403C28FF1FF819FF1FEE
:1051D00084460200042E0200581AFF1F182E0200F7
:1051E000302E0200382E02000C420200442E020033
:1051F000642E02008C2E0200A02E0200B02E0200AF
:1052000090280200F42A0200CC27FF1F6549664857
:1052100009F0D0FCBEE6AA3D8C2D97D8002162484B
:10522000DFF8BC8108F082FF40F2DF1300932822F0
:105230004FF49B730A215C4809F080F94FF4FA702F
:1052400011F00CFA3B68012B6DD0022B7FF47EAF7E
:1052500056480BF04DFBA5E7002540F2FF71524880
:1052600008F064FF009596230A2251494E4809F040
:10527000A1FC0095AA230A224E494B4809F09AFC4A
:10528000CEE64FF47841484808F050FFCDF8009042
:1052900096230A224849444809F08CFCCDF8009036
:1052A000AA230A224549404809F084FC09E74FF641
:1052B000E0713D4808F03AFFCDF8008096230A22BD
:1052C0003D49394809F076FCCDF80080AA230A222E
:1052D0003B49354809F06EFCCDF80080BE230A2218
:1052E0003849314809F066FCD2230A22CDF8008003
:1052F00035492D4809F05EFC40F2FF712A4808F05C
:1053000015FFCDF80080F0230A222949264809F02C
:1053100051FCCDF800804FF482730A2225492248BF
:1053200009F048FC7CE6294B294A19681F480023EC
:105330000BF016FC0546002854D14FF478411A486A
:1053400008F0F4FE3C2342F20E7222491648009502
:1053500009F030FC4FF6FF71134808F0E7FE5A23BE
:1053600042F20E721C491048009509F023FC6E238E
:1053700042F20E7216490C48009509F01BFC82237C
:1053800042F20E7215490848009509F013FC0748CF
:105390000BF0AEFA41F2883011F060F9C8F8005015
:1053A00000E700BF282E0200F819FF1F6428FF1F26
:1053B000102F0200242F0200B82E0200CC2E020073
:1053C000DC2E0200F02E0200042F02001029FF1F25
:1053D000302F0200402F0200482F0200542F0200FD
:1053E0003C28FF1F002502234FF6FF7180483360E1
:1053F00008F09CFE28230A227E497D48009509F08A
:10540000D9FB3C230A227C497948009509F0D2FB5C
:105410007A49774809F048FD64230A22784974489C
:10542000009509F0C7FB73230A227649704800955E
:1054300009F0C0FB82230A2273496D48009509F0E8
:10544000B9FB91230A2271496948009509F0B2FB22
:10545000A0230A226E496648009509F0ABFBAF23F2
:105460000A226C496248009509F0A4FB6A49604829
:1054700009F01AFD4FF4EB784FF448415C4808F00E
:1054800055FE4FF49B734FF4CD72AA215848CDF8C6
:10549000008008F0DFFE4FF6FF71554808F046FE29
:1054A0004FF49B734FF4CD72AA215148CDF8008080
:1054B00008F0E6FF40F2D5194BF6F7514C4808F0DA
:1054C00035FE40F2351340F29B12AB214848CDF82F
:1054D000009008F0D5FF4FF44841454808F03CFEE5
:1054E0004FF6FF71424808F021FE4FF4D873C022F6
:1054F0004A493F48009509F05DFB29463C4808F0C1
:105500002BFE4FF494613A4808F010FE96234FF4B6
:10551000CD720A213648CDF8008008F09BFE4FF688
:10552000FF71334808F002FE96234FF4CD720A2132
:105530002F48CDF8008008F0A3FF4BF6F7512C4818
:1055400008F0F4FD952340F29B120B212848CDF87A
:10555000009008F095FF4FF49461254808F0FCFD99
:105560004FF6FF71224808F0E1FD2D4920480095D3
:105570004FF4D873302209F01DFB29461C4808F06F
:10558000EBFD002C3FF4E2AD4FF47841184808F0F1
:10559000CDFDD22342F20E7200952249144809F043
:1055A00009FB1649124809F07FFC4FF6FF711048BD
:1055B00008F0BCFD0095E62342F20E721A490C4831
:1055C00009F0F8FA0095F52342F20E7217490848DF
:1055D00009F0F0FA00954FF4827342F20E7214490A
:1055E000034809F0E7FA0C49014809F05DFCADE514
:1055F000F819FF1F602F0200742F02000C420200F6
:10560000882F0200AC2F0200D02F0200F82F0200DA
:10561000143002003C30020084460200F42A0200EA
:10562000E8270200382E0200442E02004C3002000F
:105630007030020070B5104E82B001F10A030C46C2
:1056400005460093A1F10A0200F10A03A0F10A0144
:10565000304608F0E5FE6B1D2246691F3046009477
:1056600009F008F8631D00933046621F2B46294657
:1056700009F000F802B070BDF819FF1F2DE9F047DE
:10568000DFF8BCA0274F82B04FF00009FF231A4675
:105690001946254808F03AFDDAF80030CDF80090B8
:1056A00042F20E722149204809F084FA1D4809F09F
:1056B00013FE0028FAD01C48DAF80030CDF800902C
:1056C00042F20E721A49002609F074FA154834465F
:1056D000354641F2883809F0FFFDF0B145451148E3
:1056E0000DD1144B1449154AA3FB0404A3FB060374
:1056F000240B1B0B0C60136002B0BDE8F08709F0AF
:1057000083FEB7F90020B7F902300648013514448A
:105710001E4409F0E1FD0028E0D141F288339D42AA
:10572000B4D1DEE7CC27FF1FF819FF1F803002003D
:105730008C3002005917B7D1E418FF1FFC26FF1F59
:105740000020FF1F70B5FF2382B005460E461446A9
:1057500019461A461C4808F0D9FC31462846FFF77E
:1057600069FF00231A46FF21174808F0E3FCFFF702
:1057700085FFFF231A461946134808F0C7FC134B50
:1057800013491B6810480022009242F20E7209F081
:1057900011FA50231A4619460B4808F0B7FC314657
:1057A0002846FFF747FF0B480B4A0C490C4B006893
:1057B000126841F8240043F824200A4809F08CFDBF
:1057C0000028FAD102B070BDF819FF1F0020FF1F9A
:1057D00098300200E418FF1FFC26FF1FE818FF1F87
:1057E0000819FF1FCC27FF1F08B5084809F074FDF2
:1057F0000028FAD1054809F06FFD0028FAD00348C7
:1058000009F06AFD0028FAD108BD00BFCC27FF1FB0
:105810000F4970B44C223026782555240023CA72D3
:105820000E704D708C720B7301F10902013100F0A2
:105830000F03092B03F1370496BF30331470137034
:10584000013A8A424FEA1010F1D170BC704700BF94
:105850008024FF1F30B50023784D794883B01A4665
:10586000FF2108F053FC2B68754800220D21013BF5
:105870000091114608F062FEFF231A46194670484F
:1058800008F044FC00231A46FF216D4808F052FC42
:105890002B686B480E2200210C46013B009208F059
:1058A000E9FE012342F20E7266496548009409F050
:1058B00081F9234622462146614808F03BFC2B68CB
:1058C0000094DC2B4FF01E0371D042F20E725E4941
:1058D0005B4809F06FF9322322465C49584800942E
:1058E00009F068F93E23224659495548009409F0C9
:1058F00061F94A23224657495148009409F05AF960
:105900005623224654494E48009409F053F9622325
:10591000224652494A48009409F04CF96E23224627
:105920004F494748009409F045F9862322464D49DE
:105930004348009409F03EF9922322464A494048E0
:10594000009409F037F9AA23224648493C480094BC
:1059500009F030F9B623224645493948009409F048
:1059600029F94FF49173224642493548009409F0D1
:1059700021F94FF4977322463F493148009409F0CA
:1059800019F9FF22114623462D4808F0BFFB009469
:10599000E22342F20E723949294809F00BF9FFF768
:1059A00023FF274803B0BDE8304008F055BB22462E
:1059B0003349234809F0FEF8224600942A2331494E
:1059C0001F4809F0F7F82246009436232E491C4858
:1059D00009F0F0F82246009442232C49184809F0B7
:1059E000E9F8224600944E232949154809F0E2F8C7
:1059F000224600945A232749114809F0DBF8224631
:105A00000094662324490E4809F0D4F822460094F5
:105A1000722322490A4809F0CDF8224600947E23D9
:105A20001F49074809F0C6F80094A22342F20E72FB
:105A30001249034809F0BEF8B1E700BF2C28FF1F48
:105A4000F819FF1FA4300200A0310200B03102009B
:105A5000D8310200FC310200243202004C32020034
:105A60007432020094320200BC320200E0320200C2
:105A70000833020030330200543302008431020044
:105A8000CC300200E8300200043102001C31020078
:105A90003831020030320200543102006C31020011
:105AA0007C3202002DE9F04FAE48AF4DAF4CA7B0AD
:105AB00008F0D2FA00231A46FF21AA4808F026FB74
:105AC0002B68A84800220D21013B0091114608F0E7
:105AD00035FDFF231A461946A24808F017FB00239C
