:1000000000000320D101000081600100396001007F
:100010003960010039600100396001003960010078
:100020003960010039600100396001008160010020
:100030008160010039600100155001001951010073
:100040008160010081600100816001008160010028
:100050008160010081600100816001008160010018
:100060008160010081600100816001008160010008
:1000700081600100816001008160010081600100F8
:1000800081600100816001008160010081600100E8
:1000900081600100816001008160010081600100D8
:1000A000D1A00000DDA0000081600100816001009E
:1000B000816001008160010081600100E96B010045
:1000C00081600100A98A010081600100D58B0100D7
:1000D000816001004D7201008160010081600100BA
:1000E0008160010081600100816001008160010088
:1000F0008160010081600100816001008160010078
:10010000398A01004D8A0100618A0100758A010067
:1001100081600100717A010081600100816001004D
:100120008160010081600100816001008160010047
:100130008160010081600100816001008160010037
:100140008160010081600100BD77010081600100D4
:100150008160010081600100816001008160010017
:100160008160010081600100E9A000008160010060
:1001700081600100816001008160010081600100F7
:10018000816001005504010081600100816001006F
:100190008160010081600100CD8C0100816001005F
:1001A00081600100816001008160010081600100C7
:1001B00081600100816001008160010081600100B7
:1001C00081600100816001008160010081600100A7
:1001D0005C4B4CF2205210B51A804DF628121A8052
:1001E00000BF00BF15F050FF574B4FF030621A6050
:1001F000564A9A60564ADA60564B4FF470021A60BB
:10020000554B564A1A60564B1A78110703D51A787F
:1002100042F008021A70534B5349AA221A70534AEB
:10022000534B8B4204D252F8040F43F8040BF8E707
:10023000504B514900228B4202D243F8042BFAE77B
:100240004E494F4A002352F8230041F8230001335E
:10025000742BF8D14B4B4C4A802103F8011B93427D
:10026000FBD14A4B454A1A60494B8A221A70A3F5C2
:10027000805324225A70A0221A709A799207FCD5D2
:100280009A79D406FCD4434A937903F00C03082BE3
:10029000FAD1414B60221A7002331A78802AFCD1BD
:1002A0003C4B01221A715D225A719A799006FCD555
:1002B0009979384A4906FBD5384B394919600021EC
:1002C000596020231370937903F00C030C2BFAD19F
:1002D000344B354A1A60354A354C136813F4807331
:1002E00003D123604FF4A8531360324B324A1A6093
:1002F00000225A60072243F8042C304AC3F80C2D20
:1003000062B616F0ABFB2368DA0705D52C4816F069
:1003100063F92C4B2C4A1A602C4B1B785B0609D5D1
:10032000284C294B22689A4204D1254816F054F9EA
:10033000002323601BF07CFD15F0ACFE15F0DAFD08
:10034000FEE700BF0E20054030800440823F0400DD
:100350000100002B88ED00E0002008E0030000858C
:1003600002D0074000E00740C818FF1FF4680200F1
:10037000400CFF1FC818FF1F4036FF1F0002FF1F61
:100380000000000000E400E064E400E008ED00E0AC
:10039000005006400040064001E007404480044011
:1003A0000000060204800440C010070010D0034083
:1003B00014D0034014E000E01FBF02000000202022
:1003C00083420C611CE00340A5C3945A00F007402F
:1003D000FFFFFFFFFFFFFFFFFFFFFFFFFFFFFFFF2D
:1003E000FFFFFFFFFFFFFFFFFFFFFFFFFFFFFFFF1D
:1003F000FFFFFFFFFFFFFFFFFFFFFFFFFFFFFFFF0D
:10040000FFFFFFFFFFFFFFFFFFFFFFFFDEF9FFFF23
:1004100010B5054C237833B9044B13B10448AFF33E
:1004200000800123237010BDC818FF1F00000000CA
:10043000F0680200084B10B51BB108490848AFF33B
:1004400000800848036803B910BD074B002BFBD0A0
:10045000BDE81040184700BF00000000CC18FF1F87
:10046000F0680200C818FF1F00000000002070475D
:10047000027C02F0080202F0FF0332B1C36A406A54
:10048000181A48BF6FF0004070471846704700BF09
:100490000020704701207047034BD8691A79431E2A
:1004A0005002A3FB00017047901BFF1F16F08EB88F
:1004B00000B583B001220DF10701103010F060FD8E
:1004C00001280CBF9DF807004FF0FF3003B05DF826
:1004D00004FB00BF103010F057BE00BF103010F00A
:1004E000C3BF00BF103010F0C5BF00BF00B583B060
:1004F00002AB012203F8011D1030194610F0BAFFBB
:1005000003B05DF804FB00BF503010F0B3BF00BF74
:1005100038B5074C204611F09FFE02462079410273
:10052000A1FB0245D31701FB03552046294638BDE0
:10053000901BFF1F002A2CDD2DE9F84300251646ED
:100540000F460446A846606820B917F0EDFF6060CA
:100550000028FAD030F8083B721BC3F140099145DE
:10056000A8BF9146791918444A4615F0CBFC61683A
:100570000B884B449BB2402B4D440B8003D0AE42C2
:10058000E1DCBDE8F883042017F030FAC4F80480F9
:10059000F5E770472DE9F043C56F95B0FDB1DFF881
:1005A000BC900446636FAB424DD3267D26B304F165
:1005B000140805EB85010901404610F059FE694613
:1005C0004046502210F0DCFC9DF80E1094F880207C
:1005D00052B1029BE36719B9E56F002DE2D1002506
:1005E000284615B0BDE8F083E36F606F01338342A6
:1005F000E36728BFE267EEE74FF47A7744F202231D
:10060000144A15498DF810608DF811608DF804605A
:100610008DF80C6004A804AE0297CDF8009010F09D
:100620004DFC0FCE04F1140847460FC70FCE0FC77D
:1006300030689DF80410029A9DF80C3038602172E1
:10064000E2602374B5E70021502268461BF0FEFFEC
:100650000021BBE7DC2A0200CC1FFF1F4024020060
:10066000436F99423FD82DE9F041057D94B00F4684
:10067000044685B100F1140807EB870109014046E3
:1006800010F0F6FD40465022694610F079FC0198C2
:1006900014B0BDE8F0814FF47A7E144E144A154927
:1006A0008DF8105044F202238DF811508DF804504B
:1006B0008DF80C5004A804AD0096CDF808E010F0B9
:1006C000FDFB0FCD04F1140846460FC60FCD0FC633
:1006D00028689DF80410029A9DF80C303060217251
:1006E000E2602374C8E70020704700BF4024020086
:1006F000DC2A0200CC1FFF1F2DE9F0470C46416F9A
:100700008C4294B0924699464FD8067D054626B352
:1007100000F1140804EB84010901404610F0A8FD23
:1007200050226946404610F02BFC50460DF10E0158
:10073000009D9DF80C401CF001FC1C9B1D602CB919
:10074000019BC9F8003014B0BDE8F0874FF0FF33CB
:10075000C9F8003014B0BDE8F0874FF47A7E1A4F24
:100760001A4A1B498DF8106044F202238DF811607B
:100770008DF804608DF80C6004A804AE0097CDF8E5
:1007800008E010F09BFB0FCE05F1140847460FC799
:100790000FCE0FC730689DF80410029A9DF80C30F8
:1007A00038602972EA602B74B4E750220021684651
:1007B0001BF04CFF50460DF10E011CF0BFFB1C9AC4
:1007C00000231360BCE700BF40240200DC2A0200C3
:1007D000CC1FFF1F2DE9F0470446A2B05030D4F8DB
:1007E0006CA010F033FAE56B636F9D4273D8267DE1
:1007F000002E48D004F1140805EB8501090140469C
:100800000DF1380910F034FD49465022404610F0F1
:10081000B7FBE56B237DCDF83CA01BBB334E344AC0
:1008200034498DF814304FF47A778DF815308DF8FF
:1008300008308DF81030019644F2022305A805AE69
:10084000039710F03BFB0FCE47460FC70FCE0FC7E5
:1008500030689DF80810039A9DF8103038602172B6
:10086000E260237405EB85010901404610F000FDAC
:1008700049464046502210F0FDFD6FF00103E3634E
:1008800022B0BDE8F0874FF47A7E184F184A194914
:100890008DF8486044F202238DF849608DF83C6081
:1008A0008DF8446012A812AE0E97CDF840E010F01B
:1008B00005FB0FCE04F1140847460FC70FCE0FC734
:1008C00030689DF83C10109A9DF8443038602172D1
:1008D000E260237490E70DF1380948465022002168
:1008E0001BF0B4FE04F1140894E700BF402402009A
:1008F000DC2A0200CC1FFF1F2DE9F043047D8FB0DE
:1009000007460E4691467CB100F1140806EB8601BD
:100910000901404610F0ACFC49464046502210F018
:10092000A9FD0FB0BDE8F0834FF47A7E124D134A53
:1009300013498DF8144044F202238DF815408DF8C8
:1009400008408DF8104005A805AC0195CDF80CE0E5
:1009500010F0B4FA0FCC07F1140845460FC50FCCC0
:100960000FC520689DF80810039A9DF81030286084
:100970003972FA603B74C9E740240200DC2A0200A5
:10098000CC1FFF1F2DE9F0434B6F93428FB0804681
:100990003CD30E7D0D46144686B101F1140904EBDB
:1009A00084010901484610F063FC48465022414644
:1009B00010F0E6FA40460FB0BDE8F0834FF47A7EBF
:1009C000164F174A17498DF8146044F202238DF828
:1009D00015608DF808608DF8106005A805AE0197C8
:1009E000CDF80CE010F06AFA0FCE05F114094F466D
:1009F0000FC70FCE0FC730689DF80810039A9DF8F7
:100A0000103038602972EA602B74C8E75022002148
:100A10001BF01CFE40460FB0BDE8F08340240200EE
:100A2000DC2A0200CC1FFF1F2DE9F041436F9942E1
:100A3000E4B0144600F29080077D05460E46002F74
:100A400000F0938000F1140806EB8601090140468E
:100A500010F00EFC50224046694610F091FA009AC0
:100A6000002A7ED014A82946FFF78CFF149A002A8A
:100A70004CD0294628A8FFF785FF289A002A00F0C5
:100A8000A58029463CA8FFF77DFF3C9A002A00F08C
:100A90009980294650A8FFF775FF5099002900F06A
:100AA000998028462246FFF7BFFF20461CF0A8FA8F
:100AB000231813F8013C2F2B02D0484B1B882352DC
:100AC0000DF5A77120461CF043F820461CF098FA5B
:100AD000231813F8013C2F2B02D0404B1B882352C4
:100AE0000DF1FE0120461CF033F820461CF088FA78
:100AF000231813F8013C2F2B02D0384B1B882352AC
:100B00000DF1AE0120461CF023F802E0334B1B88A8
:100B1000238020461CF074FA231813F8013C2F2B75
:100B200002D02E4B1B8823520DF15E0120461CF093
:100B30000FF820461CF064FA231813F8013C2F2B01
:100B400002D0264B1B88235220460DF10E011BF0CC
:100B5000FFFF64B0BDE8F0815022002168461BF021
:100B600075FD1E4B1B882380E3E7DFF87CE01C4A01
:100B70001C498DF850714FF47A7C44F202238DF8B1
:100B800051718DF844718DF84C7154A854AFCDF863
:100B900040E1CDF848C110F091F90FCF05F11408EC
:100BA000C646AEE80F000FCFAEE80F0038689DF8DC
:100BB0004411529A9DF84C31CEF800002972EA6037
:100BC0002B7441E7054B1B8823807EE7034B1B8872
:100BD00023808AE7014B1B88238066E7EC2A02000A
:100BE000DC2A0200CC1FFF1F402402002DE9F04741
:100BF000B1F1FF3F01EB81094FEA0919ADF5986D9D
:100C00008846DFF81CA3044608BF4FF0000920E027
:100C100004F114074946384610F02AFB50223846A2
:100C20000DEB020110F0ACF950220DEB0201684609
:100C300015F068F99DF80C202046002A40D0019B51
:100C40001946002B3CD023681B6B9847002800F006
:100C50000B81B8F1FF3F02D0636F984529D8257DFD
:100C6000002DD5D14FF47A7644F20223A94AAA493D
:100C70008DF8D0538DF8D1538DF8C4538DF8CC53E3
:100C8000F4A8F4ADF296CDF8C0A310F017F90FCD8B
:100C900004F114073E460FC60FCD0FC628689DF815
:100CA000C413F29A9DF8CC3330602172E260237451
:100CB000B0E7502200210DEB02001BF0C7FCB3E7A8
:100CC000B8F1FF3F00F0DC80B8F1000F00F07D814B
:100CD000424628A82146FFF755FE289A002A00F030
:100CE000D4803CA82146FFF74DFE3C9A002A00F034
:100CF000798150A82146FFF745FE509A002A00F05E
:100D00008B8164A82146FFF73DFE649A002A00F01B
:100D10007D8178A82146FFF735FE789A002A00F0F9
:100D200081818CA82146FFF72DFE8C9A002A00F0C5
:100D30007F81A0A82146FFF725FEA09A002A00F097
:100D40007D81B4A82146FFF71DFEB49A002A00F069
:100D50007B81C8A82146FFF715FEC89A002A00F03B
:100D600079810DF55C7921464846FFF70BFED9F8ED
:100D70000010F0AD002900F073812A462046FFF7ED
:100D800053FE28461CF03CF90DF2BF36335C2F2B86
:100D900002D0624B1B882B520DF27E3128461BF08D
:100DA000D7FE28461CF02CF9335C2F2B02D05B4B6E
:100DB0001B882B520DF22E3128461BF0C9FE284607
:100DC0001CF01EF9335C2F2B02D0544B1B882B5286
:100DD0000DF2DE2128461BF0BBFE28461CF010F960
:100DE000335C2F2B02D04D4B1B882B520DF28E21E2
:100DF00028461BF0ADFE28461CF002F9335C2F2B71
:100E000002D0464B1B882B520DF23E2128461BF088
:100E10009FFE28461CF0F4F8335C2F2B02D03F4B8A
:100E20001B882B520DF5F77128461BF091FE2846C2
:100E30001CF0E6F8335C2F2B02D0384B1B882B526A
:100E40000DF5CF7128461BF083FE28461CF0D8F81C
:100E5000335C2F2B02D0314B1B882B520DF5A77121
:100E600028461BF075FEC2E000200DF5986DBDE828
:100E7000F087029BC993C8AA31462046FFF73CFD84
:100E800001200DF5986DBDE8F087F0AD2F232B8084
:100E90000DF2BF3628461CF0B3F8335C2F2B02D07E
:100EA0001E4B1B882B520DF1AE0128461BF050FE45
:100EB0009DF80C20002A00F0838000260DF55C7957
:100EC0002A464846334614498DF870638DF871639D
:100ED0000FF0F4FF0028C7D0484610F09DF9002815
:100EE000C2D0009E00236A46414620468DF80E304F
:100EF000FFF702FD3246C8A82146FFF743FDC99D12
:100F0000A845B6D0002DBBD0DFF814A00DF55C7954
:100F100020E000BFDC2A0200CC1FFF1FEC2A0200E9
:100F20004024020004F1140705EB8501090138464D
:100F300010F09EF938465022494610F021F8502210
:100F40004946C8A814F0DEFFCA9B984541D01D460B
:100F5000002B95D0636FAB422CD3267D002EE1D1C0
:100F60004FF47A7744F202233F4A40498DF8E06219
:100F70008DF8E1628DF8D4628DF8DC62B8A8B8AE65
:100F8000B697CDF8D0A20FF099FF0FCE04F1140759
:100F9000BE46AEE80F000FCEAEE80F0030689DF8F9
:100FA000D412B69A9DF8DC32CEF800002172E260CD
:100FB0002374B9E75022002148461BF047FBBEE7E7
:100FC00029462A4810F014F989E7F0AD2F232B8029
:100FD00070E7029BCA932046C8AA2946FFF78CFCFB
:100FE000012042E7F0AD2F232B800DF2BF362846BB
:100FF0001CF006F8335C2F2B02D01D4B1B882B52A4
:101000000DF1FE0128461BF0A3FD43E7F0AD2F23B1
:101010002B800DF2BF360AE7F0AD2F232B800DF2A7
:10102000BF3612E7F0AD2F232B800DF2BF36F0E66E
:10103000F0AD2F232B800DF2BF36DCE6F0AD2F2371
:101040002B800DF2BF36C8E6F0AD2F232B800DF2BA
:10105000BF36B4E6F0AD2F232B800DF2BF36A0E6ED
:101060002F232B808DE600BFDC2A0200CC1FFF1F40
:10107000EC2A02002DE9F043C36B8B42ADF5397DBC
:1010800004D190F83830934200F09580914688461C
:101090000646002963D00A4668463146FFF772FCCF
:1010A000009A002A00F0AE8014A83146FFF76AFCCF
:1010B000149A002A00F0838028A83146FFF762FCCA
:1010C000289A002A00F0A5803CA83146FFF75AFC78
:1010D0003C9A002A00F0B98050A83146FFF752FC34
:1010E000509A002A00F0AA8064AF31463846FFF7D4
:1010F00049FC396878AD002900F0AE802A463046B8
:10110000FFF792FC28461BF07BFF0DF2DF14235CF7
:101110002F2B02D0524B1B882B520DF5CF71284636
:101120001BF016FD28461BF06BFF235C2F2B02D013
:101130004B4B1B882B520DF5A77128461BF008FD61
:1011400028461BF05DFF235C2F2B02D0444B1B88ED
:101150002B520DF1FE0128461BF0FAFC5FE078AD42
:101160002F232B8064AF06F1500420460FF06EFD54
:1011700000232A464FF47A713A4D3B747B743B71DD
:101180003B73B9604B4638493D6068A868AD0FF0C5
:1011900095FE0FCD0FC40FCD0FC428683979BA68FA
:1011A0003B7B2060C6F83C8086F8389086F8441077
:1011B000B26486F84C300DF5397DBDE8F08378AD2A
:1011C0002F232B8064AF0DF2DF1428461BF018FF8D
:1011D000235C2F2B02D0224B1B882B520DF15E017A
:1011E00028461BF0B5FC28461BF00AFF235C2F2B7A
:1011F00002D01B4B1B882B520DF10E0128461BF011
:10120000A7FCB0E778AD2F232B8064AF0DF2DF147D
:10121000E9E778AD2F232B8064AF0DF2DF14284669
:101220001BF0EEFE235C2F2B02D00D4B1B882B52A4
:101230000DF1AE0128461BF08BFCC6E778AD2F23DD
:101240002B8064AF0DF2DF146CE778AD2F232B8079
:1012500064AF0DF2DF1473E72F232B8052E700BF3A
:10126000EC2A020040240200CC1FFF1FF8B5044600
:10127000174650340022069E1D46FFF7FBFE3946F6
:1012800020460FF0F5FF324629462046BDE8F840DB
:101290000FF076BE2DE9F043B1F1FF3F14BF0E46CB
:1012A0000026ADF2C44D1D460146044690466846F0
:1012B0003246FFF767FB28461BF0A2FE3E2805D901
:1012C000002528460DF2C44DBDE8F083421C294696
:1012D0000DF15E0014F016FE656F277D14966B1CF1
:1012E000636700231593019B169301238DF85C809F
:1012F0008DF85D30002F00F00A8104F1140905EB30
:101300008501090148460FF0B3FF14A95022484651
:1013100010F0B0F831466A4620460195FFF7ECFA26
:10132000B8F1000F0AD1204644F202222946FFF705
:10133000A1FE28460DF2C44DBDE8F083002D00F05B
:1013400013812A4628A82146FFF71CFB289A002A69
:1013500000F023813CA82146FFF714FB3C9A002AA9
:1013600000F0148150A82146FFF70CFB509A002A88
:1013700000F01A8164A82146FFF704FB649A002A52
:1013800000F0198178A82146FFF7FCFA789A002A24
:1013900000F018818CA82146FFF7F4FA8C9A002AF5
:1013A00000F01781A0A82146FFF7ECFAA09A002AC6
:1013B00000F01681B4A82146FFF7E4FAB49A002A97
:1013C00000F01581C8A82146FFF7DCFAC89A002A68
:1013D00000F01481DCAF21463846FFF7D3FA3968B4
:1013E000F0AE002900F0118120463246FFF71CFBC9
:1013F00030461BF005FE0DF2BF34235C2F2B02D0CC
:10140000834B1B8833520DF27E3130461BF0A0FB1C
:1014100030461BF0F5FD235C2F2B02D07C4B1B8844
:1014200033520DF22E3130461BF092FB30461BF04A
:10143000E7FD235C2F2B02D0754B1B8833520DF236
:10144000DE2130461BF084FB30461BF0D9FD235CC7
:101450002F2B02D06E4B1B8833520DF28E2130465B
:101460001BF076FB30461BF0CBFD235C2F2B02D00C
:10147000674B1B8833520DF23E2130461BF068FB50
:1014800030461BF0BDFD235C2F2B02D0604B1B8828
:1014900033520DF5F77130461BF05AFB30461BF006
:1014A000AFFD235C2F2B02D0594B1B8833520DF517
:1014B000CF7130461BF04CFB30461BF0A1FD235C86
:1014C0002F2B02D0524B1B8833520DF5A77130469B
:1014D0001BF03EFB30461BF093FD235C2F2B02D00C
:1014E0004B4B1B8833520DF1FE0130461BF030FB95
:1014F00030461BF085FD235C2F2B02D0444B1B880C
:1015000033520DF1AE0130461BF022FB30E0DFF824
:101510000CE1404A40498DF8D0734FF47A7C44F294
:1015200002238DF8D1738DF8C4738DF8CC73F4A8B1
:10153000F4AFCDF8C0E3CDF8C8C30FF0BFFC0FCFB8
:1015400004F11409CE46AEE80F000FCFAEE80F004D
:1015500038689DF8C413F29A9DF8CC33CEF8000099
:101560002172E2602374CAE6F0AE2F233380DCAF31
:10157000002432463846012327493C707C700FF026
:101580003FFC28460DF2C44DBDE8F083F0AE2F239A
:101590003380DCAF0DF2BF349CE7F0AE2F233380F5
:1015A000DCAF0DF2BF34A3E7F0AE2F233380DCAF06
:1015B0000DF2BF3480E7F0AE2F233380DCAF0DF2A5
:1015C000BF346BE7F0AE2F233380DCAF0DF2BF34B6
:1015D00056E7F0AE2F233380DCAF0DF2BF3441E786
:1015E000F0AE2F233380DCAF0DF2BF342CE7F0AE2A
:1015F0002F233380DCAF0DF2BF3417E7F0AE2F237B
:101600003380DCAF0DF2BF3402E72F233380EFE6E7
:10161000EC2A0200DC2A0200CC1FFF1F402402003B
:101620002DE9F04F90F878400126C5B0054680F8C6
:101630007960002C00F00E816B6F002B00F00781A9
:101640004FF00008474606E06B6F0137BB4208F1D8
:10165000500840F2FC80BB42F7D32C7D002C00F0F8
:10166000CC8005F11406414630460FF001FE1CA95E
:10167000502230460FF084FC9DF87C30002BE3D0E4
:101680009DF87D40002CDFD1224639462846FFF7E1
:10169000F1FC95F85030002BD6D0A24605F1500948
:1016A000019758E0A2420CBF23460123019A08BFCC
:1016B0000D9C30928DF8CC30402200230DF1CE01EC
:1016C00006A831948DF8CD30CDF8C8A00FF0F2FF08
:1016D0006C6F95F814E0631C6B67BEF1000F2BD1A3
:1016E0004FF47A7C44F202237D4A7E497E4F8DF886
:1016F0004CE013A88DF84DE08DF840E08DF848E0FF
:10170000CDF844C00F970FF0D9FB0DF14C0EBEE899
:101710000F00B446ACE80F00BEE80F00ACE80F00C5
:10172000DEF800009DF84010119A9DF84830CCF882
:1017300000002972EA602B7404EB84010901304631
:101740000FF096FD502230A930460FF093FE06A808
:10175000A2460FF07BFA0024634B029322464FF41B
:101760007A7B494606A88DF818408DF819408DF807
:101770000C408DF81440CDF810B00FF035FE9DF8F8
:10178000183003F07002002B8CD12C7D019FCDF816
:1017900074A001238DF87D302CBB8DF8D0408DF8DE
:1017A000D1408DF8C4408DF8CC404F4C4C4A4D4947
:1017B000309444F2022334A834ACCDF8C8B00FF012
:1017C0007DFB0FCCB646AEE80F000FCCAEE80F00A5
:1017D00020689DF8C410329A9DF8CC30CEF80000F5
:1017E0002972EA602B74414630460FF041FD1CA976
:1017F000304650220FF03EFE26E78DF8D0408DF89F
:10180000D1408DF8C4408DF8CC40374C344A35492E
:1018100030944FF47A7644F2022334A834AC3296F2
:101820000FF04CFB0FCC05F11406B646AEE80F00E6
:101830000FCCAEE80F0020689DF8C410329A9DF8D6
:10184000CC30CEF800002972EA602B740BE745B06B
:10185000BDE8F08F80F87860214922480FF0C8FC7D
:101860002F7D30942F23329431948DF8CC608DF8F5
:10187000CD406E67ADF8CE305FB105F114070021A1
:1018800038460FF0F5FC3846502230A90FF0F2FD33
:10189000D2E6154C124A13491C944FF47A7644F25E
:1018A000022320A820AC8DF880708DF881708DF80F
:1018B00074708DF87C701E960FF000FB0FCC05F154
:1018C00014073E460FC60FCC0FC620689DF8741053
:1018D0001E9A9DF87C3030602972EA602B74CEE746
:1018E000DC2A0200CC1FFF1F402402002DE9F04F2C
:1018F000C3B00A460546894601461AA8FFF742F8D2
:101900009DF8743013B19DF8754014B143B0BDE833
:10191000F08F224649462846FFF7ACFB95F8503039
:10192000002BF3D0DFF808A1274605F1500B0FE09C
:1019300005F1140804EB8401090140460FF098FCFE
:10194000404650222EA90FF095FD04A80FF07EF915
:101950004FF47A730022594604A802938DF8107050
:101960008DF811708DF804708DF80C70CDF800A012
:101970000FF03AFD9DF8103003F07002002B47D0B5
:10198000002A14BF012300238DF8C4304FF0400219
:1019900008BF0B9B309418BF00230DF1C60104A8AB
:1019A0002F93CDF8B8908DF8C5700FF083FE6C6F53
:1019B0002E7D631C6B67002EBAD14FF47A7E44F201
:1019C0000223194A19498DF844608DF845608DF855
:1019D00038608DF8406011A811AECDF83CE0CDF82C
:1019E00034A00FF06BFA0FCE05F11408C646AEE82E
:1019F0000F000FCEAEE80F0030689DF838100F9A38
:101A00009DF84030CEF800002972EA602B7491E70F
:101A100001231AAA494628461B948DF87530FEF713
:101A20006BFF43B0BDE8F08FDC2A0200CC1FFF1F24
:101A3000402402002DE9F04190F87860A2B00446FD
:101A40000D46FEB19DB16B1C08BF002529462046FE
:101A5000FFF74CFF012384F880302A4621460EA868
:101A6000FEF790FF0F9BE36722B0BDE8F08194F88A
:101A7000793053B30022012384F88020E36722B039
:101A8000BDE8F081012780F87870284928480FF0D8
:101A9000AFFB94F814E08DF844702F2367670E961F
:101AA00010960F968DF84560ADF84630BEF1000FE8
:101AB00014D004F11408002140460FF0D9FB404631
:101AC00050220EA90FF0D6FCBCE72046FFF7A8FD78
:101AD0000022012384F88020E367D0E7154E134AE3
:101AE000134901964FF47A7744F2022305A805AE14
:101AF00003978DF814E08DF815E08DF808E08DF867
:101B000010E00FF0DBF90FCE04F1140847460FC7C1
:101B10000FCE0FC730689DF80810039A9DF810305B
:101B200038602172E2602374C5E700BFDC2A02003E
:101B3000CC1FFF1F402402002DE9F0410B7882B03A
:101B40000446002B4BD008460E461BF059FA257A66
:101B500001308DF80200002D50D0E3680133E360BE
:101B60003278002A36D0002705E0E3680233E360CC
:101B700016F8012F4AB3ADF80620002DF5D16068A4
:101B800020B916F0D1FC60600028FAD030F8083B8C
:101B9000C5F10202C3F140089045A8BF9046184421
:101BA0000DF106035919424614F0ACF961680B882F
:101BB00043449BB2402B45440B801AD0012DDEDDFF
:101BC00016F8012F257A002AD5D10023ADF804306C
:101BD0003DB3E3680233E36002B0BDE8F081027A0E
:101BE0008DF80330AAB1C3680133C36002B0BDE809
:101BF000F081042015F0FAFE6760DFE701220DF1A5
:101C000002012046FEF796FC3278257A002AAAD1F6
:101C1000DBE701220DF10301FEF78CFC02B0BDE809
:101C2000F0812046022201A9FEF784FC02B0BDE843
:101C3000F08100BF30B5037A91B064250446ADF859
:101C40002650002B00F0A680C36806220233C36032
:101C50000F9204336422E360ADF824200233E36082
:101C60005A492046FFF768FF237A0022ADF8222068
:101C7000002B00F0B580E3680E220233E3600E9281
:101C8000043341F20102E360ADF82020023341F257
:101C90000202E360ADF81E20023341F20302E3606A
:101CA000ADF81C20023341F20402E360ADF81A20C3
:101CB000023341F20502E360ADF81820023341F22D
:101CC0000602E360ADF81620023341F20702E3603A
:101CD000ADF81420023341F20802E360ADF812209F
:101CE000023341F20902E360ADF81020023341F201
:101CF0000B02E360ADF80E20023341F20C02E36008
:101D0000ADF80C20023341F20D02E360ADF80A2079
:101D1000023341F21402E360ADF80820023341F2CD
:101D20001502E360ADF8062002330022E3600D9255
:101D300004330122E3600C9204334DF20242E3606B
:101D4000ADF8042002330022E3600B920433022238
:101D5000E3600A9204334FF44052E360ADF802208E
:101D6000023343F20102E360ADF800200233E36086
:101D700020461749FFF7E0FE20461649FFF7DCFE34
:101D800020461549FFF7D8FE20461449FFF7D4FE38
:101D900011B030BD02220DF12601FEF7CBFB237AF4
:101DA00006220F92002B40F0358104220FA9204615
:101DB000FEF7C0FB237AADF82450002B40F02C81B5
:101DC000022209A92046FEF7B5FB49E7F02A0200E6
:101DD000042B02000C2B0200142B0200182B020013
:101DE00002220DF122012046FEF7A4FB237A0E22E7
:101DF0000E92002B40F0128104220EA92046FEF71D
:101E000099FB237A41F20102ADF82020002B40F02B
:101E10000781022208A92046FEF78CFB237A41F2B3
:101E20000202ADF81E20002B40F0FC8002220DF1D2
:101E30001E012046FEF77EFB237A41F20302ADF835
:101E40001C20002B40F0F080022207A92046FEF75C
:101E500071FB237A41F20402ADF81A20002B40F006
:101E6000E58002220DF11A012046FEF763FB237A7A
:101E700041F20502ADF81820002B40F0D980022273
:101E800006A92046FEF756FB237A41F20602ADF87A
:101E90001620002B40F0CE8002220DF116012046C4
:101EA000FEF748FB237A41F20702ADF81420002B1D
:101EB00040F0C280022205A92046FEF73BFB237AB0
:101EC00041F20802ADF81220002B40F0B780022248
:101ED0000DF112012046FEF72DFB237A41F2090293
:101EE000ADF81020002B40F0AB80022204A9204660
:101EF000FEF720FB237A41F20B02ADF80E20002BF7
:101F000040F0A08002220DF10E012046FEF712FBE8
:101F1000237A41F20C02ADF80C20002B40F09480A3
:101F2000022203A92046FEF705FB237A41F20D02A7
:101F3000ADF80A20002B40F0898002220DF10A0141
:101F40002046FEF7F7FA237A41F21402ADF8082092
:101F5000002B7DD1022202A92046FEF7EBFA257A5A
:101F600041F21503ADF80630002D73D102220DF1B8
:101F700006012046FEF7DEFA237A0D95002B6BD181
:101F800004220DA92046FEF7D5FA237A01220C92ED
:101F9000002B63D104220CA92046FEF7CBFA257A48
:101FA0004DF20243ADF80430002D59D1022201A9AF
:101FB0002046FEF7BFFA237A0B95002B52D104225C
:101FC0000BA92046FEF7B6FA237A02250A95002BC4
:101FD0004AD104220AA92046FEF7ACFA237A4FF42C
:101FE0004052ADF802209BB92A460DF1020120466D
:101FF000FEF7A0FA237A43F20102ADF800202BB9D4
:102000002A4669462046FEF795FAB1E6E368ADE652
:10201000E368A5E6E3681CE6E3681FE6E3682FE6ED
:10202000E36833E6E36837E6E3683BE6E3683FE608
:10203000E36843E6E36847E6E3684BE6E3684FE6B8
:10204000E36853E6E36857E6E3685BE6E3685FE668
:10205000E36863E6E36867E6E36869E6E3686BE61E
:10206000E3686FE6E36871E6E36873E630B504465B
:102070000068514A03681B68934289B040F08F8022
:102080000422237AADF80620002B54D0E3680233F3
:10209000E3602068494A03685B6893427AD102236F
:1020A000257AADF80A30002D62D0E36800220233B1
:1020B000E360ADF808200233E3602068404A03681B
:1020C0009B68934264D13F4BD8691A79431E5002F2
:1020D000A3FB0001237ACDE90601002B42D0E3687F
:1020E0000833E3602068384A0368DB6893425CD1B8
:1020F000344D284610F0B0F82A795502C117A5FBD7
:10210000002305FB013310461946237A04900591FC
:10211000C3B1E3684FF0FF320833E3600392043346
:10212000E36020462949FFF707FD20462849FFF7CD
:1021300003FD09B030BD02220DF106012046FEF775
:10214000F9F9A6E7082204A92046FEF7F3F9237A55
:102150004FF0FF32039253BB042203A92046FEF73F
:10216000E9F9DEE7082206A92046FEF7E3F9B9E718
:1021700002220DF10A012046FEF7DCF9237AADF8C0
:102180000850B3B9022202A92046FEF7D3F994E71A
:1021900098479FE79847002881D1012380E7984717
:1021A000012200287FF46DAF6AE79847ADE7E36846
:1021B000B5E7E3687FE700BF9104000095040000E5
:1021C00099040000901BFF1F110500001C2B02004A
:1021D000243E02002DE9F04F037A99B004460092A4
:1021E000002B00F0D68000230293DFF8C492AD4BA1
:1021F0000193E3680433E3602568019A2B681B6947
:10220000934240F0378195F87860002E00F01A81F3
:10221000009A1346002A35D195F87930002B00F04A
:10222000B0810022012385F88020EB67DFF88482EB
:1022300025682B685B694B454ED1EE6FFEB10DF101
:10224000100B6B6F9E4276D82F7D002F48D005F182
:10225000140A06EB8601090150460FF009F85046B2
:10226000502259460EF08CFE9DF81E0095F88020F5
:10227000DAB1069BEB6708BBEE6F002EE1D119B017
:10228000BDE8F08F013208BF0023194628461E46DC
:10229000FFF72CFB012385F880303246294604A83D
:1022A000FEF770FB059BEB67C0E7EB6F696F0133CF
:1022B0008B42EB6728BFEA670028DDD0002EDED016
:1022C000257A0396002D3DD0E36825680433E3604A
:1022D0002B685B694B45B0D0284698470646EDE72A
:1022E0004FF47A7E44F202236F4A70498DF82070D1
:1022F0008DF821708DF814708DF81C7008A808AF47
:10230000CDF818E0CDF810800EF0D8FD0FCF05F114
:10231000140AD646AEE80F000FCFAEE80F003B68B8
:10232000CEF800309DF814302B72069BEB609DF8C0
:102330001C302B748DE75022002158461AF086F984
:10234000002093E72E46606820B916F0EDF8606033
:102350000028FAD030F8083BC5F10402C3F1400769
:102360009742A8BF1746184403AB59193A4613F0D1
:10237000C9FD61680B883B449BB2402B3D440B80F8
:1023800002D0032DDFDD53E7042015F02FFB66603C
:10239000F7E7444B056801931A462B681B69934283
:1023A00040F0F38095F87860002E00F08580009A68
:1023B000002A63D195F87930002B00F0EA800022E2
:1023C000012385F88020EB672568DFF8E4902B680F
:1023D000DFF8E0A05B694B454FF0000B40F09780C1
:1023E000EE6F1EB30DF110086B6F9E4200F2C280BB
:1023F0002F7D002F00F08F8005F1140706EB86017A
:10240000090138460EF034FF3846502241460EF09E
:10241000B7FD9DF81E0095F88020002A64D0069B29
:10242000EB67002869D1EE6F002EDDD1237ACDF85D
:1024300008B0002B7FF4DDAE042202A92046FEF78F
:1024400079F8D9E6012785F87870174917480EF012
:10245000CFFE2F238DF81C700496069605968DF8F6
:102460001D60ADF81E30314604AA6F672846FEF79E
:1024700043FACDE6009928469847D7E6511C14BF89
:102480001646002631462846FFF730FA012385F824
:1024900080303246294604A8FEF774FA059BEB67A4
:1024A00092E700BF351A0000DC2A0200CC1FFF1F94
:1024B0009505000040240200012785F8787037490F
:1024C00037480EF095FE2F238DF81C700496069663
:1024D00005968DF81D60ADF81E30314604AA6F6771
:1024E0002846FEF709FA62E7EB6F696F01338B420A
:1024F000EB6728BFEA67002895D0002E96D02568A4
:102500002B685B694B450BF1010B3FF469AF284623
:1025100098470646F1E74FF47A7E44F202231F4AB9
:102520001F498DF8207008A88DF821708DF814705F
:102530008DF81C70CDF818E0CDF810A00EF0BEFCA0
:102540000DF1200EBEE80F0005F11407BC46ACE803
:102550000F00BEE80F00ACE80F00DEF80030CCF84A
:1025600000309DF814302B72069BEB609DF81C30F8
:102570002B7443E75022002140461AF067F80020F0
:1025800049E72846FFF74CF84BE62846009998475C
:102590001AE72846FFF744F811E700BFDC2A0200DB
:1025A000CC1FFF1F2DE9F04304460068AA4B0268C8
:1025B00095699D42E5B040F0228110AD0A4624AFF6
:1025C00001462846FEF7DEF938460DF14E011AF0B5
:1025D000B5FC0DF114082B7B2A68C8F80020002BED
:1025E00063D16B68049304AE237A01220692002B18
:1025F0005ED0E368326804330132E36000F00A81A0
:102600000022ADF80C2002330022E360ADF80A206E
:1026100002333268E3600E9204330022E360ADF8C7
:10262000082002330022E3600D9204330022E360AD
:102630000C9204330022E3600B9204330022E36027
:102640000A9204330022E360099204330022E3601B
:1026500008920433D8F80020E36007923268A2F1B0
:10266000FF32B2FA82F252090433E360ADF80E2071
:1026700002330022E3602A6004330022E3600F92F9
:102680000433E36039462046FFF756FA2046734983
:10269000FFF752FA20467149FFF74EFA20466F497C
:1026A000FFF74AFA65B0BDE8F0834FF0FF3399E7D2
:1026B00006A904222046FDF73DFF336894F80890F0
:1026C000013343F2010318BF0023ADF80C30B9F118
:1026D000000F40F0A88003A902222046FDF72AFF40
:1026E000237AADF80A90002B40F09F8002220DF172
:1026F0000A012046FDF71EFF237A32680E92002B56
:1027000040F095800EA904222046FDF713FF237A9E
:10271000ADF80890002B40F08C8002A902222046E0
:10272000FDF708FF237ACDF83490002B40F083802A
:102730000DA904222046FDF7FDFE237ACDF8309046
:10274000002B7AD10CA904222046FDF7F3FE237A50
:10275000CDF82C90002B72D10BA904222046FDF756
:10276000E9FE237ACDF82890002B6AD10AA9042229
:102770002046FDF7DFFE237ACDF82490002B62D1AE
:1027800009A904222046FDF7D5FE237ACDF8209032
:10279000002B5AD1042208A92046FDF7CBFE237A4C
:1027A000D8F800200792002B51D107A90422204617
:1027B000FDF7C0FE336894F80880A3F1FF33B3FA45
:1027C00083F35B09ADF80E30B8F1000F41D10DF184
:1027D0000E0102222046FDF7ADFE267AC5F80080E4
:1027E000FEB9294604222046FDF7A4FE237A0F965F
:1027F000ABB90FA904222046FDF79CFE42E704AEC8
:1028000024AF0DF1140833463A46CDF80080A847AE
:1028100010ADE9E643F20102ADF80C20F3E6E368FF
:102820002EE7E36828E7E368EDE6E368F0E6E368AF
:10283000F2E6E368F5E6E368F7E6E368F9E6E368FD
:10284000FBE6E368FDE6E368FFE6E36801E7E368CB
:1028500004E7E3680CE700BFF9060000243E02002D
:10286000002A31D02DE9F04104460F4616464FF0BC
:102870000008606828B9042015F010F8606000288E
:10288000F9D0418805886D1AB54228BF354637B161
:10289000083001442A46384613F034FB2F44606860
:1028A000438802882B449BB29A42A6EB05064380DC
:1028B00003D0002EDDD1BDE8F08115F055FEC4F83F
:1028C0000480002ED5D1F6E7704700BF2DE9F04314
:1028D00085B0904606460F46684611460A2299463C
:1028E0000C9C0D9D12F08EFF6946504812F0DCFFE3
:1028F000684612F015FFB8F1090F40F386800A22EE
:102900003946684612F07EFF6946494812F0CCFF0E
:10291000684612F005FF092F67DD0A223146684636
:1029200012F070FF6946434812F0BEFF684612F08D
:10293000F7FE092E49DD0A222946684612F062FF99
:1029400069463D4812F0B0FF684612F0E9FE092DD5
:102950002BDD0A222146684612F054FF69463748AB
:1029600012F0A2FF684612F0DBFE092C0EDC34499F
:10297000684612F015FF3149684612F0EFFF014634
:102980002E4812F089FF684612F0CAFE0A22494614
:10299000684612F037FF69462A4812F085FF6846FC
:1029A00012F0BEFE05B0BDE8F0832549684612F07E
:1029B000F7FE2149684612F0D1FF01461E4812F089
:1029C0006BFF684612F0ACFEC3E71D49684612F083
:1029D000E7FE1849684612F0C1FF0146154812F09B
:1029E0005BFF684612F09CFEA5E71549684612F0A9
:1029F000D7FE0F49684612F0B1FF01460C4812F0AD
:102A00004BFF684612F08CFE87E70D49684612F0CE
:102A1000C7FE0649684612F0A1FF0146034812F0BE
:102A20003BFF684612F07CFE69E700BF4428FF1FA9
:102A30005C19FF1F2819FF1F4C1AFF1FF019FF1FF9
:102A4000242B02001828FF1F2DE9F04383B00DF05E
:102A500023F8DFF86490DFF86480C9F800000DF017
:102A60000BF8C8F800000CF0F7FF0F4F0F4E38605E
:102A70000DF022F830600DF02FF80D4D28600DF0AC
:102A80003BF82B6836680B4DD9F80020D8F80010B9
:102A9000044638688DE8480023462C60FFF716FF8F
:102AA00003B0BDE8F08300BF8019FF1F7819FF1F36
:102AB0007C19FF1FB827FF1FA028FF1F7419FF1FD5
:102AC00070B5FA208AB013F077FF934B934994487E
:102AD00000241C600CF096FB4FF6E07190480BF060
:102AE000D3FC21468E480BF0E5FC0A2342F20E721D
:102AF0008C498B480094AA250CF00AFA45F27131F2
:102B000087480BF0C1FC0095962328220A218448AF
:102B10000BF04EFD4FF4A076294600954FF49B73C1
:102B200028227F480BF044FDEE23BE2252217C4830
:102B300000960BF03DFD4FF6FF7179480BF0A4FCB9
:102B40000095962328220A2175480BF047FE294656
:102B500000954FF49B73282271480BF03FFEEE2343
:102B6000BE2252216E4800960BF038FEA9254BF686
:102B7000F7516B480BF088FC0095952329220B2117
:102B800067480BF02BFE009540F235132922AB214C
:102B900063480BF023FE40F23F13BF220093532102
:102BA000ED235F480BF01AFE4FF6FF715C480BF007
:102BB0006BFC45F271315A480BF07CFC3C2310222F
:102BC0005949574800940CF0A3F95A232822574931
:102BD000534800940CF09CF93C23D02254495048AF
:102BE00000940CF095F95A23B82252494C480094AD
:102BF0000CF08EF97823B0224F49494800940CF02C
:102C000087F9D22374224D49454800940CF080F98D
:102C1000F02358224A49424800940CF079F94FF4C5
:102C20008773602240493E4800940CF071F92146B8
:102C30003B480BF03FFC434B1D78002D40F0928049
:102C40004FF4784136480BF01FFC40F259130A222A
:102C50003D49334800950CF05BF90CF081FF0228E8
:102C600000F092804FF478412D480BF00DFC0023CA
:102C700000930A224FF4B973344929480CF048F9FB
:102C800002AC06AD40F2BD1200924FF49B730A21D4
:102C900023480BF09DFE2E4921480CF0B3FA2D4934
:102CA000204612F07DFD2C49204612F057FE0026EA
:102CB0000146284612F088FD4FF4E17342F20E728D
:102CC0002946009616480CF08DF9284612F028FD8A
:102CD000204612F025FD2149204612F061FD2049D1
:102CE000204612F03BFE0146284612F06DFD40F2F0
:102CF000D11342F20E722946009609480CF072F97F
:102D0000284612F00DFD204612F00AFD0349044842
:102D10000CF078FA0AB070BD4028FF1F444A020048
:102D2000001AFF1F282B0200382B0200442B020040
:102D30004C2B0200542B02005C2B0200682B02007B
:102D4000702B02008C1BFF1F7C2B02009C2B0200AF
:102D5000CC450200C42B0200DC19FF1FE02B02004F
:102D60008C28FF1F4FF4FC6136480BF08DFB40F2BE
:102D700059130A223449334800940CF0C9F80CF076
:102D8000EFFE02287FF46EAFFFF75EFE002640F2F2
:102D9000FF712C480BF078FB4FF4B9730A220096B0
:102DA0002A4928480CF0B4F802AC4FF6FF712548C8
:102DB0000BF06AFB2046264912F006FD2046254905
:102DC00012F0D4FD244912F0C9FD224912F0CEFDC3
:102DD000224912F0C3FD06AD0146284612F0F4FC6C
:102DE0004FF4C3730A222946009616480CF0FAF8ED
:102DF000284612F095FC204612F092FC2046184915
:102E000012F0E2FC2046174912F0B0FD164912F00C
:102E1000A5FD144912F0AAFD144912F09FFD0146C8
:102E2000284612F0D1FC29464FF4CD730A220096B1
:102E300004480CF0D7F8284612F072FC204612F035
:102E40006FFC1FE7001AFF1F902B0200B02B02003F
:102E50001828FF1FC02B0200F019FF1F4C1AFF1F7C
:102E60002819FF1F8C3D02005C19FF1F4428FF1F1B
:102E70002DE9F0438FB006A8002112F091FC03AFBA
:102E8000DFF86480C7F18005C7F1E0090DF1150690
:102E90003C46281912F0E6FF04F8010BB442F8D1C1
:102EA00039460AA812F07CFC0AA906A812F0FCFC1C
:102EB0000AA812F035FC00230922694606A812F080
:102EC00079FD1022002168461BF08EFA203548F863
:102ED000040B052013F070FD4D45D9D106A812F062
:102EE0001FFC0FB0BDE8F0839024FF1F30B52B4CC2
:102EF00083B04FF4EB75204600210BF0C5FA204655
:102F000000954FF49B734FF4CD72A0210BF0C4FCDD
:102F1000204645F271310BF0B7FA009520464FF488
:102F20009B734FF4CD72DC210BF042FB20464FF631
:102F3000FF710BF0A9FA009520464FF49B734FF4F4
:102F4000CD72DC210BF04AFC20464BF6F7510BF01A
:102F50009BFA40F2D51340F29B1220460093DD21EC
:102F600040F235130BF03AFC204645F271310BF07C
:102F7000A1FA002520464FF6FF710BF085FA204696
:102F800000954FF4D873E92205490BF0C1FF29469B
:102F9000204603B0BDE830400BF08CBA001AFF1F8A
:102FA000F42B02002DE9F04F4FF0000985B0804668
:102FB0004F4660480CF03EFB58B9002FF9D0B9F1EC
:102FC000000F00F09B805B4801270CF033FB0028CA
:102FD000F3D058480CF050FA56480CF041FBA0F1E1
:102FE0000A0B824653480CF07DFBBBF1280F0646C6
:102FF00034D8B8F1000F31DD342401250FE00BF097
:1030000043FA04F124030093224630230C214A485A
:1030100001350BF0CDFAA84504F132041EDBA31EE6
:103020009E424FF00001444804F12602E7DB96423D
:10303000E5DC4FF4FC610BF027FA04F12403009364
:10304000224630230C213C480BF0B2FA039501359F
:10305000A8454FF0010704F13204E0DAA6F5CD7679
:103060003C2E44D8AAF1F00ABAF1460F3CD8002F02
:103070009FD0002130480BF007FA40F299130093DB
:1030800019224FF49B730A212B480BF005FC4FF4D7
:10309000EB734FF4CD720093DC214FF49B73264801
:1030A0000BF0FAFB00244FF6797123480BF0ECF992
:1030B0004FF4CD73A02221491F4800940BF028FF44
:1030C0004FF4D773A0221E491B4800940BF020FF39
:1030D00000944FF4E173A0221A4917480BF018FF2F
:1030E000B9F1000F0ED11EE0BBF16C0F15D9002F06
:1030F0003FF45FAFB9F1000F7FF465AF4C46FFF7C7
:10310000F5FE34B1C82013F057FC039805B0BDE8B4
:10311000F08F4FF001094F464BE737B1B9F1000F7F
:1031200005D1CDF80C900124E9E70397EAE70023E5
:103130000393E7E7D027FF1F001AFF1FFC2B0200B5
:10314000042C02001835020008B505480BF032F9CE
:10315000C82013F031FCBDE80840FFF7B1BC00BF48
:10316000001AFF1F002A12DDF8B505460020174699
:103170000E460446315D2844013412F08DFEE4B25F
:103180000A2013F019FCBC422046F3DBF8BD70475F
:10319000F0B5002A8BB018DD0E46920002A906EBAE
:1031A000020E0F4656F8044B019401AB3C4613F84F
:1031B000015B04F8015B8B42F9D1764507F1040706
:1031C000F0D1FFF7CFFF0BB0F0BD920002A9F8E7F6
:1031D000F0B5BC4C0FCCB7B01EAD0FC50FCC0FC5B2
:1031E00094E80F0004F1100685E80F000FCE0027C9
:1031F0002AAD8DF808700FC50FCE0FC596E80F00E9
:10320000403485E80F000FCC16AD0FC594E80F00D1
:103210004FF0000ECDF814E0CDF818E085E80F006F
:10322000A9488DF810708DF811700BF0C3F8A749FC
:10323000A548A74E0BF0E6FF4FF6E071A2480BF051
:1032400023F9462342F20E72A2499F4800970BF0E1
:103250005FFE39460AA812F0A3FA334606F10C00C5
:103260000EAA13F8011B02F8011B9842F9D10C2297
:103270000EA92020FFF776FF07AD2024204612F08C
:10328000F1FD01342C2C05F8010BF7D107A90EA88C
:1032900012F086FA0EA90AA812F006FB0EA812F088
:1032A0003FFA00230C2207A90AA812F083FB8849E1
:1032B00007A819F0D9FC0546642013F07DFB864B66
:1032C0000EAA581D13F8011B02F8011B9842F9D1F0
:1032D00005220EA90020FFF745FF642013F06CFBC8
:1032E000012202A94FF4A070FFF73CFF1EAF4FF47C
:1032F00000743A68D7F804E0BB680E922046203488
:1033000003220EA9A4B2CDF83CE01093FFF740FFD2
:10331000B4F5207F07F10C07EBD16420002413F0F3
:103320004BFB04220EA94FF440700E940F9410949E
:103330001194FFF72DFF04220EA94FF448700E944C
:103340000F9410941194FFF723FF642013F034FBC3
:103350002AAF4FF480643A68D7F804E0BB680E9255
:103360002046203403220EA9A4B2CDF83CE01093ED
:10337000FFF70EFFB4F5906F07F10C07EBD1642057
:1033800013F01AFB7379302B0CD000234FF4C0607C
:1033900003220EA90E930F931093FFF7F9FE6420FA
:1033A00013F00AFBF37A302B08D04FF400600122AF
:1033B00005A9FFF7EDFE642013F0FEFA012206A92D
:1033C0004FF40660FFF7E4FE642013F0F5FA16AE42
:1033D0004FF4E064326873680E9220462034022273
:1033E0000EA9A4B20F93FFF7D3FEB4F5F06F06F168
:1033F0000806EFD136AC022204A94FF42060002762
:10340000FFF7B0FE04F8CC7D0122164621464FF4AA
:103410001A60FFF7A7FE2146324640F605108DF8E8
:103420000C60FFF79FFE3246214640F61510FFF76D
:1034300099FE3246214640F61610FFF793FE3246BB
:10344000214640F60210FFF78DFE03232146324647
:103450004FF410608DF80C30FFF784FE32462146A1
:1034600040F60110FFF77EFE0423214632464FF45A
:1034700011608DF80C30FFF775FEADB94FF478414F
:1034800011480BF001F80095462342F20E721349E1
:103490000D480BF03DFD40F6B83013F08DFA0AA848
:1034A00012F03EF937B0F0BD4FF4FC6106480AF067
:1034B000EBFF0097462342F20E72094902480BF0D7
:1034C00027FDE8E798240200001AFF1F444A020083
:1034D000480CFF1F102C02005C0CFF1F302C020058
:1034E0001C2C02002DE9F047624882B00AF062FF0E
:1034F0004FF4FA7013F060FA5F495E4800240BF055
:1035000081FE4FF6E0715B480AF0BEFF234642F2AF
:103510000E720094594957480BF0FAFC4FF4EB75C2
:103520004FF4484153480AF0AFFF76234FF4CD7271
:103530000A21504800950BF03BF84FF6FF714D48BB
:103540000AF0A2FF76234FF4CD720A214948009574
:103550000BF044F94BF6F75146480AF095FF40F25C
:10356000D51340F29B1200930B21752341480BF0B9
:1035700035F94FF448413F480AF09CFF4FF6FF7180
:103580003C480AF081FF4FF4D873102200943C4964
:1035900038480BF0BDFC214636480AF08BFF4FF649
:1035A000797134480AF070FF00944FF4CD73A02273
:1035B000344930480BF0ACFC00944FF4D773A02290
:1035C00031492C480BF0A4FC4FF4E173A022009485
:1035D0002E4928480BF09CFC40F2FF7125480AF068
:1035E00053FF19230A220094294922480BF090FC2A
:1035F0004FF6FF711F480AF047FF00943E233C221C
:1036000024491C480BF084FC009470233C2222497E
:1036100018480BF07DFC0094A2233C221F4915485A
:103620000BF076FC4FF6FF7112480AF02DFF3224A2
:1036300004F12803224600930A2132230D480BF09F
:10364000CDF804F127030093621C31230B2132349F
:1036500008480BF0C3F8C82CEAD10320FFF7A2FCFE
:10366000032800F21184DFE810F02601E001DB01FD
:103670004F0100BF001AFF1F444A02003C2C020009
:103680004C2C0200FC2B0200042C02001835020016
:10369000542C0200642C02008C2F0200702C0200BB
:1036A000874C3323E371874B874A19688748002387
:1036B0000DF004FC864B05461870002840F0688326
:1036C00082480DF0C3FA294682480AF0DDFE40F236
:1036D000DF1300931E224FF49B730A217D480BF0E9
:1036E000DBF8422731232D22302640F2FF71794842
:1036F0002770A37023726672A2720AF0C5FE462379
:1037000042F20E720095744972480BF001FC4FF6BC
:10371000FF7170480AF0B8FE0095642342F20E7201
:1037200067496C480BF0F4FB4FF0DC0A4FF0CD0911
:103730004FF0BE08AA279B268C25002467496548C0
:103740000BF060FD2B460A226549624800940BF09D
:10375000DFFB33460A2263495E4800940BF0D8FB36
:103760003B460A2260495B4800940BF0D1FB43467C
:103770000A225E49574800940BF0CAFB4B460A22C6
:103780005B49544800940BF0C3FB53460A22594945
:10379000504800940BF0BCFB57494E480BF032FDEB
:1037A0004FF4EB7545F271314A480AF06DFE4FF463
:1037B0009B734FF4C3720095AA2146480AF0F8FEA5
:1037C0004FF4484143480AF05FFE96234FF4C3721A
:1037D00000950A213F480AF0EBFE4FF6FF713D4885
:1037E0000AF052FE00954FF49B734FF4C372AA2166
:1037F00038480AF0F3FF96234FF4C37200950A216C
:1038000034480AF0EBFF40F2D5154BF6F75131483A
:103810000AF03AFE40F2351340F28712AB212D48F0
:1038200000950AF0DBFF952340F287120B2129480F
:1038300000950AF0D3FF4FF6FF7126480AF024FEE8
:1038400045F2713123480AF035FE4FF4D373D0228C
:103850002A49204800940BF05BFB4FF448411D4877
:103860000AF028FE26491B4800944FF4D373202207
:103870000BF04EFB214617480AF01CFE21480BF0C6
:10388000D9FE0028FAD01F480BF0F6FD1D480BF0BA
:10389000E7FE04461B480BF025FFA0F59B70A0280F
:1038A000A4F10A03EAD88C2BA4F1AA0403D98C2C26
:1038B000E4D8FFF78DFC02B0BDE8F047FFF744BC49
:1038C000480CFF1F1429FF1F5C2D02006828FF1FF2
:1038D0006C19FF1F001AFF1F742D0200CC45020057
:1038E000942D0200BC2D0200E42D0200042E0200E3
:1038F0002C2E0200542E0200444A0200702E0200B8
:10390000782E0200D027FF1F754C3323E372002569
:10391000002440F2FF7173480AF0B6FD19230A2211
:10392000009471496F480BF0F3FA4FF6FF716D4840
:103930000AF0AAFD3E233C2200946C4969480BF032
:10394000E7FA6B4967480BF05DFC3E23CC220094FC
:10395000684964480BF0DCFA674962480BF052FC96
:10396000009470233C2265495E480BF0D1FAA223F3
:103970003C22009462495B480BF0CAFA5C49594802
:103980000BF040FCA2237C2200945E4955480BF0CA
:10399000BFFA594953480BF035FCD4233C2200941C
:1039A000574950480BF0B4FA51494E480BF02AFCE5
:1039B000D4237C22009454494A480BF0A9FA4E497A
:1039C00048480BF01FFC4FF6FF7146480AF05CFDBB
:1039D000322404F12803224600930A21322341486D
:1039E0000AF0FCFE04F127030093621C31230B2133
:1039F00032343C480AF0F2FEFA2CEAD10420FFF7F8
:103A0000D1FA04281AD801A353F820F0B7380000DF
:103A1000393D0000313D0000293D0000373A0000EB
:103A20002F4C3223E372002572E72D4C3023E372D2
:103A3000637101256CE72A4C3423E370002440F2C3
:103A4000FF7128480AF020FD19230A2200942F490B
:103A500024480BF05DFA4FF6FF7122480AF014FD7E
:103A600000943E233C222A491E480BF051FA009450
:103A700070233C2227491B480BF04AFA0094A223EA
:103A80003C22254917480BF043FA4FF6FF711548C1
:103A90000AF0FAFC322404F12803224600930A219A
:103AA000322310480AF09AFE04F127030093621CA7
:103AB00031230B2132340B480AF090FEC82CEAD196
:103AC0000320FFF76FFA03282DD801A353F820F045
:103AD000B73800001D3B00007B3C0000713C00003B
:103AE000480CFF1F001AFF1F782C0200842C0200D4
:103AF000CC450200902C0200444A02009C2C02009B
:103B0000A82C0200AC2C0200BC2C0200CC2C020021
:103B1000E02C0200F02C0200F82C0200904B312225
:103B20001A7105B95A71002440F2FF718D480AF0EC
:103B3000ABFC19230A228C498A4800940BF0E8F95F
:103B40004FF6FF7187480AF09FFC3E233C228749CD
:103B5000844800940BF0DCF970233C2284498148AE
:103B600000940BF0D5F94FF6FF717E480AF08CFCFB
:103B700032235A2200920A211A467A480AF02EFE6F
:103B800059230093332231230B2176480AF026FE75
:103B90008C230093642232230A2172480AF01EFE0D
:103BA0008B230093652231230B216E480AF016FE09
:103BB0000220FFF7F7F9012800F0CE80022800F07C
:103BC000C78000283FF477AE002440F2FF716548BB
:103BD0000AF05AFC19230A220094664961480BF046
:103BE00097F94FF6FF715F480AF04EFC00943E23B0
:103BF0003C2261495B480BF08BF9009470233C2216
:103C00005E4958480BF084F90094A2233C225C4999
:103C100054480BF07DF94FF6FF7152480AF034FC1E
:103C2000322404F12803224600930A2132234D480E
:103C30000AF0D4FD04F127030093621C31230B2109
:103C4000323448480AF0CAFDC82CEAD10320FFF7F5
:103C5000A9F9032800F21A8101A353F820F000BF4C
:103C6000B7380000493D0000413D0000A13600008A
:103C70003B4C32232371637155E7394E3124347143
:103C8000002D7FF450AF40F2FF7136480AF0FCFB84
:103C900019230A223B49334800950BF039F94FF6B6
:103CA000FF7130480AF0F0FB3E233C2236492D4894
:103CB00000950BF02DF970233C22344929480095DA
:103CC0000BF026F94FF6FF7126480AF0DDFB322390
:103CD0005A2200920A211A4622480AF07FFD5923EF
:103CE0000093332223460B211E480AF077FD8C23D4
:103CF0000093642232230A211A480AF06FFD8B23B5
:103D00000093652223460B2116480AF067FD022026
:103D1000FFF748F9012800F0B480022800F0AF80D6
:103D200000287FF400AFC6E50D4C3323E37085E631
:103D30000B4C3223E37081E6094C3123E3707DE6BE
:103D4000074C3123E371AEE4054C3023E371AAE460
:103D5000034C3223A37137E7014C3123A37133E7BE
:103D6000480CFF1F001AFF1F042D0200142D020033
:103D70001C2D0200242D0200342D02003C2D0200D7
:103D8000502D0200802E02008C2E0200942E020084
:103D9000002306223E493F4800250DF0B9F940F2C4
:103DA000FF713D480AF070FB3C230A2200953B4915
:103DB00039480BF0ADF84FF6FF7137480AF064FB55
:103DC0005A230A223249009533480BF0A1F83148B2
:103DD0000CF03CFF294630480AF056FB40F2DF1356
:103DE00000931E224FF49B730A212B480AF054FDC6
:103DF000422731232D22302640F2FF7126482770BA
:103E0000A37023726672A2720AF03EFB462342F24E
:103E10000E720095224920480BF07AF84FF6FF7198
:103E20001D480AF031FB642342F20E7200951D49D1
:103E300019480BF06DF840F2FF7117480AF024FBA7
:103E40008C2342F20E720095174913480BF060F86C
:103E50004FF6FF7110480AF017FB0095AA2342F2B3
:103E60000E720B490C480BF053F84FF4917A40F264
:103E700013194FF48278F027E126D2255DE474719E
:103E800051E6302373714EE6002541E5054C0AE406
:103E90005C0CFF1F6828FF1F001AFF1F642D020023
:103EA000742D0200480CFF1F842D0200F8B5272353
:103EB000294C2A4E232205460121184633702270D0
:103EC00012F050FD3078002112F038FD20780121E9
:103ED00012F048FD2078002112F090FB322D28D0FE
:103EE000332D14D0312D00D0F8BD1D4A1D481E4E73
:103EF0001E4C1F491F4B1060822741F29415002071
:103F00004FF4B4723760256008601A60F8BD164A35
:103F1000164E174C1249174B6420106046F2A81732
:103F2000022510204FF4C8723760256008601A60BF
:103F3000F8BD0D4A0D4E0E4C09490E4B6420106021
:103F400046F2A81700254FF480704FF48372376053
:103F5000256008601A60F8BDD819FF1FB824FF1F3C
:103F6000B419FF1FD0010100CC27FF1F4419FF1F08
:103F70000C20FF1FD419FF1F08B513F0ABFA064B36
:103F80000021187812F03AFB044B00211878BDE8A4
:103F9000084012F0D3BC00BFD819FF1FB824FF1F80
:103FA00010B5384BDB7A322B82B004463AD0332B33
:103FB00002D135480FF04EFAFA2012F0FDFCFFF75F
:103FC000DBFF002131480AF05FFA4FF4AC73152291
:103FD0000093022140F23D132C480AF05DFC4FF49F
:103FE00078412A480AF050FA0023009327482849CC
:103FF000962342F20E720AF08BFFA01F08280FD8FA
:10400000DFE800F0141F2A0E0E0E0E350500002307
:10401000009342F20E72C8231E491C480AF078FF32
:1040200002B010BD1C480BF04BFFC5E70023009306
:1040300042F20E72C823194914480AF069FF02B00F
:1040400010BD0023009342F20E72C82314490F489A
:104050000AF05EFF02B010BD0023009342F20E7220
:10406000C823104909480AF053FF02B010BD0023CD
:10407000009342F20E72C8230B4904480AF048FF2D
:1040800002B010BD480CFF1F2C25FF1F001AFF1F98
:1040900044390200F02E0200C024FF1F9C2E0200B3
:1040A000B02E0200C82E0200DC2E0200FFFFFFFF30
:1040B00030B57D4A7D4B107889B0002401211C70F9
:1040C00012F03CFC7A4BDB7A322B49D0332B44D1B3
:1040D000784BC821187812F091FAAA2342F20E7296
:1040E0007549764800940AF013FFD02342F20E720D
:1040F0007349724800940AF00BFF724972480FF03E
:10410000EFF840F2DC5012F057FC642203A96E482D
:104110000FF0E6F9A0425FDB6C4B6D4C18789DF810
:104120000C30237017F09AFA9FED5D0B41EC110BE8
:1041300014F042FF51EC100B17F0DEFD2378654AB6
:10414000183BDBB2192B107000F2A380624A22FAEE
:1041500003F3DB0740F19D800124204609B030BD08
:104160000094AA2342F20E72534954480AF0D0FE3A
:10417000D02342F20E725249009450480AF0C8FE11
:104180004FF47A6012F018FC40F2124013F01EF95E
:104190004FF4FA7012F010FC504951480BF06EFDCC
:1041A000072405464FF4FA70EDB912F005FC4B49AF
:1041B0004B480BF063FD013C0546F3D121463F48D7
:1041C0000AF062F9EC230093AA224FF49B730A21B0
:1041D0003A480AF061FB9DB90620FFF7E1FE002492
:1041E000204609B030BD002134480AF04DF9EC23D7
:1041F0000093AA224FF49B730A2130480AF04CFB2B
:1042000000240094AA23A02236492C480AF080FEFC
:10421000D023A0222A49009428480AF079FE40F6CB
:10422000B83012F0C9FB4FF4FA7012F0C5FB2C48FD
:104230000BF0CEFD0F2504464FF4FA70DCB912F0F6
:10424000BBFB27480BF0C4FD013D0446F4D12946D1
:104250001A480AF019F9EC230093AA224FF49B7331
:104260000A2116480AF018FB002C7FF475AF0720CE
:10427000FFF796FE71E7002110480AF005F9EC23DC
:104280000093AA224FF49B730A210C480AF004FB06
:1042900063E70E20FFF784FE00245EE7AFF30080A3
:1042A0000000000000000040B824FF1F1020FF1F86
:1042B000480CFF1FD819FF1F082F0200001AFF1F0C
:1042C0001C2F0200040EFF1F2C25FF1FD019FF1FFB
:1042D0009C24FF1F3C28FF1F0140010244450200AF
:1042E000C024FF1F2C2F02002DE9F0472DED048B79
:1042F00090B0B2EE040A012107A811F097FA07A9BD
:104300000BA811F061FAD0490BA811F02FFB014660
:1043100003A811F059FA0BA811F002FA07A811F03E
:10432000FFF94FF6FF71C9480AF0AEF803A90BA8D0
:1043300011F04AFA00230BA90093EA224FF4B47358
:10434000C2480AF04FFE0BA811F0EAF90220FFF76D
:10435000AFFE002840F019810124BD4E9FEDBD9AAB
:10436000DFF82483DFEDBC8A9FEDBC8A37464FF02F
:104370002009002514B3BA480BF05CF90028F9D0E5
:10438000002DF7D1B6480BF077F8B5480BF068F977
:104390008246B3480BF0A6F96FF4D27318443A285A
:1043A000E8D8AAF10A03562B00F28580AD4B09220A
:1043B0004FEA49091A600125002CDCD14FF4FA615B
:1043C000A3480EF09FFF0028C0F2938097F8D131E8
:1043D0004BB1DFF890A2DAF800300133032BCAF8B2
:1043E000003000F3AA80D6ED726AF4EEC96AF1EEED
:1043F00010FA5CDD9C4B96ED737A93ED006ADFF862
:104400008CE29FED9A5AF6EE007A37EE277AB8EEF4
:10441000C66A07EE909AF8EEE75A77EE067AFDEE56
:10442000E77A17EE903A83FB08011944DA17C2EBDA
:1044300021224FF4B47101FB1233CB1A5EF8232012
:1044400007EE102AB8EEC77A27EE267A87EE286A9A
:1044500026EE257AC7EE087A77EE857AFDEEE77AC2
:1044600017EE901A4A1EB2F59F7F84D2804ADFED84
:10447000817A52F8233007EE103AB8EEC77A67EE29
:10448000266A86EEA87A67EE255A85EE887A77EE58
:10449000C77AFDEEE77A17EE902AA2F11503B3F57D
:1044A0009F7FBFF468AF69480AF012F863E7012004
:1044B00012F082FA5FE7AAF17503562B08D8694B10
:1044C00009EBD97909224FEA69091A60012551E7F8
:1044D000AAF1E00ABAF1560F3FF64CAF002C00F0FB
:1044E000188103A811F01CF910B0BDEC048BBDE8D5
:1044F000F08764220BA956480EF0F2FF0028FFF661
:104500003AAF4FF47A62214651480FF0A1F80028E3
:10451000C0F2C78021464D4809F0B6FF4FF4A97399
:10452000009315224FF49F73012148480AF0B4F913
:104530004FF47A7012F040FA1DE72146434809F023
:10454000A3FF4FF4A9731522009301214FF49F7329
:104550003E480AF0A1F94FF494613C4809F094FFF9
:104560000323B422A02139480AF07EF8DAF800309B
:10457000082B00F39B8025464FF6E071334809F085
:1045800083FF0023CAF800302DE74FF6E0712F4873
:1045900009F07AFF384B1B78183B0024192B3FF6A3
:1045A000DCAE01A252F823F0914600005B4300000C
:1045B0005B4300005B4300005B4300005B43000083
:1045C0005B4300005B4300005B4300005B43000073
:1045D0005B4300005B4300005B4300005B43000063
:1045E000354600005B430000234600005B430000AB
:1045F0005B4300005B4300005B4300005B43000043
:104600005B4300005B4300005B4300001146000079
:1046100000944FF4C3730A2218490C480AF078FC3E
:104620009BE600944FF4C3730A22154907480AF029
:104630006FFC92E600944FF4C3730A2211490348B9
:104640000AF066FC89E600BF402F0200001AFF1F37
:104650002C25FF1F0000C84200401C4600007A4481
:10466000D027FF1F2425FF1F580CFF1F00002043E9
:10467000A43F0200000034439C24FF1F782F020057
:10468000582F0200682F0200B7600BB63C250200CD
:1046900000944FF4C3730A22224923480AF038FCDD
:1046A0005BE60820FFF77CFC012464E607EE909AA5
:1046B0009FED1E0AF8EEE77A012180EE270A07A88F
:1046C00011F0B4F807A90BA811F07EF818490BA84F
:1046D00011F04CF9014603A811F0DEF80BA811F017
:1046E0001FF807A811F01CF84FF6FF710E4809F0EB
:1046F000CBFE03A90BA811F067F800944FF4B47334
:10470000EA220BA908480AF06DFC0BA811F008F882
:1047100032E708480EF09EFEFA2012F04DF9FFF73E
:104720002BFCDEE6482F0200001AFF1F0000A0430A
:10473000402F02002C25FF1F2DE9F04F2DED028B9D
:1047400093B0B2EE040A01210AA811F06FF80AA989
:104750000EA811F039F8AB490EA811F007F901467F
:1047600006A811F031F80EA810F0DAFF0AA810F030
:10477000D7FF4FF6FF71A44809F086FE002406A972
:104780000EA811F021F84FF4B473EA220EA99E4846
:1047900000940AF027FC0EA810F0C2FF4FF6E0715B
:1047A000994809F071FE984800944FF4C3730A22A7
:1047B00096490AF0ADFB2046FFF77AFC002840F04E
:1047C000E1800124DFF86082DFF860A2DFF8609208
:1047D000DFED8F8AC3462027002504B38D480AF0F9
:1047E00029FF0028F9D0002DF7D18A480AF044FEAD
:1047F00088480AF035FF064686480AF073FF6FF4D2
:10480000D27318443A28E8D8A6F10A03562B66D882
:1048100009237F00C8F800300125002CDED104A850
:104820000DF10F027C490BF05FFA9DF80F30002B61
:10483000D4D004A80BF0B4F900285CD104A80BF084
:10484000B1F904A8B0EE408A0BF0B2F900EB800099
:10485000400080B264283ED9704B1B6898423ADA17
:10486000F6EE007A38EE278A6D4BFDEEC87A17EE29
:10487000906A53F8262002FB00F28AFB0213D2173B
:10488000C2EB233307FB03F389FB0321DB17C3EBE5
:10489000A11101F19F03B3F59F7F01F1A0019DD20A
:1048A000604B53F8263003FB00F08AFB0023C0174F
:1048B000C0EB233307FB03F389FB0302DB17A3EBF6
:1048C000A21202F19F03B3F59F7F87D2B4324E4804
:1048D00009F0FEFD82E7012012F06EF87EE7A6F1F6
:1048E0007503562B3AD807EBD77709237F10C8F802
:1048F0000030012571E7D8F800300133032BC8F8E8
:1049000000309BDD2146404809F0BEFD4FF4A973FD
:104910001522009301214FF49F733B4809F0BCFF1F
:104920004FF49461384809F0AFFD0323B422A0216D
:10493000354809F099FE4FF6FF71334809F0A4FDA0
:10494000DBF80030082B2CDC25464FF6E0712E48B2
:1049500009F09AFD0023C8F800306FE7E03E562EBC
:104960003FF63BAF2C480BF0ABFAFA2012F024F8DC
:10497000FFF702FB06A810F0D3FE13B0BDEC028BCC
:10498000BDE8F08F4FF47A7012F016F822480BF061
:1049900061FA00287FF416AF0820FFF701FB01241D
:1049A00010E707EE907AB8EEE70A012188EE800A58
:1049B0000AA810F03BFF0AA90EA810F005FF114944
:1049C0000EA810F0D3FF014606A810F065FF0EA850
:1049D00010F0A6FE0AA810F0A3FE4FF6FF710A48D9
:1049E00009F052FD06A90EA810F0EEFE00944FF457
:1049F000B473EA220EA904480AF0F4FA0EA810F0E3
:104A00008FFEA2E7402F0200001AFF1F882F02002E
:104A10000000A043D027FF1FC024FF1F4419FF1F21
:104A20003C250200A43F02002425FF1FAD8BDB685C
:104A3000D34D621070B5714882B009F0BBFC70496B
:104A40006E4840F2DF140AF0DDFB45F271316B482D
:104A500009F01AFD0094602340F2A5120A2167486C
:104A600009F0A6FD0094CB2340F2A51275216348FE
:104A700009F09EFD4FF49B7340F2A5120094E021D3
:104A80005E4809F095FD4FF6FF715C4809F0FCFCAB
:104A90000094602340F2A5120A21584809F09EFEB6
:104AA0000094CB2340F2A5127521544809F096FEDC
:104AB0004FF49B7340F2A5120094E0214F4809F097
:104AC0008DFE4FF4EF744BF6F7514C4809F0DCFCC7
:104AD00000945F234FF4D3720B21484809F07EFE07
:104AE0000094CA234FF4D3727621444809F076FE2D
:104AF00040F235134FF4D3720094E1213F4809F09E
:104B00006DFE45F271313D48002409F0D3FC4FF6AB
:104B1000FF713A4809F0B8FC4FF4DD732D22394992
:104B2000364800940AF0F4F94FF4DD7398223649C0
:104B3000324800940AF0ECF94FF4DD73EB2233496C
:104B40002E4800940AF0E4F921462C4809F0B2FC02
:104B500013254FF6FF71294809F096FC4FF4AD7606
:104B60002A462146009540F23F13244809F030FFC1
:104B700032462146009640F23F13204809F028FFB4
:104B80002A460096234621461C4809F021FF40F2A0
:104B90003F132A461946009618481D4E1D4D09F030
:104BA00017FF23462146E122144809F05DFC032348
:104BB000B422A021114809F057FD4FF6E0710F48CB
:104BC00009F062FC00944FF4B4730A2212490B48B6
:104BD00034702C600AF09CF9104BDB7A332B08D030
:104BE000322B01D002B070BD02B0BDE87040FFF7BB
:104BF000A3BD02B0BDE87040FFF776BB001AFF1FEF
:104C0000444A0200982F0200C02B02009C2F020091
:104C10003428FF1F2425FF1FA42F0200480CFF1F6C
:104C200070B5614C82B0022500212046A56408F0D1
:104C30004BFE204609F0BEFB2046002109F03AFC5D
:104C40000A215A4805F05AFA4FF4FA7011F0B4FEEE
:104C5000204657490AF0D6FA4FF4A2736422142171
:104C6000524805F0ABFA20464FF6FF7109F00CFCF4
:104C700029464E480A2506F023FB2A46DC234D49E7
:104C80004A48009507F0FAF90C232A4600934A494E
:104C90004648EB2307F0F2F90E232A4600934749D2
:104CA0004248FC2307F0EAF912232A4600934449BC
:104CB0003E4840F2111307F0E1F916232A4600930B
:104CC00040493A4840F2291307F0D8F91C232A46F4
:104CD00000933D49354840F2471307F0CFF94FF4B0
:104CE0009A734FF4BE725021304805F067FA4FF4C2
:104CF0009F734FF4BE72B4212C48002605F05EFA73
:104D000020464FF6E07109F0BFFB2B4642F20E72CF
:104D100020462E4900960AF0FBF820464FF6FF7118
:104D200009F0B2FB20462A490AF06CFA20461E23FD
:104D300042F20E72274900960AF0EAF8204628232C
:104D400042F20E72244900960AF0E2F8204632231D
:104D500042F20E72214900960AF0DAF82046412309
:104D600042F20E721E4900960AF0D2F84B2342F22C
:104D70000E7220461B4900960AF0CAF8204640F2FF
:104D8000FF7109F081FB009620464FF4E67342F272
:104D90000E7215490AF0BCF814480AF04BFC0028C2
:104DA000FAD002B070BD00BF001AFF1F681BFF1FC2
:104DB000444A0200B42F0200C82F0200DC2F020078
:104DC000F02F020004300200183002002C300200E4
:104DD000CC450200403002006830020090300200F2
:104DE000B8300200E030020004310200D027FF1F7B
:104DF000F0B52DED028B85B04FF6FF715A480026B5
:104E000009F042FB594958480096642342F20E7259
:104E10000AF07EF856480DF0D7FB4FF4FC610446CB
:104E2000514809F031FB002C00F08580642342F2E8
:104E30000E7250494C4800960AF06AF84FF47A70A6
:104E400011F0BAFD4FF6FF71474809F01DFB6423CE
:104E500042F20E724849444800960AF059F8A023DD
:104E60000096B022454940480AF052F8444BDF6AA8
:104E70003F0B36D007EE907A9FED428AF8EEE78A34
:104E80004FF48055340301220DF10F013E480CF020
:104E900077F80123012808BF9DF80F20344818BF78
:104EA000FF2221461C440DF045FBAC42EBD107EE3E
:104EB000906AF8EEE77A202267EE887A002387EE80
:104EC000A87A019200930136A0238022264805F596
:104ED0008055FDEEC77A17EE901A0AF0A3F8BE428D
:104EE000D0D1002428480BF0B1FEA02380220094EA
:104EF00026491D480AF00CF84FF4FC611A4809F0E5
:104F0000C3FA0094642342F20E722149164809F054
:104F1000FFFF782342F20E721E490094124809F0F6
:104F2000F7FF40F6B83011F047FDFFF779FE05B006
:104F3000BDEC028BF0BD4FF478410B4809F0A4FAA8
:104F4000642342F20E7214490094074809F0E0FF0E
:104F50000D480BF07BFE4FF47A6011F02DFD05B08B
:104F6000BDEC028BF0BD00BF001AFF1F183102001C
:104F70005C1AFF1F283102003C3102005031020050
:104F80005828FF1F0000C8426828FF1F5431020044
:104F9000583102006C31020078310200FFFFFFFF40
:104FA0002DE9F043C64FC74883B000243C6009F0A8
:104FB00001FA4FF4FA7011F0FFFCC349C1480AF03E
:104FC00021F94FF6E071BF4809F05EFA0A2342F278
:104FD0000E72BE49BB48009409F09AFFBC480DF020
:104FE0009DFA4FF6E0710546B64809F04DFA2823C0
:104FF0000A22B849B348009409F08AFF4FF6FF71BE
:10500000B04809F041FAC5F30743EF2BEDB2009425
:105010004FF03C034FF0320200F07481AE49A948D2
:1050200009F076FF4FF47841A64809F02DFAD22313
:1050300042F20E720094A949A24809F069FFA849FA
:10504000A0480AF0DFF84FF6FF719E4809F01CFAFD
:105050000094E62342F20E72A2499A4809F058FFE2
:105060000094F52342F20E729F49964809F050FFD2
:1050700000944FF4827342F20E729C49914809F0F9
:1050800047FF91498F480AF0BDF801244FF6E071BF
:105090008C48002609F0F8F950230A2294498948DF
:1050A000009609F035FF87484FF6FF7109F0ECF9DB
:1050B000A5F11100C3B2092B76D816F0DFFA9FEDE7
:1050C0007E0B41EC110B13F077FF51EC100B16F037
:1050D000EBFD202301460096019332226423794898
:1050E00009F0A0FF642300961A468249754809F02A
:1050F0000FFF1A2D98BF012610D8012303FA05F5DA
:1051000015F0F86840F0248115F4401940F04B8107
:1051100015F4602F40F03181002E4ED04FF4EB7526
:1051200045F27131674809F0AFF900954FF49B7370
:105130004FF4CD72AA21634809F03AFA4FF6FF7195
:10514000604809F0A1F900954FF49B734FF4CD72BC
:10515000AA215C4809F042FB4BF6F751594809F087
:1051600093F940F2D51340F29B120093AB2140F229
:105170003513544809F032FB45F27131514809F0BA
:1051800099F900254FF6FF714E4809F07DF9009519
:105190004FF4D873D02258494A4809F0B9FE29463D
:1051A000484809F087F908E00096642332224A490A
:1051B000444809F0ADFE1A2D9FD94FF4EB754FF41A
:1051C000484140483E4E09F05FF996234FF4CD72B6
:1051D00000950A213B4809F0EBF94FF6FF71394879
:1051E00009F052F996234FF4CD7200950A21354803
:1051F00009F0F4FA4BF6F751324809F045F940F25C
:10520000D51340F29B1200930B2195232D4809F0F2
:10521000E5FA4FF448412B4809F04CF900254FF6C8
:10522000FF71284809F030F94FF4D8732022334930
:105230002448009509F06CFE2946224809F03AF905
:1052400001233B602E480AF0F5F90028FAD02C48DB
:105250000AF012F92A480AF003FA054628480AF02B
:1052600041FAA0F59B70A028ECD8A5F10A038C2B7D
:105270004DD83B68012B11D0022BE3D100211148FE
:1052800009F002F940F2DF13009328224FF49B73D8
:105290000A210C4809F000FBFFF7AAFD094809F0B4
:1052A00089F8C82011F088FB03B0BDE8F043FDF792
:1052B00007BC00BFAFF3008000000000000000400A
:1052C0004028FF1F001AFF1F444A020088310200D5
:1052D0005C1AFF1F9C310200B4310200BC31020095
:1052E000CC450200C8310200E83102001032020051
:1052F0002432020034320200F42B0200782E020025
:10530000D027FF1F6549664809F002FEBEE6AA3DA8
:105310008C2D97D800216248DFF8BC8109F0B4F8E1
:1053200040F2DF13009328224FF49B730A215C485C
:1053300009F0B2FA4FF4FA7011F03EFB3B68012B12
:105340006DD0022B7FF47EAF56480BF07FFCA5E7B3
:10535000002540F2FF71524809F096F80095962317
:105360000A2251494E4809F0D3FD0095AA230A228A
:105370004E494B4809F0CCFDCEE64FF47841484801
:1053800009F082F8CDF8009096230A224849444853
:1053900009F0BEFDCDF80090AA230A2245494048F5
:1053A00009F0B6FD09E74FF6E0713D4809F06CF8E9
:1053B000CDF8008096230A223D49394809F0A8FD1E
:1053C000CDF80080AA230A223B49354809F0A0FD08
:1053D000CDF80080BE230A223849314809F098FDF3
:1053E000D2230A22CDF8008035492D4809F090FDDE
:1053F00040F2FF712A4809F047F8CDF80080F02309
:105400000A222949264809F083FDCDF800804FF48F
:1054100082730A222549224809F07AFD7CE6294B4D
:10542000294A19681F4800230BF048FD054600284B
:1054300054D14FF478411A4809F026F83C2342F23F
:105440000E7222491648009509F062FD4FF6FF7171
:10545000134809F019F85A2342F20E721C491048F9
:10546000009509F055FD6E2342F20E7216490C4864
:10547000009509F04DFD822342F20E72154908484D
:10548000009509F045FD07480BF0E0FB41F288303C
:1054900011F092FAC8F8005000E700BFAC310200EA
:1054A000001AFF1F6828FF1F94320200A832020072
:1054B0003C320200503202006032020074320200BC
:1054C000883202001429FF1FB4320200C4320200E5
:1054D000CC320200D83202004028FF1F00250223F0
:1054E0004FF6FF718048336008F0CEFF28230A2270
:1054F0007E497D48009509F00BFD3C230A227C493A
:105500007948009509F004FD7A49774809F07AFE58
:1055100064230A2278497448009509F0F9FC732342
:105520000A2276497048009509F0F2FC82230A228B
:1055300073496D48009509F0EBFC91230A227149EB
:105540006948009509F0E4FCA0230A226E496648E8
:10555000009509F0DDFCAF230A226C4962480095F2
:1055600009F0D6FC6A49604809F04CFE4FF4EB782C
:105570004FF448415C4808F087FF4FF49B734FF4A9
:10558000CD72AA215848CDF8008009F011F84FF6E5
:10559000FF71554808F078FF4FF49B734FF4CD72BC
:1055A000AA215148CDF8008009F018F940F2D51928
:1055B0004BF6F7514C4808F067FF40F2351340F2C4
:1055C0009B12AB214848CDF8009009F007F94FF441
:1055D0004841454808F06EFF4FF6FF71424808F019
:1055E00053FF4FF4D873C0224A493F48009509F051
:1055F0008FFC29463C4808F05DFF4FF494613A481F
:1056000008F042FF96234FF4CD720A213648CDF8B8
:10561000008008F0CDFF4FF6FF71334808F034FFEB
:1056200096234FF4CD720A212F48CDF8008009F05F
:10563000D5F84BF6F7512C4808F026FF952340F299
:105640009B120B212848CDF8009009F0C7F84FF4C1
:105650009461254808F02EFF4FF6FF71224808F0AC
:1056600013FF2D49204800954FF4D873302209F0DC
:105670004FFC29461C4808F01DFF002C3FF4E2AD0A
:105680004FF47841184808F0FFFED22342F20E7220
:1056900000952249144809F03BFC1649124809F0CC
:1056A000B1FD4FF6FF71104808F0EEFE0095E623BD
:1056B00042F20E721A490C4809F02AFC0095F523B3
:1056C00042F20E721749084809F022FC00954FF487
:1056D000827342F20E721449034809F019FC0C4916
:1056E000014809F08FFDADE5001AFF1FE43202000A
:1056F000F8320200CC4502000C33020030330200C5
:10570000543302007C33020098330200C03302009D
:10571000444A0200782E02004C2B0200BC310200E9
:10572000C8310200D0330200F433020070B5104ECD
:1057300082B001F10A030C4605460093A1F10A026A
:1057400000F10A03A0F10A01304609F017F86B1DB9
:105750002246691F3046009409F03AF9631D009310
:105760003046621F2B46294609F032F902B070BD5F
:10577000001AFF1F2DE9F047DFF8BCA0274F82B0C9
:105780004FF00009FF231A461946254808F06CFE21
:10579000DAF80030CDF8009042F20E72214920482C
:1057A00009F0B6FB1D4809F045FF0028FAD01C4857
:1057B000DAF80030CDF8009042F20E721A49002655
:1057C00009F0A6FB15483446354641F2883809F001
:1057D00031FFF0B1454511480DD1144B1449154A1C
:1057E000A3FB0404A3FB0603240B1B0B0C60136038
:1057F00002B0BDE8F08709F0B5FFB7F90020B7F9AE
:1058000002300648013514441E4409F013FF0028F5
:10581000E0D141F288339D42B4D1DEE7D027FF1FAB
:10582000001AFF1F04340200103402005917B7D1C8
:10583000E418FF1F0027FF1F0420FF1F70B5FF2380
:1058400082B005460E46144619461A461C4808F012
:105850000BFE31462846FFF769FF00231A46FF2159
:10586000174808F015FEFFF785FFFF231A46194673
:10587000134808F0F9FD134B13491B681048002228
:10588000009242F20E7209F043FB50231A46194669
:105890000B4808F0E9FD31462846FFF747FF0B4863
:1058A0000B4A0C490C4B0068126841F8240043F87D
:1058B00024200A4809F0BEFE0028FAD102B070BDCB
:1058C000001AFF1F0420FF1F1C340200E418FF1FF2
:1058D0000027FF1FE818FF1F0819FF1FD027FF1F11
:1058E00008B5084809F0A6FE0028FAD1054809F0D5
:1058F000A1FE0028FAD0034809F09CFE0028FAD146
:1059000008BD00BFD027FF1F0F4970B44C223026BE
:10591000782555240023CA720E704D708C720B735B
:1059200001F10902013100F00F03092B03F13704E3
:1059300096BF303314701370013A8A424FEA101048
:10594000F1D170BC704700BF8424FF1F30B5002325
:10595000784D794883B01A46FF2108F085FD2B6801
:10596000754800220D21013B0091114608F094FF7B
:10597000FF231A461946704808F076FD00231A46A0
:10598000FF216D4808F084FD2B686B480E22002132
:105990000C46013B009209F01BF8012342F20E7203
:1059A00066496548009409F0B3FA23462246214629
:1059B000614808F06DFD2B680094DC2B4FF01E034E
:1059C00071D042F20E725E495B4809F0A1FA3223AF
:1059D00022465C495848009409F09AFA3E23224630
:1059E00059495548009409F093FA4A2322465749E9
:1059F0005148009409F08CFA5623224654494E48E7
:105A0000009409F085FA6223224652494A480094DC
:105A100009F07EFA6E2322464F494748009409F068
:105A200077FA862322464D494348009409F070FADC
:105A3000922322464A494048009409F069FAAA2371
:105A4000224648493C48009409F062FAB6232246AF
:105A500045493948009409F05BFA4FF491732246A6
:105A600042493548009409F053FA4FF4977322469F
:105A70003F493148009409F04BFAFF221146234672
:105A80002D4808F0F1FC0094E22342F20E723949ED
:105A9000294809F03DFAFFF723FF274803B0BDE886
:105AA000304008F087BC22463349234809F030FAD9
:105AB000224600942A2331491F4809F029FA224638
:105AC000009436232E491C4809F022FA22460094FD
:105AD00042232C49184809F01BFA224600944E2311
