:1000000000000320D1010000515B0100095B0100E9
:10001000095B0100095B0100095B0100095B01004C
:10002000095B0100095B0100095B0100515B0100F4
:10003000515B0100095B0100E54A0100E94B010049
:10004000515B0100515B0100515B0100515B0100FC
:10005000515B0100515B0100515B0100515B0100EC
:10006000515B0100515B0100515B0100515B0100DC
:10007000515B0100515B0100515B0100515B0100CC
:10008000515B0100515B0100515B0100515B0100BC
:10009000515B0100515B0100515B0100515B0100AC
:1000A000A19B0000AD9B0000515B0100515B010072
:1000B000515B0100515B0100515B0100B966010019
:1000C000515B010079850100515B0100A5860100AB
:1000D000515B01001D6D0100515B0100515B01008E
:1000E000515B0100515B0100515B0100515B01005C
:1000F000515B0100515B0100515B0100515B01004C
:10010000098501001D85010031850100458501003B
:10011000515B010041750100515B0100515B010021
:10012000515B0100515B0100515B0100515B01001B
:10013000515B0100515B0100515B0100515B01000B
:10014000515B0100515B01008D720100515B0100A8
:10015000515B0100515B0100515B0100515B0100EB
:10016000515B0100515B0100B99B0000515B010034
:10017000515B0100515B0100515B0100515B0100CB
:10018000515B010025FF0000515B0100515B010044
:10019000515B0100515B01009D870100515B010033
:1001A000515B0100515B0100515B0100515B01009B
:1001B000515B0100515B0100515B0100515B01008B
:1001C000515B0100515B0100515B0100515B01007B
:1001D0005C4B4CF2205210B51A804DF628121A8052
:1001E00000BF00BF15F0B8FC574B4FF030621A60EB
:1001F000564A9A60564ADA60564B4FF470021A60BB
:10020000554B564A1A60564B1A78110703D51A787F
:1002100042F008021A70534B5349AA221A70534AEB
:10022000534B8B4204D252F8040F43F8040BF8E707
:10023000504B514900228B4202D243F8042BFAE77B
:100240004E494F4A002352F8230041F8230001335E
:10025000742BF8D14B4B4C4A802103F8011B93427D
:10026000FBD14A4B454A1A60494B8A221A70A3F5C2
:10027000805324225A70A0221A709A799207FCD5D2
:100280009A79D406FCD4434A937903F00C03082BE3
:10029000FAD1414B60221A7002331A78802AFCD1BD
:1002A0003C4B01221A715D225A719A799006FCD555
:1002B0009979384A4906FBD5384B394919600021EC
:1002C000596020231370937903F00C030C2BFAD19F
:1002D000344B354A1A60354A354C136813F4807331
:1002E00003D123604FF4A8531360324B324A1A6093
:1002F00000225A60072243F8042C304AC3F80C2D20
:1003000062B616F013F92368DA0705D52C4815F004
:10031000CBFE2C4B2C4A1A602C4B1B785B0609D564
:10032000284C294B22689A4204D1254815F0BCFE7E
:10033000002323601BF0E4FA15F014FC15F042FBD7
:10034000FEE700BF0E20054030800440823F0400DD
:100350000100002B88ED00E0002008E0030000858C
:1003600002D0074000E00740C818FF1F3C630200AE
:10037000400CFF1FC818FF1F4036FF1F0002FF1F61
:100380000000000000E400E064E400E008ED00E0AC
:10039000005006400040064001E007404480044011
:1003A0000000060204800440C010070010D0034083
:1003B00014D0034014E000E01FBF02000000202022
:1003C00048420C611CE00340A5C3945A00F007406A
:1003D000FFFFFFFFFFFFFFFFFFFFFFFFFFFFFFFF2D
:1003E000FFFFFFFFFFFFFFFFFFFFFFFFFFFFFFFF1D
:1003F000FFFFFFFFFFFFFFFFFFFFFFFFFFFFFFFF0D
:10040000FFFFFFFFFFFFFFFFFFFFFFFFDEF9FFFF23
:1004100010B5054C237833B9044B13B10448AFF33E
:1004200000800123237010BDC818FF1F00000000CA
:1004300038630200084B10B51BB108490848AFF3F8
:1004400000800848036803B910BD074B002BFBD0A0
:10045000BDE81040184700BF00000000CC18FF1F87
:1004600038630200C818FF1F00000000002070471A
:10047000027C02F0080202F0FF0332B1C36A406A54
:10048000181A48BF6FF0004070471846704700BF09
:100490000020704701207047034BD8691A79431E2A
:1004A0005002A3FB00017047901BFF1F15F0F6BD23
:1004B00000B583B001220DF10701103010F0C8FA29
:1004C00001280CBF9DF807004FF0FF3003B05DF826
:1004D00004FB00BF103010F0BFBB00BF103010F0A5
:1004E0002BBD00BF103010F02DBD00BF00B583B094
:1004F00002AB012203F8011D1030194610F022FD55
:1005000003B05DF804FB00BF503010F01BBD00BF0E
:1005100038B5074C204611F007FC0246207941020D
:10052000A1FB0245D31701FB03552046294638BDE0
:10053000901BFF1F002A2CDD2DE9F84300251646ED
:100540000F460446A846606820B917F055FD606064
:100550000028FAD030F8083B721BC3F140099145DE
:10056000A8BF9146791918444A4615F033FA6168D4
:100570000B884B449BB2402B4D440B8003D0AE42C2
:10058000E1DCBDE8F883042016F098FFC4F804808D
:10059000F5E770472DE9F043C56F95B0FDB1DFF881
:1005A000BC900446636FAB424DD3267D26B304F165
:1005B000140805EB85010901404610F0C1FB6946AE
:1005C0004046502210F044FA9DF80E1094F8802016
:1005D00052B1029BE36719B9E56F002DE2D1002506
:1005E000284615B0BDE8F083E36F606F01338342A6
:1005F000E36728BFE267EEE74FF47A7744F202231D
:10060000144A15498DF810608DF811608DF804605A
:100610008DF80C6004A804AE0297CDF8009010F09D
:10062000B5F90FCE04F1140847460FC70FCE0FC718
:1006300030689DF80410029A9DF80C3038602172E1
:10064000E2602374B5E70021502268461BF066FD86
:100650000021BBE7DC250200CC1FFF1F401F02006A
:10066000436F99423FD82DE9F041057D94B00F4684
:10067000044685B100F1140807EB870109014046E3
:1006800010F05EFB40465022694610F0E1F90198F7
:1006900014B0BDE8F0814FF47A7E144E144A154927
:1006A0008DF8105044F202238DF811508DF804504B
:1006B0008DF80C5004A804AD0096CDF808E010F0B9
:1006C00065F90FCD04F1140846460FC60FCD0FC6CD
:1006D00028689DF80410029A9DF80C303060217251
:1006E000E2602374C8E70020704700BF401F02008B
:1006F000DC250200CC1FFF1F2DE9F0470C46416F9F
:100700008C4294B0924699464FD8067D054626B352
:1007100000F1140804EB84010901404610F010FBBD
:1007200050226946404610F093F950460DF10E01F3
:10073000009D9DF80C401CF071F91C9B1D602CB9AC
:10074000019BC9F8003014B0BDE8F0874FF0FF33CB
:10075000C9F8003014B0BDE8F0874FF47A7E1A4F24
:100760001A4A1B498DF8106044F202238DF811607B
:100770008DF804608DF80C6004A804AE0097CDF8E5
:1007800008E010F003F90FCE05F1140847460FC733
:100790000FCE0FC730689DF80410029A9DF80C30F8
:1007A00038602972EA602B74B4E750220021684651
:1007B0001BF0B4FC50460DF10E011CF02FF91C9AF1
:1007C00000231360BCE700BF401F0200DC250200CD
:1007D000CC1FFF1F2DE9F0470446A2B05030D4F8DB
:1007E0006CA00FF09BFFE56B636F9D4273D8267D75
:1007F000002E48D004F1140805EB8501090140469C
:100800000DF1380910F09CFA49465022404610F08C
:100810001FF9E56B237DCDF83CA01BBB334E344A5A
:1008200034498DF814304FF47A778DF815308DF8FF
:1008300008308DF81030019644F2022305A805AE69
:10084000039710F0A3F80FCE47460FC70FCE0FC780
:1008500030689DF80810039A9DF8103038602172B6
:10086000E260237405EB85010901404610F068FA47
:1008700049464046502210F065FB6FF00103E363E8
:1008800022B0BDE8F0874FF47A7E184F184A194914
:100890008DF8486044F202238DF849608DF83C6081
:1008A0008DF8446012A812AE0E97CDF840E010F01B
:1008B0006DF80FCE04F1140847460FC70FCE0FC7CF
:1008C00030689DF83C10109A9DF8443038602172D1
:1008D000E260237490E70DF1380948465022002168
:1008E0001BF01CFC04F1140894E700BF401F020039
:1008F000DC250200CC1FFF1F2DE9F043047D8FB0E3
:1009000007460E4691467CB100F1140806EB8601BD
:100910000901404610F014FA49464046502210F0B2
:1009200011FB0FB0BDE8F0834FF47A7E124D134AED
:1009300013498DF8144044F202238DF815408DF8C8
:1009400008408DF8104005A805AC0195CDF80CE0E5
:1009500010F01CF80FCC07F1140845460FC50FCC5A
:100960000FC520689DF80810039A9DF81030286084
:100970003972FA603B74C9E7401F0200DC250200AF
:10098000CC1FFF1F2DE9F0434B6F93428FB0804681
:100990003CD30E7D0D46144686B101F1140904EBDB
:1009A00084010901484610F0CBF9484650224146DF
:1009B00010F04EF840460FB0BDE8F0834FF47A7E59
:1009C000164F174A17498DF8146044F202238DF828
:1009D00015608DF808608DF8106005A805AE0197C8
:1009E000CDF80CE00FF0D2FF0FCE05F114094F4601
:1009F0000FC70FCE0FC730689DF80810039A9DF8F7
:100A0000103038602972EA602B74C8E75022002148
:100A10001BF084FB40460FB0BDE8F083401F02008E
:100A2000DC250200CC1FFF1F2DE9F041436F9942E6
:100A3000E4B0144600F29080077D05460E46002F74
:100A400000F0938000F1140806EB8601090140468E
:100A500010F076F95022404669460FF0F9FF009AEF
:100A6000002A7ED014A82946FFF78CFF149A002A8A
:100A70004CD0294628A8FFF785FF289A002A00F0C5
:100A8000A58029463CA8FFF77DFF3C9A002A00F08C
:100A90009980294650A8FFF775FF5099002900F06A
:100AA000998028462246FFF7BFFF20461CF028F811
:100AB000231813F8013C2F2B02D0484B1B882352DC
:100AC0000DF5A77120461BF0ABFD20461CF018F871
:100AD000231813F8013C2F2B02D0404B1B882352C4
:100AE0000DF1FE0120461BF09BFD20461CF008F88E
:100AF000231813F8013C2F2B02D0384B1B882352AC
:100B00000DF1AE0120461BF08BFD02E0334B1B883C
:100B1000238020461BF0F4FF231813F8013C2F2BF1
:100B200002D02E4B1B8823520DF15E0120461BF094
:100B300077FD20461BF0E4FF231813F8013C2F2B10
:100B400002D0264B1B88235220460DF10E011BF0CC
:100B500067FD64B0BDE8F0815022002168461BF0BB
:100B6000DDFA1E4B1B882380E3E7DFF87CE01C4A9C
:100B70001C498DF850714FF47A7C44F202238DF8B1
:100B800051718DF844718DF84C7154A854AFCDF863
:100B900040E1CDF848C10FF0F9FE0FCF05F1140880
:100BA000C646AEE80F000FCFAEE80F0038689DF8DC
:100BB0004411529A9DF84C31CEF800002972EA6037
:100BC0002B7441E7054B1B8823807EE7034B1B8872
:100BD00023808AE7014B1B88238066E7EC2502000F
:100BE000DC250200CC1FFF1F401F02002DE9F0474B
:100BF000B1F1FF3F01EB81094FEA0919ADF5A26D93
:100C00008846DFF888A3044608BF4FF000091FE0BC
:100C100004F114074946384610F092F8384650223D
:100C200028A90FF015FF50220DEB020028A914F09F
:100C3000D1FE9DF85C202046002A43D0159B194622
:100C4000002B3FD023681B6B9847002800F00C81D5
:100C5000B8F1FF3F02D0636F98452DD8257D002D58
:100C6000D6D14FF47A7644F20223C54AC5498DF8AD
:100C700020548DF821548DF814548DF81C540DF522
:100C800084600DF58465CDF81864CDF810A40FF0DC
:100C90007DFE0FCD04F114073E460FC60FCD0FC6E3
:100CA00028689DF81414DDF818249DF81C34306071
:100CB0002172E2602374ADE75022002128A81BF0C6
:100CC0002DFAB0E7B8F1FF3F00F01581B8F1000F41
:100CD00000F02C8142463CA82146FFF753FE3C9A87
:100CE000002A00F0C68050A82146FFF74BFE509A1C
:100CF000002A00F0298164A82146FFF743FE649A88
:100D0000002A00F0458178A82146FFF73BFE789A3B
:100D1000002A00F02E818CA82146FFF733FE8C9A22
:100D2000002A00F03C81A0A82146FFF72BFEA09AE4
:100D3000002A00F03B81B4A82146FFF723FEB49AB5
:100D4000002A00F03A81C8A82146FFF71BFEC89A86
:100D5000002A00F03981DCA82146FFF713FEDC9A57
:100D6000002A00F038812146F0A8FFF70BFEF09929
:100D70000DF58265002900F035812A462046FFF7EF
:100D800053FE28461BF0BCFE0DF20F46335C2F2BA2
:100D900002D07D4B1B882B520DF2CE3128461BF022
:100DA0003FFC28461BF0ACFE335C2F2B02D0764B69
:100DB0001B882B520DF27E3128461BF031FC284651
:100DC0001BF09EFE335C2F2B02D06F4B1B882B52E7
:100DD0000DF22E3128461BF023FC28461BF090FE16
:100DE000335C2F2B02D0684B1B882B520DF2DE2177
:100DF00028461BF015FC28461BF082FE335C2F2B87
:100E000002D0614B1B882B520DF28E2128461BF01D
:100E100007FC28461BF074FE335C2F2B02D05A4B84
:100E20001B882B520DF23E2128461BF0F9FB284669
:100E30001BF066FE335C2F2B02D0534B1B882B52CA
:100E40000DF5F77128461BF0EBFB28461BF058FE0A
:100E5000335C2F2B02D04C4B1B882B520DF5CF71DE
:100E600028461BF0DDFB75E000200DF5A26DBDE806
:100E7000F0870DF582652F232B800DF20F46284653
:100E80001BF03EFE335C2F2B02D03F4B1B882B52B6
:100E90000DF1FE0128461BF0C3FB9DF85C20002AE3
:100EA0003FD000262A46F0A8334636498DF8C06365
:100EB0008DF8C1630FF06AFD0028D5D0F0A80FF0BF
:100EC00013FF0028D0D0149E002314AA41462046C8
:100ED0008DF85E30FFF710FD3246F0A82146FFF78F
:100EE00051FDF19DA8450BD1169BF193F0AA314617
:100EF0002046FFF701FD01200DF5A26DBDE8F0874A
:100F0000002DF8D02A4621466846FFF73BFD5022C7
:100F10006946F0A814F05EFDF29B98450BD01D4683
:100F2000EEE7294617480FF0CBFECAE70DF58265BC
:100F30002F232B80B3E7169BF2932046F0AA294675
:100F4000FFF7DAFC012090E70DF582652F232B8057
:100F50000DF20F4628461BF0D3FD335C2F2B02D039
:100F6000094B1B882B520DF5A77128461BF058FB27
:100F700085E70DF582652F232B800DF20F4656E78E
:100F8000DC250200CC1FFF1FEC250200401F0200E1
:100F90000DF582652F232B800DF20F4655E70DF5D9
:100FA00082652F232B800DF20F4632E70DF5826507
:100FB0002F232B800DF20F461DE70DF582652F23A1
:100FC0002B800DF20F4608E70DF582652F232B804D
:100FD0000DF20F46F3E60DF582652F232B800DF2FF
:100FE0000F46DEE62F232B80CBE600BF2DE9F04332
:100FF000C36B8B42ADF5397D04D190F83830934204
:1010000000F09580914688460646002963D00A463E
:1010100068463146FFF7B6FC009A002A00F0AE8021
:1010200014A83146FFF7AEFC149A002A00F0838022
:1010300028A83146FFF7A6FC289A002A00F0A580D0
:101040003CA83146FFF79EFC3C9A002A00F0B9808C
:1010500050A83146FFF796FC509A002A00F0AA806B
:1010600064AF31463846FFF78DFC396878AD00290A
:1010700000F0AE802A463046FFF7D6FC28461BF02B
:101080003FFD0DF2DF14235C2F2B02D0524B1B8847
:101090002B520DF5CF7128461BF0C2FA28461BF0E3
:1010A0002FFD235C2F2B02D04B4B1B882B520DF5B1
:1010B000A77128461BF0B4FA28461BF021FD235CDB
:1010C0002F2B02D0444B1B882B520DF1FE012846DA
:1010D0001BF0A6FA5FE078AD2F232B8064AF06F1FA
:1010E000500420460FF01AFB00232A464FF47A7171
:1010F0003A4D3B747B743B713B73B9604B46384946
:101100003D6068A868AD0FF041FC0FCD0FC40FCD56
:101110000FC428683979BA683B7B2060C6F83C80E8
:1011200086F8389086F84410B26486F84C300DF595
:10113000397DBDE8F08378AD2F232B8064AF0DF2AD
:10114000DF1428461BF0DCFC235C2F2B02D0224B43
:101150001B882B520DF15E0128461BF061FA2846D0
:101160001BF0CEFC235C2F2B02D01B4B1B882B5279
:101170000DF10E0128461BF053FAB0E778AD2F238E
:101180002B8064AF0DF2DF14E9E778AD2F232B80BD
:1011900064AF0DF2DF1428461BF0B2FC235C2F2B4A
:1011A00002D00D4B1B882B520DF1AE0128461BF0CF
:1011B00037FAC6E778AD2F232B8064AF0DF2DF142A
:1011C0006CE778AD2F232B8064AF0DF2DF1473E74B
:1011D0002F232B8052E700BFEC250200401F0200A6
:1011E000CC1FFF1FF8B50446174650340022069E58
:1011F0001D46FFF7FBFE394620460FF0A1FD3246A3
:1012000029462046BDE8F8400FF022BCF0B5B1F108
:10121000FF3F14BF0E460026ADF2C44D1D460146E9
:101220000446174668463246FFF7ACFB28461BF0DB
:1012300067FC3E2804D9002528460DF2C44DF0BDB8
:10124000421C29460DF15E0014F0C4FB656F019A43
:1012500016926B1C636700232946159314AA012379
:10126000204614968DF85C708DF85D30FFF744FBD6
:101270006A46314620460195FFF73EFB4FB92046AE
:1012800044F202222946FFF7B1FE28460DF2C44D72
:10129000F0BD002D00F0E6802A4628A82146FFF781
:1012A00071FB289A002A00F0F5803CA82146FFF740
:1012B00069FB3C9A002A00F0E68050A82146FFF71F
:1012C00061FB509A002A00F0EC8064A82146FFF7E9
:1012D00059FB649A002A00F0EB8078A82146FFF7BA
:1012E00051FB789A002A00F0EA808CA82146FFF78B
:1012F00049FB8C9A002A00F0E980A0A82146FFF75C
:1013000041FBA09A002A00F0E880B4A82146FFF72C
:1013100039FBB49A002A00F0E780C8A82146FFF7FD
:1013200031FBC89A002A00F0E680DCAF214638463F
:10133000FFF728FB3968F0AE002900F0E380204673
:101340003246FFF771FB30461BF0DAFB0DF2BF347B
:10135000235C2F2B02D06D4B1B8833520DF27E3154
:1013600030461BF05DF930461BF0CAFB235C2F2B87
:1013700002D0664B1B8833520DF22E3130461BF0E3
:101380004FF930461BF0BCFB235C2F2B02D05F4B88
:101390001B8833520DF2DE2130461BF041F93046F6
:1013A0001BF0AEFB235C2F2B02D0584B1B88335213
:1013B0000DF28E2130461BF033F930461BF0A0FBB6
:1013C000235C2F2B02D0514B1B8833520DF23E2150
:1013D00030461BF025F930461BF092FB235C2F2B87
:1013E00002D04A4B1B8833520DF5F77130461BF083
:1013F00017F930461BF084FB235C2F2B02D0434BA4
:101400001B8833520DF5CF7130461BF009F9304679
:101410001BF076FB235C2F2B02D03C4B1B883352F6
:101420000DF5A77130461BF0FBF830461BF068FB4A
:10143000235C2F2B02D0354B1B8833520DF1FE015C
:1014400030461BF0EDF830461BF05AFB235C2F2B87
:1014500002D02E4B1B8833520DF1AE0130461BF0EB
:10146000DFF803E0F0AE2F233380DCAF00243246F8
:101470003846012326493C707C700FF029FA284633
:101480000DF2C44DF0BDF0AE2F233380DCAF0DF272
:10149000BF34CAE7F0AE2F233380DCAF0DF2BF3488
:1014A000D1E7F0AE2F233380DCAF0DF2BF34AEE7CF
:1014B000F0AE2F233380DCAF0DF2BF3499E7F0AEEE
:1014C0002F233380DCAF0DF2BF3484E7F0AE2F233F
:1014D0003380DCAF0DF2BF346FE7F0AE2F233380E3
:1014E000DCAF0DF2BF345AE7F0AE2F233380DCAF10
:1014F0000DF2BF3445E7F0AE2F233380DCAF0DF2A1
:10150000BF3430E72F2333801DE700BFEC250200F6
:10151000CC1FFF1F2DE9F04F90F878400126C5B091
:10152000054680F87960002C00F00E816B6F002B6F
:1015300000F007814FF00008474606E06B6F013767
:10154000BB4208F1500840F2FC80BB42F7D32C7D2F
:10155000002C00F0CC8005F11406414630460FF017
:10156000EFFB1CA9502230460FF072FA9DF87C3038
:10157000002BE3D09DF87D40002CDFD12246394678
:101580002846FFF733FD95F85030002BD6D0A24601
:1015900005F15009019758E0A2420CBF23460123F0
:1015A000019A08BF0D9C30928DF8CC304022002368
:1015B0000DF1CE0106A831948DF8CD30CDF8C8A03C
:1015C0000FF0E0FD6C6F95F814E0631C6B67BEF1E3
:1015D000000F2BD14FF47A7C44F202237D4A7E49DE
:1015E0007E4F8DF84CE013A88DF84DE08DF840E06B
:1015F0008DF848E0CDF844C00F970FF0C7F90DF112
:101600004C0EBEE80F00B446ACE80F00BEE80F0079
:10161000ACE80F00DEF800009DF84010119A9DF82C
:101620004830CCF800002972EA602B7404EB840186
:10163000090130460FF084FB502230A930460FF0EC
:1016400081FC06A8A2460FF069F80024634B0293C0
:1016500022464FF47A7B494606A88DF818408DF84B
:1016600019408DF80C408DF81440CDF810B00FF0F3
:1016700023FC9DF8183003F07002002B8CD12C7DD8
:10168000019FCDF874A001238DF87D302CBB8DF81F
:10169000D0408DF8D1408DF8C4408DF8CC404F4CEF
:1016A0004C4A4D49309444F2022334A834ACCDF86E
:1016B000C8B00FF06BF90FCCB646AEE80F000FCCF8
:1016C000AEE80F0020689DF8C410329A9DF8CC3027
:1016D000CEF800002972EA602B74414630460FF0C4
:1016E0002FFB1CA9304650220FF02CFC26E78DF86A
:1016F000D0408DF8D1408DF8C4408DF8CC40374CA7
:10170000344A354930944FF47A7644F2022334A8AF
:1017100034AC32960FF03AF90FCC05F11406B64608
:10172000AEE80F000FCCAEE80F0020689DF8C410A3
:10173000329A9DF8CC30CEF800002972EA602B7402
:101740000BE745B0BDE8F08F80F87860214922486A
:101750000FF0B6FA2F7D30942F23329431948DF808
:10176000CC608DF8CD406E67ADF8CE305FB105F13D
:101770001407002138460FF0E3FA3846502230A90A
:101780000FF0E0FBD2E6154C124A13491C944FF4BB
:101790007A7644F2022320A820AC8DF880708DF870
:1017A00081708DF874708DF87C701E960FF0EEF8D5
:1017B0000FCC05F114073E460FC60FCC0FC62068AC
:1017C0009DF874101E9A9DF87C3030602972EA6092
:1017D0002B74CEE7DC250200CC1FFF1F401F020048
:1017E0002DE9F04FC3B00A460546894601461AA8BE
:1017F000FFF7C8F89DF8743013B19DF8754014B127
:1018000043B0BDE8F08F224649462846FFF7EEFB7D
:1018100095F85030002BF3D0DFF808A1274605F1EA
:10182000500B0FE005F1140804EB84010901404658
:101830000FF086FA404650222EA90FF083FB04A831
:101840000EF06CFF4FF47A730022594604A80293FD
:101850008DF810708DF811708DF804708DF80C7083
:10186000CDF800A00FF028FB9DF8103003F07002B7
:10187000002B47D0002A14BF012300238DF8C43069
:101880004FF0400208BF0B9B309418BF00230DF1AE
:10189000C60104A82F93CDF8B8908DF8C5700FF04D
:1018A00071FC6C6F2E7D631C6B67002EBAD14FF4F8
:1018B0007A7E44F20223194A19498DF844608DF862
:1018C00045608DF838608DF8406011A811AECDF8F4
:1018D0003CE0CDF834A00FF059F80FCE05F1140814
:1018E000C646AEE80F000FCEAEE80F0030689DF898
:1018F00038100F9A9DF84030CEF800002972EA6047
:101900002B7491E701231AAA494628461B948DF8A7
:101910007530FEF7F1FF43B0BDE8F08FDC25020023
:10192000CC1FFF1F401F02002DE9F04190F87860A6
:10193000A2B004460D46FEB19DB16B1C08BF002548
:1019400029462046FFF74CFF012384F880302A46C1
:1019500021460EA8FFF716F80F9BE36722B0BDE8FB
:10196000F08194F8793053B30022012384F8802069
:10197000E36722B0BDE8F081012780F8787028493C
:1019800028480FF09DF994F814E08DF844702F2347
:1019900067670E9610960F968DF84560ADF8463045
:1019A000BEF1000F14D004F11408002140460FF0DE
:1019B000C7F9404650220EA90FF0C4FABCE72046F2
:1019C000FFF7A8FD0022012384F88020E367D0E719
:1019D000154E134A134901964FF47A7744F20223C5
:1019E00005A805AE03978DF814E08DF815E08DF885
:1019F00008E08DF810E00EF0C9FF0FCE04F11408D6
:101A000047460FC70FCE0FC730689DF80810039ADE
:101A10009DF8103038602172E2602374C5E700BF82
:101A2000DC250200CC1FFF1F401F02002DE9F04102
:101A30000B7882B00446002B4BD008460E461BF0B4
:101A40005FF8257A01308DF80200002D50D0E36850
:101A50000133E3603278002A36D0002705E0E368DE
:101A60000233E36016F8012F4AB3ADF80620002DCB
:101A7000F5D1606820B916F0BFFA60600028FAD08E
:101A800030F8083BC5F10202C3F140089045A8BFF9
:101A9000904618440DF106035919424613F09AFF77
:101AA00061680B8843449BB2402B45440B801AD09D
:101AB000012DDEDD16F8012F257A002AD5D100236D
:101AC000ADF804303DB3E3680233E36002B0BDE833
:101AD000F081027A8DF80330AAB1C3680133C36084
:101AE00002B0BDE8F081042015F0E8FC6760DFE794
:101AF00001220DF102012046FEF71CFD3278257A05
:101B0000002AAAD1DBE701220DF10301FEF712FD45
:101B100002B0BDE8F0812046022201A9FEF70AFDCD
:101B200002B0BDE8F08100BF30B5037A91B0642502
:101B30000446ADF82650002B00F0A680C3680622AC
:101B40000233C3600F9204336422E360ADF82420B3
:101B50000233E3605A492046FFF768FF237A0022E8
:101B6000ADF82220002B00F0B580E3680E2202338E
:101B7000E3600E92043341F20102E360ADF82020ED
:101B8000023341F20202E360ADF81E20023341F25B
:101B90000302E360ADF81C20023341F20402E3606B
:101BA000ADF81A20023341F20502E360ADF81820C7
:101BB000023341F20602E360ADF81620023341F22F
:101BC0000702E360ADF81420023341F20802E3603B
:101BD000ADF81220023341F20902E360ADF81020A3
:101BE000023341F20B02E360ADF80E20023341F202
:101BF0000C02E360ADF80C20023341F20D02E36009
:101C0000ADF80A20023341F21402E360ADF8082077
:101C1000023341F21502E360ADF8062002330022E0
:101C2000E3600D9204330122E3600C9204334DF221
:101C30000242E360ADF8042002330022E3600B921D
:101C400004330222E3600A9204334FF44052E3600B
:101C5000ADF80220023343F20102E360ADF8002048
:101C60000233E36020461749FFF7E0FE204616499D
:101C7000FFF7DCFE20461549FFF7D8FE2046144941
:101C8000FFF7D4FE11B030BD02220DF12601FEF7A0
:101C900051FC237A06220F92002B40F0358104225A
:101CA0000FA92046FEF746FC237AADF82450002BFE
:101CB00040F02C81022209A92046FEF73BFC49E7AF
:101CC000F0250200042602000C2602001426020061
:101CD0001826020002220DF122012046FEF72AFCFE
:101CE000237A0E220E92002B40F0128104220EA9BC
:101CF0002046FEF71FFC237A41F20102ADF82020B6
:101D0000002B40F00781022208A92046FEF712FCB2
:101D1000237A41F20202ADF81E20002B40F0FC8035
:101D200002220DF11E012046FEF704FC237A41F247
:101D30000302ADF81C20002B40F0F080022207A91E
:101D40002046FEF7F7FB237A41F20402ADF81A2091
:101D5000002B40F0E58002220DF11A012046FEF72B
:101D6000E9FB237A41F20502ADF81820002B40F080
:101D7000D980022206A92046FEF7DCFB237A41F235
:101D80000602ADF81620002B40F0CE8002220DF1A5
:101D900016012046FEF7CEFB237A41F20702ADF88A
:101DA0001420002B40F0C280022205A92046FEF735
:101DB000C1FB237A41F20802ADF81220002B40F05B
:101DC000B78002220DF112012046FEF7B3FB237A01
:101DD00041F20902ADF81020002B40F0AB80022246
:101DE00004A92046FEF7A6FB237A41F20B02ADF8C8
:101DF0000E20002B40F0A08002220DF10E012046A3
:101E0000FEF798FB237A41F20C02ADF80C20002B70
:101E100040F09480022203A92046FEF78BFB237A30
:101E200041F20D02ADF80A20002B40F08980022219
:101E30000DF10A012046FEF77DFB237A41F21402E0
:101E4000ADF80820002B7DD1022202A92046FEF722
:101E500071FB257A41F21503ADF80630002D73D1E0
:101E600002220DF106012046FEF764FB237A0D9550
:101E7000002B6BD104220DA92046FEF75BFB237AD1
:101E800001220C92002B63D104220CA92046FEF7FC
:101E900051FB257A4DF20243ADF80430002D59D1A3
:101EA000022201A92046FEF745FB237A0B95002B61
:101EB00052D104220BA92046FEF73CFB237A0225CF
:101EC0000A95002B4AD104220AA92046FEF732FBCC
:101ED000237A4FF44052ADF802209BB92A460DF107
:101EE00002012046FEF726FB237A43F20102ADF8F9
:101EF00000202BB92A4669462046FEF71BFBB1E6B7
:101F0000E368ADE6E368A5E6E3681CE6E3681FE680
:101F1000E3682FE6E36833E6E36837E6E3683BE629
:101F2000E3683FE6E36843E6E36847E6E3684BE6D9
:101F3000E3684FE6E36853E6E36857E6E3685BE689
:101F4000E3685FE6E36863E6E36867E6E36869E63B
:101F5000E3686BE6E3686FE6E36871E6E36873E6FF
:101F600030B504460068514A03681B68934289B043
:101F700040F08F800422237AADF80620002B54D045
:101F8000E3680233E3602068494A03685B68934270
:101F90007AD10223257AADF80A30002D62D0E368A9
:101FA00000220233E360ADF808200233E3602068CA
:101FB000404A03689B68934264D13F4BD8691A79C1
:101FC000431E5002A3FB0001237ACDE90601002B3A
:101FD00042D0E3680833E3602068384A0368DB686E
:101FE00093425CD1344D28460FF09EFE2A7955026B
:101FF000C117A5FB002305FB013310461946237AC0
:1020000004900591C3B1E3684FF0FF320833E360F9
:1020100003920433E36020462949FFF707FD204679
:102020002849FFF703FD09B030BD02220DF106017A
:102030002046FEF77FFAA6E7082204A92046FEF70D
:1020400079FA237A4FF0FF32039253BB042203A99B
:102050002046FEF76FFADEE7082206A92046FEF7C3
:1020600069FAB9E702220DF10A012046FEF762FA89
:10207000237AADF80850B3B9022202A92046FEF730
:1020800059FA94E798479FE79847002881D10123A0
:1020900080E79847012200287FF46DAF6AE79847F0
:1020A000ADE7E368B5E7E3687FE700BF91040000B0
:1020B0009504000099040000901BFF1F110500000B
:1020C0001C2602006C3802002DE9F04F037A99B00B
:1020D00004460092002B00F0D68000230293DFF824
:1020E000C492AD4B0193E3680433E3602568019A21
:1020F0002B681B69934240F0378195F87860002E79
:1021000000F01A81009A1346002A35D195F87930EB
:10211000002B00F0B0810022012385F88020EB67BE
:10212000DFF8848225682B685B694B454ED1EE6FE2
:10213000FEB10DF1100B6B6F9E4276D82F7D002FF4
:1021400048D005F1140A06EB8601090150460EF04D
:10215000F7FD5046502259460EF07AFC9DF81E00BD
:1021600095F88020DAB1069BEB6708BBEE6F002E76
:10217000E1D119B0BDE8F08F013208BF0023194644
:1021800028461E46FFF72CFB012385F88030324697
:10219000294604A8FEF7F6FB059BEB67C0E7EB6F4B
:1021A000696F01338B42EB6728BFEA670028DDD0F7
:1021B000002EDED0257A0396002D3DD0E3682568F9
:1021C0000433E3602B685B694B45B0D028469847E1
:1021D0000646EDE74FF47A7E44F202236F4A7049D7
:1021E0008DF820708DF821708DF814708DF81C70AA
:1021F00008A808AFCDF818E0CDF810800EF0C6FBA7
:102200000FCF05F1140AD646AEE80F000FCFAEE8A7
:102210000F003B68CEF800309DF814302B72069BFF
:10222000EB609DF81C302B748DE75022002158463E
:1022300019F074FF002093E72E46606820B915F06E
:10224000DBFE60600028FAD030F8083BC5F10402DC
:10225000C3F140079742A8BF1746184403AB59196A
:102260003A4613F0B7FB61680B883B449BB2402BA6
:102270003D440B8002D0032DDFDD53E7042015F031
:102280001DF96660F7E7444B056801931A462B6811
:102290001B69934240F0F38095F87860002E00F0BF
:1022A0008580009A002A63D195F87930002B00F0E0
:1022B000EA800022012385F88020EB672568DFF89B
:1022C000E4902B68DFF8E0A05B694B454FF0000B12
:1022D00040F09780EE6F1EB30DF110086B6F9E42B9
:1022E00000F2C2802F7D002F00F08F8005F11407CF
:1022F00006EB8601090138460EF022FD38465022D1
:1023000041460EF0A5FB9DF81E0095F88020002A9E
:1023100064D0069BEB67002869D1EE6F002EDDD1FB
:10232000237ACDF808B0002B7FF4DDAE042202A999
:102330002046FEF7FFF8D9E6012785F8787017499F
:1023400017480EF0BDFC2F238DF81C7004960696DE
:1023500005968DF81D60ADF81E30314604AA6F67F2
:102360002846FEF7C9FACDE6009928469847D7E6F1
:10237000511C14BF1646002631462846FFF730FA96
:10238000012385F880303246294604A8FEF7FAFA80
:10239000059BEB6792E700BF29190000DC250200CE
:1023A000CC1FFF1F95050000401F0200012785F884
:1023B0007870374937480EF083FC2F238DF81C7056
:1023C0000496069605968DF81D60ADF81E303146D0
:1023D00004AA6F672846FEF78FFA62E7EB6F696F12
:1023E00001338B42EB6728BFEA67002895D0002EA7
:1023F00096D025682B685B694B450BF1010B3FF4C8
:1024000069AF284698470646F1E74FF47A7E44F2D2
:1024100002231F4A1F498DF8207008A88DF82170EB
:102420008DF814708DF81C70CDF818E0CDF810A060
:102430000EF0ACFA0DF1200EBEE80F0005F1140706
:10244000BC46ACE80F00BEE80F00ACE80F00DEF8B9
:102450000030CCF800309DF814302B72069BEB60F6
:102460009DF81C302B7443E750220021404619F0A0
:1024700055FE002049E72846FFF74CF84BE6284672
:10248000009998471AE72846FFF744F811E700BF7C
:10249000DC250200CC1FFF1F2DE9F0430446006835
:1024A000AA4B026895699D42E5B040F0228110ADCB
:1024B0000A4624AF01462846FEF764FA38460DF175
:1024C0004E011AF0ABFA0DF114082B7B2A68C8F8FC
:1024D0000020002B63D16B68049304AE237A0122A1
:1024E0000692002B5ED0E368326804330132E36069
:1024F00000F00A810022ADF80C2002330022E360D4
:10250000ADF80A2002333268E3600E9204330022F1
:10251000E360ADF8082002330022E3600D9204333B
:102520000022E3600C9204330022E3600B92043338
:102530000022E3600A9204330022E360099204332C
:102540000022E36008920433D8F80020E360079289
:102550003268A2F1FF32B2FA82F252090433E36028
:10256000ADF80E2002330022E3602A60043300221B
:10257000E3600F920433E36039462046FFF756FAD2
:1025800020467349FFF752FA20467149FFF74EFA89
:1025900020466F49FFF74AFA65B0BDE8F0834FF077
:1025A000FF3399E706A904222046FDF7C3FF3368ED
:1025B00094F80890013343F2010318BF0023ADF8EB
:1025C0000C30B9F1000F40F0A88003A90222204688
:1025D000FDF7B0FF237AADF80A90002B40F09F8002
:1025E00002220DF10A012046FDF7A4FF237A32688A
:1025F0000E92002B40F095800EA904222046FDF794
:1026000099FF237AADF80890002B40F08C8002A946
:1026100002222046FDF78EFF237ACDF83490002B5E
:1026200040F083800DA904222046FDF783FF237A22
:10263000CDF83090002B7AD10CA904222046FDF76A
:1026400079FF237ACDF82C90002B72D10BA90422AC
:102650002046FDF76FFF237ACDF82890002B6AD132
:102660000AA904222046FDF765FF237ACDF82490BD
:10267000002B62D109A904222046FDF75BFF237AD3
:10268000CDF82090002B5AD1042208A92046FDF74E
:1026900051FF237AD8F800200792002B51D107A9C7
:1026A00004222046FDF746FF336894F80880A3F122
:1026B000FF33B3FA83F35B09ADF80E30B8F1000FC6
:1026C00041D10DF10E0102222046FDF733FF267A9B
:1026D000C5F80080FEB9294604222046FDF72AFFEE
:1026E000237A0F96ABB90FA904222046FDF722FFEB
:1026F00042E704AE24AF0DF1140833463A46CDF854
:102700000080A84710ADE9E643F20102ADF80C20C5
:10271000F3E6E3682EE7E36828E7E368EDE6E368BD
:10272000F0E6E368F2E6E368F5E6E368F7E6E36817
:10273000F9E6E368FBE6E368FDE6E368FFE6E368E5
:1027400001E7E36804E7E3680CE700BFF90600006F
:102750006C380200002A31D02DE9F04104460F46C2
:1027600016464FF00008606828B9042014F0FEFDFA
:1027700060600028F9D0418805886D1AB54228BFED
:10278000354637B1083001442A46384613F022F95D
:102790002F446068438802882B449BB29A42A6EB80
:1027A0000506438003D0002EDDD1BDE8F08115F091
:1027B00043FCC4F80480002ED5D1F6E7704700BF73
:1027C0002DE9F04385B0904606460F46684611460F
:1027D0000A2299460C9C0D9D12F07CFD69465048DA
:1027E00012F0CAFD684612F003FDB8F1090F40F37C
:1027F00086800A223946684612F06CFD69464948CF
:1028000012F0BAFD684612F0F3FC092F67DD0A22C8
:102810003146684612F05EFD6946434812F0ACFD51
:10282000684612F0E5FC092E49DD0A222946684671
:1028300012F050FD69463D4812F09EFD684612F0C8
:10284000D7FC092D2BDD0A222146684612F042FDF5
:102850006946374812F090FD684612F0C9FC092C11
:102860000EDC3449684612F003FD3149684612F027
:10287000DDFD01462E4812F077FD684612F0B8FCE7
:102880000A224946684612F025FD69462A4812F098
:1028900073FD684612F0ACFC05B0BDE8F083254935
:1028A000684612F0E5FC2149684612F0BFFD01467A
:1028B0001E4812F059FD684612F09AFCC3E71D4904
:1028C000684612F0D5FC1849684612F0AFFD014683
:1028D000154812F049FD684612F08AFCA5E7154933
:1028E000684612F0C5FC0F49684612F09FFD01468C
:1028F0000C4812F039FD684612F07AFC87E70D4962
:10290000684612F0B5FC0649684612F08FFD014694
:10291000034812F029FD684612F06AFC69E700BF1F
:102920004428FF1F5C19FF1F2819FF1F4C1AFF1FA7
:10293000F019FF1F242602001828FF1F2DE9F0437D
:1029400083B00CF011FEDFF86490DFF86480C9F802
:1029500000000CF0F9FDC8F800000CF0E5FD0F4F89
:102960000F4E38600CF010FE30600CF01DFE0D4D67
:1029700028600CF029FE2B6836680B4DD9F8002032
:10298000D8F80010044638688DE8480023462C60CB
:10299000FFF716FF03B0BDE8F08300BF8019FF1FEB
:1029A0007819FF1F7C19FF1FB827FF1FA028FF1FE2
:1029B0007419FF1F70B5FA208AB013F065FD934BB0
:1029C0009349944800241C600CF084F94FF6E071A0
:1029D00090480BF0C1FA21468E480BF0D3FA0A2337
:1029E00042F20E728C498B480094AA250BF0F8FF36
:1029F00045F2713187480BF0AFFA009596232822F3
:102A00000A2184480BF03CFB4FF4A0762946009540
:102A10004FF49B7328227F480BF032FBEE23BE223B
:102A200052217C4800960BF02BFB4FF6FF71794842
:102A30000BF092FA0095962328220A2175480BF094
:102A400035FC294600954FF49B73282271480BF002
:102A50002DFCEE23BE2252216E4800960BF026FC80
:102A6000A9254BF6F7516B480BF076FA00959523A4
:102A700029220B2167480BF019FC009540F2351311
:102A80002922AB2163480BF011FC40F23F13BF2217
:102A900000935321ED235F480BF008FC4FF6FF71C4
:102AA0005C480BF059FA45F271315A480BF06AFA5A
:102AB0003C2310225949574800940BF091FF5A23A8
:102AC00028225749534800940BF08AFF3C23D02218
:102AD0005449504800940BF083FF5A23B8225249BE
:102AE0004C4800940BF07CFF7823B0224F494948B2
:102AF00000940BF075FFD22374224D494548009491
:102B00000BF06EFFF02358224A49424800940BF024
:102B100067FF4FF48773602240493E4800940BF0F2
:102B20005FFF21463B480BF02DFA434B1D78002DEB
:102B300040F092804FF4784136480BF00DFA40F2A5
:102B400059130A223D49334800950BF049FF0CF018
:102B50006FFD022800F092804FF478412D480BF071
:102B6000FBF9002300930A224FF4B9733449294832
:102B70000BF036FF02AC06AD40F2BD1200924FF4EE
:102B80009B730A2123480BF08BFC2E4921480CF043
:102B9000A1F82D49204612F06BFB2C49204612F07B
:102BA00045FC00260146284612F076FB4FF4E173FF
:102BB00042F20E722946009616480BF07BFF28461B
:102BC00012F016FB204612F013FB2149204612F0AA
:102BD0004FFB2049204612F029FC0146284612F0FE
:102BE0005BFB40F2D11342F20E722946009609486F
:102BF0000BF060FF284612F0FBFA204612F0F8FABC
:102C0000034904480CF066F80AB070BD4028FF1F65
:102C10008C440200001AFF1F2826020038260200FA
:102C2000442602004C260200542602005C260200C4
:102C300068260200702602008C1BFF1F7C26020003
:102C40009C26020014400200C4260200DC19FF1F6B
:102C5000E02602008C28FF1F4FF4FC6136480BF081
:102C60007BF940F259130A223449334800940BF09F
:102C7000B7FE0CF0DDFC02287FF46EAFFFF75EFEBE
:102C8000002640F2FF712C480BF066F94FF4B9733F
:102C90000A2200962A4928480BF0A2FE02AC4FF601
:102CA000FF7125480BF058F92046264912F0F4FA36
:102CB0002046254912F0C2FB244912F0B7FB2249F5
:102CC00012F0BCFB224912F0B1FB06AD01462846CA
:102CD00012F0E2FA4FF4C3730A222946009616480E
:102CE0000BF0E8FE284612F083FA204612F080FA34
:102CF0002046184912F0D0FA2046174912F09EFBE0
:102D0000164912F093FB144912F098FB144912F083
:102D10008DFB0146284612F0BFFA29464FF4CD73C9
:102D20000A22009604480BF0C5FE284612F060FA0D
:102D3000204612F05DFA1FE7001AFF1F90260200DE
:102D4000B02602001828FF1FC0260200F019FF1F3E
:102D50004C1AFF1F2819FF1FD43702005C19FF1FF0
:102D60004428FF1F2DE9F0438FB006A8002112F080
:102D70007FFA03AFDFF86480C7F18005C7F1E0098F
:102D80000DF115063C46281912F0D4FD04F8010B8C
:102D9000B442F8D139460AA812F06AFA0AA906A87C
:102DA00012F0EAFA0AA812F023FA0023092269466F
:102DB00006A812F067FB1022002168461BF094F869
:102DC000203548F8040B052013F05EFB4D45D9D1A2
:102DD00006A812F00DFA0FB0BDE8F0839024FF1F93
:102DE00030B52B4C83B04FF4EB75204600210BF02F
:102DF000B3F8204600954FF49B734FF4CD72A02199
:102E00000BF0B2FA204645F271310BF0A5F80095AF
:102E100020464FF49B734FF4CD72DC210BF030F958
:102E200020464FF6FF710BF097F8009520464FF4BF
:102E30009B734FF4CD72DC210BF038FA20464BF631
:102E4000F7510BF089F840F2D51340F29B1220465F
:102E50000093DD2140F235130BF028FA204645F2AD
:102E600071310BF08FF8002520464FF6FF710BF003
:102E700073F8204600954FF4D873E92205490BF00A
:102E8000AFFD2946204603B0BDE830400BF07AB8CC
:102E9000001AFF1FF42602002DE9F04F4FF0000941
:102EA00085B080464F4660480CF02CF958B9002F89
:102EB000F9D0B9F1000F00F09B805B4801270CF0BE
:102EC00021F90028F3D058480CF03EF856480CF091
:102ED0002FF9A0F10A0B824653480CF06BF9BBF1B5
:102EE000280F064634D8B8F1000F31DD342401250F
:102EF0000FE00BF031F804F1240300932246302355
:102F00000C214A4801350BF0BBF8A84504F1320406
:102F10001EDBA31E9E424FF00001444804F126022E
:102F2000E7DB9642E5DC4FF4FC610BF015F804F1A9
:102F300024030093224630230C213C480BF0A0F8D8
:102F400003950135A8454FF0010704F13204E0DA9A
:102F5000A6F5CD763C2E44D8AAF1F00ABAF1460F78
:102F60003CD8002F9FD0002130480AF0F5FF40F2F6
:102F70009913009319224FF49B730A212B480BF0ED
:102F8000F3F94FF4EB734FF4CD720093DC214FF45F
:102F90009B7326480BF0E8F900244FF6797123481B
:102FA0000AF0DAFF4FF4CD73A02221491F480094A4
:102FB0000BF016FD4FF4D773A0221E491B48009456
:102FC0000BF00EFD00944FF4E173A0221A4917484C
:102FD0000BF006FDB9F1000F0ED11EE0BBF16C0F36
:102FE00015D9002F3FF45FAFB9F1000F7FF465AF43
:102FF0004C46FFF7F5FE34B1C82013F045FA0398AC
:1030000005B0BDE8F08F4FF001094F464BE737B1EF
:10301000B9F1000F05D1CDF80C900124E9E7039731
:10302000EAE700230393E7E7D027FF1F001AFF1FFB
:10303000FC26020004270200502F020008B50548B4
:103040000AF020FFC82013F01FFABDE80840FFF780
:10305000B1BC00BF001AFF1F002A12DDF8B50546FB
:10306000002017460E460446315D2844013412F014
:103070007BFCE4B20A2013F007FABC422046F3DBE3
:10308000F8BD7047F0B5002A8BB018DD0E469200EF
:1030900002A906EB020E0F4656F8044B019401AB51
:1030A0003C4613F8015B04F8015B8B42F9D176458D
:1030B00007F10407F0D1FFF7CFFF0BB0F0BD92008E
:1030C00002A9F8E7F0B5BC4C0FCCB7B01EAD0FC5E8
:1030D0000FCC0FC594E80F0004F1100685E80F002F
:1030E0000FCE00272AAD8DF808700FC50FCE0FC583
:1030F00096E80F00403485E80F000FCC16AD0FC5E1
:1031000094E80F004FF0000ECDF814E0CDF818E071
:1031100085E80F00A9488DF810708DF811700AF03D
:10312000B1FEA749A548A74E0BF0D4FD4FF6E071BC
:10313000A2480AF011FF462342F20E72A2499F48AC
:1031400000970BF04DFC39460AA812F091F833466F
:1031500006F10C000EAA13F8011B02F8011B98429D
:10316000F9D10C220EA92020FFF776FF07AD20240D
:10317000204612F0DFFB01342C2C05F8010BF7D1AF
:1031800007A90EA812F074F80EA90AA812F0F4F814
:103190000EA812F02DF800230C2207A90AA812F09D
:1031A00071F9884907A819F0CFFA0546642013F091
:1031B0006BF9864B0EAA581D13F8011B02F8011B70
:1031C0009842F9D105220EA90020FFF745FF64209F
:1031D00013F05AF9012202A94FF4A070FFF73CFF47
:1031E0001EAF4FF400743A68D7F804E0BB680E9243
:1031F0002046203403220EA9A4B2CDF83CE010935F
:10320000FFF740FFB4F5207F07F10C07EBD16420F6
:10321000002413F039F904220EA94FF440700E94E3
:103220000F9410941194FFF72DFF04220EA94FF470
:1032300048700E940F9410941194FFF723FF6420AC
:1032400013F022F92AAF4FF480643A68D7F804E00B
:10325000BB680E922046203403220EA9A4B2CDF8FA
:103260003CE01093FFF70EFFB4F5906F07F10C07E9
:10327000EBD1642013F008F97379302B0CD00023C4
:103280004FF4C06003220EA90E930F931093FFF723
:10329000F9FE642013F0F8F8F37A302B08D04FF4DD
:1032A0000060012205A9FFF7EDFE642013F0ECF8A1
:1032B000012206A94FF40660FFF7E4FE642013F034
:1032C000E3F816AE4FF4E064326873680E9220465D
:1032D000203402220EA9A4B20F93FFF7D3FEB4F557
:1032E000F06F06F10806EFD136AC022204A94FF4C4
:1032F00020600027FFF7B0FE04F8CC7D01221646BF
:1033000021464FF41A60FFF7A7FE2146324640F6E9
:1033100005108DF80C60FFF79FFE3246214640F6FF
:103320001510FFF799FE3246214640F61610FFF7BA
:1033300093FE3246214640F60210FFF78DFE03232E
:10334000214632464FF410608DF80C30FFF784FEB2
:103350003246214640F60110FFF77EFE0423214647
:1033600032464FF411608DF80C30FFF775FEADB9A1
:103370004FF4784111480AF0EFFD0095462342F2E0
:103380000E7213490D480BF02BFB40F6B83013F0CA
:103390007BF80AA811F02CFF37B0F0BD4FF4FC61A8
:1033A00006480AF0D9FD0097462342F20E720949F9
:1033B00002480BF015FBE8E7981F0200001AFF1FF8
:1033C0008C440200480CFF1F102702005C0CFF1FFA
:1033D000302702001C2702002DE9F0478A4882B0FE
:1033E0000AF050FD4FF4FA7013F04EF88749864802
:1033F00000240BF06FFC4FF6E07183480AF0ACFD3F
:10340000234642F20E7282497F4800940BF0E8FA9C
:103410004FF4EB754FF448417B480AF09DFD76234D
:103420004FF4CD720A21784800950AF029FE4FF634
:10343000FF7175480AF090FD76234FF4CD720A2192
:10344000714800950AF032FF4BF6F7516E480AF0CA
:1034500083FD40F2D51340F29B1200930B2175239C
:1034600069480AF023FF4FF4484167480AF08AFD93
:103470004FF6FF7164480AF06FFD4FF4D8731022C5
:103480006449614800940BF0ABFA21465E480AF0AB
:1034900079FD4FF679715C480AF05EFD4FF4CD730B
:1034A000A0225D49584800940BF09AFA4FF4D77364
:1034B000A0225A49544800940BF092FA4FF4E17359
:1034C000A0225749504800940BF08AFA40F2FF714D
:1034D0004D480AF041FD19230A2252494A480094F6
:1034E0000BF07EFA4FF6FF7147480AF035FD3E2398
:1034F0003C224D49444800940BF072FA70233C2260
:103500004A49414800940BF06BFA4FF6FF713E4870
:103510000AF022FD32235A2200920A211A463A4822
:103520000AF0C4FE59230093332231230B2136487D
:103530000AF0BCFE8C230093642232230A21324815
:103540000AF0B4FE8B230093652231230B212E4811
:103550000AF0ACFE0220FFF79FFC012800F09081EA
:10356000022800F08981002800F08181002440F2C7
:10357000FF7125480AF0F0FC19230A2200942C4917
:1035800021480BF02DFA4FF6FF711F480AF0E4FCBA
:1035900000943E233C2227491B480BF021FA00945B
:1035A00070233C22244918480BF01AFA0094A223F5
:1035B0003C22224914480BF013FA4FF6FF711248CF
:1035C0000AF0CAFC322404F12803224600930A219F
:1035D00032230D480AF06AFE04F127030093621CAF
:1035E00031230B21323408480AF060FEC82CEAD19E
:1035F0000320FFF751FC032800F29681DFE810F06A
:103600003701440148012000001AFF1F8C440200CA
:103610003C2702004C270200FC260200042702007F
:10362000502F020054270200642702006C2702007A
:10363000742702008827020090270200A0270200BA
:10364000BA4C32236372BA4BBA4A1968BA4800239B
:103650000DF09CF9B94B1870002840F044810546E4
:10366000B5480DF05BF80021B5480AF075FC40F252
:10367000DF1300931E224FF49B730A21B0480AF017
:1036800073FE31215320332232234FF02D0E0026BA
:103690002070A1702172AA4884F80AE040F2FF71FC
:1036A0003027E270E27123716371E7720AF054FC13
:1036B000462342F20E72A349A14800960BF090F9FE
:1036C0004FF6FF719E480AF047FC0096642342F2D1
:1036D0000E7296499A480BF083F9002D40F0DC8079
:1036E000DC25CD26BE274FF0AA084FF09B094FF0EE
:1036F0008C0A0024944992480BF0ECFA53460A22B3
:1037000092498F4800940BF06BF94B460A2290497E
:103710008B4800940BF064F943460A228D4988488F
:1037200000940BF05DF93B460A228B4984480094D3
:103730000BF056F933460A228849814800940BF071
:103740004FF92B460A2286497D4800940BF048F930
:1037500084497B480BF0BEFA4FF4EB7545F27131AA
:1037600077480AF0F9FB4FF49B734FF4C37200954E
:10377000AA2173480AF084FC4FF4484170480AF0CB
:10378000EBFB96234FF4C37200950A216C480AF0B4
:1037900077FC4FF6FF716A480AF0DEFB00954FF4A4
:1037A0009B734FF4C372AA2165480AF07FFD9623EC
:1037B0004FF4C37200950A2161480AF077FD40F288
:1037C000D5154BF6F7515E480AF0C6FB40F23513AB
:1037D00040F28712AB215A4800950AF067FD952305
:1037E00040F287120B21564800950AF05FFD4FF614
:1037F000FF7153480AF0B0FB45F2713150480AF0AE
:10380000C1FB4FF4D373D02257494D4800940BF0BD
:10381000E7F84FF448414A480AF0B4FB5349484896
:1038200000944FF4D37320220BF0DAF82146444879
:103830000AF0A8FB4E480BF065FC0028FAD04C4873
:103840000BF082FB4A480BF073FC044648480BF02F
:10385000B1FCA0F59B70A028A4F10A03EAD88C2B38
:10386000A4F1AA0403D98C2CE4D8FFF72BFC02B0F6
:10387000BDE8F047FFF7E2BB2C4C3423A37175E69B
:103880002A4C3323A37171E6284C30236372DAE6A5
:10389000264C31236372D6E640F2FF7128480AF0C5
:1038A0005BFB8C2342F20E720096324924480BF0E7
:1038B00097F84FF6FF7122480AF04EFB0096AA23B4
:1038C00042F20E722C491E480BF08AF84FF49175A3
:1038D00040F213164FF482774FF0F0084FF0E109F1
:1038E0004FF0D20A05E700230622234912480DF0C3
:1038F00077F9002540F2FF7111480AF02DFB3C23B7
:103900000A2200951D490E480BF06AF84FF6FF7128
:103910000B480AF021FB00955A230A221649084851
:103920000BF05EF801259BE6004C8CE6480CFF1F6F
:103930001429FF1FB02702006828FF1F6C19FF1F02
:10394000001AFF1FC827020014400200E8270200E7
:10395000102802003828020058280200802802009F
:10396000A82802008C440200C4280200CC280200CF
:10397000D027FF1FD82702005C0CFF1FB8270200CA
:10398000F8B52723294C2A4E232205460121184643
:103990003370227012F04EFD3078002112F036FDA7
:1039A0002078012112F046FD2078002112F08EFBD4
:1039B000322D28D0332D14D0312D00D0F8BD1D4A22
:1039C0001D481E4E1E4C1F491F4B1060822741F29E
:1039D000941500204FF4B4723760256008601A60B7
:1039E000F8BD164A164E174C1249174B642010604A
:1039F00046F2A817022510204FF4C87237602560E0
:103A000008601A60F8BD0D4A0D4E0E4C09490E4B68
:103A10006420106046F2A81700254FF480704FF420
:103A200083723760256008601A60F8BDD819FF1FDF
:103A3000B824FF1FB419FF1FD0010100CC27FF1FBE
:103A40004419FF1F0C20FF1FD419FF1F08B513F0E6
:103A5000A9FA064B0021187812F038FB044B00211C
:103A60001878BDE8084012F0D1BC00BFD819FF1F7C
:103A7000B824FF1F10B5384BDB7A322B82B00446D6
:103A80003AD0332B02D135480FF04CFAFA2012F01D
:103A9000FBFCFFF7DBFF002131480AF05DFA4FF431
:103AA000AC7315220093022140F23D132C480AF01A
:103AB0005BFC4FF478412A480AF04EFA0023009349
:103AC00027482849962342F20E720AF089FFA01F68
:103AD00008280FD8DFE800F0141F2A0E0E0E0E354E
:103AE00005000023009342F20E72C8231E491C48B1
:103AF0000AF076FF02B010BD1C480BF049FFC5E785
:103B00000023009342F20E72C823194914480AF0A8
:103B100067FF02B010BD0023009342F20E72C8236B
:103B200014490F480AF05CFF02B010BD0023009357
:103B300042F20E72C823104909480AF051FF02B040
:103B400010BD0023009342F20E72C8230B490448B3
:103B50000AF046FF02B010BD480CFF1F2C25FF1FC6
:103B6000001AFF1F7033020028290200C024FF1F23
:103B7000D4280200E82802000029020014290200CB
:103B800030B57D4A7D4B107889B0002401211C702E
:103B900012F03CFC7A4BDB7A322B49D0332B44D1E8
:103BA000784BC821187812F091FAAA2342F20E72CB
:103BB0007549764800940AF013FFD02342F20E7242
:103BC0007349724800940AF00BFF724972480FF073
:103BD000EFF840F2DC5012F057FC642203A96E4863
:103BE0000FF0E6F9A0425FDB6C4B6D4C18789DF846
:103BF0000C30237017F09AFA9FED5D0B41EC110B1E
:103C000014F042FF51EC100B17F0DEFD2378654AEB
:103C1000183BDBB2192B107000F2A380624A22FA23
:103C200003F3DB0740F19D800124204609B030BD3D
:103C30000094AA2342F20E72534954480AF0D0FE6F
:103C4000D02342F20E725249009450480AF0C8FE46
:103C50004FF47A6012F018FC40F2124013F01EF993
:103C60004FF4FA7012F010FC504951480BF06EFD01
:103C7000072405464FF4FA70EDB912F005FC4B49E4
:103C80004B480BF063FD013C0546F3D121463F480C
:103C90000AF062F9EC230093AA224FF49B730A21E5
:103CA0003A480AF061FB9DB90620FFF7E3FE0024C5
:103CB000204609B030BD002134480AF04DF9EC230C
:103CC0000093AA224FF49B730A2130480AF04CFB60
:103CD00000240094AA23A02236492C480AF080FE32
:103CE000D023A0222A49009428480AF079FE40F601
:103CF000B83012F0C9FB4FF4FA7012F0C5FB2C4833
:103D00000BF0CEFD0F2504464FF4FA70DCB912F02B
:103D1000BBFB27480BF0C4FD013D0446F4D1294606
:103D20001A480AF019F9EC230093AA224FF49B7366
:103D30000A2116480AF018FB002C7FF475AF072003
:103D4000FFF798FE71E7002110480AF005F9EC230F
:103D50000093AA224FF49B730A210C480AF004FB3B
:103D600063E70E20FFF786FE00245EE7AFF30080D6
:103D70000000000000000040B824FF1F1020FF1FBB
:103D8000480CFF1FD819FF1F40290200001AFF1F0F
:103D900054290200040EFF1F2C25FF1FD019FF1FFE
:103DA0009C24FF1F3C28FF1F014001028C3F0200A2
:103DB000C024FF1F642902002DE9F0472DED048B7C
:103DC00090B0B2EE040A012107A811F097FA07A9F2
:103DD0000BA811F061FAD0490BA811F02FFB014696
:103DE00003A811F059FA0BA811F002FA07A811F074
:103DF000FFF94FF6FF71C9480AF0AEF803A90BA806
:103E000011F04AFA00230BA90093EA224FF4B4738D
:103E1000C2480AF04FFE0BA811F0EAF90220FFF7A2
:103E2000AFFE002840F019810124BD4E9FEDBD9AE0
:103E3000DFF82483DFEDBC8A9FEDBC8A37464FF064
:103E40002009002514B3BA480BF05CF90028F9D01A
:103E5000002DF7D1B6480BF077F8B5480BF068F9AC
:103E60008246B3480BF0A6F96FF4D27318443A288F
:103E7000E8D8AAF10A03562B00F28580AD4B09223F
:103E80004FEA49091A600125002CDCD14FF4FA6190
:103E9000A3480EF09FFF0028C0F2938097F8D1311D
:103EA0004BB1DFF890A2DAF800300133032BCAF8E7
:103EB000003000F3AA80D6ED726AF4EEC96AF1EE22
:103EC00010FA5CDD9C4B96ED737A93ED006ADFF897
:103ED0008CE29FED9A5AF6EE007A37EE277AB8EE2A
:103EE000C66A07EE909AF8EEE75A77EE067AFDEE8C
:103EF000E77A17EE903A83FB08011944DA17C2EB10
:103F000021224FF4B47101FB1233CB1A5EF8232047
:103F100007EE102AB8EEC77A27EE267A87EE286ACF
:103F200026EE257AC7EE087A77EE857AFDEEE77AF7
:103F300017EE901A4A1EB2F59F7F84D2804ADFEDB9
:103F4000817A52F8233007EE103AB8EEC77A67EE5E
:103F5000266A86EEA87A67EE255A85EE887A77EE8D
:103F6000C77AFDEEE77A17EE902AA2F11503B3F5B2
:103F70009F7FBFF468AF69480AF012F863E7012039
:103F800012F082FA5FE7AAF17503562B08D8694B45
:103F900009EBD97909224FEA69091A60012551E72D
:103FA000AAF1E00ABAF1560F3FF64CAF002C00F030
:103FB000188103A811F01CF910B0BDEC048BBDE80A
:103FC000F08764220BA956480EF0F2FF0028FFF696
:103FD0003AAF4FF47A62214651480FF0A1F8002819
:103FE000C0F2C78021464D4809F0B6FF4FF4A973CF
:103FF000009315224FF49F73012148480AF0B4F949
:104000004FF47A7012F040FA1DE72146434809F058
:10401000A3FF4FF4A9731522009301214FF49F735E
:104020003E480AF0A1F94FF494613C4809F094FF2E
:104030000323B422A02139480AF07EF8DAF80030D0
:10404000082B00F39B8025464FF6E071334809F0BA
:1040500083FF0023CAF800302DE74FF6E0712F48A8
:1040600009F07AFF384B1B78183B0024192B3FF6D8
:10407000DCAE01A252F823F0614100002B3E0000AB
:104080002B3E00002B3E00002B3E00002B3E00008C
:104090002B3E00002B3E00002B3E00002B3E00007C
:1040A0002B3E00002B3E00002B3E00002B3E00006C
:1040B000054100002B3E0000F34000002B3E0000B5
:1040C0002B3E00002B3E00002B3E00002B3E00004C
:1040D0002B3E00002B3E00002B3E0000E140000084
:1040E00000944FF4C3730A2218490C480AF078FC74
:1040F0009BE600944FF4C3730A22154907480AF05F
:104100006FFC92E600944FF4C3730A2211490348EE
:104110000AF066FC89E600BF78290200001AFF1F3A
:104120002C25FF1F0000C84200401C4600007A44B6
:10413000D027FF1F2425FF1F580CFF1F000020431E
:10414000EC390200000034439C24FF1FB029020018
:1041500090290200A0290200B7600BB63C200200A3
:1041600000944FF4C3730A22224923480AF038FC12
:104170005BE60820FFF77EFC012464E607EE909AD8
:104180009FED1E0AF8EEE77A012180EE270A07A8C4
:1041900011F0B4F807A90BA811F07EF818490BA884
:1041A00011F04CF9014603A811F0DEF80BA811F04C
:1041B0001FF807A811F01CF84FF6FF710E4809F020
:1041C000CBFE03A90BA811F067F800944FF4B47369
:1041D000EA220BA908480AF06DFC0BA811F008F8B8
:1041E00032E708480EF09EFEFA2012F04DF9FFF774
:1041F0002DFCDEE680290200001AFF1F0000A0430C
:10420000782902002C25FF1F2DE9F04F2DED028BA0
:1042100093B0B2EE040A01210AA811F06FF80AA9BE
:104220000EA811F039F8AB490EA811F007F90146B4
:1042300006A811F031F80EA810F0DAFF0AA810F065
:10424000D7FF4FF6FF71A44809F086FE002406A9A7
:104250000EA811F021F84FF4B473EA220EA99E487B
:1042600000940AF027FC0EA810F0C2FF4FF6E07190
:10427000994809F071FE984800944FF4C3730A22DC
:1042800096490AF0ADFB2046FFF77AFC002840F083
:10429000E1800124DFF86082DFF860A2DFF860923D
:1042A000DFED8F8AC3462027002504B38D480AF02E
:1042B00029FF0028F9D0002DF7D18A480AF044FEE2
:1042C00088480AF035FF064686480AF073FF6FF407
:1042D000D27318443A28E8D8A6F10A03562B66D8B8
:1042E00009237F00C8F800300125002CDED104A886
:1042F0000DF10F027C490BF05FFA9DF80F30002B97
:10430000D4D004A80BF0B4F900285CD104A80BF0B9
:10431000B1F904A8B0EE408A0BF0B2F900EB8000CE
:10432000400080B264283ED9704B1B6898423ADA4C
:10433000F6EE007A38EE278A6D4BFDEEC87A17EE5E
:10434000906A53F8262002FB00F28AFB0213D21770
:10435000C2EB233307FB03F389FB0321DB17C3EB1A
:10436000A11101F19F03B3F59F7F01F1A0019DD23F
:10437000604B53F8263003FB00F08AFB0023C01784
:10438000C0EB233307FB03F389FB0302DB17A3EB2B
:10439000A21202F19F03B3F59F7F87D2B4324E4839
:1043A00009F0FEFD82E7012012F06EF87EE7A6F12B
:1043B0007503562B3AD807EBD77709237F10C8F837
:1043C0000030012571E7D8F800300133032BC8F81D
:1043D00000309BDD2146404809F0BEFD4FF4A97333
:1043E0001522009301214FF49F733B4809F0BCFF55
:1043F0004FF49461384809F0AFFD0323B422A021A3
:10440000354809F099FE4FF6FF71334809F0A4FDD5
:10441000DBF80030082B2CDC25464FF6E0712E48E7
:1044200009F09AFD0023C8F800306FE7E03E562EF1
:104430003FF63BAF2C480BF0ABFAFA2012F024F811
:10444000FFF704FB06A810F0D3FE13B0BDEC028BFF
:10445000BDE8F08F4FF47A7012F016F822480BF096
:1044600061FA00287FF416AF0820FFF703FB012450
:1044700010E707EE907AB8EEE70A012188EE800A8D
:104480000AA810F03BFF0AA90EA810F005FF114979
:104490000EA810F0D3FF014606A810F065FF0EA885
:1044A00010F0A6FE0AA810F0A3FE4FF6FF710A480E
:1044B00009F052FD06A90EA810F0EEFE00944FF48C
:1044C000B473EA220EA904480AF0F4FA0EA810F018
:1044D0008FFEA2E778290200001AFF1FC029020000
:1044E0000000A043D027FF1FC024FF1F4419FF1F57
:1044F0003C200200EC3902002425FF1FAD8BDB6855
:10450000D34D621070B5714882B009F0BBFC7049A0
:104510006E4840F2DF140AF0DDFB45F271316B4862
:1045200009F01AFD0094602340F2A5120A216748A1
:1045300009F0A6FD0094CB2340F2A5127521634833
:1045400009F09EFD4FF49B7340F2A5120094E02108
:104550005E4809F095FD4FF6FF715C4809F0FCFCE0
:104560000094602340F2A5120A21584809F09EFEEB
:104570000094CB2340F2A5127521544809F096FE11
:104580004FF49B7340F2A5120094E0214F4809F0CC
:104590008DFE4FF4EF744BF6F7514C4809F0DCFCFC
:1045A00000945F234FF4D3720B21484809F07EFE3C
:1045B0000094CA234FF4D3727621444809F076FE62
:1045C00040F235134FF4D3720094E1213F4809F0D3
:1045D0006DFE45F271313D48002409F0D3FC4FF6E1
:1045E000FF713A4809F0B8FC4FF4DD732D223949C8
:1045F000364800940AF0F4F94FF4DD7398223649F6
:10460000324800940AF0ECF94FF4DD73EB223349A1
:104610002E4800940AF0E4F921462C4809F0B2FC37
:1046200013254FF6FF71294809F096FC4FF4AD763B
:104630002A462146009540F23F13244809F030FFF6
:1046400032462146009640F23F13204809F028FFE9
:104650002A460096234621461C4809F021FF40F2D5
:104660003F132A461946009618481D4E1D4D09F065
:1046700017FF23462146E122144809F05DFC03237D
:10468000B422A021114809F057FD4FF6E0710F4800
:1046900009F062FC00944FF4B4730A2212490B48EB
:1046A00034702C600AF09CF9104BDB7A332B08D065
:1046B000322B01D002B070BD02B0BDE87040FFF7F0
:1046C000A3BD02B0BDE87040FFF776BB001AFF1F24
:1046D0008C440200D0290200C0260200D429020026
:1046E0003428FF1F2425FF1FDC290200480CFF1F70
:1046F00070B5614C82B0022500212046A56408F007
:104700004BFE204609F0BEFB2046002109F03AFC92
:104710000A215A4805F05AFA4FF4FA7011F0B4FE23
:10472000204657490AF0D6FA4FF4A27364221421A6
:10473000524805F0ABFA20464FF6FF7109F00CFC29
:1047400029464E480A2506F023FB2A46DC234D491C
:104750004A48009507F0FAF90C232A4600934A4983
:104760004648EB2307F0F2F90E232A460093474907
:104770004248FC2307F0EAF912232A4600934449F1
:104780003E4840F2111307F0E1F916232A46009340
:1047900040493A4840F2291307F0D8F91C232A4629
:1047A00000933D49354840F2471307F0CFF94FF4E5
:1047B0009A734FF4BE725021304805F067FA4FF4F7
:1047C0009F734FF4BE72B4212C48002605F05EFAA8
:1047D00020464FF6E07109F0BFFB2B4642F20E7205
:1047E00020462E4900960AF0FBF820464FF6FF714E
:1047F00009F0B2FB20462A490AF06CFA20461E2333
:1048000042F20E72274900960AF0EAF82046282361
:1048100042F20E72244900960AF0E2F82046322352
:1048200042F20E72214900960AF0DAF8204641233E
:1048300042F20E721E4900960AF0D2F84B2342F261
:104840000E7220461B4900960AF0CAF8204640F234
:10485000FF7109F081FB009620464FF4E67342F2A7
:104860000E7215490AF0BCF814480AF04BFC0028F7
:10487000FAD002B070BD00BF001AFF1F681BFF1FF7
:104880008C440200EC290200002A0200142A0200D3
:10489000282A02003C2A0200502A0200642A020050
:1048A00014400200782A0200A02A0200C82A02004E
:1048B000F02A0200182B02003C2B0200D027FF1F19
:1048C000F0B52DED028B85B04FF6FF715A480026EA
:1048D00009F042FB594958480096642342F20E728F
:1048E0000AF07EF856480DF0D7FB4FF4FC61044601
:1048F000514809F031FB002C00F08580642342F21E
:104900000E7250494C4800960AF06AF84FF47A70DB
:1049100011F0BAFD4FF6FF71474809F01DFB642303
:1049200042F20E724849444800960AF059F8A02312
:104930000096B022454940480AF052F8444BDF6ADD
:104940003F0B36D007EE907A9FED428AF8EEE78A69
:104950004FF48055340301220DF10F013E480CF055
:1049600077F80123012808BF9DF80F20344818BFAD
:10497000FF2221461C440DF045FBAC42EBD107EE73
:10498000906AF8EEE77A202267EE887A002387EEB5
:10499000A87A019200930136A0238022264805F5CB
:1049A0008055FDEEC77A17EE901A0AF0A3F8BE42C2
:1049B000D0D1002428480BF0B1FEA023802200941F
:1049C00026491D480AF00CF84FF4FC611A4809F01A
:1049D000C3FA0094642342F20E722149164809F08A
:1049E000FFFF782342F20E721E490094124809F02C
:1049F000F7FF40F6B83011F047FDFFF779FE05B03C
:104A0000BDEC028BF0BD4FF478410B4809F0A4FADD
:104A1000642342F20E7214490094074809F0E0FF43
:104A20000D480BF07BFE4FF47A6011F02DFD05B0C0
:104A3000BDEC028BF0BD00BF001AFF1F502B02001F
:104A40005C1AFF1F602B0200742B0200882B0200EF
:104A50005828FF1F0000C8426828FF1F8C2B020047
:104A6000902B0200A42B0200B02B0200FFFFFFFFDF
:104A70002DE9F043C64FC74883B000243C6009F0DD
:104A800001FA4FF4FA7011F0FFFCC349C1480AF073
:104A900021F94FF6E071BF4809F05EFA0A2342F2AD
:104AA0000E72BE49BB48009409F09AFFBC480DF055
:104AB0009DFA4FF6E0710546B64809F04DFA2823F5
:104AC0000A22B849B348009409F08AFF4FF6FF71F3
:104AD000B04809F041FAC5F30743EF2BEDB200945B
:104AE0004FF03C034FF0320200F07481AE49A94808
:104AF00009F076FF4FF47841A64809F02DFAD22349
:104B000042F20E720094A949A24809F069FFA8492F
:104B1000A0480AF0DFF84FF6FF719E4809F01CFA32
:104B20000094E62342F20E72A2499A4809F058FF17
:104B30000094F52342F20E729F49964809F050FF07
:104B400000944FF4827342F20E729C49914809F02E
:104B500047FF91498F480AF0BDF801244FF6E071F4
:104B60008C48002609F0F8F950230A229449894814
:104B7000009609F035FF87484FF6FF7109F0ECF910
:104B8000A5F11100C3B2092B76D816F0DFFA9FED1C
:104B90007E0B41EC110B13F077FF51EC100B16F06C
:104BA000EBFD2023014600960193322264237948CD
:104BB00009F0A0FF642300961A468249754809F05F
:104BC0000FFF1A2D98BF012610D8012303FA05F50F
:104BD00015F0F86840F0248115F4401940F04B813D
:104BE00015F4602F40F03181002E4ED04FF4EB755C
:104BF00045F27131674809F0AFF900954FF49B73A6
:104C00004FF4CD72AA21634809F03AFA4FF6FF71CA
:104C1000604809F0A1F900954FF49B734FF4CD72F1
:104C2000AA215C4809F042FB4BF6F751594809F0BC
:104C300093F940F2D51340F29B120093AB2140F25E
:104C40003513544809F032FB45F27131514809F0EF
:104C500099F900254FF6FF714E4809F07DF900954E
:104C60004FF4D873D02258494A4809F0B9FE294672
:104C7000484809F087F908E00096642332224A493F
:104C8000444809F0ADFE1A2D9FD94FF4EB754FF44F
:104C9000484140483E4E09F05FF996234FF4CD72EB
:104CA00000950A213B4809F0EBF94FF6FF713948AE
:104CB00009F052F996234FF4CD7200950A21354838
:104CC00009F0F4FA4BF6F751324809F045F940F291
:104CD000D51340F29B1200930B2195232D4809F028
:104CE000E5FA4FF448412B4809F04CF900254FF6FE
:104CF000FF71284809F030F94FF4D8732022334966
:104D00002448009509F06CFE2946224809F03AF93A
:104D100001233B602E480AF0F5F90028FAD02C4810
:104D20000AF012F92A480AF003FA054628480AF060
:104D300041FAA0F59B70A028ECD8A5F10A038C2BB2
:104D40004DD83B68012B11D0022BE3D10021114833
:104D500009F002F940F2DF13009328224FF49B730D
:104D60000A210C4809F000FBFFF7AAFD094809F0E9
:104D700089F8C82011F088FB03B0BDE8F043FDF7C7
:104D800019BE00BFAFF3008000000000000000402B
:104D90004028FF1F001AFF1F8C440200C02B020096
:104DA0005C1AFF1FD42B0200EC2B0200F42B020034
:104DB00014400200002C0200202C0200482C0200AB
:104DC0005C2C02006C2C0200F4260200CC280200AD
:104DD000D027FF1F6549664809F002FEBEE6AA3DDE
:104DE0008C2D97D800216248DFF8BC8109F0B4F817
:104DF00040F2DF13009328224FF49B730A215C4892
:104E000009F0B2FA4FF4FA7011F03EFB3B68012B47
:104E10006DD0022B7FF47EAF56480BF07FFCA5E7E8
:104E2000002540F2FF71524809F096F8009596234C
:104E30000A2251494E4809F0D3FD0095AA230A22BF
:104E40004E494B4809F0CCFDCEE64FF47841484836
:104E500009F082F8CDF8009096230A224849444888
:104E600009F0BEFDCDF80090AA230A22454940482A
:104E700009F0B6FD09E74FF6E0713D4809F06CF81E
:104E8000CDF8008096230A223D49394809F0A8FD53
:104E9000CDF80080AA230A223B49354809F0A0FD3D
:104EA000CDF80080BE230A223849314809F098FD28
:104EB000D2230A22CDF8008035492D4809F090FD13
:104EC00040F2FF712A4809F047F8CDF80080F0233E
:104ED0000A222949264809F083FDCDF800804FF4C5
:104EE00082730A222549224809F07AFD7CE6294B83
:104EF000294A19681F4800230BF048FD0546002881
:104F000054D14FF478411A4809F026F83C2342F274
:104F10000E7222491648009509F062FD4FF6FF71A6
:104F2000134809F019F85A2342F20E721C4910482E
:104F3000009509F055FD6E2342F20E7216490C4899
:104F4000009509F04DFD822342F20E721549084882
:104F5000009509F045FD07480BF0E0FB41F2883071
:104F600011F092FAC8F8005000E700BFE42B0200ED
:104F7000001AFF1F6828FF1FCC2C0200E02C020043
:104F8000742C0200882C0200982C0200AC2C020029
:104F9000C02C02001429FF1FEC2C0200FC2C020084
:104FA000042D0200102D02004028FF1F00250223BF
:104FB0004FF6FF718048336008F0CEFF28230A22A5
:104FC0007E497D48009509F00BFD3C230A227C496F
:104FD0007948009509F004FD7A49774809F07AFE8E
:104FE00064230A2278497448009509F0F9FC732378
:104FF0000A2276497048009509F0F2FC82230A22C1
:1050000073496D48009509F0EBFC91230A22714920
:105010006948009509F0E4FCA0230A226E4966481D
:10502000009509F0DDFCAF230A226C496248009527
:1050300009F0D6FC6A49604809F04CFE4FF4EB7861
:105040004FF448415C4808F087FF4FF49B734FF4DE
:10505000CD72AA215848CDF8008009F011F84FF61A
:10506000FF71554808F078FF4FF49B734FF4CD72F1
:10507000AA215148CDF8008009F018F940F2D5195D
:105080004BF6F7514C4808F067FF40F2351340F2F9
:105090009B12AB214848CDF8009009F007F94FF476
:1050A0004841454808F06EFF4FF6FF71424808F04E
:1050B00053FF4FF4D873C0224A493F48009509F086
:1050C0008FFC29463C4808F05DFF4FF494613A4854
:1050D00008F042FF96234FF4CD720A213648CDF8EE
:1050E000008008F0CDFF4FF6FF71334808F034FF21
:1050F00096234FF4CD720A212F48CDF8008009F095
:10510000D5F84BF6F7512C4808F026FF952340F2CE
:105110009B120B212848CDF8009009F0C7F84FF4F6
:105120009461254808F02EFF4FF6FF71224808F0E1
:1051300013FF2D49204800954FF4D873302209F011
:105140004FFC29461C4808F01DFF002C3FF4E2AD3F
:105150004FF47841184808F0FFFED22342F20E7255
:1051600000952249144809F03BFC1649124809F001
:10517000B1FD4FF6FF71104808F0EEFE0095E623F2
:1051800042F20E721A490C4809F02AFC0095F523E8
:1051900042F20E721749084809F022FC00954FF4BC
:1051A000827342F20E721449034809F019FC0C494B
:1051B000014809F08FFDADE5001AFF1F1C2D02000C
:1051C000302D020014400200442D0200682D020020
:1051D0008C2D0200B42D0200D02D0200F82D02000B
:1051E0008C440200CC2802004C260200F42B020062
:1051F000002C0200082E02002C2E020070B5104E6A
:1052000082B001F10A030C4605460093A1F10A029F
:1052100000F10A03A0F10A01304609F017F86B1DEE
:105220002246691F3046009409F03AF9631D009345
:105230003046621F2B46294609F032F902B070BD94
:10524000001AFF1F2DE9F047DFF8BCA0274F82B0FE
:105250004FF00009FF231A461946254808F06CFE56
:10526000DAF80030CDF8009042F20E722149204861
:1052700009F0B6FB1D4809F045FF0028FAD01C488C
:10528000DAF80030CDF8009042F20E721A4900268A
:1052900009F0A6FB15483446354641F2883809F036
:1052A00031FFF0B1454511480DD1144B1449154A51
:1052B000A3FB0404A3FB0603240B1B0B0C6013606D
:1052C00002B0BDE8F08709F0B5FFB7F90020B7F9E3
:1052D00002300648013514441E4409F013FF00282B
:1052E000E0D141F288339D42B4D1DEE7D027FF1FE1
:1052F000001AFF1F3C2E0200482E02005917B7D19A
:10530000E418FF1F0027FF1F0420FF1F70B5FF23B5
:1053100082B005460E46144619461A461C4808F047
:105320000BFE31462846FFF769FF00231A46FF218E
:10533000174808F015FEFFF785FFFF231A461946A8
:10534000134808F0F9FD134B13491B68104800225D
:10535000009242F20E7209F043FB50231A4619469E
:105360000B4808F0E9FD31462846FFF747FF0B4898
:105370000B4A0C490C4B0068126841F8240043F8B2
:1053800024200A4809F0BEFE0028FAD102B070BD00
:10539000001AFF1F0420FF1F542E0200E418FF1FF5
:1053A0000027FF1FE818FF1F0819FF1FD027FF1F46
:1053B00008B5084809F0A6FE0028FAD1054809F00A
:1053C000A1FE0028FAD0034809F09CFE0028FAD17B
:1053D00008BD00BFD027FF1F0F4970B44C223026F4
:1053E000782555240023CA720E704D708C720B7391
:1053F00001F10902013100F00F03092B03F1370419
:1054000096BF303314701370013A8A424FEA10107D
:10541000F1D170BC704700BF8424FF1F30B500235A
:10542000784D794883B01A46FF2108F085FD2B6836
:10543000754800220D21013B0091114608F094FFB0
:10544000FF231A461946704808F076FD00231A46D5
:10545000FF216D4808F084FD2B686B480E22002167
:105460000C46013B009209F01BF8012342F20E7238
:1054700066496548009409F0B3FA2346224621465E
:10548000614808F06DFD2B680094DC2B4FF01E0383
:1054900071D042F20E725E495B4809F0A1FA3223E4
:1054A00022465C495848009409F09AFA3E23224665
:1054B00059495548009409F093FA4A23224657491E
:1054C0005148009409F08CFA5623224654494E481C
:1054D000009409F085FA6223224652494A48009412
:1054E00009F07EFA6E2322464F494748009409F09E
:1054F00077FA862322464D494348009409F070FA12
:10550000922322464A494048009409F069FAAA23A6
:10551000224648493C48009409F062FAB6232246E4
:1055200045493948009409F05BFA4FF491732246DB
:1055300042493548009409F053FA4FF497732246D4
:105540003F493148009409F04BFAFF2211462346A7
:105550002D4808F0F1FC0094E22342F20E72394922
:10556000294809F03DFAFFF723FF274803B0BDE8BB
:10557000304008F087BC22463349234809F030FA0E
:10558000224600942A2331491F4809F029FA22466D
:10559000009436232E491C4809F022FA2246009432
:1055A00042232C49184809F01BFA224600944E2346
:1055B0002949154809F014FA224600945A2327492C
:1055C000114809F00DFA22460094662324490E483A
:1055D00009F006FA22460094722322490A4809F08B
:1055E000FFF9224600947E231F49074809F0F8F985
:1055F0000094A22342F20E721249034809F0F0F916
:10560000B1E700BF3028FF1F001AFF1F602E020005
:105610005C2F02006C2F0200942F0200B82F0200B2
:10562000E02F02000830020030300200503002004B
:10563000783002009C300200C4300200EC300200DE
:1056400010310200402F0200882E0200A42E02001A
:10565000C02E0200D82E0200F42E0200EC2F020011
:10566000102F0200282F0200383002002DE9F04FE1
:10567000AE48AF4DAF4CA7B008F004FC00231A466B
:10568000FF21AA4808F058FC2B68A84800220D21E9
:10569000013B0091114608F067FEFF231A461946A8
:1056A000A24808F049FC00231A46FF219F4808F051
:1056B00057FC2B689D480E2200210D46013B0092AD
:1056C00008F0EEFE0095012342F20E729A499748C7
:1056D00009F086F92B462A462946944808F040FCF2
:1056E00000951E2342F20E729449904809F078F911
:1056F0002A4600953E2392498C4809F071F92A46C2
:10570000009596238F49894809F06AF92A46009541
:10571000A2238D49854809F063F92A460095AE23F6
:105720008A49824809F05CF9894B11AE1868FFF785
:1057300053FE04F10B052346324613F8011F02F80D
:10574000011BAB42F9D100234B22009381497748DA
:10575000962309F045F9804B1868FFF73DFE754B1D
:105760000DF14E0213F8011F02F8011FAB42F9D1EF
:10577000002300934B22A22376496C4809F030F9AC
:10578000764B1868FFF728FE0DF1590314F8012F26
:1057900003F8012FAC42F9D10024AE234B226D490E
:1057A0006248009409F01CF96D49604809F092FACA
:1057B000F02342F20E726B495C48009409F010F934
:1057C00000944FF4827342F20E726749574809F011
:1057D00007F9664809F096FC0028FAD000211AA8BB
:1057E0000FF046FD00211EA80FF042FD002122A867
:1057F0000FF03EFD80250DF14D01A1F10A0409AB2A
:1058000014F8012F03F8012B8C42F9D109A928467D
:105810000A222035FDF720FCE02D04F10B01ECD12C
:10582000642010F031FE0DF1180BCBF180054FF024
:1058300000084FF0010A0DF122071AAB03EB08092B
:105840005C46601910F076F804F8010BBC42F8D100
:10585000594609A80FF00CFD09A948460FF08CFD28
:1058600009A80FF0C5FC484600230A2203A90FF03F
:1058700009FE314603A816F067FF08F1100800285A
:1058800008BF4FF0000AB8F1300F05F1200506F10E
:105890000B06D2D10021254808F05EFB4FF48C7333
:1058A0000093F0224FF4EB730A21204808F05CFDCE
:1058B000BAF1000F29D04FF4FC611C4808F04CFBF2
:1058C0000023009342F20E724FF482732849174866
:1058D00009F086F84FF6FF71144808F03DFB0023ED
:1058E00042F20E722349009310484FF4917309F06D
:1058F00077F822A80FF07CFC1EA80FF079FC1AA8FC
:105900000FF076FC27B0BDE8F08F4FF478410748E0
:1059100008F022FBCDF800A04FF4827342F20E7221
:105920001549024809F05CF8D4E700BF001AFF1FD0
:105930003028FF1F8524FF1F3C3102005031020038
:1059400068310200943102009C310200A43102004F
:105950003828FF1F8424FF1FEC19FF1F2C28FF1F6E
:105960008C440200AC310200CC310200D027FF1F72
:10597000E03102001C320200FC310200F0B50121CE
:1059800083B0B848B84CB94DB94E07F005FDB548DD
:1059900008F078FAB34809F0ABF92060B14809F093
:1059A000AFF900EBD0735B100246063BB149AD483E
:1059B00033602A6009F08EF9FFF730FD50231A4654
:1059C0001946A84808F0B8FA20680A210B38FFF7F2
:1059D00015FC206800EBD07040100A21FFF70EFC88
:1059E0000A210846FFF70AFC2968206801EBD171FB
:1059F00049100B38FFF702FC296801EBD1714910FF
:105A00000A20FFF7FBFB296820680B390B38FFF7EA
:105A1000F5FB2068296800EBD07040100B39FFF7C8
:105A2000EDFB29680A200B39FFF7E8FBFF231A4634
:105A300019468C4808F080FA00231A46FF2189484D
:105A400008F08EFA33688C49864800270C3B009793
:105A500042F20E7208F0C4FF3368874900970C3396
:105A600042F20E727F48854E08F0BAFF0A213A468C
:105A70000846FFF74BFC296801EBD1714910012260
:105A80000A20FFF743FC296802220B390A20FFF79E
:105A90003DFC206800EBD070401003220A21FFF784
:105AA00035FC2068296800EBD07040100B390422C7
:105AB000FFF72CFC206805220B380A21FFF726FC93
:105AC0002968206801EBD17149100B380622FFF7D5
:105AD0001DFC296820680B390B380722FFF716FCDC
