:1000000000000320D10100001D5E0100D55D01004C
:10001000D55D0100D55D0100D55D0100D55D010014
:10002000D55D0100D55D0100D55D01001D5E0100BB
:100030001D5E0100D55D0100054E0100094E010065
:100040001D5E01001D5E01001D5E01001D5E0100C0
:100050001D5E01001D5E01001D5E01001D5E0100B0
:100060001D5E01001D5E01001D5E01001D5E0100A0
:100070001D5E01001D5E01001D5E01001D5E010090
:100080001D5E01001D5E01001D5E01001D5E010080
:100090001D5E01001D5E01001D5E01001D5E010070
:1000A000B99E0000C59E00001D5E01001D5E01009E
:1000B0001D5E01001D5E01001D5E01006D690100F5
:1000C0001D5E01001D5E01001D5E01001D5E010040
:1000D0001D5E01000D7101001D5E01001D5E01002D
:1000E0001D5E01001D5E01001D5E01001D5E010020
:1000F0001D5E01001D5E01001D5E01001D5E010010
:10010000DD890100F1890100058A0100198A0100D9
:100110001D5E0100CD7A01001D5E01001D5E010023
:100120001D5E01001D5E01001D5E01001D5E0100DF
:100130001D5E01001D5E01001D5E01001D5E0100CF
:100140001D5E01001D5E0100DD7701001D5E0100E6
:100150001D5E01001D5E01001D5E01001D5E0100AF
:100160001D5E01001D5E0100D19E00001D5E0100AC
:100170001D5E01001D5E01001D5E01001D5E01008F
:100180001D5E01003D0201001D5E01001D5E0100BB
:100190001D5E01001D5E01001D5E01001D5E01006F
:1001A0001D5E01001D5E01001D5E01001D5E01005F
:1001B0001D5E01001D5E01001D5E01001D5E01004F
:1001C0001D5E01001D5E01001D5E01001D5E01003F
:1001D0005C4B4CF2205210B51A804DF628121A8052
:1001E00000BF00BF15F01EFE574B4FF030621A6083
:1001F000564A9A60564ADA60564B4FF470021A60BB
:10020000554B564A1A60564B1A78110703D51A787F
:1002100042F008021A70534B5349AA221A70534AEB
:10022000534B8B4204D252F8040F43F8040BF8E707
:10023000504B514900228B4202D243F8042BFAE77B
:100240004E494F4A002352F8230041F8230001335E
:10025000742BF8D14B4B4C4A802103F8011B93427D
:10026000FBD14A4B454A1A60494B8A221A70A3F5C2
:10027000805324225A70A0221A709A799207FCD5D2
:100280009A79D406FCD4434A937903F00C03082BE3
:10029000FAD1414B60221A7002331A78802AFCD1BD
:1002A0003C4B01221A715D225A719A799006FCD555
:1002B0009979384A4906FBD5384B394919600021EC
:1002C000596020231370937903F00C030C2BFAD19F
:1002D000344B354A1A60354A354C136813F4807331
:1002E00003D123604FF4A8531360324B324A1A6093
:1002F00000225A60072243F8042C304AC3F80C2D20
:1003000062B616F07BFA2368DA0705D52C4816F09A
:1003100031F82C4B2C4A1A602C4B1B785B0609D504
:10032000284C294B22689A4204D1254816F022F81D
:100330000023236015F07CFD1BF042FD15F06EFCE0
:10034000FEE700BF0E20054030800440823F0400DD
:100350000100002B88ED00E0002008E0030000858C
:1003600002D0074000E00740781BFF1F58650200DD
:10037000400CFF1F781BFF1F242FFF1F0002FF1FD1
:100380000000000000E400E064E400E008ED00E0AC
:10039000005006400040064001E007404480044011
:1003A0000000060204800440C010070010D0034083
:1003B00014D0034014E000E01FBF02000000202022
:1003C000DC302A631CE00340A5C3945A00F00740C8
:1003D000FFFFFFFFFFFFFFFFFFFFFFFFFFFFFFFF2D
:1003E000FFFFFFFFFFFFFFFFFFFFFFFFFFFFFFFF1D
:1003F000FFFFFFFFFFFFFFFFFFFFFFFFFFFFFFFF0D
:10040000FFFFFFFFFFFFFFFFFFFFFFFFDEF9FFFF23
:1004100010B5054C237833B9044B13B10448AFF33E
:1004200000800123237010BD781BFF1F0000000017
:1004300054650200084B10B51BB108490848AFF3DA
:1004400000800848036803B910BD074B002BFBD0A0
:10045000BDE81040184700BF000000007C1BFF1FD4
:1004600054650200781BFF1F000000000020704749
:10047000027C02F0080202F0FF0332B1C36A406A54
:10048000181A48BF6FF0004070471846704700BF09
:100490000020704701207047034BD8691A79431E2A
:1004A0005002A3FB00017047EC1FFF1F15F05CBF5B
:1004B00000B583B001220DF10701103010F054FC9B
:1004C00001280CBF9DF807004FF0FF3003B05DF826
:1004D00004FB00BF103010F04BBD00BF103010F017
:1004E000B7BE00BF103010F0B9BE00BF00B583B07A
:1004F00002AB012203F8011D1030194610F0AEFEC8
:1005000003B05DF804FB00BF503010F0A7BE00BF81
:1005100038B5074C204611F093FD02462079410280
:10052000A1FB0245D31701FB03552046294638BDE0
:10053000EC1FFF1F002A2CDD2DE9F843002516468D
:100540000F460446A846606820B917F085FF606032
:100550000028FAD030F8083B721BC3F140099145DE
:10056000A8BF9146791918444A4615F05FFB6168A7
:100570000B884B449BB2402B4D440B8003D0AE42C2
:10058000E1DCBDE8F883042017F05EFAC4F80480CB
:10059000F5E770472DE9F043C56F95B0FDB1DFF881
:1005A000BC900446636FAB424DD3267D26B304F165
:1005B000140805EB85010901404610F04DFD694620
:1005C0004046502210F0D0FB9DF80E1094F8802089
:1005D00052B1029BE36719B9E56F002DE2D1002506
:1005E000284615B0BDE8F083E36F606F01338342A6
:1005F000E36728BFE267EEE74FF47A7744F202231D
:10060000144A15498DF810608DF811608DF804605A
:100610008DF80C6004A804AE0297CDF8009010F09D
:1006200041FB0FCE04F1140847460FC70FCE0FC78A
:1006300030689DF80410029A9DF80C3038602172E1
:10064000E2602374B5E70021502268461BF0C6FF24
:100650000021BBE7842702002824FF1FE8200200B6
:10066000436F99423FD82DE9F041057D94B00F4684
:10067000044685B100F1140807EB870109014046E3
:1006800010F0EAFC40465022694610F06DFB0198DC
:1006900014B0BDE8F0814FF47A7E144E144A154927
:1006A0008DF8105044F202238DF811508DF804504B
:1006B0008DF80C5004A804AD0096CDF808E010F0B9
:1006C000F1FA0FCD04F1140846460FC60FCD0FC640
:1006D00028689DF80410029A9DF80C303060217251
:1006E000E2602374C8E70020704700BFE8200200E2
:1006F000842702002824FF1F2DE9F0470C46416F94
:100700008C4294B0924699464FD8067D054626B352
:1007100000F1140804EB84010901404610F09CFC30
:1007200050226946404610F01FFB50460DF10E0165
:10073000009D9DF80C401CF0D1FB1C9B1D602CB94A
:10074000019BC9F8003014B0BDE8F0874FF0FF33CB
:10075000C9F8003014B0BDE8F0874FF47A7E1A4F24
:100760001A4A1B498DF8106044F202238DF811607B
:100770008DF804608DF80C6004A804AE0097CDF8E5
:1007800008E010F08FFA0FCE05F1140847460FC7A6
:100790000FCE0FC730689DF80410029A9DF80C30F8
:1007A00038602972EA602B74B4E750220021684651
:1007B0001BF014FF50460DF10E011CF08FFB1C9A2C
:1007C00000231360BCE700BFE8200200842702007A
:1007D0002824FF1F2DE9F0470446A2B05030D4F87A
:1007E0006CA010F027F9E56B636F9D4273D8267DEE
:1007F000002E48D004F1140805EB8501090140469C
:100800000DF1380910F028FC49465022404610F0FE
:10081000ABFAE56B237DCDF83CA01BBB334E344ACD
:1008200034498DF814304FF47A778DF815308DF8FF
:1008300008308DF81030019644F2022305A805AE69
:10084000039710F02FFA0FCE47460FC70FCE0FC7F2
:1008500030689DF80810039A9DF8103038602172B6
:10086000E260237405EB85010901404610F0F4FBBA
:1008700049464046502210F0F1FC6FF00103E3635B
:1008800022B0BDE8F0874FF47A7E184F184A194914
:100890008DF8486044F202238DF849608DF83C6081
:1008A0008DF8446012A812AE0E97CDF840E010F01B
:1008B000F9F90FCE04F1140847460FC70FCE0FC742
:1008C00030689DF83C10109A9DF8443038602172D1
:1008D000E260237490E70DF1380948465022002168
:1008E0001BF07CFE04F1140894E700BFE82002002E
:1008F000842702002824FF1F2DE9F043047D8FB0D8
:1009000007460E4691467CB100F1140806EB8601BD
:100910000901404610F0A0FB49464046502210F025
:100920009DFC0FB0BDE8F0834FF47A7E124D134A60
:1009300013498DF8144044F202238DF815408DF8C8
:1009400008408DF8104005A805AC0195CDF80CE0E5
:1009500010F0A8F90FCC07F1140845460FC50FCCCD
:100960000FC520689DF80810039A9DF81030286084
:100970003972FA603B74C9E7E8200200842702005C
:100980002824FF1F2DE9F0434B6F93428FB0804620
:100990003CD30E7D0D46144686B101F1140904EBDB
:1009A00084010901484610F057FB48465022414651
:1009B00010F0DAF940460FB0BDE8F0834FF47A7ECC
:1009C000164F174A17498DF8146044F202238DF828
:1009D00015608DF808608DF8106005A805AE0197C8
:1009E000CDF80CE010F05EF90FCE05F114094F467A
:1009F0000FC70FCE0FC730689DF80810039A9DF8F7
:100A0000103038602972EA602B74C8E75022002148
:100A10001BF0E4FD40460FB0BDE8F083E820020083
:100A2000842702002824FF1F2DE9F041436F9942DB
:100A3000E4B0144600F29080077D05460E46002F74
:100A400000F0938000F1140806EB8601090140468E
:100A500010F002FB50224046694610F085F9009ADA
:100A6000002A7ED014A82946FFF78CFF149A002A8A
:100A70004CD0294628A8FFF785FF289A002A00F0C5
:100A8000A58029463CA8FFF77DFF3C9A002A00F08C
:100A90009980294650A8FFF775FF5099002900F06A
:100AA000998028462246FFF7BFFF20461CF088FAAF
:100AB000231813F8013C2F2B02D0484B1B882352DC
:100AC0000DF5A77120461CF00BF820461CF078FAB3
:100AD000231813F8013C2F2B02D0404B1B882352C4
:100AE0000DF1FE0120461BF0FBFF20461CF068FACA
:100AF000231813F8013C2F2B02D0384B1B882352AC
:100B00000DF1AE0120461BF0EBFF02E0334B1B88DA
:100B1000238020461CF054FA231813F8013C2F2B95
:100B200002D02E4B1B8823520DF15E0120461BF094
:100B3000D7FF20461CF044FA231813F8013C2F2B52
:100B400002D0264B1B88235220460DF10E011BF0CC
:100B5000C7FF64B0BDE8F0815022002168461BF059
:100B60003DFD1E4B1B882380E3E7DFF87CE01C4A39
:100B70001C498DF850714FF47A7C44F202238DF8B1
:100B800051718DF844718DF84C7154A854AFCDF863
:100B900040E1CDF848C110F085F80FCF05F11408F9
:100BA000C646AEE80F000FCFAEE80F0038689DF8DC
:100BB0004411529A9DF84C31CEF800002972EA6037
:100BC0002B7441E7054B1B8823807EE7034B1B8872
:100BD00023808AE7014B1B88238066E79427020065
:100BE000842702002824FF1FE82002002DE9F04797
:100BF000B1F1FF3F01EB81094FEA0919ADF5986D9D
:100C00008846DFF81CA3044608BF4FF0000920E027
:100C100004F114074946384610F01EFA50223846AF
:100C20000DEB020110F0A0F850220DEB0201684616
:100C300014F0FCFF9DF80C202046002A40D0019BB8
:100C40001946002B3CD023681B6B9847002800F006
:100C50000B81B8F1FF3F02D0636F984529D8257DFD
:100C6000002DD5D14FF47A7644F20223A94AAA493D
:100C70008DF8D0538DF8D1538DF8C4538DF8CC53E3
:100C8000F4A8F4ADF296CDF8C0A310F00BF80FCD98
:100C900004F114073E460FC60FCD0FC628689DF815
:100CA000C413F29A9DF8CC3330602172E260237451
:100CB000B0E7502200210DEB02001BF08FFCB3E7E0
:100CC000B8F1FF3F00F0DC80B8F1000F00F07D814B
:100CD000424628A82146FFF755FE289A002A00F030
:100CE000D4803CA82146FFF74DFE3C9A002A00F034
:100CF000798150A82146FFF745FE509A002A00F05E
:100D00008B8164A82146FFF73DFE649A002A00F01B
:100D10007D8178A82146FFF735FE789A002A00F0F9
:100D200081818CA82146FFF72DFE8C9A002A00F0C5
:100D30007F81A0A82146FFF725FEA09A002A00F097
:100D40007D81B4A82146FFF71DFEB49A002A00F069
:100D50007B81C8A82146FFF715FEC89A002A00F03B
:100D600079810DF55C7921464846FFF70BFED9F8ED
:100D70000010F0AD002900F073812A462046FFF7ED
:100D800053FE28461CF01CF90DF2BF36335C2F2BA6
:100D900002D0624B1B882B520DF27E3128461BF08D
:100DA0009FFE28461CF00CF9335C2F2B02D05B4BC6
:100DB0001B882B520DF22E3128461BF091FE28463F
:100DC0001CF0FEF8335C2F2B02D0544B1B882B52A7
:100DD0000DF2DE2128461BF083FE28461CF0F0F8B9
:100DE000335C2F2B02D04D4B1B882B520DF28E21E2
:100DF00028461BF075FE28461CF0E2F8335C2F2BCA
:100E000002D0464B1B882B520DF23E2128461BF088
:100E100067FE28461CF0D4F8335C2F2B02D03F4BE2
:100E20001B882B520DF5F77128461BF059FE2846FA
:100E30001CF0C6F8335C2F2B02D0384B1B882B528A
:100E40000DF5CF7128461BF04BFE28461CF0B8F874
:100E5000335C2F2B02D0314B1B882B520DF5A77121
:100E600028461BF03DFEC2E000200DF5986DBDE860
:100E7000F087029BC993C8AA31462046FFF73CFD84
:100E800001200DF5986DBDE8F087F0AD2F232B8084
:100E90000DF2BF3628461CF093F8335C2F2B02D09E
:100EA0001E4B1B882B520DF1AE0128461BF018FE7D
:100EB0009DF80C20002A00F0838000260DF55C7957
:100EC0002A464846334614498DF870638DF871639D
:100ED0000FF0E8FE0028C7D0484610F091F800282F
:100EE000C2D0009E00236A46414620468DF80E304F
:100EF000FFF702FD3246C8A82146FFF743FDC99D12
:100F0000A845B6D0002DBBD0DFF814A00DF55C7954
:100F100020E000BF842702002824FF1F942702003E
:100F2000E820020004F1140705EB850109013846A9
:100F300010F092F83846502249460FF015FF502223
:100F40004946C8A814F072FECA9B984541D01D4678
:100F5000002B95D0636FAB422CD3267D002EE1D1C0
:100F60004FF47A7744F202233F4A40498DF8E06219
:100F70008DF8E1628DF8D4628DF8DC62B8A8B8AE65
:100F8000B697CDF8D0A20FF08DFE0FCE04F1140766
:100F9000BE46AEE80F000FCEAEE80F0030689DF8F9
:100FA000D412B69A9DF8DC32CEF800002172E260CD
:100FB0002374B9E75022002148461BF00FFBBEE71F
:100FC00029462A4810F008F889E7F0AD2F232B8036
:100FD00070E7029BCA932046C8AA2946FFF78CFCFB
:100FE000012042E7F0AD2F232B800DF2BF362846BB
:100FF0001BF0E6FF335C2F2B02D01D4B1B882B52BE
:101000000DF1FE0128461BF06BFD43E7F0AD2F23E9
:101010002B800DF2BF360AE7F0AD2F232B800DF2A7
:10102000BF3612E7F0AD2F232B800DF2BF36F0E66E
:10103000F0AD2F232B800DF2BF36DCE6F0AD2F2371
:101040002B800DF2BF36C8E6F0AD2F232B800DF2BA
:10105000BF36B4E6F0AD2F232B800DF2BF36A0E6ED
:101060002F232B808DE600BF842702002824FF1F3A
:10107000942702002DE9F043C36B8B42ADF5397D17
:1010800004D190F83830934200F09580914688461C
:101090000646002963D00A4668463146FFF772FCCF
:1010A000009A002A00F0AE8014A83146FFF76AFCCF
:1010B000149A002A00F0838028A83146FFF762FCCA
:1010C000289A002A00F0A5803CA83146FFF75AFC78
:1010D0003C9A002A00F0B98050A83146FFF752FC34
:1010E000509A002A00F0AA8064AF31463846FFF7D4
:1010F00049FC396878AD002900F0AE802A463046B8
:10110000FFF792FC28461BF05BFF0DF2DF14235C17
:101110002F2B02D0524B1B882B520DF5CF71284636
:101120001BF0DEFC28461BF04BFF235C2F2B02D06C
:101130004B4B1B882B520DF5A77128461BF0D0FC9A
:1011400028461BF03DFF235C2F2B02D0444B1B880D
:101150002B520DF1FE0128461BF0C2FC5FE078AD7A
:101160002F232B8064AF06F1500420460FF062FC61
:1011700000232A464FF47A713A4D3B747B743B71DD
:101180003B73B9604B4638493D6068A868AD0FF0C5
:1011900089FD0FCD0FC40FCD0FC428683979BA6807
:1011A0003B7B2060C6F83C8086F8389086F8441077
:1011B000B26486F84C300DF5397DBDE8F08378AD2A
:1011C0002F232B8064AF0DF2DF1428461BF0F8FEAE
:1011D000235C2F2B02D0224B1B882B520DF15E017A
:1011E00028461BF07DFC28461BF0EAFE235C2F2BD3
:1011F00002D01B4B1B882B520DF10E0128461BF011
:101200006FFCB0E778AD2F232B8064AF0DF2DF14B5
:10121000E9E778AD2F232B8064AF0DF2DF14284669
:101220001BF0CEFE235C2F2B02D00D4B1B882B52C4
:101230000DF1AE0128461BF053FCC6E778AD2F2315
:101240002B8064AF0DF2DF146CE778AD2F232B8079
:1012500064AF0DF2DF1473E72F232B8052E700BF3A
:1012600094270200E82002002824FF1FF8B5044656
:10127000174650340022069E1D46FFF7FBFE3946F6
:1012800020460FF0E9FE324629462046BDE8F840E8
:101290000FF06ABDF0B5B1F1FF3F14BF0E46002656
:1012A000ADF2C44D1D460146044617466846324617
:1012B000FFF768FB28461BF083FE3E2804D9002573
:1012C00028460DF2C44DF0BD421C29460DF15E00CA
:1012D00014F0ACFC656F019A16926B1C63670023D7
:1012E0002946159314AA0123204614968DF85C70A4
:1012F0008DF85D30FFF700FB6A46314620460195C8
:10130000FFF7FAFA4FB9204644F202222946FFF7C6
:10131000B1FE28460DF2C44DF0BD002D00F0E68070
:101320002A4628A82146FFF72DFB289A002A00F01C
:10133000F5803CA82146FFF725FB3C9A002A00F0E7
:10134000E68050A82146FFF71DFB509A002A00F0C6
:10135000EC8064A82146FFF715FB649A002A00F090
:10136000EB8078A82146FFF70DFB789A002A00F061
:10137000EA808CA82146FFF705FB8C9A002A00F032
:10138000E980A0A82146FFF7FDFAA09A002A00F004
:10139000E880B4A82146FFF7F5FAB49A002A00F0D5
:1013A000E780C8A82146FFF7EDFAC89A002A00F0A6
:1013B000E680DCAF21463846FFF7E4FA3968F0AE44
:1013C000002900F0E38020463246FFF72DFB30462F
:1013D0001BF0F6FD0DF2BF34235C2F2B02D06D4BBA
:1013E0001B8833520DF27E3130461BF079FB3046BC
:1013F0001BF0E6FD235C2F2B02D0664B1B8833527B
:101400000DF22E3130461BF06BFB30461BF0D8FD41
:10141000235C2F2B02D05F4B1B8833520DF2DE2151
:1014200030461BF05DFB30461BF0CAFD235C2F2BC2
:1014300002D0584B1B8833520DF28E2130461BF0E0
:101440004FFB30461BF0BCFD235C2F2B02D0514BD1
:101450001B8833520DF23E2130461BF041FB3046D3
:101460001BF0AEFD235C2F2B02D04A4B1B8833525E
:101470000DF5F77130461BF033FB30461BF0A0FD35
:10148000235C2F2B02D0434B1B8833520DF5CF71B9
:1014900030461BF025FB30461BF092FD235C2F2BC2
:1014A00002D03C4B1B8833520DF5A77130461BF020
:1014B00017FB30461BF084FD235C2F2B02D0354BED
:1014C0001B8833520DF1FE0130461BF009FB3046FC
:1014D0001BF076FD235C2F2B02D02E4B1B88335242
:1014E0000DF1AE0130461BF0FBFA03E0F0AE2F2306
:1014F0003380DCAF002432463846012326493C7055
:101500007C700FF071FB28460DF2C44DF0BDF0AEBB
:101510002F233380DCAF0DF2BF34CAE7F0AE2F23A8
:101520003380DCAF0DF2BF34D1E7F0AE2F23338030
:10153000DCAF0DF2BF34AEE7F0AE2F233380DCAF6B
:101540000DF2BF3499E7F0AE2F233380DCAF0DF2FC
:10155000BF3484E7F0AE2F233380DCAF0DF2BF340D
:101560006FE7F0AE2F233380DCAF0DF2BF345AE7C4
:10157000F0AE2F233380DCAF0DF2BF3445E7F0AE81
:101580002F233380DCAF0DF2BF3430E72F233380BD
:101590001DE700BF942702002824FF1F2DE9F04F0C
:1015A00090F878400126C5B0054680F87960002C97
:1015B00000F00E816B6F002B00F007814FF00008E8
:1015C000474606E06B6F0137BB4208F1500840F216
:1015D000FC80BB42F7D32C7D002C00F0CC8005F1C1
:1015E0001406414630460FF037FD1CA95022304604
:1015F0000FF0BAFB9DF87C30002BE3D09DF87D40C6
:10160000002CDFD1224639462846FFF733FD95F8F6
:101610005030002BD6D0A24605F15009019758E072
:10162000A2420CBF23460123019A08BF0D9C3092B1
:101630008DF8CC30402200230DF1CE0106A8319464
:101640008DF8CD30CDF8C8A00FF028FF6C6F95F85D
:1016500014E0631C6B67BEF1000F2BD14FF47A7C52
:1016600044F202237D4A7E497E4F8DF84CE013A858
:101670008DF84DE08DF840E08DF848E0CDF844C09D
:101680000F970FF00FFB0DF14C0EBEE80F00B446A4
:10169000ACE80F00BEE80F00ACE80F00DEF8000079
:1016A0009DF84010119A9DF84830CCF8000029723E
:1016B000EA602B7404EB8401090130460FF0CCFC86
:1016C000502230A930460FF0C9FD06A8A2460FF0FF
:1016D000B1F90024634B029322464FF47A7B4946CA
:1016E00006A88DF818408DF819408DF80C408DF83B
:1016F0001440CDF810B00FF06BFD9DF8183003F0DA
:101700007002002B8CD12C7D019FCDF874A0012399
:101710008DF87D302CBB8DF8D0408DF8D1408DF800
:10172000C4408DF8CC404F4C4C4A4D49309444F263
:10173000022334A834ACCDF8C8B00FF0B3FA0FCC04
:10174000B646AEE80F000FCCAEE80F0020689DF85B
:10175000C410329A9DF8CC30CEF800002972EA60AD
:101760002B74414630460FF077FC1CA930465022BE
:101770000FF074FD26E78DF8D0408DF8D1408DF83C
:10178000C4408DF8CC40374C344A354930944FF43E
:101790007A7644F2022334A834AC32960FF082FAFF
:1017A0000FCC05F11406B646AEE80F000FCCAEE83C
:1017B0000F0020689DF8C410329A9DF8CC30CEF806
:1017C00000002972EA602B740BE745B0BDE8F08F8A
:1017D00080F87860214922480FF0FEFB2F7D30947D
:1017E0002F23329431948DF8CC608DF8CD406E6704
:1017F000ADF8CE305FB105F11407002138460FF087
:101800002BFC3846502230A90FF028FDD2E6154CAB
:10181000124A13491C944FF47A7644F2022320A80A
:1018200020AC8DF880708DF881708DF874708DF813
:101830007C701E960FF036FA0FCC05F114073E4669
:101840000FC60FCC0FC620689DF874101E9A9DF825
:101850007C3030602972EA602B74CEE78427020066
:101860002824FF1FE82002002DE9F04FC3B00A46EC
:101870000546894601461AA8FFF784F89DF874309A
:1018800013B19DF8754014B143B0BDE8F08F224606
:1018900049462846FFF7EEFB95F85030002BF3D071
:1018A000DFF808A1274605F1500B0FE005F11408F9
:1018B00004EB8401090140460FF0CEFB4046502264
:1018C0002EA90FF0CBFC04A80FF0B4F84FF47A73F4
:1018D0000022594604A802938DF810708DF81170FB
:1018E0008DF804708DF80C70CDF800A00FF070FC2E
:1018F0009DF8103003F07002002B47D0002A14BF6F
:10190000012300238DF8C4304FF0400208BF0B9B29
:10191000309418BF00230DF1C60104A82F93CDF811
:10192000B8908DF8C5700FF0B9FD6C6F2E7D631CFB
:101930006B67002EBAD14FF47A7E44F20223194A23
:1019400019498DF844608DF845608DF838608DF840
:10195000406011A811AECDF83CE0CDF834A00FF0F6
:10196000A1F90FCE05F11408C646AEE80F000FCE60
:10197000AEE80F0030689DF838100F9A9DF840309F
:10198000CEF800002972EA602B7491E701231AAAAD
:10199000494628461B948DF87530FEF7ADFF43B0DD
:1019A000BDE8F08F842702002824FF1FE8200200F2
:1019B0002DE9F04190F87860A2B004460D46FEB1E2
:1019C0009DB16B1C08BF002529462046FFF74CFF40
:1019D000012384F880302A4621460EA8FEF7D2FF64
:1019E0000F9BE36722B0BDE8F08194F8793053B3E0
:1019F0000022012384F88020E36722B0BDE8F08153
:101A0000012780F87870284928480FF0E5FA94F803
:101A100014E08DF844702F2367670E9610960F968A
:101A20008DF84560ADF84630BEF1000F14D004F1DA
:101A30001408002140460FF00FFB404650220EA92B
:101A40000FF00CFCBCE72046FFF7A8FD00220123A5
:101A500084F88020E367D0E7154E134A13490196B6
:101A60004FF47A7744F2022305A805AE03978DF868
:101A700014E08DF815E08DF808E08DF810E00FF017
:101A800011F90FCE04F1140847460FC70FCE0FC748
:101A900030689DF80810039A9DF810303860217264
:101AA000E2602374C5E700BF842702002824FF1FDB
:101AB000E82002002DE9F0410B7882B00446002BAB
:101AC0004BD008460E461BF07BFA257A01308DF884
:101AD0000200002D50D0E3680133E3603278002A21
:101AE00036D0002705E0E3680233E36016F8012FE3
:101AF0004AB3ADF80620002DF5D1606820B916F084
:101B0000ABFC60600028FAD030F8083BC5F1020257
:101B1000C3F140089045A8BF904618440DF1060354
:101B20005919424614F082F861680B8843449BB20D
:101B3000402B45440B801AD0012DDEDD16F8012F15
:101B4000257A002AD5D10023ADF804303DB3E368EF
:101B50000233E36002B0BDE8F081027A8DF8033011
:101B6000AAB1C3680133C36002B0BDE8F0810420AC
:101B700015F06AFF6760DFE701220DF102012046E0
:101B8000FEF7D8FC3278257A002AAAD1DBE70122B9
:101B90000DF10301FEF7CEFC02B0BDE8F081204656
:101BA000022201A9FEF7C6FC02B0BDE8F08100BF29
:101BB00030B5037A91B064250446ADF82650002B69
:101BC00000F0A680C36806220233C3600F9204337C
:101BD0006422E360ADF824200233E3605A492046D2
:101BE000FFF768FF237A0022ADF82220002B00F0D7
:101BF000B580E3680E220233E3600E92043341F2B3
:101C00000102E360ADF82020023341F20202E360FA
:101C1000ADF81E20023341F20302E360ADF81C2050
:101C2000023341F20402E360ADF81A20023341F2BC
:101C30000502E360ADF81820023341F20602E360CA
:101C4000ADF81620023341F20702E360ADF814202C
:101C5000023341F20802E360ADF81220023341F290
:101C60000902E360ADF81020023341F20B02E36099
:101C7000ADF80E20023341F20C02E360ADF80C2007
:101C8000023341F20D02E360ADF80A20023341F263
:101C90001402E360ADF80820023341F21502E3605C
:101CA000ADF8062002330022E3600D9204330122D6
:101CB000E3600C9204334DF20242E360ADF804207D
:101CC00002330022E3600B9204330222E3600A92A3
:101CD00004334FF44052E360ADF80220023343F284
:101CE0000102E360ADF800200233E36020461749AB
:101CF000FFF7E0FE20461649FFF7DCFE20461549B7
:101D0000FFF7D8FE20461449FFF7D4FE11B030BDCE
:101D100002220DF12601FEF70DFC237A06220F9216
:101D2000002B40F0358104220FA92046FEF702FC6B
:101D3000237AADF82450002B40F02C81022209A90F
:101D40002046FEF7F7FB49E798270200AC27020080
:101D5000B4270200BC270200C027020002220DF1B6
:101D600022012046FEF7E6FB237A0E220E92002B7C
:101D700040F0128104220EA92046FEF7DBFB237AF5
:101D800041F20102ADF82020002B40F00781022231
:101D900008A92046FEF7CEFB237A41F20202ADF8F5
:101DA0001E20002B40F0FC8002220DF11E01204677
:101DB000FEF7C0FB237A41F20302ADF81C20002B92
:101DC00040F0F080022207A92046FEF7B3FB237AF9
:101DD00041F20402ADF81A20002B40F0E580022207
:101DE0000DF11A012046FEF7A5FB237A41F2050208
:101DF000ADF81820002B40F0D980022206A9204619
:101E0000FEF798FB237A41F20602ADF81620002B6C
:101E100040F0CE8002220DF116012046FEF78AFB2B
:101E2000237A41F20702ADF81420002B40F0C28063
:101E3000022205A92046FEF77DFB237A41F2080223
:101E4000ADF81220002B40F0B78002220DF11201F4
:101E50002046FEF76FFB237A41F20902ADF810200D
:101E6000002B40F0AB80022204A92046FEF762FB63
:101E7000237A41F20B02ADF80E20002B40F0A08037
:101E800002220DF10E012046FEF754FB237A41F2A7
:101E90000C02ADF80C20002B40F09480022203A924
:101EA0002046FEF747FB237A41F20D02ADF80A20E7
:101EB000002B40F0898002220DF10A012046FEF736
:101EC00039FB237A41F21402ADF80820002B7DD1B2
:101ED000022202A92046FEF72DFB257A41F21503C6
:101EE000ADF80630002D73D102220DF10601204617
:101EF000FEF720FB237A0D95002B6BD104220DA950
:101F00002046FEF717FB237A01220C92002B63D1A7
:101F100004220CA92046FEF70DFB257A4DF2024360
:101F2000ADF80430002D59D1022201A92046FEF758
:101F300001FB237A0B95002B52D104220BA92046DA
:101F4000FEF7F8FA237A02250A95002B4AD10422DB
:101F50000AA92046FEF7EEFA237A4FF44052ADF874
:101F600002209BB92A460DF102012046FEF7E2FA53
:101F7000237A43F20102ADF800202BB92A466946C4
:101F80002046FEF7D7FAB1E6E368ADE6E368A5E6DA
:101F9000E3681CE6E3681FE6E3682FE6E36833E6E0
:101FA000E36837E6E3683BE6E3683FE6E36843E679
:101FB000E36847E6E3684BE6E3684FE6E36853E629
:101FC000E36857E6E3685BE6E3685FE6E36863E6D9
:101FD000E36867E6E36869E6E3686BE6E3686FE693
:101FE000E36871E6E36873E630B504460068514A79
:101FF00003681B68934289B040F08F800422237AE3
:10200000ADF80620002B54D0E3680233E36020686B
:10201000494A03685B6893427AD10223257AADF876
:102020000A30002D62D0E36800220233E360ADF88D
:1020300008200233E3602068404A03689B689342AB
:1020400064D13F4BD8691A79431E5002A3FB0001AB
:10205000237ACDE90601002B42D0E3680833E36020
:102060002068384A0368DB6893425CD1344D2846C7
:102070000FF0E6FF2A795502C117A5FB002305FBE7
:10208000013310461946237A04900591C3B1E368E1
:102090004FF0FF320833E36003920433E3602046DD
:1020A0002949FFF707FD20462849FFF703FD09B03E
:1020B00030BD02220DF106012046FEF73BFAA6E7ED
:1020C000082204A92046FEF735FA237A4FF0FF32A2
:1020D000039253BB042203A92046FEF72BFADEE746
:1020E000082206A92046FEF725FAB9E702220DF1DB
:1020F0000A012046FEF71EFA237AADF80850B3B95C
:10210000022202A92046FEF715FA94E798479FE7B6
:102110009847002881D1012380E7984701220028B1
:102120007FF46DAF6AE79847ADE7E368B5E7E3682A
:102130007FE700BF910400009504000099040000AF
:10214000EC1FFF1F11050000C4270200803A0200A7
:102150002DE9F04F037A99B004460092002B00F06D
:10216000D68000230293DFF8C492AD4B0193E3685D
:102170000433E3602568019A2B681B69934240F0A1
:10218000378195F87860002E00F01A81009A134686
:10219000002A35D195F87930002B00F0B08100226B
:1021A000012385F88020EB67DFF8848225682B689F
:1021B0005B694B454ED1EE6FFEB10DF1100B6B6FAD
:1021C0009E4276D82F7D002F48D005F1140A06EBE9
:1021D0008601090150460EF03FFF504650225946F5
:1021E0000EF0C2FD9DF81E0095F88020DAB1069B26
:1021F000EB6708BBEE6F002EE1D119B0BDE8F08FA0
:10220000013208BF0023194628461E46FFF72CFB63
:10221000012385F880303246294604A8FEF7B2FB38
:10222000059BEB67C0E7EB6F696F01338B42EB6790
:1022300028BFEA670028DDD0002EDED0257A03967D
:10224000002D3DD0E36825680433E3602B685B69AB
:102250004B45B0D0284698470646EDE74FF47A7EC6
:1022600044F202236F4A70498DF820708DF8217076
:102270008DF814708DF81C7008A808AFCDF818E020
:10228000CDF810800EF00EFD0FCF05F1140AD646E2
:10229000AEE80F000FCFAEE80F003B68CEF800307D
:1022A0009DF814302B72069BEB609DF81C302B744C
:1022B0008DE75022002158461AF090F9002093E74C
:1022C0002E46606820B916F0C7F860600028FAD082
:1022D00030F8083BC5F10402C3F140079742A8BF9C
:1022E0001746184403AB59193A4613F09FFC61682E
:1022F0000B883B449BB2402B3D440B8002D0032D06
:10230000DFDD53E7042015F09FFB6660F7E7444BE1
:10231000056801931A462B681B69934240F0F380CD
:1023200095F87860002E00F08580009A002A63D12D
:1023300095F87930002B00F0EA800022012385F81F
:102340008020EB672568DFF8E4902B68DFF8E0A0D9
:102350005B694B454FF0000B40F09780EE6F1EB36A
:102360000DF110086B6F9E4200F2C2802F7D002F8E
:1023700000F08F8005F1140706EB8601090138464D
:102380000EF06AFE3846502241460EF0EDFC9DF8F4
:102390001E0095F88020002A64D0069BEB67002879
:1023A00069D1EE6F002EDDD1237ACDF808B0002B75
:1023B0007FF4DDAE042202A92046FEF7BBF8D9E681
:1023C000012785F87870174917480EF005FE2F236E
:1023D0008DF81C700496069605968DF81D60ADF874
:1023E0001E30314604AA6F672846FEF785FACDE60F
:1023F000009928469847D7E6511C14BF1646002678
:1024000031462846FFF730FA012385F880303246FE
:10241000294604A8FEF7B6FA059BEB6792E700BFD2
:10242000B1190000842702002824FF1F9505000031
:10243000E8200200012785F87870374937480EF008
:10244000CBFD2F238DF81C700496069605968DF80B
:102450001D60ADF81E30314604AA6F672846FEF7AE
:102460004BFA62E7EB6F696F01338B42EB6728BF72
:10247000EA67002895D0002E96D025682B685B6906
:102480004B450BF1010B3FF469AF284698470646D0
:10249000F1E74FF47A7E44F202231F4A1F498DF878
:1024A000207008A88DF821708DF814708DF81C70BC
:1024B000CDF818E0CDF810A00EF0F4FB0DF1200ED1
:1024C000BEE80F0005F11407BC46ACE80F00BEE8FB
:1024D0000F00ACE80F00DEF80030CCF800309DF8BB
:1024E00014302B72069BEB609DF81C302B7443E775
:1024F0005022002140461AF071F8002049E7284692
:10250000FFF74CF84BE62846009998471AE728460B
:10251000FFF744F811E700BF842702002824FF1FBB
:102520002DE9F04304460068AA4B026895699D4274
:10253000E5B040F0228110AD0A4624AF014628469E
:10254000FEF720FA38460DF14E011AF0C7FC0DF1E6
:1025500014082B7B2A68C8F80020002B63D16B6815
:10256000049304AE237A01220692002B5ED0E36826
:10257000326804330132E36000F00A810022ADF8D2
:102580000C2002330022E360ADF80A2002333268E7
:10259000E3600E9204330022E360ADF808200233BA
:1025A0000022E3600D9204330022E3600C920433B6
:1025B0000022E3600B9204330022E3600A920433AA
:1025C0000022E360099204330022E360089204339E
:1025D000D8F80020E36007923268A2F1FF32B2FA25
:1025E00082F252090433E360ADF80E200233002278
:1025F000E3602A6004330022E3600F920433E36057
:1026000039462046FFF756FA20467349FFF752FA3B
:1026100020467149FFF74EFA20466F49FFF74AFA04
:1026200065B0BDE8F0834FF0FF3399E706A90422B7
:102630002046FDF77FFF336894F80890013343F29A
:10264000010318BF0023ADF80C30B9F1000F40F0C2
:10265000A88003A902222046FDF76CFF237AADF87B
:102660000A90002B40F09F8002220DF10A012046C3
:10267000FDF760FF237A32680E92002B40F09580C0
:102680000EA904222046FDF755FF237AADF80890E5
:10269000002B40F08C8002A902222046FDF74AFF61
:1026A000237ACDF83490002B40F083800DA90422CA
:1026B0002046FDF73FFF237ACDF83090002B7AD1EA
:1026C0000CA904222046FDF735FF237ACDF82C9083
:1026D000002B72D10BA904222046FDF72BFF237A91
:1026E000CDF82890002B6AD10AA904222046FDF7D4
:1026F00021FF237ACDF82490002B62D109A904226E
:102700002046FDF717FF237ACDF82090002B5AD1F1
:10271000042208A92046FDF70DFF237AD8F80020EF
:102720000792002B51D107A904222046FDF702FF92
:10273000336894F80880A3F1FF33B3FA83F35B099D
:10274000ADF80E30B8F1000F41D10DF10E010222AB
:102750002046FDF7EFFE267AC5F80080FEB929462F
:1027600004222046FDF7E6FE237A0F96ABB90FA9A7
:1027700004222046FDF7DEFE42E704AE24AF0DF151
:10278000140833463A46CDF80080A84710ADE9E674
:1027900043F20102ADF80C20F3E6E3682EE7E368AC
:1027A00028E7E368EDE6E368F0E6E368F2E6E3686D
:1027B000F5E6E368F7E6E368F9E6E368FBE6E36875
:1027C000FDE6E368FFE6E36801E7E36804E7E36842
:1027D0000CE700BFF9060000803A0200002A31D061
:1027E0002DE9F04104460F4616464FF00008606898
:1027F00028B9042015F0B2F860600028F9D04188AB
:1028000005886D1AB54228BF354637B108300144F6
:102810002A46384613F00AFA2F4460684388028833
:102820002B449BB29A42A6EB0506438003D0002EB0
:10283000DDD1BDE8F08115F02FFEC4F80480002E34
:10284000D5D1F6E7704700BF2DE9F04385B090463B
:1028500006460F46684611460A2299460C9C0D9D75
:1028600012F06CFE6946504812F0B2FE684612F053
:10287000F3FDB8F1090F40F386800A223946684615
:1028800012F05CFE6946494812F0A2FE684612F05A
:10289000E3FD092F67DD0A223146684612F04EFE3D
:1028A0006946434812F094FE684612F0D5FD092EA1
:1028B00049DD0A222946684612F040FE69463D4835
:1028C00012F086FE684612F0C7FD092D2BDD0A22A4
:1028D0002146684612F032FE6946374812F078FE0B
:1028E000684612F0B9FD092C0EDC3449684612F036
:1028F000F3FD3149684612F0C5FE01462E4812F03C
:102900005FFE684612F0A8FD0A224946684612F0AA
:1029100015FE69462A4812F05BFE684612F09CFDDF
:1029200005B0BDE8F0832549684612F0D5FD214980
:10293000684612F0A7FE01461E4812F041FE6846A6
:1029400012F08AFDC3E71D49684612F0C5FD18491B
:10295000684612F097FE0146154812F031FE6846AF
:1029600012F07AFDA5E71549684612F0B5FD0F494A
:10297000684612F087FE01460C4812F021FE6846B8
:1029800012F06AFD87E70D49684612F0A5FD064979
:10299000684612F077FE0146034812F011FE6846C1
:1029A00012F05AFD69E700BF002BFF1FF41BFF1F49
:1029B000B81BFF1FD41CFF1F781CFF1FCC27020071
:1029C000D02AFF1F2DE9F04383B00CF059FFDFF848
:1029D0006490DFF86480C9F800000CF041FFC8F88B
:1029E00000000CF02DFF0F4F0F4E38600CF058FF19
:1029F00030600CF065FF0D4D28600CF071FF2B6806
:102A000036680B4DD9F80020D8F800100446386815
:102A10008DE8480023462C60FFF716FF03B0BDE8A1
:102A2000F08300BF181CFF1F101CFF1F141CFF1F8A
:102A3000702AFF1F4C2BFF1F0C1CFF1F70B5FA20C4
:102A40008AB013F089FE934B9349944800241C608C
:102A50000CF0CCFA4FF6E07190480BF009FC2146DF
:102A60008E480BF01BFC0A2342F20E728C498B48F5
:102A70000094AA250CF040F945F2713187480BF01B
:102A8000F7FB0095962328220A2184480BF084FC4A
:102A90004FF4A076294600954FF49B7328227F4877
:102AA0000BF07AFCEE23BE2252217C4800960BF0FC
:102AB00073FC4FF6FF7179480BF0DAFB0095962313
:102AC00028220A2175480BF07DFD294600954FF418
:102AD0009B73282271480BF075FDEE23BE22522114
:102AE0006E4800960BF06EFDA9254BF6F7516B482A
:102AF0000BF0BEFB0095952329220B2167480BF0B4
:102B000061FD009540F235132922AB2163480BF09B
:102B100059FD40F23F13BF2200935321ED235F483C
:102B20000BF050FD4FF6FF715C480BF0A1FB45F236
:102B300071315A480BF0B2FB3C23102259495748D7
:102B400000940CF0D9F85A2328225749534800948E
:102B50000CF0D2F83C23D0225449504800940CF099
:102B6000CBF85A23B82252494C4800940CF0C4F8D0
:102B70007823B0224F49494800940CF0BDF8D22385
:102B800074224D49454800940CF0B6F8F0235822C1
:102B90004A49424800940CF0AFF84FF48773602222
:102BA00040493E4800940CF0A7F821463B480BF002
:102BB00075FB434B1D78002D40F092804FF4784117
:102BC00036480BF055FB40F259130A223D49334871
:102BD00000950CF091F80CF0B7FE022800F09280FE
:102BE0004FF478412D480BF043FB002300930A2259
:102BF0004FF4B973344929480CF07EF802AC06ADA5
:102C000040F2BD1200924FF49B730A2123480BF04F
:102C1000D3FD2E4921480CF0E9F92D49204612F048
:102C20005BFC2C49204612F02DFD0026014628466B
:102C300012F066FC4FF4E17342F20E7229460096E0
:102C400016480CF0C3F8284612F006FC204612F095
:102C500003FC2149204612F03FFC2049204612F097
:102C600011FD0146284612F04BFC40F2D11342F20E
:102C70000E722946009609480CF0A8F8284612F072
:102C8000EBFB204612F0E8FB034904480CF0AEF9D8
:102C90000AB070BDFC2AFF1F94460200881CFF1F6B
:102CA000D0270200E0270200EC270200F4270200F0
:102CB000FC27020004280200102802001828020045
:102CC000E81EFF1F24280200442802001C420200C4
:102CD0006C280200441CFF1F882802006C24FF1F80
:102CE0004FF4FC6136480BF0C3FA40F259130A2244
:102CF0003449334800940BF0FFFF0CF025FE022806
:102D00007FF46EAFFFF75EFE002640F2FF712C48A5
:102D10000BF0AEFA4FF4B9730A2200962A492848FC
:102D20000BF0EAFF02AC4FF6FF7125480BF0A0FA5A
:102D30002046264912F0E4FB2046254912F0AAFC61
:102D4000244912F09FFC224912F0A4FC224912F0FF
:102D500099FC06AD0146284612F0D2FB4FF4C3732E
:102D60000A222946009616480CF030F8284612F040
:102D700073FB204612F070FB2046184912F0C0FB8E
:102D80002046174912F086FC164912F07BFC1449C4
:102D900012F080FC144912F075FC0146284612F02E
:102DA000AFFB29464FF4CD730A22009604480CF07D
:102DB0000DF8284612F050FB204612F04DFB1FE79D
:102DC000881CFF1F3828020058280200D02AFF1F45
:102DD00068280200781CFF1FD41CFF1FB81BFF1FB0
:102DE00038390200F41BFF1F002BFF1F2DE9F043B1
:102DF0008FB006A8002112F06FFB03AFDFF86480EC
:102E0000C7F18005C7F1E0090DF115063C46281908
:102E100012F0BCFE04F8010BB442F8D139460AA8FE
:102E200012F05AFB0AA906A812F0D2FB0AA812F067
:102E300013FB00230922694606A812F04FFC10225A
:102E4000002168461BF0B0FA203548F8040B052035
:102E500013F082FC4D45D9D106A812F0FDFA0FB04F
:102E6000BDE8F083F828FF1F30B52B4C83B04FF43A
:102E7000EB75204600210BF0FBF9204600954FF43E
:102E80009B734FF4CD72A0210BF0FAFB204645F264
:102E900071310BF0EDF9009520464FF49B734FF420
:102EA000CD72DC210BF078FA20464FF6FF710BF063
:102EB000DFF9009520464FF49B734FF4CD72DC216F
:102EC0000BF080FB20464BF6F7510BF0D1F940F2A6
:102ED000D51340F29B1220460093DD2140F23513BA
:102EE0000BF070FB204645F271310BF0D7F900254D
:102EF00020464FF6FF710BF0BBF9204600954FF4CA
:102F0000D873E92205490BF0F7FE2946204603B0A5
:102F1000BDE830400BF0C2B9881CFF1F9C2802009E
:102F20002DE9F04F4FF0000985B080464F466048CC
:102F30000CF074FA58B9002FF9D0B9F1000F00F075
:102F40009B805B4801270CF069FA0028F3D05848B1
:102F50000CF086F956480CF077FAA0F10A0B82467D
:102F600053480CF0B3FABBF1280F064634D8B8F139
:102F7000000F31DD342401250FE00BF079F904F165
:102F800024030093224630230C214A4801350BF0DC
:102F900003FAA84504F132041EDBA31E9E424FF043
:102FA0000001444804F12602E7DB9642E5DC4FF4D9
:102FB000FC610BF05DF904F12403009322463023F9
:102FC0000C213C480BF0E8F903950135A8454FF07A
:102FD000010704F13204E0DAA6F5CD763C2E44D8A0
:102FE000AAF1F00ABAF1460F3CD8002F9FD0002179
:102FF00030480BF03DF940F29913009319224FF439
:103000009B730A212B480BF03BFB4FF4EB734FF4FF
:10301000CD720093DC214FF49B7326480BF030FBFC
:1030200000244FF6797123480BF022F94FF4CD7349
:10303000A02221491F4800940BF05EFE4FF4D77385
:10304000A0221E491B4800940BF056FE00944FF43A
:10305000E173A0221A4917480BF04EFEB9F1000F98
:103060000ED11EE0BBF16C0F15D9002F3FF45FAFFE
:10307000B9F1000F7FF465AF4C46FFF7F5FE34B1B0
:10308000C82013F069FB039805B0BDE8F08F4FF03E
:1030900001094F464BE737B1B9F1000F05D1CDF823
:1030A0000C900124E9E70397EAE700230393E7E79D
:1030B000882AFF1F881CFF1FA4280200AC280200DA
:1030C000AC30020008B505480BF068F8C82013F0D2
:1030D00043FBBDE80840FFF7B1BC00BF881CFF1FE1
:1030E000002A12DDF8B50546002017460E460446B4
:1030F000315D2844013412F063FDE4B20A2013F07C
:103100002BFBBC422046F3DBF8BD7047F0B5002A2C
:103110008BB018DD0E46920002A906EB020E0F4698
:1031200056F8044B019401AB3C4613F8015B04F8DC
:10313000015B8B42F9D1764507F10407F0D1FFF727
:10314000CFFF0BB0F0BD920002A9F8E7F0B5BC4C80
:103150000FCCB7B01EAD0FC50FCC0FC594E80F0054
:1031600004F1100685E80F000FCE00272AAD8DF878
:1031700008700FC50FCE0FC596E80F00403485E8E4
:103180000F000FCC16AD0FC594E80F004FF0000EE6
:10319000CDF814E0CDF818E085E80F00A9488DF8C7
:1031A00010708DF811700AF0F9FFA749A548A74ED5
:1031B0000BF01CFF4FF6E071A2480BF059F84623C4
:1031C00042F20E72A2499F4800970BF095FD3946D6
:1031D0000AA812F081F9334606F10C000EAA13F882
:1031E000011B02F8011B9842F9D10C220EA92020E4
:1031F000FFF776FF07AD2024204612F0C7FC01340C
:103200002C2C05F8010BF7D107A90EA812F064F9D0
:103210000EA90AA812F0DCF90EA812F01DF900237D
:103220000C2207A90AA812F059FA884907A819F030
:10323000EBFC0546642013F08FFA864B0EAA581D4E
:1032400013F8011B02F8011B9842F9D105220EA9BF
:103250000020FFF745FF642013F07EFA012202A947
:103260004FF4A070FFF73CFF1EAF4FF400743A68B4
:10327000D7F804E0BB680E922046203403220EA942
:10328000A4B2CDF83CE01093FFF740FFB4F5207FE7
:1032900007F10C07EBD16420002413F05DFA04223F
:1032A0000EA94FF440700E940F9410941194FFF7F0
:1032B0002DFF04220EA94FF448700E940F94109421
:1032C0001194FFF723FF642013F046FA2AAF4FF45E
:1032D00080643A68D7F804E0BB680E922046203438
:1032E00003220EA9A4B2CDF83CE01093FFF70EFF25
:1032F000B4F5906F07F10C07EBD1642013F02CFAB2
:103300007379302B0CD000234FF4C06003220EA938
:103310000E930F931093FFF7F9FE642013F01CFA3D
:10332000F37A302B08D04FF40060012205A9FFF793
:10333000EDFE642013F010FA012206A94FF4066096
:10334000FFF7E4FE642013F007FA16AE4FF4E064D2
:10335000326873680E922046203402220EA9A4B26D
:103360000F93FFF7D3FEB4F5F06F06F10806EFD127
:1033700036AC022204A94FF420600027FFF7B0FE0C
:1033800004F8CC7D0122164621464FF41A60FFF75F
:10339000A7FE2146324640F605108DF80C60FFF777
:1033A0009FFE3246214640F61510FFF799FE324641
:1033B000214640F61610FFF793FE3246214640F6AE
:1033C0000210FFF78DFE0323214632464FF41060B2
:1033D0008DF80C30FFF784FE3246214640F601108E
:1033E000FFF77EFE0423214632464FF411608DF82C
:1033F0000C30FFF775FEADB94FF4784111480AF073
:1034000037FF0095462342F20E7213490D480BF028
:1034100073FC40F6B83013F09FF90AA812F01CF8BC
:1034200037B0F0BD4FF4FC6106480AF021FF009769
:10343000462342F20E72094902480BF05DFCE8E7B0
:1034400040210200881CFF1F94460200440CFF1F0D
:10345000B82802005C0CFF1FD8280200C428020014
:103460002DE9F0479B4882B00AF098FE4FF4FA70BD
:1034700013F072F99849974800240BF0B7FD4FF606
:10348000E07194480AF0F4FE234642F20E7293492A
:10349000904800940BF030FC4FF4EB754FF448412A
:1034A0008C480AF0E5FE76234FF4CD720A21894854
:1034B00000950AF071FF4FF6FF7186480AF0D8FEBA
:1034C00076234FF4CD720A21824800950BF07AF8EA
:1034D0004BF6F7517F480AF0CBFE40F2D51340F28D
:1034E0009B1200930B2175237A480BF06BF84FF475
:1034F000484178480AF0D2FE4FF6FF7175480AF04D
:10350000B7FE4FF4D87310227549724800940BF03F
:10351000F3FB21466F480AF0C1FE4FF679716D4802
:103520000AF0A6FE4FF4CD73A0226E4969480094BC
:103530000BF0E2FB4FF4D773A0226B49654800946F
:103540000BF0DAFB4FF4E173A02268496148009464
:103550000BF0D2FB40F2FF715E480AF089FE19239E
:103560000A2263495B4800940BF0C6FB4FF6FF71DB
:1035700058480AF07DFE3E233C225E49554800949F
:103580000BF0BAFB5C4953480BF030FD3E237C2224
:103590005A49504800940BF0AFFB4F494D480BF08F
:1035A00025FD70233C2253494A4800940BF0A4FBAC
:1035B000514948480BF01AFD70237C225049454878
:1035C00000940BF099FB444942480BF00FFD4FF675
:1035D000FF7140480AF04CFE32235A2200920A2121
:1035E0001A463C480AF0EEFF592300933322312358
:1035F0000B2138480AF0E6FF8C2300936422322323
:103600000A2134480AF0DEFF8B2300936522312320
:103610000B2130480AF0D6FF0220FFF781FC012879
:1036200000F05482022800F04D82002800F07D81D5
:10363000002440F2FF7127480AF01AFE19230A22DB
:103640003049244800940BF057FB4FF6FF71214896
:103650000AF00EFE3E233C222B491E4800940BF03C
:103660004BFB70233C2229491A4800940BF044FB81
:103670004FF6FF7117480AF0FBFD32235A220092E1
:103680000A211A4613480AF09DFF5923009333225A
:1036900031230B210F480AF095FF8C2300936422FD
:1036A00032230A210B480AF08DFF8B23009309482F
:1036B000312365220B210AF085FF0220FFF730FC41
:1036C000032800F25E81DFE810F0300105020B02F2
:1036D000590100BF881CFF1F94460200E428020025
:1036E000F4280200A4280200AC280200AC3002003A
:1036F000FC280200082902001C4202000C290200DA
:103700001C2902002C2902003C2902004C2902003D
:10371000884C32236372884B884A19688848002392
:103720000DF0C0FA874B05461870002840F0ED8177
:1037300083480DF07FF9294683480AF099FD40F24D
:10374000DF1300931E224FF49B730A217E480AF078
:1037500097FF53203123302233272D2640F2FF716B
:1037600020707948A3702372E771A672E2720AF0A2
:103770007FFD462342F20E720095744972480BF0A9
:10378000BBFA4FF6FF7170480AF072FD0095642392
:1037900042F20E7267496C480BF0AEFA4FF0DC0A49
:1037A0004FF0CD094FF0BE08AA279B268C25002498
:1037B000674965480BF01AFC2B460A2265496248A6
:1037C00000940BF099FA33460A2263495E4800944C
:1037D0000BF092FA3B460A2260495B4800940BF0DA
:1037E0008BFA43460A225E49574800940BF084FA4C
:1037F0004B460A225B49544800940BF07DFA53462D
:103800000A225949504800940BF076FA57494E481D
:103810000BF0ECFB4FF4EB7545F271314A480AF0BE
:1038200027FD4FF49B734FF4C3720095AA214648BD
:103830000AF0B2FD4FF4484143480AF019FD9623BF
:103840004FF4C37200950A213F480AF0A5FD4FF6D8
:10385000FF713D480AF00CFD00954FF49B734FF447
:10386000C372AA2138480AF0ADFE96234FF4C37202
:1038700000950A2134480AF0A5FE40F2D5154BF612
:10388000F75131480AF0F4FC40F2351340F2871248
:10389000AB212D4800950AF095FE952340F2871242
:1038A0000B21294800950AF08DFE4FF6FF7126483E
:1038B0000AF0DEFC45F2713123480AF0EFFC4FF4C8
:1038C000D373D0222A49204800940BF015FA4FF404
:1038D00048411D480AF0E2FC26491B4800944FF479
:1038E000D37320220BF008FA214617480AF0D6FCC1
:1038F00021480BF093FD0028FAD01F480BF0B0FCD4
:103900001D480BF0A1FD04461B480BF0DFFDA0F5A0
:103910009B70A028A4F10A03EAD88C2BA4F1AA0476
:1039200003D98C2CE4D8FFF711FC02B0BDE8F047B6
:10393000FFF7C8BB440CFF1FC02BFF1FB8290200B4
:10394000242BFF1F041CFF1F881CFF1FD02902000F
:103950001C420200F0290200182A0200402A02003C
:10396000602A0200882A0200B02A0200944602005F
:10397000CC2A0200D42A0200882AFF1FA04C31233F
:103980002371002440F2FF719E480AF071FC192354
:103990000A229D499B4800940BF0AEF94FF6FF7147
:1039A00098480AF065FC3E233C22984995480094CB
:1039B0000BF0A2F970233C229549924800940BF039
:1039C0009BF94FF6FF718F480AF052FC32235A22BE
:1039D00000920A211A468B480AF0F4FD59230093FD
:1039E000332231230B2187480AF0ECFD8C2300930E
:1039F000642232230A2183480AF0E4FD8B230093DA
:103A0000652231230B217F480AF0DCFD0220FFF7FD
:103A100087FA012869D0022873D0002885D00024B5
:103A200040F2FF7177480AF023FC19230A22009420
:103A3000784974480BF060F94FF6FF7171480AF04D
:103A400017FC00943E233C2273496E480BF054F956
:103A5000009470233C2271496A480BF04DF90094A0
:103A6000A2233C226E4967480BF046F94FF6FF71DE
:103A700064480AF0FDFB322404F128032246009337
:103A80000A2132235F480AF09DFD04F127030093C9
:103A9000621C31230B2132345A480AF093FDC82CA2
:103AA000EAD10320FFF73CFA032800F2A78001A324
:103AB00053F820F02B390000FB3A0000F33A0000E5
:103AC000113700004E4C3423E370B1E54C4C3323E6
:103AD000E370ADE54A4C312230232271637150E727
:103AE000474C3223237163714BE7454C3323A37159
:103AF00095E7434C312363720DE6414C30236372EA
:103B000009E63F4C3423A37189E700230622454987
:103B1000454800250DF0F0F940F2FF7139480AF0F0
:103B2000A7FB3C230A220095404936480BF0E4F8F5
:103B30004FF6FF7133480AF09BFB5A230A2239499A
:103B4000009530480BF0D8F837480CF073FF294641
:103B50002C480AF08DFB40F2DF1300931E224FF435
:103B60009B730A2127480AF08BFD53203123302212
:103B700033272D2640F2FF7120702248A370237254
:103B8000E771A672E2720AF073FB462342F20E72EC
:103B9000009527491B480BF0AFF84FF6FF71194805
:103BA0000AF066FB642342F20E7200951449154830
:103BB0000BF0A2F840F2FF7112480AF059FB8C2377
:103BC00042F20E7200951B490E480BF095F84FF625
:103BD000FF710C480AF04CFB0095AA2342F20E72CA
:103BE000104908480BF088F84FF4917A40F2131905
:103BF0004FF48278F027E126D225D8E5004C8AE5FB
:103C0000440CFF1F881CFF1F5C2902006C29020066
:103C1000742902007C2902009029020098290200E0
:103C2000A82902005C0CFF1F242BFF1FC0290200E3
:103C3000D0290200E0290200F8B52723294C2A4E9A
:103C400023220546012118463370227012F05AFDD6
:103C50003078002112F042FD2078012112F052FD4F
:103C60002078002112F09AFB322D28D0332D14D069
:103C7000312D00D0F8BD1D4A1D481E4E1E4C1F4957
:103C80001F4B1060822741F2941500204FF4B4724C
:103C90003760256008601A60F8BD164A164E174C4A
:103CA0001249174B6420106046F2A8170225102015
:103CB0004FF4C8723760256008601A60F8BD0D4A7D
:103CC0000D4E0E4C09490E4B6420106046F2A817A9
:103CD00000254FF480704FF48372376025600860D0
:103CE0001A60F8BD401CFF1FB529FF1F1C1CFF1FD9
:103CF000D0010100842AFF1FD81BFF1F6824FF1F6B
:103D00003C1CFF1F08B513F0D7FB064B00211878A9
:103D100012F044FB044B00211878BDE8084012F073
:103D2000DDBC00BF401CFF1FB529FF1F10B5384B7D
:103D3000DB7A322B82B004463AD0332B02D135489D
:103D40000FF07CFAFA2012F007FDFFF7DBFF0021ED
:103D500031480AF08DFA4FF4AC731522009302211A
:103D600040F23D132C480AF08BFC4FF478412A486E
:103D70000AF07EFA0023009327482849962342F24E
:103D80000E720AF0B9FFA01F08280FD8DFE800F074
:103D9000141F2A0E0E0E0E3505000023009342F26A
:103DA0000E72C8231E491C480AF0A6FF02B010BDBF
:103DB0001C480BF079FFC5E70023009342F20E7216
:103DC000C823194914480AF097FF02B010BD002318
:103DD000009342F20E72C82314490F480AF08CFF78
:103DE00002B010BD0023009342F20E72C8231049A6
:103DF00009480AF081FF02B010BD0023009342F28F
:103E00000E72C8230B4904480AF076FF02B010BDB9
:103E1000440CFF1FE41CFF1F881CFF1FCC34020052
:103E2000302B02005029FF1FDC2A0200F02A02007A
:103E3000082B02001C2B020070B5614C82B00225D9
:103E400000212046A56409F033FC20460AF0A6F9BB
:103E5000204600210AF022FA0A215A4806F042F8C8
:103E60004FF4FA7012F078FC204657490BF0BEF878
:103E70004FF4A27364221421524806F093F82046AE
:103E80004FF6FF710AF0F4F929464E480A2507F06B
:103E90000BF92A46DC234D494A48009507F0E2FF1A
:103EA0000C232A4600934A494648EB2307F0DAFFE1
:103EB0000E232A46009347494248FC2307F0D2FFCD
:103EC00012232A46009344493E4840F2111307F05A
:103ED000C9FF16232A46009340493A4840F2291365
:103EE00007F0C0FF1C232A4600933D49354840F2A5
:103EF000471307F0B7FF4FF49A734FF4BE72502187
:103F0000304806F04FF84FF49F734FF4BE72B4215F
:103F10002C48002606F046F820464FF6E0710AF0DD
:103F2000A7F92B4642F20E7220462E4900960AF05F
:103F3000E3FE20464FF6FF710AF09AF920462A491F
:103F40000BF054F820461E2342F20E7227490096C9
:103F50000AF0D2FE2046282342F20E72244900962F
:103F60000AF0CAFE2046322342F20E722149009620
:103F70000AF0C2FE2046412342F20E721E4900960C
:103F80000AF0BAFE4B2342F20E7220461B490096FD
:103F90000AF0B2FE204640F2FF710AF069F900967D
:103FA00020464FF4E67342F20E7215490AF0A4FE61
:103FB00014480BF033FA0028FAD002B070BD00BFED
:103FC000881CFF1FC41EFF1F94460200482B0200DE
:103FD0005C2B0200702B0200842B0200982B020045
:103FE000AC2B0200C02B02001C420200D42B0200AA
:103FF000FC2B0200242C02004C2C0200742C02002A
:10400000982C0200882AFF1FF0B52DED028B85B099
:104010004FF6FF715A4800260AF02AF959495848C4
:104020000096642342F20E720AF066FE56480EF0C5
:10403000BFF94FF4FC61044651480AF019F9002C0D
:1040400000F08580642342F20E7250494C4800967D
:104050000AF052FE4FF47A7012F07EFB4FF6FF71B9
:1040600047480AF005F9642342F20E724849444871
:1040700000960AF041FEA0230096B0224549404830
:104080000AF03AFE444BDF6A3F0B36D007EE907AD7
:104090009FED428AF8EEE78A4FF4805534030122FF
:1040A0000DF10F013E480CF05FFE0123012808BF0F
:1040B0009DF80F20344818BFFF2221461C440EF003
:1040C0002DF9AC42EBD107EE906AF8EEE77A2022A8
:1040D00067EE887A002387EEA87A01920093013672
:1040E000A0238022264805F58055FDEEC77A17EEFD
:1040F000901A0AF08BFEBE42D0D1002428480CF062
:1041000099FCA0238022009426491D480AF0F4FD62
:104110004FF4FC611A480AF0ABF80094642342F2B1
:104120000E72214916480AF0E7FD782342F20E721A
:104130001E49009412480AF0DFFD40F6B83012F034
:104140000BFBFFF779FE05B0BDEC028BF0BD4FF421
:1041500078410B480AF08CF8642342F20E7214493D
:10416000009407480AF0C8FD0D480CF063FC4FF4BA
:104170007A6012F0F1FA05B0BDEC028BF0BD00BF21
:10418000881CFF1FAC2C0200EC1EFF1FBC2C020081
:10419000D02C0200E42C0200142BFF1F0000C842A8
:1041A000242BFF1FE82C0200EC2C0200002D020043
:1041B0000C2D0200FFFFFFFF2DE9F043C64FC7485B
:1041C00083B000243C6009F0E9FF4FF4FA7012F06C
:1041D000C3FAC349C1480AF009FF4FF6E071BF486E
:1041E0000AF046F80A2342F20E72BE49BB48009418
:1041F0000AF082FDBC480EF085F84FF6E0710546E6
:10420000B6480AF035F828230A22B849B348009482
:104210000AF072FD4FF6FF71B0480AF029F8C5F3B5
:104220000743EF2BEDB200944FF03C034FF0320206
:1042300000F07481AE49A9480AF05EFD4FF4784160
:10424000A6480AF015F8D22342F20E720094A9494A
:10425000A2480AF051FDA849A0480AF0C7FE4FF64F
:10426000FF719E480AF004F80094E62342F20E72B1
:10427000A2499A480AF040FD0094F52342F20E72DA
:104280009F4996480AF038FD00944FF4827342F239
:104290000E729C4991480AF02FFD91498F480AF00F
:1042A000A5FE01244FF6E0718C48002609F0E0FFDE
:1042B00050230A229449894800960AF01DFD874838
:1042C0004FF6FF7109F0D4FFA5F11100C3B2092B1D
:1042D00076D817F00FF89FED7E0B41EC110B14F020
:1042E000A7FC51EC100B17F01BFB20230146009696
:1042F00001933222642379480AF088FD64230096F2
:104300001A46824975480AF0F7FC1A2D98BF012613
:1043100010D8012303FA05F515F0F86840F0248160
:1043200015F4401940F04B8115F4602F40F03181B5
:10433000002E4ED04FF4EB7545F27131674809F00D
:1043400097FF00954FF49B734FF4CD72AA216348F9
:104350000AF022F84FF6FF71604809F089FF0095D6
:104360004FF49B734FF4CD72AA215C480AF02AF9EE
:104370004BF6F751594809F07BFF40F2D51340F254
:104380009B120093AB2140F2351354480AF01AF9FE
:1043900045F27131514809F081FF00254FF6FF7158
:1043A0004E4809F065FF00954FF4D873D022584964
:1043B0004A480AF0A1FC2946484809F06FFF08E086
:1043C0000096642332224A4944480AF095FC1A2D8B
:1043D0009FD94FF4EB754FF4484140483E4E09F0E9
:1043E00047FF96234FF4CD7200950A213B4809F010
:1043F000D3FF4FF6FF71394809F03AFF96234FF487
:10440000CD7200950A2135480AF0DCF84BF6F751D9
:10441000324809F02DFF40F2D51340F29B12009371
:104420000B2195232D480AF0CDF84FF448412B4835
:1044300009F034FF00254FF6FF71284809F018FFF6
:104440004FF4D87320223349244800950AF054FCD5
:104450002946224809F022FF01233B602E480AF03A
:10446000DDFF0028FAD02C480AF0FAFE2A480AF0AC
:10447000EBFF054628480BF029F8A0F59B70A02813
:10448000ECD8A5F10A038C2B4DD83B68012B11D039
:10449000022BE3D10021114809F0EAFE40F2DF13BC
:1044A000009328224FF49B730A210C480AF0E8F885
:1044B000FFF7AAFD094809F071FEC82012F04CF977
:1044C00003B0BDE8F043FEF7B9BA00BFAFF3008018
:1044D0000000000000000040FC2AFF1F881CFF1F96
:1044E000944602001C2D0200EC1EFF1F302D02001E
:1044F000482D0200502D02001C4202005C2D0200DB
:104500007C2D0200A42D0200B82D0200C82D02004F
:104510009C280200D42A0200882AFF1F65496648A9
:104520000AF0EAFBBEE6AA3D8C2D97D8002162482E
:10453000DFF8BC8109F09CFE40F2DF1300932822D3
:104540004FF49B730A215C480AF09AF84FF4FA7012
:1045500012F002F93B68012B6DD0022B7FF47EAF85
:1045600056480CF067FAA5E7002540F2FF71524863
:1045700009F07EFE009596230A2251494E480AF022
:10458000BBFB0095AA230A224E494B480AF0B4FB14
:10459000CEE64FF47841484809F06AFECDF8009025
:1045A00096230A22484944480AF0A6FBCDF8009019
:1045B000AA230A22454940480AF09EFB09E74FF624
:1045C000E0713D4809F054FECDF8008096230A22A0
:1045D0003D4939480AF090FBCDF80080AA230A2211
:1045E0003B4935480AF088FBCDF80080BE230A22FB
:1045F000384931480AF080FBD2230A22CDF80080E6
:1046000035492D480AF078FB40F2FF712A4809F03D
:104610002FFECDF80080F0230A22294926480AF00F
:104620006BFBCDF800804FF482730A2225492248A3
:104630000AF062FB7CE6294B294A19681F480023CF
:104640000CF030FB0546002854D14FF478411A484D
:1046500009F00EFE3C2342F20E72224916480095E4
:104660000AF04AFB4FF6FF71134809F001FE5A2386
:1046700042F20E721C49104800950AF03DFB6E2371
:1046800042F20E7216490C4800950AF035FB82235F
:1046900042F20E721549084800950AF02DFB0748B2
:1046A0000CF0C8F941F2883012F056F8C8F8005002
:1046B00000E700BF402D0200881CFF1F242BFF1FB6
:1046C000282E02003C2E0200D02D0200E42D020014
:1046D000F42D0200082E02001C2E0200C02BFF1F2A
:1046E000482E0200582E0200602E02006C2E02009E
:1046F000FC2AFF1F002502234FF6FF71804833601C
:1047000009F0B6FD28230A227E497D4800950AF06B
:10471000F3FA3C230A227C49794800950AF0ECFA26
:104720007A4977480AF062FC64230A22784974487F
:1047300000950AF0E1FA73230A2276497048009541
:104740000AF0DAFA82230A2273496D4800950AF0CA
:10475000D3FA91230A227149694800950AF0CCFAEC
:10476000A0230A226E49664800950AF0C5FAAF23D5
:104770000A226C49624800950AF0BEFA6A4960480C
:104780000AF034FC4FF4EB784FF448415C4809F0F0
:104790006FFD4FF49B734FF4CD72AA215848CDF8AA
:1047A000008009F0F9FD4FF6FF71554809F060FDF2
:1047B0004FF49B734FF4CD72AA215148CDF800807D
:1047C00009F000FF40F2D5194BF6F7514C4809F0BB
:1047D0004FFD40F2351340F29B12AB214848CDF813
:1047E000009009F0EFFE4FF44841454809F056FDAE
:1047F0004FF6FF71424809F03BFD4FF4D873C022D9
:104800004A493F4800950AF077FA29463C4809F0A2
:1048100045FD4FF494613A4809F02AFD96234FF480
:10482000CD720A213648CDF8008009F0B5FD4FF66B
:10483000FF71334809F01CFD96234FF4CD720A2115
:104840002F48CDF8008009F0BDFE4BF6F7512C48FB
:1048500009F00EFD952340F29B120B212848CDF85C
:10486000009009F0AFFE4FF49461254809F016FD61
:104870004FF6FF71224809F0FBFC2D4920480095B6
:104880004FF4D87330220AF037FA29461C4809F051
:1048900005FD002C3FF4E2AD4FF47841184809F0D3
:1048A000E7FCD22342F20E720095224914480AF026
:1048B00023FA164912480AF099FB4FF6FF71104887
:1048C00009F0D6FC0095E62342F20E721A490C4814
:1048D0000AF012FA0095F52342F20E7217490848C1
:1048E0000AF00AFA00954FF4827342F20E721449EC
:1048F00003480AF001FA0C4901480AF077FBADE5DC
:10490000881CFF1F782E02008C2E02001C42020021
:10491000A02E0200C42E0200E82E0200102F02007A
:104920002C2F0200542F020094460200D42A0200C9
:10493000F4270200502D02005C2D0200642F0200BB
:10494000882F020070B5104E82B001F10A030C46A8
:1049500005460093A1F10A0200F10A03A0F10A0141
:10496000304609F0FFFD6B1D2246691F304600945A
:1049700009F022FF631D00933046621F2B46294633
:1049800009F01AFF02B070BD881CFF1F2DE9F04727
:10499000DFF8BCA0274F82B04FF00009FF231A4672
:1049A0001946254809F054FCDAF80030CDF800909B
:1049B00042F20E72214920480AF09EF91D480AF081
:1049C0002DFD0028FAD01C48DAF80030CDF8009010
:1049D00042F20E721A4900260AF08EF91548344642
:1049E000354641F288380AF019FDF0B145451148C5
:1049F0000DD1144B1449154AA3FB0404A3FB060371
:104A0000240B1B0B0C60136002B0BDE8F0870AF0AA
:104A10009DFDB7F90020B7F902300648013514446E
:104A20001E440AF0FBFC0028E0D141F288339D428D
:104A3000B4D1DEE7882AFF1F881CFF1F982F0200D1
:104A4000A42F02005917B7D1941BFF1FB829FF1FCD
:104A50006024FF1F70B5FF2382B005460E46144642
:104A600019461A461C4809F0F3FB31462846FFF761
:104A700069FF00231A46FF21174809F0FDFBFFF7E5
:104A800085FFFF231A461946134809F0E1FB134B33
:104A900013491B6810480022009242F20E720AF07D
:104AA0002BF950231A4619460B4809F0D1FB314621
:104AB0002846FFF747FF0B480B4A0C490C4B006890
:104AC000126841F8240043F824200A480AF0A6FCA2
:104AD0000028FAD102B070BD881CFF1F6024FF1FA0
:104AE000B02F0200941BFF1FB829FF1F981BFF1F48
:104AF000581CFF1F882AFF1F08B508480AF08EFCC3
:104B00000028FAD105480AF089FC0028FAD00348A9
:104B10000AF084FC0028FAD108BD00BF882AFF1FD4
:104B20000F4970B44C223026782555240023CA72D0
:104B30000E704D708C720B7301F10902013100F09F
:104B40000F03092B03F1370496BF30331470137031
:104B5000013A8A424FEA1010F1D170BC704700BF91
:104B6000EC28FF1F30B50023784D794883B01A46F2
:104B7000FF2109F06DFB2B68754800220D21013BD8
:104B80000091114609F07CFDFF231A461946704832
:104B900009F05EFB00231A46FF216D4809F06CFB0B
:104BA0002B686B480E2200210C46013B009209F055
:104BB00003FE012342F20E726649654800940AF032
:104BC0009BF8234622462146614809F055FB2B6895
:104BD0000094DC2B4FF01E0371D042F20E725E493E
:104BE0005B480AF089F8322322465C495848009411
:104BF0000AF082F83E2322465949554800940AF0AB
:104C00007BF84A2322465749514800940AF074F829
:104C10005623224654494E4800940AF06DF8622308
:104C2000224652494A4800940AF066F86E2322460A
:104C30004F49474800940AF05FF8862322464D49C1
:104C4000434800940AF058F8922322464A494048C3
:104C500000940AF051F8AA23224648493C4800949F
:104C60000AF04AF8B62322464549394800940AF02A
:104C700043F84FF4917322464249354800940AF0B4
:104C80003BF84FF4977322463F49314800940AF0AD
:104C900033F8FF22114623462D4809F0D9FA009433
:104CA000E22342F20E72394929480AF025F8FFF74B
:104CB00023FF274803B0BDE8304009F06FBA224611
:104CC000334923480AF018F8224600942A23314930
:104CD0001F480AF011F82246009436232E491C483A
:104CE0000AF00AF82246009442232C4918480AF098
:104CF00003F8224600944E232949154809F0FCFF89
:104D0000224600945A232749114809F0F5FF22460C
:104D10000094662324490E4809F0EEFF22460094D1
:104D2000722322490A4809F0E7FF224600947E23B5
:104D30001F49074809F0E0FF0094A22342F20E72D7
:104D40001249034809F0D8FFB1E700BFE82AFF1F66
:104D5000881CFF1FBC2F0200B8300200C8300200C0
:104D6000F0300200143102003C31020064310200D4
:104D70008C310200AC310200D4310200F831020063
:104D800020320200483202006C3202009C300200E5
:104D9000E42F0200003002001C3002003430020018
:104DA00050300200483102006C30020084300200B2
:104DB000943102002DE9F04FAE48AF4DAF4CA7B093
:104DC00009F0ECF900231A46FF21AA4809F040FA3D
:104DD0002B68A84800220D21013B0091114609F0E3
:104DE0004FFCFF231A461946A24809F031FA002366
:104DF0001A46FF219F4809F03FFA2B689D480E2272
:104E000000210D46013B009209F0D6FC00950123DC
:104E100042F20E729A49974809F06EFF2B462A46D5
:104E20002946944809F028FA00951E2342F20E7292
:104E30009449904809F060FF2A4600953E23924924
:104E40008C4809F059FF2A46009596238F498948D6
:104E500009F052FF2A460095A2238D49854809F0A2
:104E60004BFF2A460095AE238A49824809F044FF49
:104E7000894B11AE1868FFF753FE04F10B0523466A
:104E8000324613F8011F02F8011BAB42F9D100238F
:104E90004B22009381497748962309F02DFF804BE0
:104EA0001868FFF73DFE754B0DF14E0213F8011F18
:104EB00002F8011FAB42F9D1002300934B22A22339
:104EC00076496C4809F018FF764B1868FFF728FE02
:104ED0000DF1590314F8012F03F8012FAC42F9D159
:104EE0000024AE234B226D496248009409F004FF70
:104EF0006D4960480AF07AF8F02342F20E726B496D
:104F00005C48009409F0F8FE00944FF4827342F27A
:104F10000E726749574809F0EFFE66480AF07EFABC
:104F20000028FAD000211AA810F0D6FA00211EA8F5
:104F300010F0D2FA002122A810F0CEFA80250DF14F
:104F40004D01A1F10A0409AB14F8012F03F8012B5C
:104F50008C42F9D109A928460A222035FEF7C0F86B
:104F6000E02D04F10B01ECD1642011F0F5FB0DF103
:104F7000180BCBF180054FF000084FF0010A0DF13E
:104F800022071AAB03EB08095C46601910F0FEFD1E
:104F900004F8010BBC42F8D1594609A810F09CFA5C
:104FA00009A9484610F014FB09A810F055FA484624
:104FB00000230A2203A910F091FB314603A817F041
:104FC00023FE08F11008002808BF4FF0000AB8F1CE
:104FD000300F05F1200506F10B06D2D1002125483E
:104FE00009F046F94FF48C730093F0224FF4EB7301
:104FF0000A21204809F044FBBAF1000F29D04FF4F0
:10500000FC611C4809F034F90023009342F20E724F
:105010004FF482732849174809F06EFE4FF6FF716E
:10502000144809F025F9002342F20E722349009337
:1050300010484FF4917309F05FFE22A810F00CFAAB
:105040001EA810F009FA1AA810F006FA27B0BDE859
:10505000F08F4FF47841074809F00AF9CDF800A025
:105060004FF4827342F20E721549024809F044FE71
:10507000D4E700BF881CFF1FE82AFF1FED28FF1F91
:1050800098320200AC320200C4320200F032020058
:10509000F832020000330200F42AFF1FEC28FF1F41
:1050A000541CFF1FE42AFF1F94460200083302002D
:1050B00028330200882AFF1F3C33020078330200A5
:1050C00058330200F0B5012183B0B848B84CB94D4F
:1050D000B94E08F0EDFAB54809F060F8B34809F0A8
:1050E00093FF2060B14809F097FF00EBD0735B108D
:1050F0000246063BB149AD4833602A6009F076FFAD
:10510000FFF730FD50231A461946A84809F0A0F8C9
:1051100020680A210B38FFF715FC206800EBD070DF
:1051200040100A21FFF70EFC0A210846FFF70AFC8F
:105130002968206801EBD17149100B38FFF702FC98
:10514000296801EBD17149100A20FFF7FBFB2968A0
:1051500020680B390B38FFF7F5FB2068296800EB56
:10516000D07040100B39FFF7EDFB29680A200B398E
:10517000FFF7E8FBFF231A4619468C4809F068F848
:1051800000231A46FF21894809F076F833688C49D4
:10519000864800270C3B009742F20E7209F0ACFDE6
:1051A0003368874900970C3342F20E727F48854E70
:1051B00009F0A2FD0A213A460846FFF74BFC296890
:1051C00001EBD171491001220A20FFF743FC296845
:1051D00002220B390A20FFF73DFC206800EBD0705B
:1051E000401003220A21FFF735FC2068296800EBF4
:1051F000D07040100B390422FFF72CFC20680522E8
:105200000B380A21FFF726FC2968206801EBD171D1
:1052100049100B380622FFF71DFC296820680B395E
:105220000B380722FFF716FC674A2968D2F808E016
:1052300017681569D068D369526924687544384481
:105240002B44024407EE102A07EE903AF8EE475A34
:10525000F8EE677AF0EE086A87EEA67AA1F11400FC
:105260005A4D04EB0131A1F58051013931605849A3
:10527000143C85EEA66A07EE900A37EE467AF8EE01
:10528000E77A5448C7EE276AB2EE046AF5EEC06AC0
:10529000F1EE10FAD8BFF1EE666AC5ED006AA0FB28
:1052A0000252520807EE902AA0FB03035B08B8EEF7
:1052B000E77A07EE903AF8EEE77A9A4238BFE6EEE0
:1052C000867A454B4548D3F814E09E69DA691F6831
:1052D0005D689B6828BFE6EEC67A7644324438BFE4
:1052E000A6EEC67A3D442B44FCEEE77A28BFA6EE34
:1052F000867A3B4E3B4DC0ED007A07EE902AF8EEE1
:10530000676A07EE903ABCEEC77AB8EE676AF0EECD
:10531000087A81ED007A86EEA77AC6EE276A07EE54
:10532000904A37EE667AF8EEE77A2A4CC7EE276A9B
:10533000B2EE046AF5EEC06AF1EE10FAD8BFF1EEF3
:10534000666AC6ED006AA4FB0262520807EE902A64
:10535000A4FB03435B08B8EEE77A07EE903AF8EE59
:10536000E77A9A4238BFA6EEC67A1F4C32BFE6EE05
:10537000867AA6EE867AE6EEC67ABCEEC77AFCEEB0
:10538000E77A17EE102A17EE903A85ED007A0D684D
:105390000168C4ED007A1548154C01EB853103EB2B
:1053A000823321600360FFF705FDFEE7881CFF1FC5
:1053B000E82AFF1F081CFF1F6024FF1F1C42020079
:1053C0008C330200E42AFF1F981BFF1FB81EFF1F2B
:1053D000102BFF1FABAAAAAA581CFF1F6424FF1F93
:1053E000BC1EFF1FD41BFF1F241CFF1F541CFF1FCC
:1053F000F42AFF1F2DE9F041B84CB94A2068B94D95
:10540000B94F8AB040F2EE2613783BB12B78DB0718
:1054100004D5236839685B1A0E2B08D823681178E5
:105420001B1A002900F0CA81B3F5FA6FECD9AF4816
:1054300004F04AFA4FF4FA7011F08EF90A21AC48E0
:105440000CF032FFAB480AF087FA642011F084F9BF
:1054500010F08AFFA84B984240F2D781A74EA84D82
:105460003078DFF80883A74F012111F04BF930782D
:10547000002111F033F9A449A44810F0B1F8002636
:105480002846222107F07EFF032328463146AB64DD
:1054900085F8456008F00CF998F80000012111F03A
:1054A00031F9FF2198F8000010F078FF984B342272
:1054B0005A70FDF79BFC642011F04EF9284608F065
:1054C0006DFE3146934809F0F9FD07F58C654FF400
:1054D000FA7011F041F9284687F86C640AF0C6FEAC
:1054E000002840F0748100238B4A8C498448137053
:1054F000002509F07BFD4FF6E071814808F0B8FE09
:105500000A2342F20E72009585497D4809F0F4FBAA
:105510004FF478417A4808F0ABFE32230A22009516
:105520008049774809F0E8FB4FF6FF71744808F0AE
:105530009FFE009550230A227B49714809F0DCFB4D
:10554000009564230A2279496D4809F0D5FB00953E
:1055500078230A2276496A4809F0CEFB00958C230D
:105560000A227449664809F0C7FBA0230A22009565
:105570007149634809F0C0FB4FF4FC61604808F0D2
:1055800077FEC8230A2200956C495D4809F0B4FBF8
:105590004FF6FF715A4808F06BFE0095E6230A2289
:1055A0006749574809F0A8FBFA230A220095654984
:1055B000534809F0A1FB6449514809F017FD40F236
:1055C000FF714F4808F054FE4FF4B4730A2200955F
:1055D0005E494B4809F090FB4FF6FF71484808F0D0
:1055E00047FE4A4906A80FF08BFF06A940F2771341
:1055F0000A220095424809F0E9FB06A80FF02CFFAB
:10560000009540F28B1342F20E7251493C4809F06A
:1056100073FB00954FF4CD7342F20E724D4938483A
:1056200009F06AFB009540F2A91342F20E724A4952
:10563000334809F061FB40F2BD1200924FF49B73B6
:105640000A212F4809F0B8F8444902A80FF044FF96
:10565000434902A810F016F8014606A80FF050FFC3
:105660004FF4E17342F20E7206A90095244809F046
:10567000ADFB06A80FF0F0FE02A80FF0EDFE3949D1
:1056800002A80FF029FF384902A80FF0FBFF0146DE
:1056900006A80FF035FF40F2D11342F20E7206A9B0
:1056A0000095174809F092FB06A80FF0D5FE02A856
:1056B0000FF0D2FE1949124809F098FC23680293B2
:1056C0004FF4FA70029E11F047F823680693069B88
:1056D00042F6DF659B1BAB4253D973E0042CFF1FDE
:1056E0009C2EFF1FB42EFF1F1C2FFF1FDC0EFF1F61
:1056F000EC1EFF1FAD040000FFE00B5E580CFF1F07
:10570000881CFF1F7C24FF1F98330200DC1BFF1F37
:10571000440CFF1F882AFF1FE81EFF1F944602004B
:10572000D0270200A8330200B4330200C8330200BD
:10573000DC330200E8330200F83302000C340200CC
:1057400018340200283402001C42020038340200DF
:10575000483402006C340200943402006C280200C9
:10576000441CFF1F882802006C24FF1F620CFF1FCF
:10577000642010F0F1FF23680693069B9B1BAB424D
:1057800020D8294809F04AFE0028F1D0274808F01F
:1057900005FDFDF72BFB642010F0DEFF24492248B5
:1057A00091E80C0089680091002109F0EFFCFDF7F9
:1057B00045F9FDF743F90AB0BDE8F081B3427FF641
:1057C00023AE34E6194808F0E9FCFFF77BFC07F24A
:1057D0003C403D600BF02EF9012138460CF088FC6E
:1057E000D0B1144D05F23C46304629460BF0B6FACE
:1057F000034600283FF477AE95F83C2412F070027F
:1058000016BF0D4A134616606EE60C4810F0B2FD46
:105810000A480AF077F821E6014638460CF068FCA1
:105820000028DED15FE600BF882AFF1F881CFF1F0B
:10583000F828FF1F7C24FF1FC02BFF1F00E10B5E19
:1058400070B5FA2082B010F087FFC148C14C08F053
:10585000A5FC0021BE4808F021FDFA2010F07CFFD5
:10586000BD49BB4809F0C2FB00254FF6E071B848BE
:1058700008F0FEFC0095012342F20E72B749B448CD
:1058800009F03AFA00954FF4BC730A22B449B048C3
:1058900009F032FA40F28B130A2200952146AC48F7
:1058A00009F02AFAAC49AA4809F0A0FB5A2545F2AA
:1058B0007131A74808F0DCFC009596231E220A21CE
:1058C000A34808F069FDA02600954FF49B731E22A3
:1058D000AA219F4808F060FD962364220A219C4873
:1058E000009608F059FDE6254FF49B736422AA2127
:1058F0009748009608F050FD9623AA220A21944862
:10590000009508F049FDAA224FF49B7300951146BB
:105910008F4808F041FDE379302B08D04FF496739F
:105920000093F02296230A21894808F035FDE37A96
:10593000302B09D04FF496730093F0224FF49B73F1
:10594000AA21834808F028FD637A302B09D04FF450
:10595000B97300934FF49B7296230A217C4808F098
:105960001BFD5A254FF6FF71794808F081FC009520
:1059700096231E220A21764808F024FEA0260095D0
:105980004FF49B731E22AA21714808F01BFE962338
:1059900064220A216E48009608F014FEE6254FF4B2
:1059A0009B736422AA216A48009608F00BFE962396
:1059B000AA220A216648009508F004FEAA224FF4A4
:1059C0009B7300951146624808F0FCFDE379302B8B
:1059D00008D04FF496730093F02296230A215C4876
:1059E00008F0F0FDE37A302B09D04FF49673009362
:1059F000F0224FF49B73AA21554808F0E3FD637A27
:105A0000302B09D04FF4B97300934FF49B72962357
:105A10000A214F4808F0D6FD59254BF6F7514C485E
:105A200008F026FC009595231F220B21484808F01A
:105A3000C9FD9F26009540F235131F22AB21444833
:105A400008F0C0FD952365220B214148009608F01F
:105A5000B9FDE52540F235136522AB213C4800969F
:105A600008F0B0FD9523AB220B213948009508F0D2
:105A7000A9FDAB2240F2351300951146344808F0D9
:105A8000A1FDE379302B08D040F22B130093F122D3
:105A900095230B212E4808F095FDE37A302B09D091
:105AA00040F22B130093F12240F23513AB2128482A
:105AB00008F088FD637A302B09D040F2711300930F
:105AC00040F2371295230B21214808F07BFD45F267
:105AD00071311F4808F0E2FB00254FF6FF711C48AA
