:1000000000000320D1010000255A0100DD59010044
:10001000DD590100DD590100DD590100DD59010004
:10002000DD590100DD590100DD590100255A0100AB
:10003000255A0100DD590100B9490100BD4A0100FE
:10004000255A0100255A0100255A0100255A0100B0
:10005000255A0100255A0100255A0100255A0100A0
:10006000255A0100255A0100255A0100255A010090
:10007000255A0100255A0100255A0100255A010080
:10008000255A0100255A0100255A0100255A010070
:10009000255A0100255A0100255A0100255A010060
:1000A000759A0000819A0000255A0100255A010026
:1000B000255A0100255A0100255A01008D650100CD
:1000C000255A01004D840100255A0100798501005F
:1000D000255A0100F16B0100255A0100255A010043
:1000E000255A0100255A0100255A0100255A010010
:1000F000255A0100255A0100255A0100255A010000
:10010000DD830100F18301000584010019840100F1
:10011000255A010015740100255A0100255A0100D5
:10012000255A0100255A0100255A0100255A0100CF
:10013000255A0100255A0100255A0100255A0100BF
:10014000255A0100255A010061710100255A01005C
:10015000255A0100255A0100255A0100255A01009F
:10016000255A0100255A01008D9A0000255A0100E8
:10017000255A0100255A0100255A0100255A01007F
:10018000255A0100F9FD0000255A0100255A0100F9
:10019000255A0100255A010071860100255A0100E7
:1001A000255A0100255A0100255A0100255A01004F
:1001B000255A0100255A0100255A0100255A01003F
:1001C000255A0100255A0100255A0100255A01002F
:1001D0005C4B4CF2205210B51A804DF628121A8052
:1001E00000BF00BF15F022FC574B4FF030621A6081
:1001F000564A9A60564ADA60564B4FF470021A60BB
:10020000554B564A1A60564B1A78110703D51A787F
:1002100042F008021A70534B5349AA221A70534AEB
:10022000534B8B4204D252F8040F43F8040BF8E707
:10023000504B514900228B4202D243F8042BFAE77B
:100240004E494F4A002352F8230041F8230001335E
:10025000742BF8D14B4B4C4A802103F8011B93427D
:10026000FBD14A4B454A1A60494B8A221A70A3F5C2
:10027000805324225A70A0221A709A799207FCD5D2
:100280009A79D406FCD4434A937903F00C03082BE3
:10029000FAD1414B60221A7002331A78802AFCD1BD
:1002A0003C4B01221A715D225A719A799006FCD555
:1002B0009979384A4906FBD5384B394919600021EC
:1002C000596020231370937903F00C030C2BFAD19F
:1002D000344B354A1A60354A354C136813F4807331
:1002E00003D123604FF4A8531360324B324A1A6093
:1002F00000225A60072243F8042C304AC3F80C2D20
:1003000062B616F07DF82368DA0705D52C4815F09B
:1003100035FE2C4B2C4A1A602C4B1B785B0609D5FA
:10032000284C294B22689A4204D1254815F026FE14
:10033000002323601BF04CFA15F07EFB15F0ACFA9D
:10034000FEE700BF0E20054030800440823F0400DD
:100350000100002B88ED00E0002008E0030000858C
:1003600002D0074000E00740C818FF1FA461020048
:10037000400CFF1FC818FF1F3C36FF1F0002FF1F65
:100380000000000000E400E064E400E008ED00E0AC
:10039000005006400040064001E007404480044011
:1003A0000000060204800440C010070010D0034083
:1003B00014D0034014E000E01FBF02000000202022
:1003C00019DB81601CE00340A5C3945A00F007408C
:1003D000FFFFFFFFFFFFFFFFFFFFFFFFFFFFFFFF2D
:1003E000FFFFFFFFFFFFFFFFFFFFFFFFFFFFFFFF1D
:1003F000FFFFFFFFFFFFFFFFFFFFFFFFFFFFFFFF0D
:10040000FFFFFFFFFFFFFFFFFFFFFFFFDEF9FFFF23
:1004100010B5054C237833B9044B13B10448AFF33E
:1004200000800123237010BDC818FF1F00000000CA
:10043000A0610200084B10B51BB108490848AFF392
:1004400000800848036803B910BD074B002BFBD0A0
:10045000BDE81040184700BF00000000CC18FF1F87
:10046000A0610200C818FF1F0000000000207047B4
:10047000027C02F0080202F0FF0332B1C36A406A54
:10048000181A48BF6FF0004070471846704700BF09
:100490000020704701207047034BD8691A79431E2A
:1004A0005002A3FB000170478C1BFF1F15F060BDBD
:1004B00000B583B001220DF10701103010F032FABF
:1004C00001280CBF9DF807004FF0FF3003B05DF826
:1004D00004FB00BF103010F029BB00BF103010F03B
:1004E00095BC00BF103010F097BC00BF00B583B0C2
:1004F00002AB012203F8011D1030194610F08CFCEC
:1005000003B05DF804FB00BF503010F085BC00BFA5
:1005100038B5074C204611F071FB024620794102A4
:10052000A1FB0245D31701FB03552046294638BDE0
:100530008C1BFF1F002A2CDD2DE9F84300251646F1
:100540000F460446A846606820B917F0BFFC6060FB
:100550000028FAD030F8083B721BC3F140099145DE
:10056000A8BF9146791918444A4615F09DF961686B
:100570000B884B449BB2402B4D440B8003D0AE42C2
:10058000E1DCBDE8F883042016F002FFC4F8048023
:10059000F5E770472DE9F043C56F95B0FDB1DFF881
:1005A000BC900446636FAB424DD3267D26B304F165
:1005B000140805EB85010901404610F02BFB694644
:1005C0004046502210F0AEF99DF80E1094F88020AD
:1005D00052B1029BE36719B9E56F002DE2D1002506
:1005E000284615B0BDE8F083E36F606F01338342A6
:1005F000E36728BFE267EEE74FF47A7744F202231D
:10060000144A15498DF810608DF811608DF804605A
:100610008DF80C6004A804AE0297CDF8009010F09D
:100620001FF90FCE04F1140847460FC70FCE0FC7AE
:1006300030689DF80410029A9DF80C3038602172E1
:10064000E2602374B5E70021502268461BF0CEFC1F
:100650000021BBE778240200C81FFF1F001E020014
:10066000436F99423FD82DE9F041057D94B00F4684
:10067000044685B100F1140807EB870109014046E3
:1006800010F0C8FA40465022694610F04BF9019824
:1006900014B0BDE8F0814FF47A7E144E144A154927
:1006A0008DF8105044F202238DF811508DF804504B
:1006B0008DF80C5004A804AD0096CDF808E010F0B9
:1006C000CFF80FCD04F1140846460FC60FCD0FC664
:1006D00028689DF80410029A9DF80C303060217251
:1006E000E2602374C8E70020704700BF001E0200CC
:1006F00078240200C81FFF1F2DE9F0470C46416F08
:100700008C4294B0924699464FD8067D054626B352
:1007100000F1140804EB84010901404610F07AFA54
:1007200050226946404610F0FDF850460DF10E018A
:10073000009D9DF80C401CF0D1F81C9B1D602CB94D
:10074000019BC9F8003014B0BDE8F0874FF0FF33CB
:10075000C9F8003014B0BDE8F0874FF47A7E1A4F24
:100760001A4A1B498DF8106044F202238DF811607B
:100770008DF804608DF80C6004A804AE0097CDF8E5
:1007800008E010F06DF80FCE05F1140847460FC7CA
:100790000FCE0FC730689DF80410029A9DF80C30F8
:1007A00038602972EA602B74B4E750220021684651
:1007B0001BF01CFC50460DF10E011CF08FF81C9A2A
:1007C00000231360BCE700BF001E02007824020073
:1007D000C81FFF1F2DE9F0470446A2B05030D4F8DF
:1007E0006CA00FF005FFE56B636F9D4273D8267D0B
:1007F000002E48D004F1140805EB8501090140469C
:100800000DF1380910F006FA49465022404610F022
:1008100089F8E56B237DCDF83CA01BBB334E344AF1
:1008200034498DF814304FF47A778DF815308DF8FF
:1008300008308DF81030019644F2022305A805AE69
:10084000039710F00DF80FCE47460FC70FCE0FC716
:1008500030689DF80810039A9DF8103038602172B6
:10086000E260237405EB85010901404610F0D2F9DE
:1008700049464046502210F0CFFA6FF00103E3637F
:1008800022B0BDE8F0874FF47A7E184F184A194914
:100890008DF8486044F202238DF849608DF83C6081
:1008A0008DF8446012A812AE0E97CDF840E00FF01C
:1008B000D7FF0FCE04F1140847460FC70FCE0FC75E
:1008C00030689DF83C10109A9DF8443038602172D1
:1008D000E260237490E70DF1380948465022002168
:1008E0001BF084FB04F1140894E700BF001E020013
:1008F00078240200C81FFF1F70B5044608460D4645
:100900001CF05EF823680246294620465B68BDE875
:10091000704018472DE9F043047D8FB007460E461E
:1009200091467CB100F1140806EB860109014046AE
:1009300010F070F949464046502210F06DFA0FB0A1
:10094000BDE8F0834FF47A7E124D134A13498DF8B7
:10095000144044F202238DF815408DF808408DF8BC
:10096000104005A805AC0195CDF80CE00FF078FF1C
:100970000FCC07F1140845460FC50FCC0FC52068F2
:100980009DF80810039A9DF8103028603972FA60BB
:100990003B74C9E7001E020078240200C81FFF1F35
:1009A0002DE9F0434B6F93428FB080463CD30E7DD0
:1009B0000D46144686B101F1140904EB84010901C6
:1009C000484610F027F94846502241460FF0AAFF4A
:1009D00040460FB0BDE8F0834FF47A7E164F174AB9
:1009E00017498DF8146044F202238DF815608DF8D4
:1009F00008608DF8106005A805AE0197CDF80CE0F1
:100A00000FF02EFF0FCE05F114094F460FC70FCE82
:100A10000FC730689DF80810039A9DF810303860B1
:100A20002972EA602B74C8E7502200211BF0DEFA1D
:100A300040460FB0BDE8F083001E0200782402009B
:100A4000C81FFF1F2DE9F041436F9942E4B01446DF
:100A500000F29080077D05460E46002F00F093803F
:100A600000F1140806EB86010901404610F0D2F8A7
:100A70005022404669460FF055FF009A002A7ED06A
:100A800014A82946FFF78CFF149A002A4CD0294657
:100A900028A8FFF785FF289A002A00F0A58029469C
:100AA0003CA8FFF77DFF3C9A002A00F09980294678
:100AB00050A8FFF775FF5099002900F0998028464B
:100AC0002246FFF7BFFF20461BF07AFF231813F8DA
:100AD000013C2F2B02D0484B1B8823520DF5A771E8
:100AE00020461BF005FD20461BF06AFF231813F873
:100AF000013C2F2B02D0404B1B8823520DF1FE01ED
:100B000020461BF0F5FC20461BF05AFF231813F873
:100B1000013C2F2B02D0384B1B8823520DF1AE0124
:100B200020461BF0E5FC02E0334B1B882380204667
:100B30001BF046FF231813F8013C2F2B02D02E4B3D
:100B40001B8823520DF15E0120461BF0D1FC20468C
:100B50001BF036FF231813F8013C2F2B02D0264B35
:100B60001B88235220460DF10E011BF0C1FC64B01E
:100B7000BDE8F0815022002168461BF037FA1E4B79
:100B80001B882380E3E7DFF87CE01C4A1C498DF8D2
:100B900050714FF47A7C44F202238DF851718DF834
:100BA00044718DF84C7154A854AFCDF840E1CDF8A4
:100BB00048C10FF055FE0FCF05F11408C646AEE848
:100BC0000F000FCFAEE80F0038689DF84411529A1D
:100BD0009DF84C31CEF800002972EA602B7441E791
:100BE000054B1B8823807EE7034B1B8823808AE705
:100BF000014B1B88238066E78824020078240200CA
:100C0000C81FFF1F001E02002DE9F047B1F1FF3F92
:100C100001EB81094FEA0919ADF5986D8846DFF8B7
:100C20001CA3044608BF4FF0000920E004F114079C
:100C3000494638460FF0EEFF502238460DEB0201D0
:100C40000FF070FE50220DEB0201684614F02CFEEE
:100C50009DF80C202046002A40D0019B1946002B0D
:100C60003CD023681B6B9847002800F00B81B8F13B
:100C7000FF3F02D0636F984529D8257D002DD5D13F
:100C80004FF47A7644F20223A94AAA498DF8D05348
:100C90008DF8D1538DF8C4538DF8CC53F4A8F4AD2E
:100CA000F296CDF8C0A30FF0DBFD0FCD04F11407D1
:100CB0003E460FC60FCD0FC628689DF8C413F29AA2
:100CC0009DF8CC3330602172E2602374B0E750228B
:100CD00000210DEB02001BF089F9B3E7B8F1FF3FEB
:100CE00000F0DC80B8F1000F00F07D81424628A8BA
:100CF0002146FFF755FE289A002A00F0D4803CA830
:100D00002146FFF74DFE3C9A002A00F0798150A859
:100D10002146FFF745FE509A002A00F08B8164A817
:100D20002146FFF73DFE649A002A00F07D8178A8F5
:100D30002146FFF735FE789A002A00F081818CA8C1
:100D40002146FFF72DFE8C9A002A00F07F81A0A893
:100D50002146FFF725FEA09A002A00F07D81B4A865
:100D60002146FFF71DFEB49A002A00F07B81C8A837
:100D70002146FFF715FEC89A002A00F079810DF58B
:100D80005C7921464846FFF70BFED9F80010F0AD1C
:100D9000002900F073812A462046FFF753FE2846BB
:100DA0001BF00EFE0DF2BF36335C2F2B02D0624BD0
:100DB0001B882B520DF27E3128461BF099FB2846EA
:100DC0001BF0FEFD335C2F2B02D05B4B1B882B529C
:100DD0000DF22E3128461BF08BFB28461BF0F0FD50
:100DE000335C2F2B02D0544B1B882B520DF2DE218B
:100DF00028461BF07DFB28461BF0E2FD335C2F2BC1
:100E000002D04D4B1B882B520DF28E2128461BF031
:100E10006FFB28461BF0D4FD335C2F2B02D0464BD2
:100E20001B882B520DF23E2128461BF061FB284601
:100E30001BF0C6FD335C2F2B02D03F4B1B882B527F
:100E40000DF5F77128461BF053FB28461BF0B8FD43
:100E5000335C2F2B02D0384B1B882B520DF5CF71F2
:100E600028461BF045FB28461BF0AAFD335C2F2BC0
:100E700002D0314B1B882B520DF5A77128461BF071
:100E800037FBC2E000200DF5986DBDE8F087029BAE
:100E9000C993C8AA31462046FFF73CFD01200DF555
:100EA000986DBDE8F087F0AD2F232B800DF2BF3693
:100EB00028461BF085FD335C2F2B02D01E4B1B8870
:100EC0002B520DF1AE0128461BF012FB9DF80C20B1
:100ED000002A00F0838000260DF55C792A464846FA
:100EE000334614498DF870638DF871630FF0B8FCC8
:100EF0000028C7D048460FF061FE0028C2D0009EEF
:100F000000236A46414620468DF80E30FFF702FD69
:100F10003246C8A82146FFF743FDC99DA845B6D073
:100F2000002DBBD0DFF814A00DF55C7920E000BFE8
:100F300078240200C81FFF1F88240200001E020040
:100F400004F1140705EB8501090138460FF062FE34
:100F50003846502249460FF0E5FC50224946C8A8C1
:100F600014F0A2FCCA9B984541D01D46002B95D099
:100F7000636FAB422CD3267D002EE1D14FF47A77FC
:100F800044F202233F4A40498DF8E0628DF8E16265
:100F90008DF8D4628DF8DC62B8A8B8AEB697CDF8FB
:100FA000D0A20FF05DFC0FCE04F11407BE46AEE8F0
:100FB0000F000FCEAEE80F0030689DF8D412B69A3D
:100FC0009DF8DC32CEF800002172E2602374B9E7AC
:100FD0005022002148461BF009F8BEE729462A485E
:100FE0000FF0D8FD89E7F0AD2F232B8070E7029B2F
:100FF000CA932046C8AA2946FFF78CFC012042E785
:10100000F0AD2F232B800DF2BF3628461BF0D8FC05
:10101000335C2F2B02D01D4B1B882B520DF1FE0190
:1010200028461BF065FA43E7F0AD2F232B800DF225
:10103000BF360AE7F0AD2F232B800DF2BF3612E743
:10104000F0AD2F232B800DF2BF36F0E6F0AD2F234D
:101050002B800DF2BF36DCE6F0AD2F232B800DF296
:10106000BF36C8E6F0AD2F232B800DF2BF36B4E6B5
:10107000F0AD2F232B800DF2BF36A0E62F232B805F
:101080008DE600BF78240200C81FFF1F88240200DD
:101090002DE9F043C36B8B42ADF5397D04D190F857
:1010A0003830934200F095809146884606460029E4
:1010B00063D00A4668463146FFF772FC009A002A60
:1010C00000F0AE8014A83146FFF76AFC149A002A9B
:1010D00000F0838028A83146FFF762FC289A002A96
:1010E00000F0A5803CA83146FFF75AFC3C9A002A44
:1010F00000F0B98050A83146FFF752FC509A002A00
:1011000000F0AA8064AF31463846FFF749FC3968E1
:1011100078AD002900F0AE802A463046FFF792FCF9
:1011200028461BF04DFC0DF2DF14235C2F2B02D060
:10113000524B1B882B520DF5CF7128461BF0D8F966
:1011400028461BF03DFC235C2F2B02D04B4B1B8809
:101150002B520DF5A77128461BF0CAF928461BF043
:101160002FFC235C2F2B02D0444B1B882B520DF1FC
:10117000FE0128461BF0BCF95FE078AD2F232B80E1
:1011800064AF06F1500420460FF032FA00232A46DD
:101190004FF47A713A4D3B747B743B713B73B96089
:1011A0004B4638493D6068A868AD0FF059FB0FCD3C
:1011B0000FC40FCD0FC428683979BA683B7B206013
:1011C000C6F83C8086F8389086F84410B26486F8F9
:1011D0004C300DF5397DBDE8F08378AD2F232B80A1
:1011E00064AF0DF2DF1428461BF0EAFB235C2F2BC3
:1011F00002D0224B1B882B520DF15E0128461BF0BA
:1012000077F928461BF0DCFB235C2F2B02D01B4B0D
:101210001B882B520DF10E0128461BF069F9B0E72F
:1012200078AD2F232B8064AF0DF2DF14E9E778ADA2
:101230002F232B8064AF0DF2DF1428461BF0C0FB78
:10124000235C2F2B02D00D4B1B882B520DF1AE01CE
:1012500028461BF04DF9C6E778AD2F232B8064AFED
:101260000DF2DF146CE778AD2F232B8064AF0DF205
:10127000DF1473E72F232B8052E700BF882402007E
:10128000001E0200C81FFF1FF8B504461746503461
:101290000022069E1D46FFF7FBFE394620460FF052
:1012A000B9FC324629462046BDE8F8400FF03ABB6B
:1012B0002DE9F043B1F1FF3F14BF0E460026ADF219
:1012C000C44D1D4601460446904668463246FFF727
:1012D00067FB28461BF074FB3E2805D900252846ED
:1012E0000DF2C44DBDE8F083421C29460DF15E00AD
:1012F00014F0DAFA656F277D14966B1C6367002380
:101300001593019B169301238DF85C808DF85D3059
:10131000002F00F00A8104F1140905EB8501090191
:1013200048460FF077FC14A9502248460FF074FD90
:1013300031466A4620460195FFF7ECFAB8F1000FF6
:101340000AD1204644F202222946FFF7A1FE284690
:101350000DF2C44DBDE8F083002D00F013812A4644
:1013600028A82146FFF71CFB289A002A00F02381B9
:101370003CA82146FFF714FB3C9A002A00F0148198
:1013800050A82146FFF70CFB509A002A00F01A8162
:1013900064A82146FFF704FB649A002A00F0198133
:1013A00078A82146FFF7FCFA789A002A00F0188105
:1013B0008CA82146FFF7F4FA8C9A002A00F01781D6
:1013C000A0A82146FFF7ECFAA09A002A00F01681A7
:1013D000B4A82146FFF7E4FAB49A002A00F0158178
:1013E000C8A82146FFF7DCFAC89A002A00F0148149
:1013F000DCAF21463846FFF7D3FA3968F0AE002952
:1014000000F0118120463246FFF71CFB30461BF0EE
:10141000D7FA0DF2BF34235C2F2B02D0834B1B88ED
:1014200033520DF27E3130461BF062F830461BF02D
:10143000C7FA235C2F2B02D07C4B1B8833520DF252
:101440002E3130461BF054F830461BF0B9FA235CBD
:101450002F2B02D0754B1B8833520DF2DE21304604
:101460001BF046F830461BF0ABFA235C2F2B02D062
:101470006E4B1B8833520DF28E2130461BF038F82C
:1014800030461BF09DFA235C2F2B02D0674B1B8844
:1014900033520DF23E2130461BF02AF830461BF045
:1014A0008FFA235C2F2B02D0604B1B8833520DF533
:1014B000F77130461BF01CF830461BF081FA235CB4
:1014C0002F2B02D0594B1B8833520DF5CF7130466C
:1014D0001BF00EF830461BF073FA235C2F2B02D062
:1014E000524B1B8833520DF5A77130461BF000F8A4
:1014F00030461BF065FA235C2F2B02D04B4B1B8828
:1015000033520DF1FE0130461AF0F2FF30461BF067
:1015100057FA235C2F2B02D0444B1B8833520DF11A
:10152000AE0130461AF0E4FF30E0DFF80CE1404A4B
:1015300040498DF8D0734FF47A7C44F202238DF841
:10154000D1738DF8C4738DF8CC73F4A8F4AFCDF8D3
:10155000C0E3CDF8C8C30FF083F90FCF04F114092D
:10156000CE46AEE80F000FCFAEE80F0038689DF80A
:10157000C413F29A9DF8CC33CEF800002172E260D9
:101580002374CAE6F0AE2F233380DCAF002432464A
:101590003846012327493C707C700FF003F9284638
:1015A0000DF2C44DBDE8F083F0AE2F233380DCAFE5
:1015B0000DF2BF349CE7F0AE2F233380DCAF0DF289
:1015C000BF34A3E7F0AE2F233380DCAF0DF2BF347E
:1015D00080E7F0AE2F233380DCAF0DF2BF346BE732
:1015E000F0AE2F233380DCAF0DF2BF3456E7F0AE00
:1015F0002F233380DCAF0DF2BF3441E7F0AE2F2351
:101600003380DCAF0DF2BF342CE7F0AE2F233380F4
:10161000DCAF0DF2BF3417E7F0AE2F233380DCAF21
:101620000DF2BF3402E72F233380EFE68824020057
:1016300078240200C81FFF1F001E02002DE9F04F92
:1016400090F878400126C5B0054680F87960002CF6
:1016500000F00E816B6F002B00F007814FF0000847
:10166000474606E06B6F0137BB4208F1500840F275
:10167000FC80BB42F7D32C7D002C00F0CC8005F120
:101680001406414630460FF0C5FA1CA950223046D8
:101690000FF048F99DF87C30002BE3D09DF87D4099
:1016A000002CDFD1224639462846FFF7F1FC95F899
:1016B0005030002BD6D0A24605F15009019758E0D2
:1016C000A2420CBF23460123019A08BF0D9C309211
:1016D0008DF8CC30402200230DF1CE0106A83194C4
:1016E0008DF8CD30CDF8C8A00FF0B6FC6C6F95F832
:1016F00014E0631C6B67BEF1000F2BD14FF47A7CB2
:1017000044F202237D4A7E497E4F8DF84CE013A8B7
:101710008DF84DE08DF840E08DF848E0CDF844C0FC
:101720000F970FF09DF80DF14C0EBEE80F00B44678
:10173000ACE80F00BEE80F00ACE80F00DEF80000D8
:101740009DF84010119A9DF84830CCF8000029729D
:10175000EA602B7404EB8401090130460FF05AFA59
:10176000502230A930460FF057FB06A8A2460EF0D3
:101770003FFF0024634B029322464FF47A7B494695
:1017800006A88DF818408DF819408DF80C408DF89A
:101790001440CDF810B00FF0F9FA9DF8183003F0AE
:1017A0007002002B8CD12C7D019FCDF874A00123F9
:1017B0008DF87D302CBB8DF8D0408DF8D1408DF860
:1017C000C4408DF8CC404F4C4C4A4D49309444F2C3
:1017D000022334A834ACCDF8C8B00FF041F80FCCD8
:1017E000B646AEE80F000FCCAEE80F0020689DF8BB
:1017F000C410329A9DF8CC30CEF800002972EA600D
:101800002B74414630460FF005FA1CA93046502291
:101810000FF002FB26E78DF8D0408DF8D1408DF80F
:10182000C4408DF8CC40374C344A354930944FF49D
:101830007A7644F2022334A834AC32960FF010F8D2
:101840000FCC05F11406B646AEE80F000FCCAEE89B
:101850000F0020689DF8C410329A9DF8CC30CEF865
:1018600000002972EA602B740BE745B0BDE8F08FE9
:1018700080F87860214922480FF08CF92F7D309450
:101880002F23329431948DF8CC608DF8CD406E6763
:10189000ADF8CE305FB105F11407002138460FF0E6
:1018A000B9F93846502230A90FF0B6FAD2E6154CF5
:1018B000124A13491C944FF47A7644F2022320A86A
:1018C00020AC8DF880708DF881708DF874708DF873
:1018D0007C701E960EF0C4FF0FCC05F114073E4637
:1018E0000FC60FCC0FC620689DF874101E9A9DF885
:1018F0007C3030602972EA602B74CEE778240200D5
:10190000C81FFF1F001E02002DE9F04FC3B00A469A
:101910000546894601461AA8FFF742F89DF874303B
:1019200013B19DF8754014B143B0BDE8F08F224665
:1019300049462846FFF7ACFB95F85030002BF3D012
:10194000DFF808A1274605F1500B0FE005F1140858
:1019500004EB8401090140460FF05CF94046502237
:101960002EA90FF059FA04A80EF042FE4FF47A7334
:101970000022594604A802938DF810708DF811705A
:101980008DF804708DF80C70CDF800A00FF0FEF902
:101990009DF8103003F07002002B47D0002A14BFCE
:1019A000012300238DF8C4304FF0400208BF0B9B89
:1019B000309418BF00230DF1C60104A82F93CDF871
:1019C000B8908DF8C5700FF047FB6C6F2E7D631CCF
:1019D0006B67002EBAD14FF47A7E44F20223194A83
:1019E00019498DF844608DF845608DF838608DF8A0
:1019F000406011A811AECDF83CE0CDF834A00EF057
:101A00002FFF0FCE05F11408C646AEE80F000FCE2B
:101A1000AEE80F0030689DF838100F9A9DF84030FE
:101A2000CEF800002972EA602B7491E701231AAA0C
:101A3000494628461B948DF87530FEF76BFF43B07E
:101A4000BDE8F08F78240200C81FFF1F001E0200AF
:101A50002DE9F04190F87860A2B004460D46FEB141
:101A60009DB16B1C08BF002529462046FFF74CFF9F
:101A7000012384F880302A4621460EA8FEF790FF05
:101A80000F9BE36722B0BDE8F08194F8793053B33F
:101A90000022012384F88020E36722B0BDE8F081B2
:101AA000012780F87870284928480FF073F894F8D7
:101AB00014E08DF844702F2367670E9610960F96EA
:101AC0008DF84560ADF84630BEF1000F14D004F13A
:101AD0001408002140460FF09DF8404650220EA900
:101AE0000FF09AF9BCE72046FFF7A8FD002201237A
:101AF00084F88020E367D0E7154E134A1349019616
:101B00004FF47A7744F2022305A805AE03978DF8C7
:101B100014E08DF815E08DF808E08DF810E00EF077
:101B20009FFE0FCE04F1140847460FC70FCE0FC714
:101B300030689DF80810039A9DF8103038602172C3
:101B4000E2602374C5E700BF78240200C81FFF1FAE
:101B5000001E02002DE9F0410B7882B00446002BF4
:101B60004BD008460E461AF02BFF257A01308DF82F
:101B70000200002D50D0E3680133E3603278002A80
:101B800036D0002705E0E3680233E36016F8012F42
:101B90004AB3ADF80620002DF5D1606820B916F0E3
:101BA00095F960600028FAD030F8083BC5F10202D0
:101BB000C3F140089045A8BF904618440DF10603B4
:101BC0005919424613F070FE61680B8843449BB27A
:101BD000402B45440B801AD0012DDEDD16F8012F75
:101BE000257A002AD5D10023ADF804303DB3E3684F
:101BF0000233E36002B0BDE8F081027A8DF8033071
:101C0000AAB1C3680133C36002B0BDE8F08104200B
:101C100015F0BEFB6760DFE701220DF102012046EF
:101C2000FEF788FC3278257A002AAAD1DBE7012268
:101C30000DF10301FEF77EFC02B0BDE8F081204605
:101C4000022201A9FEF776FC02B0BDE8F08100BFD8
:101C500030B5037A91B064250446ADF82650002BC8
:101C600000F0A680C36806220233C3600F920433DB
:101C70006422E360ADF824200233E3605A49204631
:101C8000FFF768FF237A0022ADF82220002B00F036
:101C9000B580E3680E220233E3600E92043341F212
:101CA0000102E360ADF82020023341F20202E3605A
:101CB000ADF81E20023341F20302E360ADF81C20B0
:101CC000023341F20402E360ADF81A20023341F21C
:101CD0000502E360ADF81820023341F20602E3602A
:101CE000ADF81620023341F20702E360ADF814208C
:101CF000023341F20802E360ADF81220023341F2F0
:101D00000902E360ADF81020023341F20B02E360F8
:101D1000ADF80E20023341F20C02E360ADF80C2066
:101D2000023341F20D02E360ADF80A20023341F2C2
:101D30001402E360ADF80820023341F21502E360BB
:101D4000ADF8062002330022E3600D920433012235
:101D5000E3600C9204334DF20242E360ADF80420DC
:101D600002330022E3600B9204330222E3600A9202
:101D700004334FF44052E360ADF80220023343F2E3
:101D80000102E360ADF800200233E360204617490A
:101D9000FFF7E0FE20461649FFF7DCFE2046154916
:101DA000FFF7D8FE20461449FFF7D4FE11B030BD2E
:101DB00002220DF12601FEF7BDFB237A06220F92C7
:101DC000002B40F0358104220FA92046FEF7B2FB1C
:101DD000237AADF82450002B40F02C81022209A96F
:101DE0002046FEF7A7FB49E78C240200A02402004E
:101DF000A8240200B0240200B424020002220DF143
:101E000022012046FEF796FB237A0E220E92002B2B
:101E100040F0128104220EA92046FEF78BFB237AA4
:101E200041F20102ADF82020002B40F00781022290
:101E300008A92046FEF77EFB237A41F20202ADF8A4
:101E40001E20002B40F0FC8002220DF11E012046D6
:101E5000FEF770FB237A41F20302ADF81C20002B41
:101E600040F0F080022207A92046FEF763FB237AA8
:101E700041F20402ADF81A20002B40F0E580022266
:101E80000DF11A012046FEF755FB237A41F20502B7
:101E9000ADF81820002B40F0D980022206A9204678
:101EA000FEF748FB237A41F20602ADF81620002B1C
:101EB00040F0CE8002220DF116012046FEF73AFBDB
:101EC000237A41F20702ADF81420002B40F0C280C3
:101ED000022205A92046FEF72DFB237A41F20802D3
:101EE000ADF81220002B40F0B78002220DF1120154
:101EF0002046FEF71FFB237A41F20902ADF81020BD
:101F0000002B40F0AB80022204A92046FEF712FB12
:101F1000237A41F20B02ADF80E20002B40F0A08096
:101F200002220DF10E012046FEF704FB237A41F256
:101F30000C02ADF80C20002B40F09480022203A983
:101F40002046FEF7F7FA237A41F20D02ADF80A2097
:101F5000002B40F0898002220DF10A012046FEF795
:101F6000E9FA237A41F21402ADF80820002B7DD162
:101F7000022202A92046FEF7DDFA257A41F2150376
:101F8000ADF80630002D73D102220DF10601204676
:101F9000FEF7D0FA237A0D95002B6BD104220DA900
:101FA0002046FEF7C7FA237A01220C92002B63D158
:101FB00004220CA92046FEF7BDFA257A4DF2024311
:101FC000ADF80430002D59D1022201A92046FEF7B8
:101FD000B1FA237A0B95002B52D104220BA920468B
:101FE000FEF7A8FA237A02250A95002B4AD104228B
:101FF0000AA92046FEF79EFA237A4FF44052ADF824
:1020000002209BB92A460DF102012046FEF792FA02
:10201000237A43F20102ADF800202BB92A46694623
:102020002046FEF787FAB1E6E368ADE6E368A5E689
:10203000E3681CE6E3681FE6E3682FE6E36833E63F
:10204000E36837E6E3683BE6E3683FE6E36843E6D8
:10205000E36847E6E3684BE6E3684FE6E36853E688
:10206000E36857E6E3685BE6E3685FE6E36863E638
:10207000E36867E6E36869E6E3686BE6E3686FE6F2
:10208000E36871E6E36873E630B504460068514AD8
:1020900003681B68934289B040F08F800422237A42
:1020A000ADF80620002B54D0E3680233E3602068CB
:1020B000494A03685B6893427AD10223257AADF8D6
:1020C0000A30002D62D0E36800220233E360ADF8ED
:1020D00008200233E3602068404A03689B6893420B
:1020E00064D13F4BD8691A79431E5002A3FB00010B
:1020F000237ACDE90601002B42D0E3680833E36080
:102100002068384A0368DB6893425CD1344D284626
:102110000FF074FD2A795502C117A5FB002305FBBA
:10212000013310461946237A04900591C3B1E36840
:102130004FF0FF320833E36003920433E36020463C
:102140002949FFF707FD20462849FFF703FD09B09D
:1021500030BD02220DF106012046FEF7EBF9A6E79D
:10216000082204A92046FEF7E5F9237A4FF0FF3252
:10217000039253BB042203A92046FEF7DBF9DEE7F6
:10218000082206A92046FEF7D5F9B9E702220DF18B
:102190000A012046FEF7CEF9237AADF80850B3B90C
:1021A000022202A92046FEF7C5F994E798479FE767
:1021B0009847002881D1012380E798470122002811
:1021C0007FF46DAF6AE79847ADE7E368B5E7E3688A
:1021D0007FE700BF9104000095040000990400000F
:1021E0008C1BFF1F11050000B8240200D03602002E
:1021F0002DE9F04F037A99B004460092002B00F0CD
:10220000D68000230293DFF8C492AD4B0193E368BC
:102210000433E3602568019A2B681B69934240F000
:10222000378195F87860002E00F01A81009A1346E5
:10223000002A35D195F87930002B00F0B0810022CA
:10224000012385F88020EB67DFF8848225682B68FE
:102250005B694B454ED1EE6FFEB10DF1100B6B6F0C
:102260009E4276D82F7D002F48D005F1140A06EB48
:102270008601090150460EF0CDFC504650225946C9
:102280000EF050FB9DF81E0095F88020DAB1069BF9
:10229000EB6708BBEE6F002EE1D119B0BDE8F08FFF
:1022A000013208BF0023194628461E46FFF72CFBC3
:1022B000012385F880303246294604A8FEF770FBDA
:1022C000059BEB67C0E7EB6F696F01338B42EB67F0
:1022D00028BFEA670028DDD0002EDED0257A0396DD
:1022E000002D3DD0E36825680433E3602B685B690B
:1022F0004B45B0D0284698470646EDE74FF47A7E26
:1023000044F202236F4A70498DF820708DF82170D5
:102310008DF814708DF81C7008A808AFCDF818E07F
:10232000CDF810800EF09CFA0FCF05F1140AD646B6
:10233000AEE80F000FCFAEE80F003B68CEF80030DC
:102340009DF814302B72069BEB609DF81C302B74AB
:102350008DE750220021584619F048FE002093E7EF
:102360002E46606820B915F0B1FD60600028FAD0F3
:1023700030F8083BC5F10402C3F140079742A8BFFB
:102380001746184403AB59193A4613F08DFA6168A1
:102390000B883B449BB2402B3D440B8002D0032D65
:1023A000DFDD53E7042014F0F3FF6660F7E7444BEA
:1023B000056801931A462B681B69934240F0F3802D
:1023C00095F87860002E00F08580009A002A63D18D
:1023D00095F87930002B00F0EA800022012385F87F
:1023E0008020EB672568DFF8E4902B68DFF8E0A039
:1023F0005B694B454FF0000B40F09780EE6F1EB3CA
:102400000DF110086B6F9E4200F2C2802F7D002FED
:1024100000F08F8005F1140706EB860109013846AC
:102420000EF0F8FB3846502241460EF07BFA9DF83C
:102430001E0095F88020002A64D0069BEB670028D8
:1024400069D1EE6F002EDDD1237ACDF808B0002BD4
:102450007FF4DDAE042202A92046FEF76BF8D9E630
:10246000012785F87870174917480EF093FB2F2342
:102470008DF81C700496069605968DF81D60ADF8D3
:102480001E30314604AA6F672846FEF743FACDE6B0
:10249000009928469847D7E6511C14BF16460026D7
:1024A00031462846FFF730FA012385F8803032465E
:1024B000294604A8FEF774FA059BEB6792E700BF74
:1024C000511A000078240200C81FFF1F9505000064
:1024D000001E0200012785F87870374937480EF052
:1024E00059FB2F238DF81C700496069605968DF8DF
:1024F0001D60ADF81E30314604AA6F672846FEF70E
:1025000009FA62E7EB6F696F01338B42EB6728BF13
:10251000EA67002895D0002E96D025682B685B6965
:102520004B450BF1010B3FF469AF2846984706462F
:10253000F1E74FF47A7E44F202231F4A1F498DF8D7
:10254000207008A88DF821708DF814708DF81C701B
:10255000CDF818E0CDF810A00EF082F90DF1200EA4
:10256000BEE80F0005F11407BC46ACE80F00BEE85A
:102570000F00ACE80F00DEF80030CCF800309DF81A
:1025800014302B72069BEB609DF81C302B7443E7D4
:1025900050220021404619F029FD002049E7284635
:1025A000FFF74CF84BE62846009998471AE728466B
:1025B000FFF744F811E700BF78240200C81FFF1F8F
:1025C0002DE9F04304460068AA4B026895699D42D4
:1025D000E5B040F0228110AD0A4624AF01462846FE
:1025E000FEF7DEF938460DF14E011AF077F90DF1DC
:1025F00014082B7B2A68C8F80020002B63D16B6875
:10260000049304AE237A01220692002B5ED0E36885
:10261000326804330132E36000F00A810022ADF831
:102620000C2002330022E360ADF80A200233326846
:10263000E3600E9204330022E360ADF80820023319
:102640000022E3600D9204330022E3600C92043315
:102650000022E3600B9204330022E3600A92043309
:102660000022E360099204330022E36008920433FD
:10267000D8F80020E36007923268A2F1FF32B2FA84
:1026800082F252090433E360ADF80E2002330022D7
:10269000E3602A6004330022E3600F920433E360B6
:1026A00039462046FFF756FA20467349FFF752FA9B
:1026B00020467149FFF74EFA20466F49FFF74AFA64
:1026C00065B0BDE8F0834FF0FF3399E706A9042217
:1026D0002046FDF72FFF336894F80890013343F24A
:1026E000010318BF0023ADF80C30B9F1000F40F022
:1026F000A88003A902222046FDF71CFF237AADF82B
:102700000A90002B40F09F8002220DF10A01204622
:10271000FDF710FF237A32680E92002B40F095806F
:102720000EA904222046FDF705FF237AADF8089094
:10273000002B40F08C8002A902222046FDF7FAFE11
:10274000237ACDF83490002B40F083800DA9042229
:102750002046FDF7EFFE237ACDF83090002B7AD19A
:102760000CA904222046FDF7E5FE237ACDF82C9033
:10277000002B72D10BA904222046FDF7DBFE237A41
:10278000CDF82890002B6AD10AA904222046FDF733
:10279000D1FE237ACDF82490002B62D109A904221E
:1027A0002046FDF7C7FE237ACDF82090002B5AD1A2
:1027B000042208A92046FDF7BDFE237AD8F80020A0
:1027C0000792002B51D107A904222046FDF7B2FE43
:1027D000336894F80880A3F1FF33B3FA83F35B09FD
:1027E000ADF80E30B8F1000F41D10DF10E0102220B
:1027F0002046FDF79FFE267AC5F80080FEB92946DF
:1028000004222046FDF796FE237A0F96ABB90FA956
:1028100004222046FDF78EFE42E704AE24AF0DF100
:10282000140833463A46CDF80080A84710ADE9E6D3
:1028300043F20102ADF80C20F3E6E3682EE7E3680B
:1028400028E7E368EDE6E368F0E6E368F2E6E368CC
:10285000F5E6E368F7E6E368F9E6E368FBE6E368D4
:10286000FDE6E368FFE6E36801E7E36804E7E368A1
:102870000CE700BFF9060000D0360200002A31D074
:102880002DE9F04104460F4616464FF000086068F7
:1028900028B9042014F0D4FC60600028F9D04188E5
:1028A00005886D1AB54228BF354637B10830014456
:1028B0002A46384612F0F8FF2F44606843880288A1
:1028C0002B449BB29A42A6EB0506438003D0002E10
:1028D000DDD1BDE8F08115F019FBC4F80480002EAD
:1028E000D5D1F6E7704700BF2DE9F04385B090469B
:1028F00006460F46684611460A2299460C9C0D9DD5
:1029000012F052FC6946504812F0A0FC684612F0E2
:10291000D9FBB8F1090F40F386800A223946684690
:1029200012F042FC6946494812F090FC684612F0E9
:10293000C9FB092F67DD0A223146684612F034FCD4
:102940006946434812F082FC684612F0BBFB092E30
:1029500049DD0A222946684612F026FC69463D48B0
:1029600012F074FC684612F0ADFB092D2BDD0A2233
:102970002146684612F018FC6946374812F066FC9A
:10298000684612F09FFB092C0EDC3449684612F0B1
:10299000D9FB3149684612F0B3FC01462E4812F0CB
:1029A0004DFC684612F08EFB0A224946684612F03A
:1029B000FBFB69462A4812F049FC684612F082FB8C
:1029C00005B0BDE8F0832549684612F0BBFB2149FC
:1029D000684612F095FC01461E4812F02FFC68462E
:1029E00012F070FBC3E71D49684612F0ABFB1849B3
:1029F000684612F085FC0146154812F01FFC684637
:102A000012F060FBA5E71549684612F09BFB0F49E1
:102A1000684612F075FC01460C4812F00FFC68463F
:102A200012F050FB87E70D49684612F08BFB064910
:102A3000684612F065FC0146034812F0FFFB684649
:102A400012F040FB69E700BF4028FF1F5819FF1F25
:102A50002819FF1F481AFF1FEC19FF1FC02402008E
:102A60001428FF1F2DE9F04383B00CF0E7FCDFF8DA
:102A70006490DFF86480C9F800000CF0CFFCC8F85F
:102A800000000CF0BBFC0F4F0F4E38600CF0E6FC62
:102A900030600CF0F3FC0D4D28600CF0FFFC2B684F
:102AA00036680B4DD9F80020D8F800100446386875
:102AB0008DE8480023462C60FFF716FF03B0BDE801
:102AC000F08300BF7C19FF1F7419FF1F7819FF1FC7
:102AD000B427FF1F9C28FF1F7019FF1F70B5FA2035
:102AE0008AB013F03BFC934B9349944800241C603C
:102AF0000CF05AF84FF6E07190480BF097F9214628
:102B00008E480BF0A9F90A2342F20E728C498B48C9
:102B10000094AA250BF0CEFE45F2713187480BF0E8
:102B200085F90095962328220A2184480BF012FA91
:102B30004FF4A076294600954FF49B7328227F48D6
:102B40000BF008FAEE23BE2252217C4800960BF0CF
:102B500001FA4FF6FF7179480BF068F9009596235A
:102B600028220A2175480BF00BFB294600954FF4EB
:102B70009B73282271480BF003FBEE23BE225221E7
:102B80006E4800960BF0FCFAA9254BF6F7516B48FE
:102B90000BF04CF90095952329220B2167480BF087
:102BA000EFFA009540F235132922AB2163480BF070
:102BB000E7FA40F23F13BF2200935321ED235F4811
:102BC0000BF0DEFA4FF6FF715C480BF02FF945F27F
:102BD00071315A480BF040F93C23102259495748AB
:102BE00000940BF067FE5A2328225749534800945B
:102BF0000BF060FE3C23D0225449504800940BF067
:102C000059FE5A23B82252494C4800940BF052FE08
:102C10007823B0224F49494800940BF04BFED22351
:102C200074224D49454800940BF044FEF02358228D
:102C30004A49424800940BF03DFE4FF487736022EE
:102C400040493E4800940BF035FE21463B480BF0CE
:102C500003F9434B1D78002D40F092804FF47841EA
:102C600036480BF0E3F840F259130A223D49334845
:102C700000950BF01FFE0CF045FC022800F092803E
:102C80004FF478412D480BF0D1F8002300930A222D
:102C90004FF4B973344929480BF00CFE02AC06AD71
:102CA00040F2BD1200924FF49B730A2123480BF0AF
:102CB00061FB2E4921480BF077FF2D49204612F089
:102CC00041FA2C49204612F01BFB002601462846FB
:102CD00012F04CFA4FF4E17342F20E72294600965C
:102CE00016480BF051FE284612F0ECF9204612F07F
:102CF000E9F92149204612F025FA2049204612F030
:102D0000FFFA0146284612F031FA40F2D11342F29E
:102D10000E722946009609480BF036FE284612F03E
:102D2000D1F9204612F0CEF9034904480BF03CFFDC
:102D30000AB070BD3C28FF1FF0420200FC19FF1FC3
:102D4000C4240200D4240200E0240200E82402008B
:102D5000F0240200F8240200042502000C250200E1
:102D6000881BFF1F1825020038250200783E02004C
:102D700060250200D819FF1F7C2502008828FF1F4C
:102D80004FF4FC6136480BF051F840F259130A2217
:102D90003449334800940BF08DFD0CF0B3FB02284E
:102DA0007FF46EAFFFF75EFE002640F2FF712C4805
:102DB0000BF03CF84FF4B9730A2200962A492848D0
:102DC0000BF078FD02AC4FF6FF7125480BF02EF8A2
:102DD0002046264912F0CAF92046254912F098FAF1
:102DE000244912F08DFA224912F092FA224912F087
:102DF00087FA06AD0146284612F0B8F94FF4C373BE
:102E00000A222946009616480BF0BEFD284612F00D
:102E100059F9204612F056F92046184912F0A6F941
:102E20002046174912F074FA164912F069FA14494B
:102E300012F06EFA144912F063FA0146284612F0B5
:102E400095F929464FF4CD730A22009604480BF0F9
:102E50009BFD284612F036F9204612F033F91FE7A1
:102E6000FC19FF1F2C2502004C2502001428FF1F0F
:102E70005C250200EC19FF1F481AFF1F2819FF1FCD
:102E8000383602005819FF1F4028FF1F2DE9F04374
:102E90008FB006A8002112F055F903AFDFF8648067
:102EA000C7F18005C7F1E0090DF115063C46281968
:102EB00012F0AAFC04F8010BB442F8D139460AA872
:102EC00012F040F90AA906A812F0C0F90AA812F0F7
:102ED000F9F800230922694606A812F03DFA1022EB
:102EE000002168461AF060FF203548F8040B0520E1
:102EF00013F034FA4D45D9D106A812F0E3F80FB01B
:102F0000BDE8F0838C24FF1F30B52B4C83B04FF409
:102F1000EB75204600210AF089FF204600954FF40A
:102F20009B734FF4CD72A0210BF088F9204645F237
:102F300071310AF07BFF009520464FF49B734FF4EC
:102F4000CD72DC210BF006F820464FF6FF710AF037
:102F50006DFF009520464FF49B734FF4CD72DC213A
:102F60000BF00EF920464BF6F7510AF05FFF40F2E6
:102F7000D51340F29B1220460093DD2140F2351319
:102F80000BF0FEF8204645F271310AF065FF00258E
:102F900020464FF6FF710AF049FF204600954FF496
:102FA000D873E92205490BF085FC2946204603B079
:102FB000BDE830400AF050BFFC19FF1F9025020009
:102FC0002DE9F04F4FF0000985B080464F4660482C
:102FD0000CF002F858B9002FF9D0B9F1000F00F049
:102FE0009B805B4801270BF0F7FF0028F3D058487F
:102FF0000BF014FF56480CF005F8A0F10A0B8246BE
:1030000053480CF041F8BBF1280F064634D8B8F10C
:10301000000F31DD342401250FE00AF007FF04F131
:1030200024030093224630230C214A4801350AF03C
:1030300091FFA84504F132041EDBA31E9E424FF00F
:103040000001444804F12602E7DB9642E5DC4FF438
:10305000FC610AF0EBFE04F12403009322463023C6
:103060000C213C480AF076FF03950135A8454FF046
:10307000010704F13204E0DAA6F5CD763C2E44D8FF
:10308000AAF1F00ABAF1460F3CD8002F9FD00021D8
:1030900030480AF0CBFE40F29913009319224FF406
:1030A0009B730A212B480BF0C9F84FF4EB734FF4D4
:1030B000CD720093DC214FF49B7326480BF0BEF8D1
:1030C00000244FF6797123480AF0B0FE4FF4CD7317
:1030D000A02221491F4800940BF0ECFB4FF4D7735A
:1030E000A0221E491B4800940BF0E4FB00944FF40F
:1030F000E173A0221A4917480BF0DCFBB9F1000F6D
:103100000ED11EE0BBF16C0F15D9002F3FF45FAF5D
:10311000B9F1000F7FF465AF4C46FFF7F5FE34B10F
:10312000C82013F01BF9039805B0BDE8F08F4FF0ED
:1031300001094F464BE737B1B9F1000F05D1CDF882
:103140000C900124E9E70397EAE700230393E7E7FC
:10315000CC27FF1FFC19FF1F98250200A0250200A5
:10316000EC2D020008B505480AF0F6FDC82013F062
:10317000F5F8BDE80840FFF7B1BC00BFFC19FF1F20
:10318000002A12DDF8B50546002017460E46044613
:10319000315D2844013412F051FBE4B20A2013F0EF
:1031A000DDF8BC422046F3DBF8BD7047F0B5002ADD
:1031B0008BB018DD0E46920002A906EB020E0F46F8
:1031C00056F8044B019401AB3C4613F8015B04F83C
:1031D000015B8B42F9D1764507F10407F0D1FFF787
:1031E000CFFF0BB0F0BD920002A9F8E7F0B5B94CE3
:1031F0000FCCB7B01EAD0FC50FCC0FC594E80F00B4
:1032000004F1100685E80F000FCE00272AAD8DF8D7
:1032100008700FC50FCE0FC596E80F00403485E843
:103220000F000FCC16AD0FC594E80F004FF0000E45
:10323000CDF814E0CDF818E085E80F00A6488DF829
:1032400010708DF811700AF087FDA449A248A44EB1
:103250000BF0AAFC4FF6E0719F480AF0E7FD462309
:1032600042F20E729F499C4800970BF023FB3946AF
:103270000AA811F067FF334606F10C000EAA13F8F6
:10328000011B02F8011B9842F9D10C220EA9202043
:10329000FFF776FF07AD2024204612F0B5FA01347F
:1032A0002C2C05F8010BF7D107A90EA811F04AFF45
:1032B0000EA90AA811F0CAFF0EA811F003FF0023FF
:1032C0000C2207A90AA812F047F8854907A819F0A7
:1032D0009BF90546642013F041F8834B0EAA581D54
:1032E00013F8011B02F8011B9842F9D105220EA91F
:1032F0000020FFF745FF642013F030F8012202A9F7
:103300004FF4A070FFF73CFF1EAF4FF400743A6813
:10331000D7F804E0BB680E922046203403220EA9A1
:10332000A4B2CDF83CE01093FFF740FFB4F5207F46
:1033300007F10C07EBD16420002413F00FF80422EE
:103340000EA94FF440700E940F9410941194FFF74F
:103350002DFF04220EA94FF448700E940F94109480
:103360001194FFF723FF642012F0F8FF2AAF4FF407
:1033700080643A68D7F804E0BB680E922046203497
:1033800003220EA9A4B2CDF83CE01093FFF70EFF84
:10339000B4F5906F07F10C07EBD1642012F0DEFF5B
:1033A0007379302B0CD000234FF4C06003220EA998
:1033B0000E930F931093FFF7F9FE642012F0CEFFE7
:1033C000F37A302B08D04FF40060012205A9FFF7F3
:1033D000EDFE642012F0C2FF012206A94FF4066040
:1033E000FFF7E4FE642012F0B9FF16AE4FF4E0647C
:1033F000326873680E922046203402220EA9A4B2CD
:103400000F93FFF7D3FEB4F5F06F06F10806EFD186
:1034100036AC022204A94FF420600027FFF7B0FE6B
:1034200004F8CC7D0122164621464FF41A60FFF7BE
:10343000A7FE2146324640F605108DF80C60FFF7D6
:103440009FFE3246214640F61510FFF799FE3246A0
:10345000214640F61610FFF793FE03231A46214635
:103460004FF410608DF80C30FFF78AFE324621468B
:1034700040F60110FFF784FE0423214632464FF444
:1034800011608DF80C30FFF77BFEADB94FF4784139
:1034900011480AF0CBFC0095462342F20E72134904
:1034A0000D480BF007FA40F6B83012F057FF0AA8A3
:1034B00011F008FE37B0F0BD4FF4FC6106480AF089
:1034C000B5FC0097462342F20E72094902480BF000
:1034D000F1F9E8E7581E0200FC19FF1FF042020054
:1034E000480CFF1FAC2502005C0CFF1FCC2502001E
:1034F000B82502002DE9F0478A4882B00AF02CFC7A
:103500004FF4FA7012F02AFF8749864800240BF026
:103510004BFB4FF6E07183480AF088FC234642F2E9
:103520000E7282497F4800940BF0C4F94FF4EB759A
:103530004FF448417B480AF079FC76234FF4CD7272
:103540000A21784800950AF005FD4FF6FF7175488D
:103550000AF06CFC76234FF4CD720A217148009575
:103560000AF00EFE4BF6F7516E480AF05FFC40F28F
:10357000D51340F29B1200930B21752369480AF082
:10358000FFFD4FF4484167480AF066FC4FF6FF71B3
:1035900064480AF04BFC4FF4D87310226449614828
:1035A00000940BF087F921465E480AF055FC4FF66F
:1035B00079715C480AF03AFC4FF4CD73A0225D4962
:1035C000584800940BF076F94FF4D773A0225A496B
:1035D000544800940BF06EF94FF4E173A022574960
:1035E000504800940BF066F940F2FF714D480AF024
:1035F0001DFC19230A2252494A4800940BF05AF93B
:103600004FF6FF7147480AF011FC3E233C224D491A
:10361000444800940BF04EF970233C224A4941483B
:1036200000940BF047F94FF6FF713E480AF0FEFB9D
:1036300032235A2200920A211A463A480AF0A0FD83
:1036400059230093332231230B2136480AF098FD89
:103650008C230093642232230A2132480AF090FD21
:103660008B230093652231230B212E480AF088FD1D
:103670000220FFF7A5FC012800F09081022800F04D
:103680008981002800F08181002440F2FF712548E3
:103690000AF0CCFB19230A2200942C4921480BF094
:1036A00009F94FF6FF711F480AF0C0FB00943E2352
:1036B0003C2227491B480BF0FDF8009470233C2264
:1036C000244918480BF0F6F80094A2233C22224922
:1036D00014480BF0EFF84FF6FF7112480AF0A6FB02
:1036E000322404F12803224600930A2132230D4894
:1036F0000AF046FD04F127030093621C31230B21DD
:10370000323408480AF03CFDC82CEAD10320FFF708
:1037100057FC032800F29681DFE810F037014401DE
:1037200048012000FC19FF1FF0420200D8250200CA
:10373000E825020098250200A0250200EC2D0200D9
:10374000F0250200002602000826020010260200D2
:10375000242602002C2602003C260200BA4C32230A
:103760006372BA4BBA4A1968BA4800230DF078F868
:10377000B94B1870002840F044810546B5480CF05C
:1037800037FF0021B5480AF051FB40F2DF130093E8
:103790001E224FF49B730A21B0480AF04FFD3121DD
:1037A0005320332232234FF02D0E00262070A170BB
:1037B0002172AA4884F80AE040F2FF713027E270D3
:1037C000E27123716371E7720AF030FB462342F223
:1037D0000E72A349A14800960BF06CF84FF6FF71EA
:1037E0009E480AF023FB0096642342F20E7296492B
:1037F0009A480BF05FF8002D40F0DC80DC25CD26E8
:10380000BE274FF0AA084FF09B094FF08C0A002406
:10381000944992480BF0C8F953460A2292498F48BE
:1038200000940BF047F84B460A2290498B480094CD
:103830000BF040F843460A228D49884800940BF06B
:1038400039F83B460A228B49844800940BF032F841
:1038500033460A228849814800940BF02BF82B4606
:103860000A2286497D4800940BF024F884497B485D
:103870000BF09AF94FF4EB7545F2713177480AF085
:10388000D5FA4FF49B734FF4C3720095AA21734885
:103890000AF060FB4FF4484170480AF0C7FA9623DB
:1038A0004FF4C37200950A216C480AF053FB4FF69F
:1038B000FF716A480AF0BAFA00954FF49B734FF40F
:1038C000C372AA2165480AF05BFC96234FF4C372C9
:1038D00000950A2161480AF053FC40F2D5154BF6D9
:1038E000F7515E480AF0A2FA40F2351340F287120F
:1038F000AB215A4800950AF043FC952340F2871209
:103900000B21564800950AF03BFC4FF6FF715348D7
:103910000AF08CFA45F2713150480AF09DFA4FF4E2
:10392000D373D02257494D4800940AF0C3FF4FF497
:1039300048414A480AF090FA5349484800944FF4E5
:10394000D37320220AF0B6FF214644480AF084FAD5
:103950004E480BF041FB0028FAD04C480BF05EFAC1
:103960004A480BF04FFB044648480BF08DFBA0F58E
:103970009B70A028A4F10A03EAD88C2BA4F1AA0416
:1039800003D98C2CE4D8FFF731FC02B0BDE8F04736
:10399000FFF7E8BB2C4C3423A37175E62A4C332384
:1039A000A37171E6284C30236372DAE6264C31238A
:1039B0006372D6E640F2FF7128480AF037FA8C238A
:1039C00042F20E720096324924480AF073FF4FF615
:1039D000FF7122480AF02AFA0096AA2342F20E72D8
:1039E0002C491E480AF066FF4FF4917540F21316F9
:1039F0004FF482774FF0F0084FF0E1094FF0D20A10
:103A000005E700230622234912480DF053F800254C
:103A100040F2FF7111480AF009FA3C230A2200958E
:103A20001D490E480AF046FF4FF6FF710B480AF099
:103A3000FDF900955A230A22164908480AF03AFF70
:103A400001259BE6004C8CE6480CFF1F1029FF1F48
:103A50004C2602006428FF1F6819FF1FFC19FF1F76
:103A600064260200783E020084260200AC26020092
:103A7000D4260200F42602001C270200442702007C
:103A8000F04202006027020068270200CC27FF1FD7
:103A9000742602005C0CFF1F54260200F8B5272391
:103AA000294C2A4E232205460121184633702270E4
:103AB00012F02AFC3078002112F012FC207801214B
:103AC00012F022FC2078002112F06AFA322D28D060
:103AD000332D14D0312D00D0F8BD1D4A1D481E4E87
:103AE0001E4C1F491F4B1060822741F29415002085
:103AF0004FF4B4723760256008601A60F8BD164A4A
:103B0000164E174C1249174B6420106046F2A81746
:103B1000022510204FF4C8723760256008601A60D3
:103B2000F8BD0D4A0D4E0E4C09490E4B6420106035
:103B300046F2A81700254FF480704FF48372376067
:103B4000256008601A60F8BDD419FF1FB424FF1F58
:103B5000B019FF1FD0010100C827FF1F4019FF1F28
:103B60000820FF1FD019FF1F08B513F085F9064B79
:103B70000021187812F014FA044B00211878BDE8DF
:103B8000084012F0ADBB00BFD419FF1FB424FF1FC3
:103B900010B5384BDB7A322B82B004463AD0332B47
:103BA00002D135480FF028F9FA2012F0D7FBFFF7C1
:103BB000DBFF002131480AF039F94FF4AC731522CC
:103BC0000093022140F23D132C480AF037FB4FF4DA
:103BD00078412A480AF02AF9002300932748284907
:103BE000962342F20E720AF065FEA01F08280FD835
:103BF000DFE800F0141F2A0E0E0E0E35050000231C
:103C0000009342F20E72C8231E491C480AF052FE6D
:103C100002B010BD1C480BF025FEC5E70023009341
:103C200042F20E72C823194914480AF043FE02B04A
:103C300010BD0023009342F20E72C82314490F48AE
:103C40000AF038FE02B010BD0023009342F20E725B
:103C5000C823104909480AF02DFE02B010BD002308
:103C6000009342F20E72C8230B4904480AF022FE68
:103C700002B010BD480CFF1F2825FF1FFC19FF1FB5
:103C80000C320200C4270200BC24FF1F7027020070
:103C9000842702009C270200B0270200FFFFFFFFDD
:103CA00030B57D4A7D4B107889B0002401211C700D
:103CB00012F016FB7A4BDB7A322B49D0332B44D1EE
:103CC000784BC821187812F06BF9AA2342F20E72D1
:103CD0007549764800940AF0EDFDD02342F20E7249
:103CE0007349724800940AF0E5FD724972480EF07B
:103CF000C9FF40F2DC5012F031FB642203A96E4888
:103D00000FF0C0F8A0425FDB6C4B6D4C18789DF84B
:103D10000C30237017F072F99FED5D0B41EC110B25
:103D200014F01AFE51EC100B17F0B6FC2378654A1C
:103D3000183BDBB2192B107000F2A380624A22FA02
:103D400003F3DB0740F19D800124204609B030BD1C
:103D50000094AA2342F20E72534954480AF0AAFD75
:103D6000D02342F20E725249009450480AF0A2FD4C
:103D70004FF47A6012F0F2FA40F2124012F0F8FFBB
:103D80004FF4FA7012F0EAFA504951480BF048FC2F
:103D9000072405464FF4FA70EDB912F0DFFA4B49EB
:103DA0004B480BF03DFC013C0546F3D121463F4812
:103DB0000AF03CF8EC230093AA224FF49B730A21EB
:103DC0003A480AF03BFA9DB90620FFF7E1FE0024CD
:103DD000204609B030BD002134480AF027F8EC2312
:103DE0000093AA224FF49B730A2130480AF026FA66
:103DF00000240094AA23A02236492C480AF05AFD38
:103E0000D023A0222A49009428480AF053FD40F606
:103E1000B83012F0A3FA4FF4FA7012F09FFA2C485F
:103E20000BF0A8FC0F2504464FF4FA70DCB912F031
:103E300095FA27480BF09EFC013D0446F4D1294633
:103E40001A4809F0F3FFEC230093AA224FF49B7366
:103E50000A2116480AF0F2F9002C7FF475AF07200A
:103E6000FFF796FE71E70021104809F0DFFFEC2311
:103E70000093AA224FF49B730A210C480AF0DEF942
:103E800063E70E20FFF784FE00245EE7AFF30080B7
:103E90000000000000000040B424FF1F0C20FF1FA2
:103EA000480CFF1FD419FF1FDC270200FC19FF1F5D
:103EB000F0270200040EFF1F2825FF1FCC19FF1F4B
:103EC0009824FF1F3828FF1F01400102F03D020027
:103ED000BC24FF1F002802002DE9F0472DED048BC4
:103EE00090B0B2EE040A012107A811F071F907A9F8
:103EF0000BA811F03BF9D0490BA811F009FA0146C3
:103F000003A811F033F90BA811F0DCF807A811F0A1
:103F1000D9F84FF6FF71C94809F088FF03A90BA82B
:103F200011F024F900230BA90093EA224FF4B47393
:103F3000C2480AF029FD0BA811F0C4F80220FFF7CF
:103F4000AFFE002840F019810124BD4E9FEDBD9ABF
:103F5000DFF82483DFEDBC8A9FEDBC8A37464FF043
:103F60002009002514B3BA480BF036F80028F9D020
:103F7000002DF7D1B6480AF051FFB5480BF042F8D2
:103F80008246B3480BF080F86FF4D27318443A2895
:103F9000E8D8AAF10A03562B00F28580AD4B09221E
:103FA0004FEA49091A600125002CDCD14FF4FA616F
:103FB000A3480EF079FE0028C0F2938097F8D13123
:103FC0004BB1DFF890A2DAF800300133032BCAF8C6
:103FD000003000F3AA80D6ED726AF4EEC96AF1EE01
:103FE00010FA5CDD9C4B96ED737A93ED006ADFF876
:103FF0008CE29FED9A5AF6EE007A37EE277AB8EE09
:10400000C66A07EE909AF8EEE75A77EE067AFDEE6A
:10401000E77A17EE903A83FB08011944DA17C2EBEE
:1040200021224FF4B47101FB1233CB1A5EF8232026
:1040300007EE102AB8EEC77A27EE267A87EE286AAE
:1040400026EE257AC7EE087A77EE857AFDEEE77AD6
:1040500017EE901A4A1EB2F59F7F84D2804ADFED98
:10406000817A52F8233007EE103AB8EEC77A67EE3D
:10407000266A86EEA87A67EE255A85EE887A77EE6C
:10408000C77AFDEEE77A17EE902AA2F11503B3F591
:104090009F7FBFF468AF694809F0ECFE63E7012039
:1040A00012F05CF95FE7AAF17503562B08D8694B4B
:1040B00009EBD97909224FEA69091A60012551E70C
:1040C000AAF1E00ABAF1560F3FF64CAF002C00F00F
:1040D000188103A810F0F6FF10B0BDEC048BBDE80A
:1040E000F08764220BA956480EF0CCFE0028FFF69C
:1040F0003AAF4FF47A62214651480EF07BFF002818
:10410000C0F2C78021464D4809F090FE4FF4A973D4
:10411000009315224FF49F73012148480AF08EF84E
:104120004FF47A7012F01AF91DE72146434809F05E
:104130007DFE4FF4A9731522009301214FF49F7364
:104140003E480AF07BF84FF494613C4809F06EFE5B
:104150000323B422A021394809F058FFDAF80030CF
:10416000082B00F39B8025464FF6E071334809F099
:104170005DFE0023CAF800302DE74FF6E0712F48AE
:1041800009F054FE384B1B78183B0024192B3FF6DE
:10419000DCAE01A252F823F0814200004B3F000048
:1041A0004B3F00004B3F00004B3F00004B3F0000E7
:1041B0004B3F00004B3F00004B3F00004B3F0000D7
:1041C0004B3F00004B3F00004B3F00004B3F0000C7
:1041D000254200004B3F0000134200004B3F00000F
:1041E0004B3F00004B3F00004B3F00004B3F0000A7
:1041F0004B3F00004B3F00004B3F000001420000DE
:1042000000944FF4C3730A2218490C480AF052FB79
:104210009BE600944FF4C3730A22154907480AF03D
:1042200049FB92E600944FF4C3730A2211490348F4
:104230000AF040FB89E600BF14280200FC19FF1FAA
:104240002825FF1F0000C84200401C4600007A4499
:10425000CC27FF1F2025FF1F580CFF1F0000204305
:1042600050380200000034439824FF1F4C280200FD
:104270002C2802003C280200B7600BB6D81E0200B2
:1042800000944FF4C3730A22224923480AF012FB18
:104290005BE60820FFF77CFC012464E607EE909AB9
:1042A0009FED1E0AF8EEE77A012180EE270A07A8A3
:1042B00010F08EFF07A90BA810F058FF18490BA8A3
:1042C00011F026F8014603A810F0B8FF0BA810F073
:1042D000F9FE07A810F0F6FE4FF6FF710E4809F040
:1042E000A5FD03A90BA810F041FF00944FF4B4738F
:1042F000EA220BA908480AF047FB0BA810F0E2FEDF
:1043000032E708480EF078FDFA2012F027F8FFF7A0
:104310002BFCDEE61C280200FC19FF1F0000A04356
:10432000142802002825FF1F2DE9F04F2DED028BE8
:1043300093B0B2EE040A01210AA810F049FF0AA9BD
:104340000EA810F013FFAB490EA810F0E1FF0146D4
:1043500006A810F00BFF0EA810F0B4FE0AA810F08B
:10436000B1FE4FF6FF71A44809F060FD002406A9D4
:104370000EA810F0FBFE4FF4B473EA220EA99E487B
:1043800000940AF001FB0EA810F09CFE4FF6E071BD
:10439000994809F04BFD984800944FF4C3730A22E2
:1043A00096490AF087FA2046FFF77AFC002840F089
:1043B000E1800124DFF86082DFF860A2DFF860921C
:1043C000DFED8F8AC3462027002504B38D480AF00D
:1043D00003FE0028F9D0002DF7D18A480AF01EFD0F
:1043E00088480AF00FFE064686480AF04DFE6FF434
:1043F000D27318443A28E8D8A6F10A03562B66D897
:1044000009237F00C8F800300125002CDED104A864
:104410000DF10F027C490BF039F99DF80F30002B9C
:10442000D4D004A80BF08EF800285CD104A80BF0BF
:104430008BF804A8B0EE408A0BF08CF800EB8000FB
:10444000400080B264283ED9704B1B6898423ADA2B
:10445000F6EE007A38EE278A6D4BFDEEC87A17EE3D
:10446000906A53F8262002FB00F28AFB0213D2174F
:10447000C2EB233307FB03F389FB0321DB17C3EBF9
:10448000A11101F19F03B3F59F7F01F1A0019DD21E
:10449000604B53F8263003FB00F08AFB0023C01763
:1044A000C0EB233307FB03F389FB0302DB17A3EB0A
:1044B000A21202F19F03B3F59F7F87D2B4324E4818
:1044C00009F0D8FC82E7012011F048FF7EE7A6F151
:1044D0007503562B3AD807EBD77709237F10C8F816
:1044E0000030012571E7D8F800300133032BC8F8FC
:1044F00000309BDD2146404809F098FC4FF4A97339
:104500001522009301214FF49F733B4809F096FE5A
:104510004FF49461384809F089FC0323B422A021A8
:10452000354809F073FD4FF6FF71334809F07EFC02
:10453000DBF80030082B2CDC25464FF6E0712E48C6
:1045400009F074FC0023C8F800306FE7E03E562EF7
:104550003FF63BAF2C480BF085F9FA2011F0FEFE38
:10456000FFF702FB06A810F0ADFD13B0BDEC028B07
:10457000BDE8F08F4FF47A7011F0F0FE22480BF096
:104580003BF900287FF416AF0820FFF701FB012458
:1045900010E707EE907AB8EEE70A012188EE800A6C
:1045A0000AA810F015FE0AA90EA810F0DFFD1149A7
:1045B0000EA810F0ADFE014606A810F03FFE0EA8B2
:1045C00010F080FD0AA810F07DFD4FF6FF710A483B
:1045D00009F02CFC06A90EA810F0C8FD00944FF4B9
:1045E000B473EA220EA904480AF0CEF90EA810F01E
:1045F00069FDA2E714280200FC19FF1F5C280200D5
:104600000000A043CC27FF1FBC24FF1F4019FF1F41
:10461000D81E0200503802002025FF1FAD8BDB683A
:10462000D34D621070B5714882B009F095FB7049A6
:104630006E4840F2DF140AF0B7FA45F271316B4868
:1046400009F0F4FB0094602340F2A5120A216748A8
:1046500009F080FC0094CB2340F2A5127521634839
:1046600009F078FC4FF49B7340F2A5120094E0210E
:104670005E4809F06FFC4FF6FF715C4809F0D6FB0D
:104680000094602340F2A5120A21584809F078FDF1
:104690000094CB2340F2A5127521544809F070FD17
:1046A0004FF49B7340F2A5120094E0214F4809F0AB
:1046B00067FD4FF4EF744BF6F7514C4809F0B6FB29
:1046C00000945F234FF4D3720B21484809F058FD42
:1046D0000094CA234FF4D3727621444809F050FD68
:1046E00040F235134FF4D3720094E1213F4809F0B2
:1046F00047FD45F271313D48002409F0ADFB4FF60E
:10470000FF713A4809F092FB4FF4DD732D223949CD
:10471000364800940AF0CEF84FF4DD7398223649FB
:10472000324800940AF0C6F84FF4DD73EB223349A7
:104730002E4800940AF0BEF821462C4809F08CFB64
:1047400013254FF6FF71294809F070FB4FF4AD7641
:104750002A462146009540F23F13244809F00AFEFC
:1047600032462146009640F23F13204809F002FEEF
:104770002A460096234621461C4809F0FBFD40F2DC
:104780003F132A461946009618481D4E1D4D09F044
:10479000F1FD23462146E122144809F037FB0323AB
:1047A000B422A021114809F031FC4FF6E0710F4806
:1047B00009F03CFB00944FF4B4730A2212490B48F1
:1047C00034702C600AF076F8104BDB7A332B08D06B
:1047D000322B01D002B070BD02B0BDE87040FFF7CF
:1047E000A3BD02B0BDE87040FFF776BBFC19FF1F08
:1047F000F04202006C2802005C25020070280200D2
:104800003028FF1F2025FF1F78280200480CFF1FBB
:1048100070B5614C82B0022500212046A56408F0E5
:1048200025FD204609F098FA2046002109F014FBE6
:104830000A215A4805F034F94FF4FA7011F08EFD50
:10484000204657490AF0B0F94FF4A27364221421AC
:10485000524805F085F920464FF6FF7109F0E6FA57
:1048600029464E480A2506F0FDF92A46DC234D4923
:104870004A48009507F0D4F80C232A4600934A4989
:104880004648EB2307F0CCF80E232A46009347490D
:104890004248FC2307F0C4F812232A4600934449F7
:1048A0003E4840F2111307F0BBF816232A46009346
:1048B00040493A4840F2291307F0B2F81C232A462F
:1048C00000933D49354840F2471307F0A9F84FF4EB
:1048D0009A734FF4BE725021304805F041F94FF4FD
:1048E0009F734FF4BE72B4212C48002605F038F9AE
:1048F00020464FF6E07109F099FA2B4642F20E720B
:1049000020462E49009609F0D5FF20464FF6FF714C
:1049100009F08CFA20462A490AF046F920461E235F
:1049200042F20E722749009609F0C4FF2046282360
:1049300042F20E722449009609F0BCFF2046322351
:1049400042F20E722149009609F0B4FF204641233D
:1049500042F20E721E49009609F0ACFF4B2342F260
:104960000E7220461B49009609F0A4FF204640F233
:10497000FF7109F05BFA009620464FF4E67342F2AD
:104980000E72154909F096FF14480AF025FB00281D
:10499000FAD002B070BD00BFFC19FF1F641BFF1FDF
:1049A000F0420200882802009C280200B028020081
:1049B000C4280200D8280200EC28020000290200C6
:1049C000783E0200142902003C29020064290200FA
:1049D0008C290200B4290200D8290200CC27FF1F2D
:1049E000F0B52DED028B85B04FF6FF715A480026C9
:1049F00009F01CFA594958480096642342F20E7295
:104A000009F058FF56480DF0B1FA4FF4FC61044626
:104A1000514809F00BFA002C00F08580642342F223
:104A20000E7250494C48009609F044FF4FF47A70DA
:104A300011F094FC4FF6FF71474809F0F7F9642331
:104A400042F20E7248494448009609F033FFA02311
:104A50000096B0224549404809F02CFF444BDF6ADC
:104A60003F0B36D007EE907A9FED428AF8EEE78A48
:104A70004FF48055340301220DF10F013E480BF035
:104A800051FF0123012808BF9DF80F20344818BFAB
:104A9000FF2221461C440DF01FFAAC42EBD107EE79
:104AA000906AF8EEE77A202267EE887A002387EE94
:104AB000A87A019200930136A0238022264805F5AA
:104AC0008055FDEEC77A17EE901A09F07DFFBE42C1
:104AD000D0D1002428480BF08BFDA0238022009425
:104AE00026491D4809F0E6FE4FF4FC611A4809F01A
:104AF0009DF90094642342F20E722149164809F090
:104B0000D9FE782342F20E721E490094124809F031
:104B1000D1FE40F6B83011F021FCFFF779FE05B068
:104B2000BDEC028BF0BD4FF478410B4809F07EF9E3
:104B3000642342F20E7214490094074809F0BAFE49
:104B40000D480BF055FD4FF47A6011F007FC05B0ED
:104B5000BDEC028BF0BD00BFFC19FF1FEC29020069
:104B6000581AFF1FFC290200102A0200242A020002
:104B70005428FF1F0000C8426428FF1F282A020093
:104B80002C2A0200402A02004C2A0200FFFFFFFFED
:104B90002DE9F043C64FC74883B000243C6009F0BC
:104BA000DBF84FF4FA7011F0D9FBC349C14809F0A2
:104BB000FBFF4FF6E071BF4809F038F90A2342F2D3
:104BC0000E72BE49BB48009409F074FEBC480DF05B
:104BD00077F94FF6E0710546B64809F027F9282322
:104BE0000A22B849B348009409F064FE4FF6FF71F9
:104BF000B04809F01BF9C5F30743EF2BEDB2009461
:104C00004FF03C034FF0320200F07481AE49A948E6
:104C100009F050FE4FF47841A64809F007F9D22375
:104C200042F20E720094A949A24809F043FEA84935
:104C3000A04809F0B9FF4FF6FF719E4809F0F6F859
:104C40000094E62342F20E72A2499A4809F032FE1D
:104C50000094F52342F20E729F49964809F02AFE0D
:104C600000944FF4827342F20E729C49914809F00D
:104C700021FE91498F4809F097FF01244FF6E0711A
:104C80008C48002609F0D2F850230A22944989481A
:104C9000009609F00FFE87484FF6FF7109F0C6F83D
:104CA000A5F11100C3B2092B76D816F0B7F99FED24
:104CB0007E0B41EC110B13F04FFE51EC100B16F074
:104CC000C3FC2023014600960193322264237948D5
:104CD00009F07AFE642300961A468249754809F065
:104CE000E9FD1A2D98BF012610D8012303FA05F516
:104CF00015F0F86840F0248115F4401940F04B811C
:104D000015F4602F40F03181002E4ED04FF4EB753A
:104D100045F27131674809F089F800954FF49B73AB
:104D20004FF4CD72AA21634809F014F94FF6FF71D0
:104D3000604809F07BF800954FF49B734FF4CD72F7
:104D4000AA215C4809F01CFA4BF6F751594809F0C2
:104D50006DF840F2D51340F29B120093AB2140F264
:104D60003513544809F00CFA45F27131514809F0F5
:104D700073F800254FF6FF714E4809F057F800957B
:104D80004FF4D873D02258494A4809F093FD294678
:104D9000484809F061F808E00096642332224A4945
:104DA000444809F087FD1A2D9FD94FF4EB754FF455
:104DB000484140483E4E09F039F896234FF4CD72F1
:104DC00000950A213B4809F0C5F84FF6FF713948B4
:104DD00009F02CF896234FF4CD7200950A2135483E
:104DE00009F0CEF94BF6F751324809F01FF840F2BE
:104DF000D51340F29B1200930B2195232D4809F007
:104E0000BFF94FF448412B4809F026F800254FF62A
:104E1000FF71284809F00AF84FF4D873202233496B
:104E20002448009509F046FD2946224809F014F867
:104E300001233B602E480AF0CFF80028FAD02C4816
:104E400009F0ECFF2A480AF0DDF8054628480AF088
:104E50001BF9A0F59B70A028ECD8A5F10A038C2BB8
:104E60004DD83B68012B11D0022BE3D10021114812
:104E700008F0DCFF40F2DF13009328224FF49B730D
:104E80000A210C4809F0DAF9FFF7AAFD094808F0F1
:104E900063FFC82011F062FA03B0BDE8F043FDF7EC
:104EA0001DBE00BFAFF30080000000000000004006
:104EB0003C28FF1FFC19FF1FF04202005C2A020081
:104EC000581AFF1F702A0200882A0200902A020046
:104ED000783E02009C2A0200BC2A0200E42A02005A
:104EE000F82A0200082B0200902502006827020021
:104EF000CC27FF1F6549664809F0DCFCBEE6AA3DE9
:104F00008C2D97D800216248DFF8BC8108F08EFF15
:104F100040F2DF13009328224FF49B730A215C4870
:104F200009F08CF94FF4FA7011F018FA3B68012B74
:104F30006DD0022B7FF47EAF56480BF059FBA5E7EE
:104F4000002540F2FF71524808F070FF009596234B
:104F50000A2251494E4809F0ADFC0095AA230A22C5
:104F60004E494B4809F0A6FCCEE64FF4784148483C
:104F700008F05CFFCDF8009096230A224849444887
:104F800009F098FCCDF80090AA230A224549404830
:104F900009F090FC09E74FF6E0713D4808F046FF44
:104FA000CDF8008096230A223D49394809F082FC59
:104FB000CDF80080AA230A223B49354809F07AFC43
:104FC000CDF80080BE230A223849314809F072FC2E
:104FD000D2230A22CDF8008035492D4809F06AFC19
:104FE00040F2FF712A4808F021FFCDF80080F0233D
:104FF0000A222949264809F05DFCCDF800804FF4CB
:1050000082730A222549224809F054FC7CE6294B88
:10501000294A19681F4800230BF022FC0546002886
:1050200054D14FF478411A4808F000FF3C2342F273
:105030000E7222491648009509F03CFC4FF6FF71AC
:10504000134808F0F3FE5A2342F20E721C4910482E
:10505000009509F02FFC6E2342F20E7216490C489F
:10506000009509F027FC822342F20E721549084888
:10507000009509F01FFC07480BF0BAFA41F288309E
:1050800011F06CF9C8F8005000E700BF802A020058
:10509000FC19FF1F6428FF1F682B02007C2B0200F5
:1050A000102B0200242B0200342B0200482B02009C
:1050B0005C2B02001029FF1F882B0200982B020096
:1050C000A02B0200AC2B02003C28FF1F002502236E
:1050D0004FF6FF718048336008F0A8FE28230A22AB
:1050E0007E497D48009509F0E5FB3C230A227C4976
:1050F0007948009509F0DEFB7A49774809F054FDBC
:1051000064230A2278497448009509F0D3FB73237D
:105110000A2276497048009509F0CCFB82230A22C6
:1051200073496D48009509F0C5FB91230A22714926
:105130006948009509F0BEFBA0230A226E49664823
:10514000009509F0B7FBAF230A226C49624800952D
:1051500009F0B0FB6A49604809F026FD4FF4EB788E
:105160004FF448415C4808F061FE4FF49B734FF4E4
:10517000CD72AA215848CDF8008008F0EBFE4FF61A
:10518000FF71554808F052FE4FF49B734FF4CD72F7
:10519000AA215148CDF8008008F0F2FF40F2D5195D
:1051A0004BF6F7514C4808F041FE40F2351340F2FF
:1051B0009B12AB214848CDF8009008F0E1FF4FF476
:1051C0004841454808F048FE4FF6FF71424808F054
:1051D0002DFE4FF4D873C0224A493F48009509F08C
:1051E00069FB29463C4808F037FE4FF494613A4881
:1051F00008F01CFE96234FF4CD720A213648CDF8F4
:10520000008008F0A7FE4FF6FF71334808F00EFE4D
:1052100096234FF4CD720A212F48CDF8008008F074
:10522000AFFF4BF6F7512C4808F000FE952340F2F3
:105230009B120B212848CDF8009008F0A1FF4FF4F5
:105240009461254808F008FE4FF6FF71224808F0E7
:10525000EDFD2D49204800954FF4D873302209F018
:1052600029FB29461C4808F0F7FD002C3FF4E2AD6D
:105270004FF47841184808F0D9FDD22342F20E725B
:1052800000952249144809F015FB1649124809F007
:105290008BFC4FF6FF71104808F0C8FD0095E6231F
:1052A00042F20E721A490C4809F004FB0095F523EE
:1052B00042F20E721749084809F0FCFA00954FF4C3
:1052C000827342F20E721449034809F0F3FA0C4952
:1052D000014809F069FCADE5FC19FF1FB82B02007D
:1052E000CC2B0200783E0200E02B0200042C0200CE
:1052F000282C0200502C02006C2C0200942C02007E
:10530000F042020068270200E8240200902A02000E
:105310009C2A0200A42C0200C82C020070B5104E7A
:1053200082B001F10A030C4605460093A1F10A027E
:1053300000F10A03A0F10A01304608F0F1FE6B1DEE
:105340002246691F3046009409F014F8631D00934B
:105350003046621F2B46294609F00CF802B070BD9A
:10536000FC19FF1F2DE9F047DFF8BCA0274F82B0E2
:105370004FF00009FF231A461946254808F046FD5C
:10538000DAF80030CDF8009042F20E722149204840
:1053900009F090FA1D4809F01FFE0028FAD01C48B9
:1053A000DAF80030CDF8009042F20E721A49002669
:1053B00009F080FA15483446354641F2883809F03C
:1053C0000BFEF0B1454511480DD1144B1449154A57
:1053D000A3FB0404A3FB0603240B1B0B0C6013604C
:1053E00002B0BDE8F08709F08FFEB7F90020B7F9E9
:1053F00002300648013514441E4409F0EDFD002832
:10540000E0D141F288339D42B4D1DEE7CC27FF1FC3
:10541000FC19FF1FD82C0200E42C02005917B7D149
:10542000E418FF1FFC26FF1F0020FF1F70B5FF239D
:1054300082B005460E46144619461A461C4808F026
:10544000E5FC31462846FFF769FF00231A46FF2195
:10545000174808F0EFFCFFF785FFFF231A461946AF
:10546000134808F0D3FC134B13491B681048002263
:10547000009242F20E7209F01DFA50231A461946A4
:105480000B4808F0C3FC31462846FFF747FF0B489E
:105490000B4A0C490C4B0068126841F8240043F891
:1054A00024200A4809F098FD0028FAD102B070BD06
:1054B000FC19FF1F0020FF1FF02C0200E418FF1F43
:1054C000FC26FF1FE818FF1F0819FF1FCC27FF1F2E
:1054D00008B5084809F080FD0028FAD1054809F010
:1054E0007BFD0028FAD0034809F076FD0028FAD1A8
:1054F00008BD00BFCC27FF1F0F4970B44C223026D7
:10550000782555240023CA720E704D708C720B736F
:1055100001F10902013100F00F03092B03F13704F7
:1055200096BF303314701370013A8A424FEA10105C
:10553000F1D170BC704700BF8024FF1F30B500233D
:10554000784D794883B01A46FF2108F05FFC2B683C
:10555000754800220D21013B0091114608F06EFEB6
:10556000FF231A461946704808F050FC00231A46DB
:10557000FF216D4808F05EFC2B686B480E2200216D
:105580000C46013B009208F0F5FE012342F20E7238
:1055900066496548009409F08DF923462246214664
:1055A000614808F047FC2B680094DC2B4FF01E0389
:1055B00071D042F20E725E495B4809F07BF93223EA
:1055C00022465C495848009409F074F93E2322466B
:1055D00059495548009409F06DF94A232246574924
:1055E0005148009409F066F95623224654494E4822
:1055F000009409F05FF96223224652494A48009418
:1056000009F058F96E2322464F494748009409F0A3
:1056100051F9862322464D494348009409F04AF93E
:10562000922322464A494048009409F043F9AA23AC
:10563000224648493C48009409F03CF9B6232246EA
:1056400045493948009409F035F94FF491732246E1
:1056500042493548009409F02DF94FF497732246DA
:105660003F493148009409F025F9FF2211462346AD
:105670002D4808F0CBFB0094E22342F20E72394928
:10568000294809F017F9FFF723FF274803B0BDE8C1
:10569000304008F061BB22463349234809F00AF93B
:1056A000224600942A2331491F4809F003F9224673
:1056B000009436232E491C4809F0FCF82246009439
:1056C00042232C49184809F0F5F8224600944E234D
:1056D0002949154809F0EEF8224600945A23274933
:1056E000114809F0E7F822460094662324490E4841
:1056F00009F0E0F822460094722322490A4809F092
:10570000D9F8224600947E231F49074809F0D2F8B1
:105710000094A22342F20E721249034809F0CAF81B
:10572000B1E700BF2C28FF1FFC19FF1FFC2C020053
:10573000F82D0200082E0200302E0200542E020026
:105740007C2E0200A42E0200CC2E0200EC2E0200C1
:10575000142F0200382F0200602F0200882F020051
:10576000AC2F0200DC2D0200242D0200402D02008F
:105770005C2D0200742D0200902D0200882E020084
:10578000AC2D0200C42D0200D42E02002DE9F04FF2
:10579000AE48AF4DAF4CA7B008F0DEFA00231A4672
:1057A000FF21AA4808F032FB2B68A84800220D21EF
:1057B000013B0091114608F041FDFF231A461946AE
:1057C000A24808F023FB00231A46FF219F4808F057
:1057D00031FB2B689D480E2200210D46013B0092B3
:1057E00008F0C8FD0095012342F20E729A499748CD
:1057F00009F060F82B462A462946944808F01AFB1F
:1058000000951E2342F20E729449904809F052F816
:105810002A4600953E2392498C4809F04BF82A46C7
:10582000009596238F49894809F044F82A46009547
:10583000A2238D49854809F03DF82A460095AE23FC
:105840008A49824809F036F8894B11AE1868FFF78B
:1058500053FE04F10B052346324613F8011F02F8EC
:10586000011BAB42F9D100234B22009381497748B9
:10587000962309F01FF8804B1868FFF73DFE754B23
:105880000DF14E0213F8011F02F8011FAB42F9D1CE
:10589000002300934B22A22376496C4809F00AF8B2
:1058A000764B1868FFF728FE0DF1590314F8012F05
:1058B00003F8012FAC42F9D10024AE234B226D49ED
:1058C0006248009408F0F6FF6D49604809F06CF9F1
:1058D000F02342F20E726B495C48009408F0EAFF34
:1058E00000944FF4827342F20E726749574808F0F1
:1058F000E1FF664809F070FB0028FAD000211AA8E1
:105900000FF020FC00211EA80FF01CFC002122A893
:105910000FF018FC80250DF14D01A1F10A0409AB2F
:1059200014F8012F03F8012B8C42F9D109A928465C
:105930000A222035FDF724FCE02D04F10B01ECD107
:10594000642010F00BFD0DF1180BCBF180054FF02A
:1059500000084FF0010A0DF122071AAB03EB08090A
:105960005C4660190FF050FF04F8010BBC42F8D1FF
:10597000594609A80FF0E6FB09A948460FF066FC56
:1059800009A80FF09FFB484600230A2203A90FF045
:10599000E3FC314603A816F037FE08F11008002892
:1059A00008BF4FF0000AB8F1300F05F1200506F1ED
:1059B0000B06D2D10021254808F038FA4FF48C7339
:1059C0000093F0224FF4EB730A21204808F036FCD4
:1059D000BAF1000F29D04FF4FC611C4808F026FAF8
:1059E0000023009342F20E724FF482732849174845
:1059F00008F060FF4FF6FF71144808F017FA002313
:105A000042F20E722349009310484FF4917308F04C
:105A100051FF22A80FF056FB1EA80FF053FB1AA847
:105A20000FF050FB27B0BDE8F08F4FF478410748E6
:105A300008F0FCF9CDF800A04FF4827342F20E7228
:105A40001549024808F036FFD4E700BFFC19FF1FD4
:105A50002C28FF1F8124FF1FD82F0200EC2F0200EB
:105A600004300200303002003830020040300200C2
:105A70003428FF1F8024FF1FE819FF1F2828FF1F5D
:105A8000F04202004830020068300200CC27FF1FBD
:105A90007C300200B830020098300200F0B50121DD
:105AA00083B0B848B84CB94DB94E07F0DFFBB548E4
:105AB00008F052F9B34809F085F82060B14809F0C0
:105AC00089F800EBD0735B100246063BB149AD4844
:105AD00033602A6009F068F8FFF730FD50231A465A
